{
  "_format": "hh-sol-artifact-1",
  "contractName": "ERC721NESImpl",
  "sourceName": "contracts/ERC721NESImpl.sol",
  "abi": [
    {
      "inputs": [],
      "stateMutability": "nonpayable",
      "type": "constructor"
    },
    {
      "inputs": [],
      "name": "ApprovalCallerNotOwnerNorApproved",
      "type": "error"
    },
    {
      "inputs": [],
      "name": "ApprovalQueryForNonexistentToken",
      "type": "error"
    },
    {
      "inputs": [],
      "name": "ApprovalToCurrentOwner",
      "type": "error"
    },
    {
      "inputs": [],
      "name": "ApproveToCaller",
      "type": "error"
    },
    {
      "inputs": [],
      "name": "BalanceQueryForZeroAddress",
      "type": "error"
    },
    {
      "inputs": [],
      "name": "MintToZeroAddress",
      "type": "error"
    },
    {
      "inputs": [],
      "name": "MintZeroQuantity",
      "type": "error"
    },
    {
      "inputs": [],
      "name": "OwnerIndexOutOfBounds",
      "type": "error"
    },
    {
      "inputs": [],
      "name": "OwnerQueryForNonexistentToken",
      "type": "error"
    },
    {
      "inputs": [],
      "name": "TokenIndexOutOfBounds",
      "type": "error"
    },
    {
      "inputs": [],
      "name": "TransferCallerNotOwnerNorApproved",
      "type": "error"
    },
    {
      "inputs": [],
      "name": "TransferFromIncorrectOwner",
      "type": "error"
    },
    {
      "inputs": [],
      "name": "TransferToNonERC721ReceiverImplementer",
      "type": "error"
    },
    {
      "inputs": [],
      "name": "TransferToZeroAddress",
      "type": "error"
    },
    {
      "inputs": [],
      "name": "URIQueryForNonexistentToken",
      "type": "error"
    },
    {
      "anonymous": false,
      "inputs": [
        {
          "indexed": true,
          "internalType": "address",
          "name": "owner",
          "type": "address"
        },
        {
          "indexed": true,
          "internalType": "address",
          "name": "approved",
          "type": "address"
        },
        {
          "indexed": true,
          "internalType": "uint256",
          "name": "tokenId",
          "type": "uint256"
        }
      ],
      "name": "Approval",
      "type": "event"
    },
    {
      "anonymous": false,
      "inputs": [
        {
          "indexed": true,
          "internalType": "address",
          "name": "owner",
          "type": "address"
        },
        {
          "indexed": true,
          "internalType": "address",
          "name": "operator",
          "type": "address"
        },
        {
          "indexed": false,
          "internalType": "bool",
          "name": "approved",
          "type": "bool"
        }
      ],
      "name": "ApprovalForAll",
      "type": "event"
    },
    {
      "anonymous": false,
      "inputs": [
        {
          "indexed": true,
          "internalType": "address",
          "name": "previousOwner",
          "type": "address"
        },
        {
          "indexed": true,
          "internalType": "address",
          "name": "newOwner",
          "type": "address"
        }
      ],
      "name": "OwnershipTransferred",
      "type": "event"
    },
    {
      "anonymous": false,
      "inputs": [
        {
          "indexed": false,
          "internalType": "uint256",
          "name": "tokenId",
          "type": "uint256"
        }
      ],
      "name": "Staked",
      "type": "event"
    },
    {
      "anonymous": false,
      "inputs": [
        {
          "indexed": true,
          "internalType": "address",
          "name": "from",
          "type": "address"
        },
        {
          "indexed": true,
          "internalType": "address",
          "name": "to",
          "type": "address"
        },
        {
          "indexed": true,
          "internalType": "uint256",
          "name": "tokenId",
          "type": "uint256"
        }
      ],
      "name": "Transfer",
      "type": "event"
    },
    {
      "anonymous": false,
      "inputs": [
        {
          "indexed": false,
          "internalType": "uint256",
          "name": "tokenId",
          "type": "uint256"
        }
      ],
      "name": "Unstaked",
      "type": "event"
    },
    {
      "inputs": [
        {
          "internalType": "address",
          "name": "to",
          "type": "address"
        },
        {
          "internalType": "uint256",
          "name": "tokenId",
          "type": "uint256"
        }
      ],
      "name": "approve",
      "outputs": [],
      "stateMutability": "nonpayable",
      "type": "function"
    },
    {
      "inputs": [
        {
          "internalType": "address",
          "name": "owner",
          "type": "address"
        }
      ],
      "name": "balanceOf",
      "outputs": [
        {
          "internalType": "uint256",
          "name": "",
          "type": "uint256"
        }
      ],
      "stateMutability": "view",
      "type": "function"
    },
    {
      "inputs": [
        {
          "internalType": "uint256",
          "name": "tokenId",
          "type": "uint256"
        }
      ],
      "name": "getApproved",
      "outputs": [
        {
          "internalType": "address",
          "name": "",
          "type": "address"
        }
      ],
      "stateMutability": "view",
      "type": "function"
    },
    {
      "inputs": [
        {
          "internalType": "address",
          "name": "owner",
          "type": "address"
        },
        {
          "internalType": "address",
          "name": "operator",
          "type": "address"
        }
      ],
      "name": "isApprovedForAll",
      "outputs": [
        {
          "internalType": "bool",
          "name": "",
          "type": "bool"
        }
      ],
      "stateMutability": "view",
      "type": "function"
    },
    {
      "inputs": [
        {
          "internalType": "uint256",
          "name": "tokenId",
          "type": "uint256"
        }
      ],
      "name": "isStaked",
      "outputs": [
        {
          "internalType": "bool",
          "name": "",
          "type": "bool"
        }
      ],
      "stateMutability": "view",
      "type": "function"
    },
    {
      "inputs": [
        {
          "internalType": "uint256",
          "name": "_quanity",
          "type": "uint256"
        }
      ],
      "name": "mint",
      "outputs": [],
      "stateMutability": "nonpayable",
      "type": "function"
    },
    {
      "inputs": [],
      "name": "name",
      "outputs": [
        {
          "internalType": "string",
          "name": "",
          "type": "string"
        }
      ],
      "stateMutability": "view",
      "type": "function"
    },
    {
      "inputs": [],
      "name": "owner",
      "outputs": [
        {
          "internalType": "address",
          "name": "",
          "type": "address"
        }
      ],
      "stateMutability": "view",
      "type": "function"
    },
    {
      "inputs": [
        {
          "internalType": "uint256",
          "name": "tokenId",
          "type": "uint256"
        }
      ],
      "name": "ownerOf",
      "outputs": [
        {
          "internalType": "address",
          "name": "",
          "type": "address"
        }
      ],
      "stateMutability": "view",
      "type": "function"
    },
    {
      "inputs": [],
      "name": "renounceOwnership",
      "outputs": [],
      "stateMutability": "nonpayable",
      "type": "function"
    },
    {
      "inputs": [
        {
          "internalType": "address",
          "name": "from",
          "type": "address"
        },
        {
          "internalType": "address",
          "name": "to",
          "type": "address"
        },
        {
          "internalType": "uint256",
          "name": "tokenId",
          "type": "uint256"
        }
      ],
      "name": "safeTransferFrom",
      "outputs": [],
      "stateMutability": "nonpayable",
      "type": "function"
    },
    {
      "inputs": [
        {
          "internalType": "address",
          "name": "from",
          "type": "address"
        },
        {
          "internalType": "address",
          "name": "to",
          "type": "address"
        },
        {
          "internalType": "uint256",
          "name": "tokenId",
          "type": "uint256"
        },
        {
          "internalType": "bytes",
          "name": "_data",
          "type": "bytes"
        }
      ],
      "name": "safeTransferFrom",
      "outputs": [],
      "stateMutability": "nonpayable",
      "type": "function"
    },
    {
      "inputs": [
        {
          "internalType": "address",
          "name": "operator",
          "type": "address"
        },
        {
          "internalType": "bool",
          "name": "approved",
          "type": "bool"
        }
      ],
      "name": "setApprovalForAll",
      "outputs": [],
      "stateMutability": "nonpayable",
      "type": "function"
    },
    {
      "inputs": [
        {
          "internalType": "address",
          "name": "_stakingController",
          "type": "address"
        }
      ],
      "name": "setStakingController",
      "outputs": [],
      "stateMutability": "nonpayable",
      "type": "function"
    },
    {
      "inputs": [
        {
          "internalType": "uint256",
          "name": "tokenId",
          "type": "uint256"
        },
        {
          "internalType": "address",
          "name": "originator",
          "type": "address"
        }
      ],
      "name": "stakeFromController",
      "outputs": [],
      "stateMutability": "nonpayable",
      "type": "function"
    },
    {
      "inputs": [],
      "name": "stakingController",
      "outputs": [
        {
          "internalType": "address",
          "name": "",
          "type": "address"
        }
      ],
      "stateMutability": "view",
      "type": "function"
    },
    {
      "inputs": [
        {
          "internalType": "bytes4",
          "name": "interfaceId",
          "type": "bytes4"
        }
      ],
      "name": "supportsInterface",
      "outputs": [
        {
          "internalType": "bool",
          "name": "",
          "type": "bool"
        }
      ],
      "stateMutability": "view",
      "type": "function"
    },
    {
      "inputs": [],
      "name": "symbol",
      "outputs": [
        {
          "internalType": "string",
          "name": "",
          "type": "string"
        }
      ],
      "stateMutability": "view",
      "type": "function"
    },
    {
      "inputs": [
        {
          "internalType": "uint256",
          "name": "index",
          "type": "uint256"
        }
      ],
      "name": "tokenByIndex",
      "outputs": [
        {
          "internalType": "uint256",
          "name": "",
          "type": "uint256"
        }
      ],
      "stateMutability": "view",
      "type": "function"
    },
    {
      "inputs": [
        {
          "internalType": "address",
          "name": "owner",
          "type": "address"
        },
        {
          "internalType": "uint256",
          "name": "index",
          "type": "uint256"
        }
      ],
      "name": "tokenOfOwnerByIndex",
      "outputs": [
        {
          "internalType": "uint256",
          "name": "",
          "type": "uint256"
        }
      ],
      "stateMutability": "view",
      "type": "function"
    },
    {
      "inputs": [
        {
          "internalType": "uint256",
          "name": "",
          "type": "uint256"
        }
      ],
      "name": "tokenToIsStaked",
      "outputs": [
        {
          "internalType": "bool",
          "name": "",
          "type": "bool"
        }
      ],
      "stateMutability": "view",
      "type": "function"
    },
    {
      "inputs": [
        {
          "internalType": "uint256",
          "name": "tokenId",
          "type": "uint256"
        }
      ],
      "name": "tokenURI",
      "outputs": [
        {
          "internalType": "string",
          "name": "",
          "type": "string"
        }
      ],
      "stateMutability": "view",
      "type": "function"
    },
    {
      "inputs": [],
      "name": "totalSupply",
      "outputs": [
        {
          "internalType": "uint256",
          "name": "",
          "type": "uint256"
        }
      ],
      "stateMutability": "view",
      "type": "function"
    },
    {
      "inputs": [
        {
          "internalType": "address",
          "name": "from",
          "type": "address"
        },
        {
          "internalType": "address",
          "name": "to",
          "type": "address"
        },
        {
          "internalType": "uint256",
          "name": "tokenId",
          "type": "uint256"
        }
      ],
      "name": "transferFrom",
      "outputs": [],
      "stateMutability": "nonpayable",
      "type": "function"
    },
    {
      "inputs": [
        {
          "internalType": "address",
          "name": "newOwner",
          "type": "address"
        }
      ],
      "name": "transferOwnership",
      "outputs": [],
      "stateMutability": "nonpayable",
      "type": "function"
    },
    {
      "inputs": [
        {
          "internalType": "uint256",
          "name": "tokenId",
          "type": "uint256"
        },
        {
          "internalType": "address",
          "name": "originator",
          "type": "address"
        }
      ],
      "name": "unstakeFromController",
      "outputs": [],
      "stateMutability": "nonpayable",
      "type": "function"
    }
  ],
  "bytecode": "0x60806040523480156200001157600080fd5b506040518060400160405280600d81526020017f4552433732314e4553494d504c000000000000000000000000000000000000008152506040518060400160405280600d81526020017f4552433732314e4553496d706c00000000000000000000000000000000000000815250816001908051906020019062000096929190620001a6565b508060029080519060200190620000af929190620001a6565b505050620000d2620000c6620000d860201b60201c565b620000e060201b60201c565b620002ba565b600033905090565b6000600960009054906101000a900473ffffffffffffffffffffffffffffffffffffffff16905081600960006101000a81548173ffffffffffffffffffffffffffffffffffffffff021916908373ffffffffffffffffffffffffffffffffffffffff1602179055508173ffffffffffffffffffffffffffffffffffffffff168173ffffffffffffffffffffffffffffffffffffffff167f8be0079c531659141344cd1fd0a4f28419497f9722a3daafe3b4186f6b6457e060405160405180910390a35050565b828054620001b49062000285565b90600052602060002090601f016020900481019282620001d8576000855562000224565b82601f10620001f357805160ff191683800117855562000224565b8280016001018555821562000224579182015b828111156200022357825182559160200191906001019062000206565b5b50905062000233919062000237565b5090565b5b808211156200025257600081600090555060010162000238565b5090565b7f4e487b7100000000000000000000000000000000000000000000000000000000600052602260045260246000fd5b600060028204905060018216806200029e57607f821691505b602082108103620002b457620002b362000256565b5b50919050565b61336a80620002ca6000396000f3fe608060405234801561001057600080fd5b506004361061018e5760003560e01c8063715018a6116100de578063a96533e911610097578063c87b56dd11610071578063c87b56dd14610493578063e66ab47d146104c3578063e985e9c5146104df578063f2fde38b1461050f5761018e565b8063a96533e914610417578063b88d4fde14610447578063baa51f86146104635761018e565b8063715018a61461037d5780638da5cb5b1461038757806395d89b41146103a55780639a350251146103c3578063a0712d68146103df578063a22cb465146103fb5761018e565b80632f745c591161014b578063592109da11610125578063592109da146102e35780636352211e146102ff57806370a082311461032f578063713e6a091461035f5761018e565b80632f745c591461026757806342842e0e146102975780634f6ccce7146102b35761018e565b806301ffc9a71461019357806306fdde03146101c3578063081812fc146101e1578063095ea7b31461021157806318160ddd1461022d57806323b872dd1461024b575b600080fd5b6101ad60048036038101906101a8919061267e565b61052b565b6040516101ba91906126c6565b60405180910390f35b6101cb610675565b6040516101d8919061277a565b60405180910390f35b6101fb60048036038101906101f691906127d2565b610707565b6040516102089190612840565b60405180910390f35b61022b60048036038101906102269190612887565b610783565b005b61023561088d565b60405161024291906128d6565b60405180910390f35b610265600480360381019061026091906128f1565b610896565b005b610281600480360381019061027c9190612887565b6108f5565b60405161028e91906128d6565b60405180910390f35b6102b160048036038101906102ac91906128f1565b610ab4565b005b6102cd60048036038101906102c891906127d2565b610b23565b6040516102da91906128d6565b60405180910390f35b6102fd60048036038101906102f89190612944565b610b6d565b005b610319600480360381019061031491906127d2565b610c80565b6040516103269190612840565b60405180910390f35b61034960048036038101906103449190612984565b610c96565b60405161035691906128d6565b60405180910390f35b610367610d75565b6040516103749190612840565b60405180910390f35b610385610d9b565b005b61038f610e23565b60405161039c9190612840565b60405180910390f35b6103ad610e4d565b6040516103ba919061277a565b60405180910390f35b6103dd60048036038101906103d89190612944565b610edf565b005b6103f960048036038101906103f491906127d2565b610ff2565b005b610415600480360381019061041091906129dd565b611011565b005b610431600480360381019061042c91906127d2565b611188565b60405161043e91906126c6565b60405180910390f35b610461600480360381019061045c9190612b52565b6111a8565b005b61047d600480360381019061047891906127d2565b611209565b60405161048a91906126c6565b60405180910390f35b6104ad60048036038101906104a891906127d2565b611233565b6040516104ba919061277a565b60405180910390f35b6104dd60048036038101906104d89190612984565b6112d1565b005b6104f960048036038101906104f49190612bd5565b611359565b60405161050691906126c6565b60405180910390f35b61052960048036038101906105249190612984565b6113ed565b005b60007f80ac58cd000000000000000000000000000000000000000000000000000000007bffffffffffffffffffffffffffffffffffffffffffffffffffffffff1916827bffffffffffffffffffffffffffffffffffffffffffffffffffffffff191614806105f657507f5b5e139f000000000000000000000000000000000000000000000000000000007bffffffffffffffffffffffffffffffffffffffffffffffffffffffff1916827bffffffffffffffffffffffffffffffffffffffffffffffffffffffff1916145b8061065e57507f780e9d63000000000000000000000000000000000000000000000000000000007bffffffffffffffffffffffffffffffffffffffffffffffffffffffff1916827bffffffffffffffffffffffffffffffffffffffffffffffffffffffff1916145b8061066e575061066d826114e4565b5b9050919050565b60606001805461068490612c44565b80601f01602080910402602001604051908101604052809291908181526020018280546106b090612c44565b80156106fd5780601f106106d2576101008083540402835291602001916106fd565b820191906000526020600020905b8154815290600101906020018083116106e057829003601f168201915b5050505050905090565b60006107128261154e565b610748576040517fcf4700e400000000000000000000000000000000000000000000000000000000815260040160405180910390fd5b6005600083815260200190815260200160002060009054906101000a900473ffffffffffffffffffffffffffffffffffffffff169050919050565b600061078e82610c80565b90508073ffffffffffffffffffffffffffffffffffffffff168373ffffffffffffffffffffffffffffffffffffffff16036107f5576040517f943f7b8c00000000000000000000000000000000000000000000000000000000815260040160405180910390fd5b8073ffffffffffffffffffffffffffffffffffffffff1661081461155b565b73ffffffffffffffffffffffffffffffffffffffff161415801561084657506108448161083f61155b565b611359565b155b1561087d576040517fcfb3b94200000000000000000000000000000000000000000000000000000000815260040160405180910390fd5b610888838383611563565b505050565b60008054905090565b600015156108a382611209565b1515146108e5576040517f08c379a00000000000000000000000000000000000000000000000000000000081526004016108dc90612ce7565b60405180910390fd5b6108f0838383611615565b505050565b600061090083610c96565b8210610938576040517f0ddac30e00000000000000000000000000000000000000000000000000000000815260040160405180910390fd5b600061094261088d565b905060008060005b83811015610a9a576000600360008381526020019081526020016000206040518060400160405290816000820160009054906101000a900473ffffffffffffffffffffffffffffffffffffffff1673ffffffffffffffffffffffffffffffffffffffff1673ffffffffffffffffffffffffffffffffffffffff1681526020016000820160149054906101000a900467ffffffffffffffff1667ffffffffffffffff1667ffffffffffffffff16815250509050600073ffffffffffffffffffffffffffffffffffffffff16816000015173ffffffffffffffffffffffffffffffffffffffff1614610a3c57806000015192505b8773ffffffffffffffffffffffffffffffffffffffff168373ffffffffffffffffffffffffffffffffffffffff1603610a8c57868403610a83578195505050505050610aae565b83806001019450505b50808060010191505061094a565b506000610aaa57610aa9612d07565b5b5050505b92915050565b60001515610ac182611209565b151514610b03576040517f08c379a0000000000000000000000000000000000000000000000000000000008152600401610afa90612ce7565b60405180910390fd5b610b1e83838360405180602001604052806000815250611625565b505050565b6000610b2d61088d565b8210610b65576040517fa723001c00000000000000000000000000000000000000000000000000000000815260040160405180910390fd5b819050919050565b600760009054906101000a900473ffffffffffffffffffffffffffffffffffffffff1673ffffffffffffffffffffffffffffffffffffffff163373ffffffffffffffffffffffffffffffffffffffff1614610bfd576040517f08c379a0000000000000000000000000000000000000000000000000000000008152600401610bf490612da8565b60405180910390fd5b8073ffffffffffffffffffffffffffffffffffffffff16610c1d83610c80565b73ffffffffffffffffffffffffffffffffffffffff1614610c73576040517f08c379a0000000000000000000000000000000000000000000000000000000008152600401610c6a90612e3a565b60405180910390fd5b610c7c82611678565b5050565b6000610c8b82611726565b600001519050919050565b60008073ffffffffffffffffffffffffffffffffffffffff168273ffffffffffffffffffffffffffffffffffffffff1603610cfd576040517f8f4eb60400000000000000000000000000000000000000000000000000000000815260040160405180910390fd5b600460008373ffffffffffffffffffffffffffffffffffffffff1673ffffffffffffffffffffffffffffffffffffffff16815260200190815260200160002060000160009054906101000a90046fffffffffffffffffffffffffffffffff166fffffffffffffffffffffffffffffffff169050919050565b600760009054906101000a900473ffffffffffffffffffffffffffffffffffffffff1681565b610da361155b565b73ffffffffffffffffffffffffffffffffffffffff16610dc1610e23565b73ffffffffffffffffffffffffffffffffffffffff1614610e17576040517f08c379a0000000000000000000000000000000000000000000000000000000008152600401610e0e90612ea6565b60405180910390fd5b610e216000611873565b565b6000600960009054906101000a900473ffffffffffffffffffffffffffffffffffffffff16905090565b606060028054610e5c90612c44565b80601f0160208091040260200160405190810160405280929190818152602001828054610e8890612c44565b8015610ed55780601f10610eaa57610100808354040283529160200191610ed5565b820191906000526020600020905b815481529060010190602001808311610eb857829003601f168201915b5050505050905090565b600760009054906101000a900473ffffffffffffffffffffffffffffffffffffffff1673ffffffffffffffffffffffffffffffffffffffff163373ffffffffffffffffffffffffffffffffffffffff1614610f6f576040517f08c379a0000000000000000000000000000000000000000000000000000000008152600401610f6690612da8565b60405180910390fd5b8073ffffffffffffffffffffffffffffffffffffffff16610f8f83610c80565b73ffffffffffffffffffffffffffffffffffffffff1614610fe5576040517f08c379a0000000000000000000000000000000000000000000000000000000008152600401610fdc90612e3a565b60405180910390fd5b610fee82611939565b5050565b61100e33826040518060200160405280600081525060006119e8565b50565b61101961155b565b73ffffffffffffffffffffffffffffffffffffffff168273ffffffffffffffffffffffffffffffffffffffff160361107d576040517fb06307db00000000000000000000000000000000000000000000000000000000815260040160405180910390fd5b806006600061108a61155b565b73ffffffffffffffffffffffffffffffffffffffff1673ffffffffffffffffffffffffffffffffffffffff16815260200190815260200160002060008473ffffffffffffffffffffffffffffffffffffffff1673ffffffffffffffffffffffffffffffffffffffff16815260200190815260200160002060006101000a81548160ff0219169083151502179055508173ffffffffffffffffffffffffffffffffffffffff1661113761155b565b73ffffffffffffffffffffffffffffffffffffffff167f17307eab39ab6107e8899845ad3d59bd9653f200f220920489ca2b5937696c318360405161117c91906126c6565b60405180910390a35050565b60086020528060005260406000206000915054906101000a900460ff1681565b600015156111b583611209565b1515146111f7576040517f08c379a00000000000000000000000000000000000000000000000000000000081526004016111ee90612ce7565b60405180910390fd5b61120384848484611625565b50505050565b60006008600083815260200190815260200160002060009054906101000a900460ff169050919050565b606061123e8261154e565b611274576040517fa14c4b5000000000000000000000000000000000000000000000000000000000815260040160405180910390fd5b600061127e611d4d565b9050600081510361129e57604051806020016040528060008152506112c9565b806112a884611d64565b6040516020016112b9929190612f02565b6040516020818303038152906040525b915050919050565b6112d961155b565b73ffffffffffffffffffffffffffffffffffffffff166112f7610e23565b73ffffffffffffffffffffffffffffffffffffffff161461134d576040517f08c379a000000000000000000000000000000000000000000000000000000000815260040161134490612ea6565b60405180910390fd5b61135681611ec4565b50565b6000600660008473ffffffffffffffffffffffffffffffffffffffff1673ffffffffffffffffffffffffffffffffffffffff16815260200190815260200160002060008373ffffffffffffffffffffffffffffffffffffffff1673ffffffffffffffffffffffffffffffffffffffff16815260200190815260200160002060009054906101000a900460ff16905092915050565b6113f561155b565b73ffffffffffffffffffffffffffffffffffffffff16611413610e23565b73ffffffffffffffffffffffffffffffffffffffff1614611469576040517f08c379a000000000000000000000000000000000000000000000000000000000815260040161146090612ea6565b60405180910390fd5b600073ffffffffffffffffffffffffffffffffffffffff168173ffffffffffffffffffffffffffffffffffffffff16036114d8576040517f08c379a00000000000000000000000000000000000000000000000000000000081526004016114cf90612f98565b60405180910390fd5b6114e181611873565b50565b60007f01ffc9a7000000000000000000000000000000000000000000000000000000007bffffffffffffffffffffffffffffffffffffffffffffffffffffffff1916827bffffffffffffffffffffffffffffffffffffffffffffffffffffffff1916149050919050565b6000805482109050919050565b600033905090565b826005600084815260200190815260200160002060006101000a81548173ffffffffffffffffffffffffffffffffffffffff021916908373ffffffffffffffffffffffffffffffffffffffff160217905550818373ffffffffffffffffffffffffffffffffffffffff168273ffffffffffffffffffffffffffffffffffffffff167f8c5be1e5ebec7d5bd14f71427d1e84f3dd0314c0f7b2291e5b200ac8c7c3b92560405160405180910390a4505050565b611620838383611f08565b505050565b611630848484611f08565b61163c8484848461242b565b611672576040517fd1a57ed600000000000000000000000000000000000000000000000000000000815260040160405180910390fd5b50505050565b61168181611209565b6116c0576040517f08c379a00000000000000000000000000000000000000000000000000000000081526004016116b790613004565b60405180910390fd5b60006008600083815260200190815260200160002060006101000a81548160ff0219169083151502179055507f11725367022c3ff288940f4b5473aa61c2da6a24af7363a1128ee2401e8983b28160405161171b91906128d6565b60405180910390a150565b61172e6125d8565b6117378261154e565b61176d576040517fdf2d9b4200000000000000000000000000000000000000000000000000000000815260040160405180910390fd5b60008290505b6000600360008381526020019081526020016000206040518060400160405290816000820160009054906101000a900473ffffffffffffffffffffffffffffffffffffffff1673ffffffffffffffffffffffffffffffffffffffff1673ffffffffffffffffffffffffffffffffffffffff1681526020016000820160149054906101000a900467ffffffffffffffff1667ffffffffffffffff1667ffffffffffffffff16815250509050600073ffffffffffffffffffffffffffffffffffffffff16816000015173ffffffffffffffffffffffffffffffffffffffff161461185f57809250505061186e565b50808060019003915050611773565b919050565b6000600960009054906101000a900473ffffffffffffffffffffffffffffffffffffffff16905081600960006101000a81548173ffffffffffffffffffffffffffffffffffffffff021916908373ffffffffffffffffffffffffffffffffffffffff1602179055508173ffffffffffffffffffffffffffffffffffffffff168173ffffffffffffffffffffffffffffffffffffffff167f8be0079c531659141344cd1fd0a4f28419497f9722a3daafe3b4186f6b6457e060405160405180910390a35050565b61194281611209565b15611982576040517f08c379a000000000000000000000000000000000000000000000000000000000815260040161197990613070565b60405180910390fd5b60016008600083815260200190815260200160002060006101000a81548160ff0219169083151502179055507feebbaa86c348cb664e392b180fd0ff2e1998af9fa833ef69a778cb0b42d3ca27816040516119dd91906128d6565b60405180910390a150565b600080549050600073ffffffffffffffffffffffffffffffffffffffff168573ffffffffffffffffffffffffffffffffffffffff1603611a54576040517f2e07630000000000000000000000000000000000000000000000000000000000815260040160405180910390fd5b60008403611a8e576040517fb562e8dd00000000000000000000000000000000000000000000000000000000815260040160405180910390fd5b611a9b60008683876125a9565b83600460008773ffffffffffffffffffffffffffffffffffffffff1673ffffffffffffffffffffffffffffffffffffffff16815260200190815260200160002060000160008282829054906101000a90046fffffffffffffffffffffffffffffffff160192506101000a8154816fffffffffffffffffffffffffffffffff02191690836fffffffffffffffffffffffffffffffff16021790555083600460008773ffffffffffffffffffffffffffffffffffffffff1673ffffffffffffffffffffffffffffffffffffffff16815260200190815260200160002060000160108282829054906101000a90046fffffffffffffffffffffffffffffffff160192506101000a8154816fffffffffffffffffffffffffffffffff02191690836fffffffffffffffffffffffffffffffff160217905550846003600083815260200190815260200160002060000160006101000a81548173ffffffffffffffffffffffffffffffffffffffff021916908373ffffffffffffffffffffffffffffffffffffffff160217905550426003600083815260200190815260200160002060000160146101000a81548167ffffffffffffffff021916908367ffffffffffffffff160217905550600081905060005b85811015611d3057818773ffffffffffffffffffffffffffffffffffffffff16600073ffffffffffffffffffffffffffffffffffffffff167fddf252ad1be2c89b69c2b068fc378daa952ba7f163c4a11628f55a4df523b3ef60405160405180910390a4838015611ce45750611ce2600088848861242b565b155b15611d1b576040517fd1a57ed600000000000000000000000000000000000000000000000000000000815260040160405180910390fd5b81806001019250508080600101915050611c69565b508060008190555050611d4660008683876125af565b5050505050565b606060405180602001604052806000815250905090565b606060008203611dab576040518060400160405280600181526020017f30000000000000000000000000000000000000000000000000000000000000008152509050611ebf565b600082905060005b60008214611ddd578080611dc6906130bf565b915050600a82611dd69190613136565b9150611db3565b60008167ffffffffffffffff811115611df957611df8612a27565b5b6040519080825280601f01601f191660200182016040528015611e2b5781602001600182028036833780820191505090505b5090505b60008514611eb857600182611e449190613167565b9150600a85611e53919061319b565b6030611e5f91906131cc565b60f81b818381518110611e7557611e74613222565b5b60200101907effffffffffffffffffffffffffffffffffffffffffffffffffffffffffffff1916908160001a905350600a85611eb19190613136565b9450611e2f565b8093505050505b919050565b80600760006101000a81548173ffffffffffffffffffffffffffffffffffffffff021916908373ffffffffffffffffffffffffffffffffffffffff16021790555050565b6000611f1382611726565b90506000816000015173ffffffffffffffffffffffffffffffffffffffff16611f3a61155b565b73ffffffffffffffffffffffffffffffffffffffff161480611f965750611f5f61155b565b73ffffffffffffffffffffffffffffffffffffffff16611f7e84610707565b73ffffffffffffffffffffffffffffffffffffffff16145b80611fb25750611fb18260000151611fac61155b565b611359565b5b905080611feb576040517f59c896be00000000000000000000000000000000000000000000000000000000815260040160405180910390fd5b8473ffffffffffffffffffffffffffffffffffffffff16826000015173ffffffffffffffffffffffffffffffffffffffff1614612054576040517fa114810000000000000000000000000000000000000000000000000000000000815260040160405180910390fd5b600073ffffffffffffffffffffffffffffffffffffffff168473ffffffffffffffffffffffffffffffffffffffff16036120ba576040517fea553b3400000000000000000000000000000000000000000000000000000000815260040160405180910390fd5b6120c785858560016125a9565b6120d76000848460000151611563565b6001600460008773ffffffffffffffffffffffffffffffffffffffff1673ffffffffffffffffffffffffffffffffffffffff16815260200190815260200160002060000160008282829054906101000a90046fffffffffffffffffffffffffffffffff160392506101000a8154816fffffffffffffffffffffffffffffffff02191690836fffffffffffffffffffffffffffffffff1602179055506001600460008673ffffffffffffffffffffffffffffffffffffffff1673ffffffffffffffffffffffffffffffffffffffff16815260200190815260200160002060000160008282829054906101000a90046fffffffffffffffffffffffffffffffff160192506101000a8154816fffffffffffffffffffffffffffffffff02191690836fffffffffffffffffffffffffffffffff160217905550836003600085815260200190815260200160002060000160006101000a81548173ffffffffffffffffffffffffffffffffffffffff021916908373ffffffffffffffffffffffffffffffffffffffff160217905550426003600085815260200190815260200160002060000160146101000a81548167ffffffffffffffff021916908367ffffffffffffffff1602179055506000600184019050600073ffffffffffffffffffffffffffffffffffffffff166003600083815260200190815260200160002060000160009054906101000a900473ffffffffffffffffffffffffffffffffffffffff1673ffffffffffffffffffffffffffffffffffffffff16036123bb5761231a8161154e565b156123ba5782600001516003600083815260200190815260200160002060000160006101000a81548173ffffffffffffffffffffffffffffffffffffffff021916908373ffffffffffffffffffffffffffffffffffffffff16021790555082602001516003600083815260200190815260200160002060000160146101000a81548167ffffffffffffffff021916908367ffffffffffffffff1602179055505b5b50828473ffffffffffffffffffffffffffffffffffffffff168673ffffffffffffffffffffffffffffffffffffffff167fddf252ad1be2c89b69c2b068fc378daa952ba7f163c4a11628f55a4df523b3ef60405160405180910390a461242485858560016125af565b5050505050565b600061244c8473ffffffffffffffffffffffffffffffffffffffff166125b5565b1561259c578373ffffffffffffffffffffffffffffffffffffffff1663150b7a0261247561155b565b8786866040518563ffffffff1660e01b815260040161249794939291906132a6565b6020604051808303816000875af19250505080156124d357506040513d601f19601f820116820180604052508101906124d09190613307565b60015b61254c573d8060008114612503576040519150601f19603f3d011682016040523d82523d6000602084013e612508565b606091505b506000815103612544576040517fd1a57ed600000000000000000000000000000000000000000000000000000000815260040160405180910390fd5b805181602001fd5b63150b7a0260e01b7bffffffffffffffffffffffffffffffffffffffffffffffffffffffff1916817bffffffffffffffffffffffffffffffffffffffffffffffffffffffff1916149150506125a1565b600190505b949350505050565b50505050565b50505050565b6000808273ffffffffffffffffffffffffffffffffffffffff163b119050919050565b6040518060400160405280600073ffffffffffffffffffffffffffffffffffffffff168152602001600067ffffffffffffffff1681525090565b6000604051905090565b600080fd5b600080fd5b60007fffffffff0000000000000000000000000000000000000000000000000000000082169050919050565b61265b81612626565b811461266657600080fd5b50565b60008135905061267881612652565b92915050565b6000602082840312156126945761269361261c565b5b60006126a284828501612669565b91505092915050565b60008115159050919050565b6126c0816126ab565b82525050565b60006020820190506126db60008301846126b7565b92915050565b600081519050919050565b600082825260208201905092915050565b60005b8381101561271b578082015181840152602081019050612700565b8381111561272a576000848401525b50505050565b6000601f19601f8301169050919050565b600061274c826126e1565b61275681856126ec565b93506127668185602086016126fd565b61276f81612730565b840191505092915050565b600060208201905081810360008301526127948184612741565b905092915050565b6000819050919050565b6127af8161279c565b81146127ba57600080fd5b50565b6000813590506127cc816127a6565b92915050565b6000602082840312156127e8576127e761261c565b5b60006127f6848285016127bd565b91505092915050565b600073ffffffffffffffffffffffffffffffffffffffff82169050919050565b600061282a826127ff565b9050919050565b61283a8161281f565b82525050565b60006020820190506128556000830184612831565b92915050565b6128648161281f565b811461286f57600080fd5b50565b6000813590506128818161285b565b92915050565b6000806040838503121561289e5761289d61261c565b5b60006128ac85828601612872565b92505060206128bd858286016127bd565b9150509250929050565b6128d08161279c565b82525050565b60006020820190506128eb60008301846128c7565b92915050565b60008060006060848603121561290a5761290961261c565b5b600061291886828701612872565b935050602061292986828701612872565b925050604061293a868287016127bd565b9150509250925092565b6000806040838503121561295b5761295a61261c565b5b6000612969858286016127bd565b925050602061297a85828601612872565b9150509250929050565b60006020828403121561299a5761299961261c565b5b60006129a884828501612872565b91505092915050565b6129ba816126ab565b81146129c557600080fd5b50565b6000813590506129d7816129b1565b92915050565b600080604083850312156129f4576129f361261c565b5b6000612a0285828601612872565b9250506020612a13858286016129c8565b9150509250929050565b600080fd5b600080fd5b7f4e487b7100000000000000000000000000000000000000000000000000000000600052604160045260246000fd5b612a5f82612730565b810181811067ffffffffffffffff82111715612a7e57612a7d612a27565b5b80604052505050565b6000612a91612612565b9050612a9d8282612a56565b919050565b600067ffffffffffffffff821115612abd57612abc612a27565b5b612ac682612730565b9050602081019050919050565b82818337600083830152505050565b6000612af5612af084612aa2565b612a87565b905082815260208101848484011115612b1157612b10612a22565b5b612b1c848285612ad3565b509392505050565b600082601f830112612b3957612b38612a1d565b5b8135612b49848260208601612ae2565b91505092915050565b60008060008060808587031215612b6c57612b6b61261c565b5b6000612b7a87828801612872565b9450506020612b8b87828801612872565b9350506040612b9c878288016127bd565b925050606085013567ffffffffffffffff811115612bbd57612bbc612621565b5b612bc987828801612b24565b91505092959194509250565b60008060408385031215612bec57612beb61261c565b5b6000612bfa85828601612872565b9250506020612c0b85828601612872565b9150509250929050565b7f4e487b7100000000000000000000000000000000000000000000000000000000600052602260045260246000fd5b60006002820490506001821680612c5c57607f821691505b602082108103612c6f57612c6e612c15565b5b50919050565b7f596f752063616e206e6f74207472616e736665722061207374616b656420746f60008201527f6b656e0000000000000000000000000000000000000000000000000000000000602082015250565b6000612cd16023836126ec565b9150612cdc82612c75565b604082019050919050565b60006020820190508181036000830152612d0081612cc4565b9050919050565b7f4e487b7100000000000000000000000000000000000000000000000000000000600052600160045260246000fd5b7f46756e6374696f6e2063616e206f6e6c792062652063616c6c65642066726f6d60008201527f207374616b696e6720636f6e74726f6c6c657220636f6e747261637400000000602082015250565b6000612d92603c836126ec565b9150612d9d82612d36565b604082019050919050565b60006020820190508181036000830152612dc181612d85565b9050919050565b7f4f726967696e61746f72206973206e6f7420746865206f776e6572206f66207460008201527f68697320746f6b656e0000000000000000000000000000000000000000000000602082015250565b6000612e246029836126ec565b9150612e2f82612dc8565b604082019050919050565b60006020820190508181036000830152612e5381612e17565b9050919050565b7f4f776e61626c653a2063616c6c6572206973206e6f7420746865206f776e6572600082015250565b6000612e906020836126ec565b9150612e9b82612e5a565b602082019050919050565b60006020820190508181036000830152612ebf81612e83565b9050919050565b600081905092915050565b6000612edc826126e1565b612ee68185612ec6565b9350612ef68185602086016126fd565b80840191505092915050565b6000612f0e8285612ed1565b9150612f1a8284612ed1565b91508190509392505050565b7f4f776e61626c653a206e6577206f776e657220697320746865207a65726f206160008201527f6464726573730000000000000000000000000000000000000000000000000000602082015250565b6000612f826026836126ec565b9150612f8d82612f26565b604082019050919050565b60006020820190508181036000830152612fb181612f75565b9050919050565b7f746f6b656e2069736e2774207374616b65640000000000000000000000000000600082015250565b6000612fee6012836126ec565b9150612ff982612fb8565b602082019050919050565b6000602082019050818103600083015261301d81612fe1565b9050919050565b7f746f6b656e20697320616c7265616479207374616b6564000000000000000000600082015250565b600061305a6017836126ec565b915061306582613024565b602082019050919050565b600060208201905081810360008301526130898161304d565b9050919050565b7f4e487b7100000000000000000000000000000000000000000000000000000000600052601160045260246000fd5b60006130ca8261279c565b91507fffffffffffffffffffffffffffffffffffffffffffffffffffffffffffffffff82036130fc576130fb613090565b5b600182019050919050565b7f4e487b7100000000000000000000000000000000000000000000000000000000600052601260045260246000fd5b60006131418261279c565b915061314c8361279c565b92508261315c5761315b613107565b5b828204905092915050565b60006131728261279c565b915061317d8361279c565b9250828210156131905761318f613090565b5b828203905092915050565b60006131a68261279c565b91506131b18361279c565b9250826131c1576131c0613107565b5b828206905092915050565b60006131d78261279c565b91506131e28361279c565b9250827fffffffffffffffffffffffffffffffffffffffffffffffffffffffffffffffff0382111561321757613216613090565b5b828201905092915050565b7f4e487b7100000000000000000000000000000000000000000000000000000000600052603260045260246000fd5b600081519050919050565b600082825260208201905092915050565b600061327882613251565b613282818561325c565b93506132928185602086016126fd565b61329b81612730565b840191505092915050565b60006080820190506132bb6000830187612831565b6132c86020830186612831565b6132d560408301856128c7565b81810360608301526132e7818461326d565b905095945050505050565b60008151905061330181612652565b92915050565b60006020828403121561331d5761331c61261c565b5b600061332b848285016132f2565b9150509291505056fea2646970667358221220091b3cdb8fb90e02e196cdd51fea8eca0f93b7479288b8c06473c089dfd6def264736f6c634300080d0033",
  "linkReferences": {},
  "deployedLinkReferences": {}
}