{
  "_format": "hh-sol-artifact-1",
  "contractName": "CoreChamber",
  "sourceName": "contracts/InstallationCoreChamber.sol",
  "abi": [
    {
      "inputs": [
        {
          "internalType": "uint256",
          "name": "_multipler",
          "type": "uint256"
        }
      ],
      "stateMutability": "nonpayable",
      "type": "constructor"
    },
    {
      "anonymous": false,
      "inputs": [
        {
          "indexed": true,
          "internalType": "address",
          "name": "previousOwner",
          "type": "address"
        },
        {
          "indexed": true,
          "internalType": "address",
          "name": "newOwner",
          "type": "address"
        }
      ],
      "name": "OwnershipTransferred",
      "type": "event"
    },
    {
      "inputs": [],
      "name": "bobotGenesis",
      "outputs": [
        {
          "internalType": "contract BobotGenesis",
          "name": "",
          "type": "address"
        }
      ],
      "stateMutability": "view",
      "type": "function"
    },
    {
      "inputs": [
        {
          "internalType": "uint256",
          "name": "tokenId",
          "type": "uint256"
        }
      ],
      "name": "checkStakeStatus",
      "outputs": [
        {
          "internalType": "uint256",
          "name": "",
          "type": "uint256"
        }
      ],
      "stateMutability": "view",
      "type": "function"
    },
    {
      "inputs": [
        {
          "internalType": "uint256",
          "name": "tokenId",
          "type": "uint256"
        }
      ],
      "name": "getCumulativeDurationStaked",
      "outputs": [
        {
          "internalType": "uint256",
          "name": "",
          "type": "uint256"
        }
      ],
      "stateMutability": "view",
      "type": "function"
    },
    {
      "inputs": [
        {
          "internalType": "uint256",
          "name": "tokenId",
          "type": "uint256"
        }
      ],
      "name": "getCurrentAdditionalBalance",
      "outputs": [
        {
          "internalType": "uint256",
          "name": "",
          "type": "uint256"
        }
      ],
      "stateMutability": "view",
      "type": "function"
    },
    {
      "inputs": [
        {
          "internalType": "uint256",
          "name": "tokenId",
          "type": "uint256"
        }
      ],
      "name": "getStakingRewards",
      "outputs": [
        {
          "internalType": "uint256",
          "name": "",
          "type": "uint256"
        }
      ],
      "stateMutability": "view",
      "type": "function"
    },
    {
      "inputs": [],
      "name": "owner",
      "outputs": [
        {
          "internalType": "address",
          "name": "",
          "type": "address"
        }
      ],
      "stateMutability": "view",
      "type": "function"
    },
    {
      "inputs": [],
      "name": "renounceOwnership",
      "outputs": [],
      "stateMutability": "nonpayable",
      "type": "function"
    },
    {
      "inputs": [
        {
          "internalType": "address",
          "name": "_bobotGenesis",
          "type": "address"
        }
      ],
      "name": "setBobotGenesis",
      "outputs": [],
      "stateMutability": "nonpayable",
      "type": "function"
    },
    {
      "inputs": [
        {
          "internalType": "uint256",
          "name": "tokenId",
          "type": "uint256"
        }
      ],
      "name": "stake",
      "outputs": [],
      "stateMutability": "nonpayable",
      "type": "function"
    },
    {
      "inputs": [
        {
          "internalType": "uint256",
          "name": "",
          "type": "uint256"
        }
      ],
      "name": "tokenToTotalDurationStaked",
      "outputs": [
        {
          "internalType": "uint256",
          "name": "",
          "type": "uint256"
        }
      ],
      "stateMutability": "view",
      "type": "function"
    },
    {
      "inputs": [
        {
          "internalType": "uint256",
          "name": "",
          "type": "uint256"
        }
      ],
      "name": "tokenToWhenStaked",
      "outputs": [
        {
          "internalType": "uint256",
          "name": "",
          "type": "uint256"
        }
      ],
      "stateMutability": "view",
      "type": "function"
    },
    {
      "inputs": [
        {
          "internalType": "address",
          "name": "newOwner",
          "type": "address"
        }
      ],
      "name": "transferOwnership",
      "outputs": [],
      "stateMutability": "nonpayable",
      "type": "function"
    },
    {
      "inputs": [
        {
          "internalType": "uint256",
          "name": "tokenId",
          "type": "uint256"
        }
      ],
      "name": "unstake",
      "outputs": [],
      "stateMutability": "nonpayable",
      "type": "function"
    }
  ],
  "bytecode": "0x6080604052600180553480156200001557600080fd5b506040516200113a3803806200113a83398181016040528101906200003b919062000175565b6200005b6200004f6200006960201b60201c565b6200007160201b60201c565b8060018190555050620001a7565b600033905090565b60008060009054906101000a900473ffffffffffffffffffffffffffffffffffffffff169050816000806101000a81548173ffffffffffffffffffffffffffffffffffffffff021916908373ffffffffffffffffffffffffffffffffffffffff1602179055508173ffffffffffffffffffffffffffffffffffffffff168173ffffffffffffffffffffffffffffffffffffffff167f8be0079c531659141344cd1fd0a4f28419497f9722a3daafe3b4186f6b6457e060405160405180910390a35050565b600080fd5b6000819050919050565b6200014f816200013a565b81146200015b57600080fd5b50565b6000815190506200016f8162000144565b92915050565b6000602082840312156200018e576200018d62000135565b5b60006200019e848285016200015e565b91505092915050565b610f8380620001b76000396000f3fe608060405234801561001057600080fd5b50600436106100cf5760003560e01c80638da5cb5b1161008c578063ad0614f911610066578063ad0614f914610210578063f1da6b9714610240578063f2fde38b14610270578063fe4c33221461028c576100cf565b80638da5cb5b146101ba578063a694fc3a146101d8578063acaa8c69146101f4576100cf565b8063067f9c10146100d457806323e9afb0146101045780632e17de78146101345780633705777914610150578063715018a614610180578063820e96291461018a575b600080fd5b6100ee60048036038101906100e99190610aa8565b6102aa565b6040516100fb9190610ae4565b60405180910390f35b61011e60048036038101906101199190610aa8565b6102c9565b60405161012b9190610ae4565b60405180910390f35b61014e60048036038101906101499190610aa8565b6102f9565b005b61016a60048036038101906101659190610aa8565b6104c6565b6040516101779190610ae4565b60405180910390f35b6101886104de565b005b6101a4600480360381019061019f9190610aa8565b610566565b6040516101b19190610ae4565b60405180910390f35b6101c2610583565b6040516101cf9190610b40565b60405180910390f35b6101f260048036038101906101ed9190610aa8565b6105ac565b005b61020e60048036038101906102099190610b87565b61075f565b005b61022a60048036038101906102259190610aa8565b61081f565b6040516102379190610ae4565b60405180910390f35b61025a60048036038101906102559190610aa8565b61086c565b6040516102679190610ae4565b60405180910390f35b61028a60048036038101906102859190610b87565b610884565b005b61029461097b565b6040516102a19190610c13565b60405180910390f35b60006001546102b8836102c9565b6102c29190610c5d565b9050919050565b60006102d48261081f565b60046000848152602001908152602001600020546102f29190610cb7565b9050919050565b3373ffffffffffffffffffffffffffffffffffffffff16600260009054906101000a900473ffffffffffffffffffffffffffffffffffffffff1673ffffffffffffffffffffffffffffffffffffffff16636352211e836040518263ffffffff1660e01b815260040161036b9190610ae4565b602060405180830381865afa158015610388573d6000803e3d6000fd5b505050506040513d601f19601f820116820180604052508101906103ac9190610d22565b73ffffffffffffffffffffffffffffffffffffffff1614610402576040517f08c379a00000000000000000000000000000000000000000000000000000000081526004016103f990610dd2565b60405180910390fd5b61040b8161081f565b60046000838152602001908152602001600020600082825461042d9190610cb7565b92505081905550600260009054906101000a900473ffffffffffffffffffffffffffffffffffffffff1673ffffffffffffffffffffffffffffffffffffffff1663592109da82336040518363ffffffff1660e01b8152600401610491929190610df2565b600060405180830381600087803b1580156104ab57600080fd5b505af11580156104bf573d6000803e3d6000fd5b5050505050565b60046020528060005260406000206000915090505481565b6104e66109a1565b73ffffffffffffffffffffffffffffffffffffffff16610504610583565b73ffffffffffffffffffffffffffffffffffffffff161461055a576040517f08c379a000000000000000000000000000000000000000000000000000000000815260040161055190610e67565b60405180910390fd5b61056460006109a9565b565b600060036000838152602001908152602001600020549050919050565b60008060009054906101000a900473ffffffffffffffffffffffffffffffffffffffff16905090565b3373ffffffffffffffffffffffffffffffffffffffff16600260009054906101000a900473ffffffffffffffffffffffffffffffffffffffff1673ffffffffffffffffffffffffffffffffffffffff16636352211e836040518263ffffffff1660e01b815260040161061e9190610ae4565b602060405180830381865afa15801561063b573d6000803e3d6000fd5b505050506040513d601f19601f8201168201806040525081019061065f9190610d22565b73ffffffffffffffffffffffffffffffffffffffff16146106b5576040517f08c379a00000000000000000000000000000000000000000000000000000000081526004016106ac90610dd2565b60405180910390fd5b436003600083815260200190815260200160002081905550600260009054906101000a900473ffffffffffffffffffffffffffffffffffffffff1673ffffffffffffffffffffffffffffffffffffffff16639a35025182336040518363ffffffff1660e01b815260040161072a929190610df2565b600060405180830381600087803b15801561074457600080fd5b505af1158015610758573d6000803e3d6000fd5b5050505050565b6107676109a1565b73ffffffffffffffffffffffffffffffffffffffff16610785610583565b73ffffffffffffffffffffffffffffffffffffffff16146107db576040517f08c379a00000000000000000000000000000000000000000000000000000000081526004016107d290610e67565b60405180910390fd5b80600260006101000a81548173ffffffffffffffffffffffffffffffffffffffff021916908373ffffffffffffffffffffffffffffffffffffffff16021790555050565b600080600360008481526020019081526020016000205411156108625760036000838152602001908152602001600020544361085b9190610e87565b9050610867565b600090505b919050565b60036020528060005260406000206000915090505481565b61088c6109a1565b73ffffffffffffffffffffffffffffffffffffffff166108aa610583565b73ffffffffffffffffffffffffffffffffffffffff1614610900576040517f08c379a00000000000000000000000000000000000000000000000000000000081526004016108f790610e67565b60405180910390fd5b600073ffffffffffffffffffffffffffffffffffffffff168173ffffffffffffffffffffffffffffffffffffffff160361096f576040517f08c379a000000000000000000000000000000000000000000000000000000000815260040161096690610f2d565b60405180910390fd5b610978816109a9565b50565b600260009054906101000a900473ffffffffffffffffffffffffffffffffffffffff1681565b600033905090565b60008060009054906101000a900473ffffffffffffffffffffffffffffffffffffffff169050816000806101000a81548173ffffffffffffffffffffffffffffffffffffffff021916908373ffffffffffffffffffffffffffffffffffffffff1602179055508173ffffffffffffffffffffffffffffffffffffffff168173ffffffffffffffffffffffffffffffffffffffff167f8be0079c531659141344cd1fd0a4f28419497f9722a3daafe3b4186f6b6457e060405160405180910390a35050565b600080fd5b6000819050919050565b610a8581610a72565b8114610a9057600080fd5b50565b600081359050610aa281610a7c565b92915050565b600060208284031215610abe57610abd610a6d565b5b6000610acc84828501610a93565b91505092915050565b610ade81610a72565b82525050565b6000602082019050610af96000830184610ad5565b92915050565b600073ffffffffffffffffffffffffffffffffffffffff82169050919050565b6000610b2a82610aff565b9050919050565b610b3a81610b1f565b82525050565b6000602082019050610b556000830184610b31565b92915050565b610b6481610b1f565b8114610b6f57600080fd5b50565b600081359050610b8181610b5b565b92915050565b600060208284031215610b9d57610b9c610a6d565b5b6000610bab84828501610b72565b91505092915050565b6000819050919050565b6000610bd9610bd4610bcf84610aff565b610bb4565b610aff565b9050919050565b6000610beb82610bbe565b9050919050565b6000610bfd82610be0565b9050919050565b610c0d81610bf2565b82525050565b6000602082019050610c286000830184610c04565b92915050565b7f4e487b7100000000000000000000000000000000000000000000000000000000600052601160045260246000fd5b6000610c6882610a72565b9150610c7383610a72565b9250817fffffffffffffffffffffffffffffffffffffffffffffffffffffffffffffffff0483118215151615610cac57610cab610c2e565b5b828202905092915050565b6000610cc282610a72565b9150610ccd83610a72565b9250827fffffffffffffffffffffffffffffffffffffffffffffffffffffffffffffffff03821115610d0257610d01610c2e565b5b828201905092915050565b600081519050610d1c81610b5b565b92915050565b600060208284031215610d3857610d37610a6d565b5b6000610d4684828501610d0d565b91505092915050565b600082825260208201905092915050565b7f596f7520617265206e6f7420746865206f776e6572206f66207468697320746f60008201527f6b656e0000000000000000000000000000000000000000000000000000000000602082015250565b6000610dbc602383610d4f565b9150610dc782610d60565b604082019050919050565b60006020820190508181036000830152610deb81610daf565b9050919050565b6000604082019050610e076000830185610ad5565b610e146020830184610b31565b9392505050565b7f4f776e61626c653a2063616c6c6572206973206e6f7420746865206f776e6572600082015250565b6000610e51602083610d4f565b9150610e5c82610e1b565b602082019050919050565b60006020820190508181036000830152610e8081610e44565b9050919050565b6000610e9282610a72565b9150610e9d83610a72565b925082821015610eb057610eaf610c2e565b5b828203905092915050565b7f4f776e61626c653a206e6577206f776e657220697320746865207a65726f206160008201527f6464726573730000000000000000000000000000000000000000000000000000602082015250565b6000610f17602683610d4f565b9150610f2282610ebb565b604082019050919050565b60006020820190508181036000830152610f4681610f0a565b905091905056fea26469706673582212204f1a5ede934bb23b4d298fc1515d858a12a494d4bf78f965f702c25455f95a8b64736f6c634300080d0033",
  "linkReferences": {},
  "deployedLinkReferences": {}
}