{
  "_format": "hh-sol-artifact-1",
  "contractName": "CoreChamber",
  "sourceName": "contracts/InstallationCoreChamber.sol",
  "abi": [
    {
      "anonymous": false,
      "inputs": [
        {
          "indexed": false,
          "internalType": "uint8",
          "name": "version",
          "type": "uint8"
        }
      ],
      "name": "Initialized",
      "type": "event"
    },
    {
      "anonymous": false,
      "inputs": [
        {
          "indexed": true,
          "internalType": "address",
          "name": "previousOwner",
          "type": "address"
        },
        {
          "indexed": true,
          "internalType": "address",
          "name": "newOwner",
          "type": "address"
        }
      ],
      "name": "OwnershipTransferred",
      "type": "event"
    },
    {
      "inputs": [],
      "name": "UnstakeAllBobots",
      "outputs": [],
      "stateMutability": "nonpayable",
      "type": "function"
    },
    {
      "inputs": [],
      "name": "WEEK",
      "outputs": [
        {
          "internalType": "uint256",
          "name": "",
          "type": "uint256"
        }
      ],
      "stateMutability": "view",
      "type": "function"
    },
    {
      "inputs": [],
      "name": "bobotGenesis",
      "outputs": [
        {
          "internalType": "contract BobotGenesis",
          "name": "",
          "type": "address"
        }
      ],
      "stateMutability": "view",
      "type": "function"
    },
    {
      "inputs": [],
      "name": "bobotMegabot",
      "outputs": [
        {
          "internalType": "contract BobotMegaBot",
          "name": "",
          "type": "address"
        }
      ],
      "stateMutability": "view",
      "type": "function"
    },
    {
      "inputs": [
        {
          "internalType": "uint256",
          "name": "_tokenId",
          "type": "uint256"
        }
      ],
      "name": "corePointsEarnedGenesis",
      "outputs": [
        {
          "internalType": "uint256",
          "name": "points",
          "type": "uint256"
        }
      ],
      "stateMutability": "view",
      "type": "function"
    },
    {
      "inputs": [
        {
          "internalType": "uint256",
          "name": "_tokenId",
          "type": "uint256"
        }
      ],
      "name": "corePointsEarnedMegabot",
      "outputs": [
        {
          "internalType": "uint256",
          "name": "points",
          "type": "uint256"
        }
      ],
      "stateMutability": "view",
      "type": "function"
    },
    {
      "inputs": [],
      "name": "corePointsPerWeekGenesis",
      "outputs": [
        {
          "internalType": "uint256",
          "name": "",
          "type": "uint256"
        }
      ],
      "stateMutability": "view",
      "type": "function"
    },
    {
      "inputs": [],
      "name": "corePointsPerWeekMegabot",
      "outputs": [
        {
          "internalType": "uint256",
          "name": "",
          "type": "uint256"
        }
      ],
      "stateMutability": "view",
      "type": "function"
    },
    {
      "inputs": [],
      "name": "genesisSupply",
      "outputs": [
        {
          "internalType": "uint256",
          "name": "",
          "type": "uint256"
        }
      ],
      "stateMutability": "view",
      "type": "function"
    },
    {
      "inputs": [
        {
          "internalType": "uint256",
          "name": "",
          "type": "uint256"
        }
      ],
      "name": "genesisTimestampJoined",
      "outputs": [
        {
          "internalType": "uint256",
          "name": "",
          "type": "uint256"
        }
      ],
      "stateMutability": "view",
      "type": "function"
    },
    {
      "inputs": [],
      "name": "initialize",
      "outputs": [],
      "stateMutability": "nonpayable",
      "type": "function"
    },
    {
      "inputs": [
        {
          "internalType": "uint256",
          "name": "_tokenId",
          "type": "uint256"
        }
      ],
      "name": "isAtCoreChamberGenesis",
      "outputs": [
        {
          "internalType": "bool",
          "name": "",
          "type": "bool"
        }
      ],
      "stateMutability": "view",
      "type": "function"
    },
    {
      "inputs": [
        {
          "internalType": "uint256",
          "name": "_tokenId",
          "type": "uint256"
        }
      ],
      "name": "isAtCoreChamberMegabot",
      "outputs": [
        {
          "internalType": "bool",
          "name": "",
          "type": "bool"
        }
      ],
      "stateMutability": "view",
      "type": "function"
    },
    {
      "inputs": [],
      "name": "lastRewardTimestamp",
      "outputs": [
        {
          "internalType": "uint256",
          "name": "",
          "type": "uint256"
        }
      ],
      "stateMutability": "view",
      "type": "function"
    },
    {
      "inputs": [],
      "name": "megabotSupply",
      "outputs": [
        {
          "internalType": "uint256",
          "name": "",
          "type": "uint256"
        }
      ],
      "stateMutability": "view",
      "type": "function"
    },
    {
      "inputs": [
        {
          "internalType": "uint256",
          "name": "",
          "type": "uint256"
        }
      ],
      "name": "megabotTimestampJoined",
      "outputs": [
        {
          "internalType": "uint256",
          "name": "",
          "type": "uint256"
        }
      ],
      "stateMutability": "view",
      "type": "function"
    },
    {
      "inputs": [],
      "name": "owner",
      "outputs": [
        {
          "internalType": "address",
          "name": "",
          "type": "address"
        }
      ],
      "stateMutability": "view",
      "type": "function"
    },
    {
      "inputs": [],
      "name": "renounceOwnership",
      "outputs": [],
      "stateMutability": "nonpayable",
      "type": "function"
    },
    {
      "inputs": [
        {
          "internalType": "address",
          "name": "_bobotGenesis",
          "type": "address"
        }
      ],
      "name": "setBobotGenesis",
      "outputs": [],
      "stateMutability": "nonpayable",
      "type": "function"
    },
    {
      "inputs": [
        {
          "internalType": "address",
          "name": "_bobotMegabot",
          "type": "address"
        }
      ],
      "name": "setBobotMegabot",
      "outputs": [],
      "stateMutability": "nonpayable",
      "type": "function"
    },
    {
      "inputs": [
        {
          "internalType": "uint256",
          "name": "_corePointsPerWeekGenesis",
          "type": "uint256"
        }
      ],
      "name": "setCorePointsPerWeekGenesis",
      "outputs": [],
      "stateMutability": "nonpayable",
      "type": "function"
    },
    {
      "inputs": [
        {
          "internalType": "uint256",
          "name": "_corePointsPerWeekMegabot",
          "type": "uint256"
        }
      ],
      "name": "setCorePointsPerWeekMegabot",
      "outputs": [],
      "stateMutability": "nonpayable",
      "type": "function"
    },
    {
      "inputs": [
        {
          "internalType": "uint256",
          "name": "_tokenId",
          "type": "uint256"
        }
      ],
      "name": "stakeGenesis",
      "outputs": [],
      "stateMutability": "nonpayable",
      "type": "function"
    },
    {
      "inputs": [
        {
          "internalType": "uint256",
          "name": "_tokenId",
          "type": "uint256"
        }
      ],
      "name": "stakeMegabot",
      "outputs": [],
      "stateMutability": "nonpayable",
      "type": "function"
    },
    {
      "inputs": [],
      "name": "totalCorePoints",
      "outputs": [
        {
          "internalType": "uint256",
          "name": "",
          "type": "uint256"
        }
      ],
      "stateMutability": "view",
      "type": "function"
    },
    {
      "inputs": [],
      "name": "totalCorePointsStored",
      "outputs": [
        {
          "internalType": "uint256",
          "name": "",
          "type": "uint256"
        }
      ],
      "stateMutability": "view",
      "type": "function"
    },
    {
      "inputs": [
        {
          "internalType": "address",
          "name": "newOwner",
          "type": "address"
        }
      ],
      "name": "transferOwnership",
      "outputs": [],
      "stateMutability": "nonpayable",
      "type": "function"
    },
    {
      "inputs": [
        {
          "internalType": "uint256",
          "name": "_tokenId",
          "type": "uint256"
        }
      ],
      "name": "unstakeGenesis",
      "outputs": [],
      "stateMutability": "nonpayable",
      "type": "function"
    },
    {
      "inputs": [
        {
          "internalType": "uint256",
          "name": "_tokenId",
          "type": "uint256"
        }
      ],
      "name": "unstakeMegabot",
      "outputs": [],
      "stateMutability": "nonpayable",
      "type": "function"
    }
  ],
  "bytecode": "0x608060405234801561001057600080fd5b50612536806100206000396000f3fe608060405234801561001057600080fd5b50600436106101cf5760003560e01c80639c47485b11610104578063df38d665116100a2578063f2fde38b11610071578063f2fde38b146104e2578063f4359ce5146104fe578063f8077fae1461051c578063fe4c33221461053a576101cf565b8063df38d6651461045a578063e4cbe68914610478578063e63b709014610496578063ece5a722146104c6576101cf565b8063c4ff5962116100de578063c4ff5962146103d4578063cb48bf6614610404578063ce61155314610420578063d99fcc011461043e576101cf565b80639c47485b14610380578063acaa8c691461039c578063c29ad944146103b8576101cf565b8063715018a6116101715780638129fc1c1161014b5780638129fc1c1461030c5780638da5cb5b1461031657806391b22f0c146103345780639328f53714610350576101cf565b8063715018a6146102b457806373ad5d39146102be57806379de0113146102ee576101cf565b8063486d37ee116101ad578063486d37ee146102185780634bbf179b146102365780635f5f84981461025457806369f397a714610284576101cf565b80631c169928146101d457806325caaae4146101f25780633f1dbd53146101fc575b600080fd5b6101dc610558565b6040516101e99190611c42565b60405180910390f35b6101fa61055e565b005b61021660048036038101906102119190611cc0565b6107a8565b005b610220610868565b60405161022d9190611c42565b60405180910390f35b61023e6108ea565b60405161024b9190611c42565b60405180910390f35b61026e60048036038101906102699190611d19565b6108f0565b60405161027b9190611c42565b60405180910390f35b61029e60048036038101906102999190611d19565b61095d565b6040516102ab9190611c42565b60405180910390f35b6102bc6109ca565b005b6102d860048036038101906102d39190611d19565b610a52565b6040516102e59190611c42565b60405180910390f35b6102f6610a6a565b6040516103039190611da5565b60405180910390f35b610314610a90565b005b61031e610b24565b60405161032b9190611dcf565b60405180910390f35b61034e60048036038101906103499190611d19565b610b4e565b005b61036a60048036038101906103659190611d19565b610e52565b6040516103779190611e05565b60405180910390f35b61039a60048036038101906103959190611d19565b610e71565b005b6103b660048036038101906103b19190611cc0565b6110de565b005b6103d260048036038101906103cd9190611d19565b61119e565b005b6103ee60048036038101906103e99190611d19565b611224565b6040516103fb9190611c42565b60405180910390f35b61041e60048036038101906104199190611d19565b61123c565b005b6104286112c2565b6040516104359190611c42565b60405180910390f35b61045860048036038101906104539190611d19565b6112c8565b005b610462611534565b60405161046f9190611c42565b60405180910390f35b61048061153a565b60405161048d9190611c42565b60405180910390f35b6104b060048036038101906104ab9190611d19565b611540565b6040516104bd9190611e05565b60405180910390f35b6104e060048036038101906104db9190611d19565b61155f565b005b6104fc60048036038101906104f79190611cc0565b611864565b005b61050661195b565b6040516105139190611c42565b60405180910390f35b610524611962565b6040516105319190611c42565b60405180910390f35b610542611968565b60405161054f9190611e41565b60405180910390f35b60665481565b61056661198e565b73ffffffffffffffffffffffffffffffffffffffff16610584610b24565b73ffffffffffffffffffffffffffffffffffffffff16146105da576040517f08c379a00000000000000000000000000000000000000000000000000000000081526004016105d190611eb9565b60405180910390fd5b60005b610fc88110156106b7576105f081610e52565b156106a657606760009054906101000a900473ffffffffffffffffffffffffffffffffffffffff1673ffffffffffffffffffffffffffffffffffffffff1663f5c8834c8261063d8461095d565b6040518363ffffffff1660e01b815260040161065a929190611ed9565b600060405180830381600087803b15801561067457600080fd5b505af1158015610688573d6000803e3d6000fd5b505050506000606d6000838152602001908152602001600020819055505b806106b090611f31565b90506105dd565b5060005b6103e8811015610795576106ce81611540565b1561078457606860009054906101000a900473ffffffffffffffffffffffffffffffffffffffff1673ffffffffffffffffffffffffffffffffffffffff1663f5c8834c8261071b846108f0565b6040518363ffffffff1660e01b8152600401610738929190611ed9565b600060405180830381600087803b15801561075257600080fd5b505af1158015610766573d6000803e3d6000fd5b505050506000606e6000838152602001908152602001600020819055505b8061078e90611f31565b90506106bb565b506000606b819055506000606c81905550565b6107b061198e565b73ffffffffffffffffffffffffffffffffffffffff166107ce610b24565b73ffffffffffffffffffffffffffffffffffffffff1614610824576040517f08c379a000000000000000000000000000000000000000000000000000000000815260040161081b90611eb9565b60405180910390fd5b80606860006101000a81548173ffffffffffffffffffffffffffffffffffffffff021916908373ffffffffffffffffffffffffffffffffffffffff16021790555050565b600080606a54426108799190611f79565b905062093a8081606654606c546108909190611fad565b61089a9190611fad565b6108a49190612036565b62093a8082606554606b546108b99190611fad565b6108c39190611fad565b6108cd9190612036565b6069546108da9190612067565b6108e49190612067565b91505090565b606b5481565b600080606e600084815260200190815260200160002054036109155760009050610958565b6000606e600084815260200190815260200160002054426109369190611f79565b905062093a808160665461094a9190611fad565b6109549190612036565b9150505b919050565b600080606d6000848152602001908152602001600020540361098257600090506109c5565b6000606d600084815260200190815260200160002054426109a39190611f79565b905062093a80816065546109b79190611fad565b6109c19190612036565b9150505b919050565b6109d261198e565b73ffffffffffffffffffffffffffffffffffffffff166109f0610b24565b73ffffffffffffffffffffffffffffffffffffffff1614610a46576040517f08c379a0000000000000000000000000000000000000000000000000000000008152600401610a3d90611eb9565b60405180910390fd5b610a506000611996565b565b606e6020528060005260406000206000915090505481565b606860009054906101000a900473ffffffffffffffffffffffffffffffffffffffff1681565b6000610a9c6001611a5c565b90508015610ac0576001600060016101000a81548160ff0219169083151502179055505b610ac8611b4c565b8015610b215760008060016101000a81548160ff0219169083151502179055507f7f26b83ff96e1f2b6a682f133852f6798a09c465da95921460cefb38474024986001604051610b189190612105565b60405180910390a15b50565b6000603360009054906101000a900473ffffffffffffffffffffffffffffffffffffffff16905090565b803373ffffffffffffffffffffffffffffffffffffffff16606760009054906101000a900473ffffffffffffffffffffffffffffffffffffffff1673ffffffffffffffffffffffffffffffffffffffff16636352211e836040518263ffffffff1660e01b8152600401610bc19190611c42565b602060405180830381865afa158015610bde573d6000803e3d6000fd5b505050506040513d601f19601f82011682018060405250810190610c029190612135565b73ffffffffffffffffffffffffffffffffffffffff1614610c58576040517f08c379a0000000000000000000000000000000000000000000000000000000008152600401610c4f906121d4565b60405180910390fd5b816001801515610c6783610e52565b151514610ca9576040517f08c379a0000000000000000000000000000000000000000000000000000000008152600401610ca090612240565b60405180910390fd5b6000806000606b541115610cc657610cbf610868565b6069819055505b42606a8190555060006002811115610ce157610ce0612260565b5b816002811115610cf457610cf3612260565b5b03610d345781610d1a57606b6000815480929190610d119061228f565b91905055610d32565b606b6000815480929190610d2d90611f31565b919050555b505b600280811115610d4757610d46612260565b5b816002811115610d5a57610d59612260565b5b03610d9a5781610d8057606c6000815480929190610d779061228f565b91905055610d98565b606c6000815480929190610d9390611f31565b919050555b505b606760009054906101000a900473ffffffffffffffffffffffffffffffffffffffff1673ffffffffffffffffffffffffffffffffffffffff1663f5c8834c87610de28961095d565b6040518363ffffffff1660e01b8152600401610dff929190611ed9565b600060405180830381600087803b158015610e1957600080fd5b505af1158015610e2d573d6000803e3d6000fd5b505050506000606d600088815260200190815260200160002081905550505050505050565b600080606d600084815260200190815260200160002054119050919050565b803373ffffffffffffffffffffffffffffffffffffffff16606860009054906101000a900473ffffffffffffffffffffffffffffffffffffffff1673ffffffffffffffffffffffffffffffffffffffff16636352211e836040518263ffffffff1660e01b8152600401610ee49190611c42565b602060405180830381865afa158015610f01573d6000803e3d6000fd5b505050506040513d601f19601f82011682018060405250810190610f259190612135565b73ffffffffffffffffffffffffffffffffffffffff1614610f7b576040517f08c379a0000000000000000000000000000000000000000000000000000000008152600401610f729061232a565b60405180910390fd5b816000801515610f8a83611540565b151514610fcc576040517f08c379a0000000000000000000000000000000000000000000000000000000008152600401610fc390612240565b60405180910390fd5b600160026000606b541115610fea57610fe3610868565b6069819055505b42606a819055506000600281111561100557611004612260565b5b81600281111561101857611017612260565b5b03611058578161103e57606b60008154809291906110359061228f565b91905055611056565b606b600081548092919061105190611f31565b919050555b505b60028081111561106b5761106a612260565b5b81600281111561107e5761107d612260565b5b036110be57816110a457606c600081548092919061109b9061228f565b919050556110bc565b606c60008154809291906110b790611f31565b919050555b505b42606e600088815260200190815260200160002081905550505050505050565b6110e661198e565b73ffffffffffffffffffffffffffffffffffffffff16611104610b24565b73ffffffffffffffffffffffffffffffffffffffff161461115a576040517f08c379a000000000000000000000000000000000000000000000000000000000815260040161115190611eb9565b60405180910390fd5b80606760006101000a81548173ffffffffffffffffffffffffffffffffffffffff021916908373ffffffffffffffffffffffffffffffffffffffff16021790555050565b6111a661198e565b73ffffffffffffffffffffffffffffffffffffffff166111c4610b24565b73ffffffffffffffffffffffffffffffffffffffff161461121a576040517f08c379a000000000000000000000000000000000000000000000000000000000815260040161121190611eb9565b60405180910390fd5b8060658190555050565b606d6020528060005260406000206000915090505481565b61124461198e565b73ffffffffffffffffffffffffffffffffffffffff16611262610b24565b73ffffffffffffffffffffffffffffffffffffffff16146112b8576040517f08c379a00000000000000000000000000000000000000000000000000000000081526004016112af90611eb9565b60405180910390fd5b8060668190555050565b60695481565b803373ffffffffffffffffffffffffffffffffffffffff16606760009054906101000a900473ffffffffffffffffffffffffffffffffffffffff1673ffffffffffffffffffffffffffffffffffffffff16636352211e836040518263ffffffff1660e01b815260040161133b9190611c42565b602060405180830381865afa158015611358573d6000803e3d6000fd5b505050506040513d601f19601f8201168201806040525081019061137c9190612135565b73ffffffffffffffffffffffffffffffffffffffff16146113d2576040517f08c379a00000000000000000000000000000000000000000000000000000000081526004016113c9906121d4565b60405180910390fd5b8160008015156113e183610e52565b151514611423576040517f08c379a000000000000000000000000000000000000000000000000000000000815260040161141a90612240565b60405180910390fd5b6001600080606b54111561144057611439610868565b6069819055505b42606a819055506000600281111561145b5761145a612260565b5b81600281111561146e5761146d612260565b5b036114ae578161149457606b600081548092919061148b9061228f565b919050556114ac565b606b60008154809291906114a790611f31565b919050555b505b6002808111156114c1576114c0612260565b5b8160028111156114d4576114d3612260565b5b0361151457816114fa57606c60008154809291906114f19061228f565b91905055611512565b606c600081548092919061150d90611f31565b919050555b505b42606d600088815260200190815260200160002081905550505050505050565b60655481565b606c5481565b600080606e600084815260200190815260200160002054119050919050565b803373ffffffffffffffffffffffffffffffffffffffff16606860009054906101000a900473ffffffffffffffffffffffffffffffffffffffff1673ffffffffffffffffffffffffffffffffffffffff16636352211e836040518263ffffffff1660e01b81526004016115d29190611c42565b602060405180830381865afa1580156115ef573d6000803e3d6000fd5b505050506040513d601f19601f820116820180604052508101906116139190612135565b73ffffffffffffffffffffffffffffffffffffffff1614611669576040517f08c379a00000000000000000000000000000000000000000000000000000000081526004016116609061232a565b60405180910390fd5b81600180151561167883611540565b1515146116ba576040517f08c379a00000000000000000000000000000000000000000000000000000000081526004016116b190612240565b60405180910390fd5b600060026000606b5411156116d8576116d1610868565b6069819055505b42606a81905550600060028111156116f3576116f2612260565b5b81600281111561170657611705612260565b5b03611746578161172c57606b60008154809291906117239061228f565b91905055611744565b606b600081548092919061173f90611f31565b919050555b505b60028081111561175957611758612260565b5b81600281111561176c5761176b612260565b5b036117ac578161179257606c60008154809291906117899061228f565b919050556117aa565b606c60008154809291906117a590611f31565b919050555b505b606860009054906101000a900473ffffffffffffffffffffffffffffffffffffffff1673ffffffffffffffffffffffffffffffffffffffff1663f5c8834c876117f4896108f0565b6040518363ffffffff1660e01b8152600401611811929190611ed9565b600060405180830381600087803b15801561182b57600080fd5b505af115801561183f573d6000803e3d6000fd5b505050506000606e600088815260200190815260200160002081905550505050505050565b61186c61198e565b73ffffffffffffffffffffffffffffffffffffffff1661188a610b24565b73ffffffffffffffffffffffffffffffffffffffff16146118e0576040517f08c379a00000000000000000000000000000000000000000000000000000000081526004016118d790611eb9565b60405180910390fd5b600073ffffffffffffffffffffffffffffffffffffffff168173ffffffffffffffffffffffffffffffffffffffff160361194f576040517f08c379a0000000000000000000000000000000000000000000000000000000008152600401611946906123bc565b60405180910390fd5b61195881611996565b50565b62093a8081565b606a5481565b606760009054906101000a900473ffffffffffffffffffffffffffffffffffffffff1681565b600033905090565b6000603360009054906101000a900473ffffffffffffffffffffffffffffffffffffffff16905081603360006101000a81548173ffffffffffffffffffffffffffffffffffffffff021916908373ffffffffffffffffffffffffffffffffffffffff1602179055508173ffffffffffffffffffffffffffffffffffffffff168173ffffffffffffffffffffffffffffffffffffffff167f8be0079c531659141344cd1fd0a4f28419497f9722a3daafe3b4186f6b6457e060405160405180910390a35050565b60008060019054906101000a900460ff1615611ad35760018260ff16148015611a8b5750611a8930611ba5565b155b611aca576040517f08c379a0000000000000000000000000000000000000000000000000000000008152600401611ac19061244e565b60405180910390fd5b60009050611b47565b8160ff1660008054906101000a900460ff1660ff1610611b28576040517f08c379a0000000000000000000000000000000000000000000000000000000008152600401611b1f9061244e565b60405180910390fd5b816000806101000a81548160ff021916908360ff160217905550600190505b919050565b600060019054906101000a900460ff16611b9b576040517f08c379a0000000000000000000000000000000000000000000000000000000008152600401611b92906124e0565b60405180910390fd5b611ba3611bc8565b565b6000808273ffffffffffffffffffffffffffffffffffffffff163b119050919050565b600060019054906101000a900460ff16611c17576040517f08c379a0000000000000000000000000000000000000000000000000000000008152600401611c0e906124e0565b60405180910390fd5b611c27611c2261198e565b611996565b565b6000819050919050565b611c3c81611c29565b82525050565b6000602082019050611c576000830184611c33565b92915050565b600080fd5b600073ffffffffffffffffffffffffffffffffffffffff82169050919050565b6000611c8d82611c62565b9050919050565b611c9d81611c82565b8114611ca857600080fd5b50565b600081359050611cba81611c94565b92915050565b600060208284031215611cd657611cd5611c5d565b5b6000611ce484828501611cab565b91505092915050565b611cf681611c29565b8114611d0157600080fd5b50565b600081359050611d1381611ced565b92915050565b600060208284031215611d2f57611d2e611c5d565b5b6000611d3d84828501611d04565b91505092915050565b6000819050919050565b6000611d6b611d66611d6184611c62565b611d46565b611c62565b9050919050565b6000611d7d82611d50565b9050919050565b6000611d8f82611d72565b9050919050565b611d9f81611d84565b82525050565b6000602082019050611dba6000830184611d96565b92915050565b611dc981611c82565b82525050565b6000602082019050611de46000830184611dc0565b92915050565b60008115159050919050565b611dff81611dea565b82525050565b6000602082019050611e1a6000830184611df6565b92915050565b6000611e2b82611d72565b9050919050565b611e3b81611e20565b82525050565b6000602082019050611e566000830184611e32565b92915050565b600082825260208201905092915050565b7f4f776e61626c653a2063616c6c6572206973206e6f7420746865206f776e6572600082015250565b6000611ea3602083611e5c565b9150611eae82611e6d565b602082019050919050565b60006020820190508181036000830152611ed281611e96565b9050919050565b6000604082019050611eee6000830185611c33565b611efb6020830184611c33565b9392505050565b7f4e487b7100000000000000000000000000000000000000000000000000000000600052601160045260246000fd5b6000611f3c82611c29565b91507fffffffffffffffffffffffffffffffffffffffffffffffffffffffffffffffff8203611f6e57611f6d611f02565b5b600182019050919050565b6000611f8482611c29565b9150611f8f83611c29565b925082821015611fa257611fa1611f02565b5b828203905092915050565b6000611fb882611c29565b9150611fc383611c29565b9250817fffffffffffffffffffffffffffffffffffffffffffffffffffffffffffffffff0483118215151615611ffc57611ffb611f02565b5b828202905092915050565b7f4e487b7100000000000000000000000000000000000000000000000000000000600052601260045260246000fd5b600061204182611c29565b915061204c83611c29565b92508261205c5761205b612007565b5b828204905092915050565b600061207282611c29565b915061207d83611c29565b9250827fffffffffffffffffffffffffffffffffffffffffffffffffffffffffffffffff038211156120b2576120b1611f02565b5b828201905092915050565b6000819050919050565b600060ff82169050919050565b60006120ef6120ea6120e5846120bd565b611d46565b6120c7565b9050919050565b6120ff816120d4565b82525050565b600060208201905061211a60008301846120f6565b92915050565b60008151905061212f81611c94565b92915050565b60006020828403121561214b5761214a611c5d565b5b600061215984828501612120565b91505092915050565b7f47656e657369733a206f6e6c79206f776e65722063616e2073656e6420746f2060008201527f636f7265206368616d6265720000000000000000000000000000000000000000602082015250565b60006121be602c83611e5c565b91506121c982612162565b604082019050919050565b600060208201905081810360008301526121ed816121b1565b9050919050565b7f436f7265206368616d6265723a2077726f6e6720617474656e64616e63650000600082015250565b600061222a601e83611e5c565b9150612235826121f4565b602082019050919050565b600060208201905081810360008301526122598161221d565b9050919050565b7f4e487b7100000000000000000000000000000000000000000000000000000000600052602160045260246000fd5b600061229a82611c29565b9150600082036122ad576122ac611f02565b5b600182039050919050565b7f4d656761626f743a206f6e6c79206d656761626f74206f776e65722063616e2060008201527f73656e6420746f20636f7265206368616d626572000000000000000000000000602082015250565b6000612314603483611e5c565b915061231f826122b8565b604082019050919050565b6000602082019050818103600083015261234381612307565b9050919050565b7f4f776e61626c653a206e6577206f776e657220697320746865207a65726f206160008201527f6464726573730000000000000000000000000000000000000000000000000000602082015250565b60006123a6602683611e5c565b91506123b18261234a565b604082019050919050565b600060208201905081810360008301526123d581612399565b9050919050565b7f496e697469616c697a61626c653a20636f6e747261637420697320616c72656160008201527f647920696e697469616c697a6564000000000000000000000000000000000000602082015250565b6000612438602e83611e5c565b9150612443826123dc565b604082019050919050565b600060208201905081810360008301526124678161242b565b9050919050565b7f496e697469616c697a61626c653a20636f6e7472616374206973206e6f74206960008201527f6e697469616c697a696e67000000000000000000000000000000000000000000602082015250565b60006124ca602b83611e5c565b91506124d58261246e565b604082019050919050565b600060208201905081810360008301526124f9816124bd565b905091905056fea2646970667358221220de5cbac14b20d3ba2f597a364a753fcb0e4228ab7d4db2c3d67d923767efe57264736f6c634300080d0033",
  "linkReferences": {},
  "deployedLinkReferences": {}
}