{
  "_format": "hh-sol-artifact-1",
  "contractName": "BobotGenesis",
  "sourceName": "contracts/BobotGenesis.sol",
  "abi": [
    {
      "anonymous": false,
      "inputs": [
        {
          "indexed": true,
          "internalType": "address",
          "name": "owner",
          "type": "address"
        },
        {
          "indexed": true,
          "internalType": "address",
          "name": "approved",
          "type": "address"
        },
        {
          "indexed": true,
          "internalType": "uint256",
          "name": "tokenId",
          "type": "uint256"
        }
      ],
      "name": "Approval",
      "type": "event"
    },
    {
      "anonymous": false,
      "inputs": [
        {
          "indexed": true,
          "internalType": "address",
          "name": "owner",
          "type": "address"
        },
        {
          "indexed": true,
          "internalType": "address",
          "name": "operator",
          "type": "address"
        },
        {
          "indexed": false,
          "internalType": "bool",
          "name": "approved",
          "type": "bool"
        }
      ],
      "name": "ApprovalForAll",
      "type": "event"
    },
    {
      "anonymous": false,
      "inputs": [
        {
          "indexed": true,
          "internalType": "address",
          "name": "previousOwner",
          "type": "address"
        },
        {
          "indexed": true,
          "internalType": "address",
          "name": "newOwner",
          "type": "address"
        }
      ],
      "name": "OwnershipTransferred",
      "type": "event"
    },
    {
      "anonymous": false,
      "inputs": [
        {
          "indexed": true,
          "internalType": "address",
          "name": "from",
          "type": "address"
        },
        {
          "indexed": true,
          "internalType": "address",
          "name": "to",
          "type": "address"
        },
        {
          "indexed": true,
          "internalType": "uint256",
          "name": "tokenId",
          "type": "uint256"
        }
      ],
      "name": "Transfer",
      "type": "event"
    },
    {
      "inputs": [
        {
          "internalType": "address",
          "name": "to",
          "type": "address"
        },
        {
          "internalType": "uint256",
          "name": "tokenId",
          "type": "uint256"
        }
      ],
      "name": "approve",
      "outputs": [],
      "stateMutability": "nonpayable",
      "type": "function"
    },
    {
      "inputs": [
        {
          "internalType": "address",
          "name": "owner",
          "type": "address"
        }
      ],
      "name": "balanceOf",
      "outputs": [
        {
          "internalType": "uint256",
          "name": "",
          "type": "uint256"
        }
      ],
      "stateMutability": "view",
      "type": "function"
    },
    {
      "inputs": [],
      "name": "baseExtention",
      "outputs": [
        {
          "internalType": "string",
          "name": "",
          "type": "string"
        }
      ],
      "stateMutability": "view",
      "type": "function"
    },
    {
      "inputs": [],
      "name": "baseURI",
      "outputs": [
        {
          "internalType": "string",
          "name": "",
          "type": "string"
        }
      ],
      "stateMutability": "view",
      "type": "function"
    },
    {
      "inputs": [
        {
          "internalType": "uint256",
          "name": "",
          "type": "uint256"
        }
      ],
      "name": "bobotCorePoints",
      "outputs": [
        {
          "internalType": "uint256",
          "name": "",
          "type": "uint256"
        }
      ],
      "stateMutability": "view",
      "type": "function"
    },
    {
      "inputs": [],
      "name": "coreChamber",
      "outputs": [
        {
          "internalType": "contract CoreChamber",
          "name": "",
          "type": "address"
        }
      ],
      "stateMutability": "view",
      "type": "function"
    },
    {
      "inputs": [
        {
          "internalType": "uint256",
          "name": "_tokenId",
          "type": "uint256"
        },
        {
          "internalType": "uint256",
          "name": "_coreEarned",
          "type": "uint256"
        }
      ],
      "name": "coreChamberCorePointUpdate",
      "outputs": [],
      "stateMutability": "nonpayable",
      "type": "function"
    },
    {
      "inputs": [
        {
          "internalType": "uint256",
          "name": "tokenId",
          "type": "uint256"
        }
      ],
      "name": "getApproved",
      "outputs": [
        {
          "internalType": "address",
          "name": "",
          "type": "address"
        }
      ],
      "stateMutability": "view",
      "type": "function"
    },
    {
      "inputs": [
        {
          "internalType": "address",
          "name": "_owner",
          "type": "address"
        }
      ],
      "name": "getTokenIds",
      "outputs": [
        {
          "internalType": "uint256[]",
          "name": "",
          "type": "uint256[]"
        }
      ],
      "stateMutability": "view",
      "type": "function"
    },
    {
      "inputs": [
        {
          "internalType": "address",
          "name": "owner",
          "type": "address"
        },
        {
          "internalType": "address",
          "name": "operator",
          "type": "address"
        }
      ],
      "name": "isApprovedForAll",
      "outputs": [
        {
          "internalType": "bool",
          "name": "",
          "type": "bool"
        }
      ],
      "stateMutability": "view",
      "type": "function"
    },
    {
      "inputs": [],
      "name": "magic",
      "outputs": [
        {
          "internalType": "contract IERC20Upgradeable",
          "name": "",
          "type": "address"
        }
      ],
      "stateMutability": "view",
      "type": "function"
    },
    {
      "inputs": [],
      "name": "maxMintAmount",
      "outputs": [
        {
          "internalType": "uint256",
          "name": "",
          "type": "uint256"
        }
      ],
      "stateMutability": "view",
      "type": "function"
    },
    {
      "inputs": [],
      "name": "maxSupply",
      "outputs": [
        {
          "internalType": "uint256",
          "name": "",
          "type": "uint256"
        }
      ],
      "stateMutability": "view",
      "type": "function"
    },
    {
      "inputs": [
        {
          "internalType": "bytes32[]",
          "name": "_merkleProof",
          "type": "bytes32[]"
        },
        {
          "internalType": "bytes32[]",
          "name": "_merkleProof2",
          "type": "bytes32[]"
        }
      ],
      "name": "mintBobot",
      "outputs": [],
      "stateMutability": "payable",
      "type": "function"
    },
    {
      "inputs": [],
      "name": "mintBobotTest",
      "outputs": [],
      "stateMutability": "payable",
      "type": "function"
    },
    {
      "inputs": [],
      "name": "name",
      "outputs": [
        {
          "internalType": "string",
          "name": "",
          "type": "string"
        }
      ],
      "stateMutability": "view",
      "type": "function"
    },
    {
      "inputs": [],
      "name": "nftPerAddressLimit",
      "outputs": [
        {
          "internalType": "uint256",
          "name": "",
          "type": "uint256"
        }
      ],
      "stateMutability": "view",
      "type": "function"
    },
    {
      "inputs": [],
      "name": "onlyWhitelisted",
      "outputs": [
        {
          "internalType": "bool",
          "name": "",
          "type": "bool"
        }
      ],
      "stateMutability": "view",
      "type": "function"
    },
    {
      "inputs": [],
      "name": "owner",
      "outputs": [
        {
          "internalType": "address",
          "name": "",
          "type": "address"
        }
      ],
      "stateMutability": "view",
      "type": "function"
    },
    {
      "inputs": [
        {
          "internalType": "uint256",
          "name": "tokenId",
          "type": "uint256"
        }
      ],
      "name": "ownerOf",
      "outputs": [
        {
          "internalType": "address",
          "name": "",
          "type": "address"
        }
      ],
      "stateMutability": "view",
      "type": "function"
    },
    {
      "inputs": [
        {
          "internalType": "bool",
          "name": "_state",
          "type": "bool"
        }
      ],
      "name": "pause",
      "outputs": [],
      "stateMutability": "nonpayable",
      "type": "function"
    },
    {
      "inputs": [],
      "name": "paused",
      "outputs": [
        {
          "internalType": "bool",
          "name": "",
          "type": "bool"
        }
      ],
      "stateMutability": "view",
      "type": "function"
    },
    {
      "inputs": [],
      "name": "renounceOwnership",
      "outputs": [],
      "stateMutability": "nonpayable",
      "type": "function"
    },
    {
      "inputs": [],
      "name": "reveal",
      "outputs": [],
      "stateMutability": "nonpayable",
      "type": "function"
    },
    {
      "inputs": [],
      "name": "revealed",
      "outputs": [
        {
          "internalType": "bool",
          "name": "",
          "type": "bool"
        }
      ],
      "stateMutability": "view",
      "type": "function"
    },
    {
      "inputs": [],
      "name": "rootGuardiansHash",
      "outputs": [
        {
          "internalType": "bytes32",
          "name": "",
          "type": "bytes32"
        }
      ],
      "stateMutability": "view",
      "type": "function"
    },
    {
      "inputs": [],
      "name": "rootLunarsHash",
      "outputs": [
        {
          "internalType": "bytes32",
          "name": "",
          "type": "bytes32"
        }
      ],
      "stateMutability": "view",
      "type": "function"
    },
    {
      "inputs": [
        {
          "internalType": "address",
          "name": "from",
          "type": "address"
        },
        {
          "internalType": "address",
          "name": "to",
          "type": "address"
        },
        {
          "internalType": "uint256",
          "name": "tokenId",
          "type": "uint256"
        }
      ],
      "name": "safeTransferFrom",
      "outputs": [],
      "stateMutability": "nonpayable",
      "type": "function"
    },
    {
      "inputs": [
        {
          "internalType": "address",
          "name": "from",
          "type": "address"
        },
        {
          "internalType": "address",
          "name": "to",
          "type": "address"
        },
        {
          "internalType": "uint256",
          "name": "tokenId",
          "type": "uint256"
        },
        {
          "internalType": "bytes",
          "name": "_data",
          "type": "bytes"
        }
      ],
      "name": "safeTransferFrom",
      "outputs": [],
      "stateMutability": "nonpayable",
      "type": "function"
    },
    {
      "inputs": [
        {
          "internalType": "address",
          "name": "operator",
          "type": "address"
        },
        {
          "internalType": "bool",
          "name": "approved",
          "type": "bool"
        }
      ],
      "name": "setApprovalForAll",
      "outputs": [],
      "stateMutability": "nonpayable",
      "type": "function"
    },
    {
      "inputs": [
        {
          "internalType": "string",
          "name": "_newBaseExtentions",
          "type": "string"
        }
      ],
      "name": "setBaseExtentions",
      "outputs": [],
      "stateMutability": "nonpayable",
      "type": "function"
    },
    {
      "inputs": [
        {
          "internalType": "string",
          "name": "_newBaseURI",
          "type": "string"
        }
      ],
      "name": "setBaseURI",
      "outputs": [],
      "stateMutability": "nonpayable",
      "type": "function"
    },
    {
      "inputs": [
        {
          "internalType": "address",
          "name": "_coreChamber",
          "type": "address"
        }
      ],
      "name": "setCoreChamber",
      "outputs": [],
      "stateMutability": "nonpayable",
      "type": "function"
    },
    {
      "inputs": [
        {
          "internalType": "address",
          "name": "_address",
          "type": "address"
        }
      ],
      "name": "setMagicAddress",
      "outputs": [],
      "stateMutability": "nonpayable",
      "type": "function"
    },
    {
      "inputs": [
        {
          "internalType": "uint256",
          "name": "_newAmount",
          "type": "uint256"
        }
      ],
      "name": "setMagicBalanceCost",
      "outputs": [],
      "stateMutability": "nonpayable",
      "type": "function"
    },
    {
      "inputs": [
        {
          "internalType": "bytes32",
          "name": "_rootHash",
          "type": "bytes32"
        }
      ],
      "name": "setRootGuardiansHash",
      "outputs": [],
      "stateMutability": "nonpayable",
      "type": "function"
    },
    {
      "inputs": [
        {
          "internalType": "bytes32",
          "name": "_rootHash",
          "type": "bytes32"
        }
      ],
      "name": "setRootLunarsHash",
      "outputs": [],
      "stateMutability": "nonpayable",
      "type": "function"
    },
    {
      "inputs": [
        {
          "internalType": "address[]",
          "name": "_address",
          "type": "address[]"
        }
      ],
      "name": "setWhitelistGuardians",
      "outputs": [],
      "stateMutability": "nonpayable",
      "type": "function"
    },
    {
      "inputs": [
        {
          "internalType": "address[]",
          "name": "_address",
          "type": "address[]"
        }
      ],
      "name": "setWhitelistLunars",
      "outputs": [],
      "stateMutability": "nonpayable",
      "type": "function"
    },
    {
      "inputs": [
        {
          "internalType": "uint256",
          "name": "_newmaxMintAmount",
          "type": "uint256"
        }
      ],
      "name": "setmaxMintAmount",
      "outputs": [],
      "stateMutability": "nonpayable",
      "type": "function"
    },
    {
      "inputs": [
        {
          "internalType": "bytes4",
          "name": "interfaceId",
          "type": "bytes4"
        }
      ],
      "name": "supportsInterface",
      "outputs": [
        {
          "internalType": "bool",
          "name": "",
          "type": "bool"
        }
      ],
      "stateMutability": "view",
      "type": "function"
    },
    {
      "inputs": [],
      "name": "symbol",
      "outputs": [
        {
          "internalType": "string",
          "name": "",
          "type": "string"
        }
      ],
      "stateMutability": "view",
      "type": "function"
    },
    {
      "inputs": [
        {
          "internalType": "uint256",
          "name": "index",
          "type": "uint256"
        }
      ],
      "name": "tokenByIndex",
      "outputs": [
        {
          "internalType": "uint256",
          "name": "",
          "type": "uint256"
        }
      ],
      "stateMutability": "view",
      "type": "function"
    },
    {
      "inputs": [
        {
          "internalType": "address",
          "name": "owner",
          "type": "address"
        },
        {
          "internalType": "uint256",
          "name": "index",
          "type": "uint256"
        }
      ],
      "name": "tokenOfOwnerByIndex",
      "outputs": [
        {
          "internalType": "uint256",
          "name": "",
          "type": "uint256"
        }
      ],
      "stateMutability": "view",
      "type": "function"
    },
    {
      "inputs": [
        {
          "internalType": "uint256",
          "name": "tokenID",
          "type": "uint256"
        }
      ],
      "name": "tokenURI",
      "outputs": [
        {
          "internalType": "string",
          "name": "",
          "type": "string"
        }
      ],
      "stateMutability": "view",
      "type": "function"
    },
    {
      "inputs": [],
      "name": "totalSupply",
      "outputs": [
        {
          "internalType": "uint256",
          "name": "",
          "type": "uint256"
        }
      ],
      "stateMutability": "view",
      "type": "function"
    },
    {
      "inputs": [
        {
          "internalType": "address",
          "name": "from",
          "type": "address"
        },
        {
          "internalType": "address",
          "name": "to",
          "type": "address"
        },
        {
          "internalType": "uint256",
          "name": "tokenId",
          "type": "uint256"
        }
      ],
      "name": "transferFrom",
      "outputs": [],
      "stateMutability": "nonpayable",
      "type": "function"
    },
    {
      "inputs": [
        {
          "internalType": "address",
          "name": "newOwner",
          "type": "address"
        }
      ],
      "name": "transferOwnership",
      "outputs": [],
      "stateMutability": "nonpayable",
      "type": "function"
    },
    {
      "inputs": [
        {
          "internalType": "address",
          "name": "",
          "type": "address"
        }
      ],
      "name": "whitelistedAddressesGuardiansClaimed",
      "outputs": [
        {
          "internalType": "bool",
          "name": "",
          "type": "bool"
        }
      ],
      "stateMutability": "view",
      "type": "function"
    },
    {
      "inputs": [
        {
          "internalType": "address",
          "name": "",
          "type": "address"
        }
      ],
      "name": "whitelistedAddressesLunarClaimed",
      "outputs": [
        {
          "internalType": "bool",
          "name": "",
          "type": "bool"
        }
      ],
      "stateMutability": "view",
      "type": "function"
    },
    {
      "inputs": [],
      "name": "withdraw",
      "outputs": [],
      "stateMutability": "payable",
      "type": "function"
    }
  ],
  "bytecode": "0x6080604052633b9aca0060fc55601960fd556040518060400160405280600581526020017f2e6a736f6e00000000000000000000000000000000000000000000000000000081525060ff90805190602001906200005e929190620000da565b50610fc861010055600161010155600561010255600061010360006101000a81548160ff021916908315150217905550600161010360016101000a81548160ff021916908315150217905550600061010e60006101000a81548160ff021916908315150217905550348015620000d357600080fd5b50620001ee565b828054620000e890620001b9565b90600052602060002090601f0160209004810192826200010c576000855562000158565b82601f106200012757805160ff191683800117855562000158565b8280016001018555821562000158579182015b82811115620001575782518255916020019190600101906200013a565b5b5090506200016791906200016b565b5090565b5b80821115620001865760008160009055506001016200016c565b5090565b7f4e487b7100000000000000000000000000000000000000000000000000000000600052602260045260246000fd5b60006002820490506001821680620001d257607f821691505b602082108103620001e857620001e76200018a565b5b50919050565b6155b980620001fe6000396000f3fe6080604052600436106102e45760003560e01c806355f804b311610190578063a475b5dd116100dc578063d004b03611610095578063ed6f57b71161006f578063ed6f57b714610afd578063f2fde38b14610b26578063f5c8834c14610b4f578063fed71b2814610b78576102e4565b8063d004b03614610a58578063d5abeb0114610a95578063e985e9c514610ac0576102e4565b8063a475b5dd1461095e578063b88d4fde14610975578063ba7d2c761461099e578063c17846dc146109c9578063c87b56dd146109f2578063cae2446c14610a2f576102e4565b80637f00c7a6116101495780639519f452116101235780639519f452146108c357806395d89b41146108df5780639c70b5121461090a578063a22cb46514610935576102e4565b80637f00c7a614610846578063819243c71461086f5780638da5cb5b14610898576102e4565b806355f804b3146107365780635c975abb1461075f5780636352211e1461078a5780636c0360eb146107c757806370a08231146107f2578063715018a61461082f576102e4565b8063239c70ae1161024f57806342842e0e116102085780634ba5f378116101e25780634ba5f378146106785780634c0f577a146106a35780634f6ccce7146106ce578063518302271461070b576102e4565b806342842e0e146105fb57806343b946af1461062457806349aec19a1461064f576102e4565b8063239c70ae1461050e57806323b872dd1461053957806325c13203146105625780632e256c411461058b5780632f745c59146105b45780633ccfd60b146105f1576102e4565b80630cf7572f116102a15780630cf7572f146103ea5780630d854646146104155780630f774d041461044057806318160ddd14610469578063205f1238146104945780632139f035146104d1576102e4565b806301ffc9a7146102e957806302329a291461032657806302428db61461034f57806306fdde0314610359578063081812fc14610384578063095ea7b3146103c1575b600080fd5b3480156102f557600080fd5b50610310600480360381019061030b9190613af9565b610bb5565b60405161031d9190613b41565b60405180910390f35b34801561033257600080fd5b5061034d60048036038101906103489190613b88565b610c2f565b005b610357610cc9565b005b34801561036557600080fd5b5061036e610cfd565b60405161037b9190613c4e565b60405180910390f35b34801561039057600080fd5b506103ab60048036038101906103a69190613ca6565b610d8f565b6040516103b89190613d14565b60405180910390f35b3480156103cd57600080fd5b506103e860048036038101906103e39190613d5b565b610e14565b005b3480156103f657600080fd5b506103ff610f2b565b60405161040c9190613db4565b60405180910390f35b34801561042157600080fd5b5061042a610f32565b6040516104379190613e2e565b60405180910390f35b34801561044c57600080fd5b5061046760048036038101906104629190613e75565b610f58565b005b34801561047557600080fd5b5061047e610fdf565b60405161048b9190613eb1565b60405180910390f35b3480156104a057600080fd5b506104bb60048036038101906104b69190613ecc565b610fec565b6040516104c89190613b41565b60405180910390f35b3480156104dd57600080fd5b506104f860048036038101906104f39190613ecc565b61100d565b6040516105059190613b41565b60405180910390f35b34801561051a57600080fd5b5061052361102e565b6040516105309190613eb1565b60405180910390f35b34801561054557600080fd5b50610560600480360381019061055b9190613ef9565b611035565b005b34801561056e57600080fd5b5061058960048036038101906105849190614081565b611095565b005b34801561059757600080fd5b506105b260048036038101906105ad9190613e75565b61112b565b005b3480156105c057600080fd5b506105db60048036038101906105d69190613d5b565b6111b2565b6040516105e89190613eb1565b60405180910390f35b6105f9611257565b005b34801561060757600080fd5b50610622600480360381019061061d9190613ef9565b611313565b005b34801561063057600080fd5b50610639611333565b60405161064691906140eb565b60405180910390f35b34801561065b57600080fd5b5061067660048036038101906106719190614166565b61135a565b005b34801561068457600080fd5b5061068d6113fc565b60405161069a9190613c4e565b60405180910390f35b3480156106af57600080fd5b506106b861148a565b6040516106c59190613db4565b60405180910390f35b3480156106da57600080fd5b506106f560048036038101906106f09190613ca6565b611491565b6040516107029190613eb1565b60405180910390f35b34801561071757600080fd5b50610720611502565b60405161072d9190613b41565b60405180910390f35b34801561074257600080fd5b5061075d60048036038101906107589190614081565b611516565b005b34801561076b57600080fd5b506107746115ac565b6040516107819190613b41565b60405180910390f35b34801561079657600080fd5b506107b160048036038101906107ac9190613ca6565b6115c0565b6040516107be9190613d14565b60405180910390f35b3480156107d357600080fd5b506107dc611671565b6040516107e99190613c4e565b60405180910390f35b3480156107fe57600080fd5b5061081960048036038101906108149190613ecc565b6116ff565b6040516108269190613eb1565b60405180910390f35b34801561083b57600080fd5b506108446117b6565b005b34801561085257600080fd5b5061086d60048036038101906108689190613ca6565b61183e565b005b34801561087b57600080fd5b5061089660048036038101906108919190614166565b6118c5565b005b3480156108a457600080fd5b506108ad611967565b6040516108ba9190613d14565b60405180910390f35b6108dd60048036038101906108d89190614209565b611991565b005b3480156108eb57600080fd5b506108f4611e3e565b6040516109019190613c4e565b60405180910390f35b34801561091657600080fd5b5061091f611ed0565b60405161092c9190613b41565b60405180910390f35b34801561094157600080fd5b5061095c6004803603810190610957919061428a565b611ee4565b005b34801561096a57600080fd5b50610973611efa565b005b34801561098157600080fd5b5061099c6004803603810190610997919061436b565b611f94565b005b3480156109aa57600080fd5b506109b3611ff6565b6040516109c09190613eb1565b60405180910390f35b3480156109d557600080fd5b506109f060048036038101906109eb9190613ecc565b611ffd565b005b3480156109fe57600080fd5b50610a196004803603810190610a149190613ca6565b6120bd565b604051610a269190613c4e565b60405180910390f35b348015610a3b57600080fd5b50610a566004803603810190610a519190613ca6565b612168565b005b348015610a6457600080fd5b50610a7f6004803603810190610a7a9190613ecc565b6121ee565b604051610a8c91906144ac565b60405180910390f35b348015610aa157600080fd5b50610aaa6122a4565b604051610ab79190613eb1565b60405180910390f35b348015610acc57600080fd5b50610ae76004803603810190610ae291906144ce565b6122ab565b604051610af49190613b41565b60405180910390f35b348015610b0957600080fd5b50610b246004803603810190610b1f9190613ecc565b61233f565b005b348015610b3257600080fd5b50610b4d6004803603810190610b489190613ecc565b612400565b005b348015610b5b57600080fd5b50610b766004803603810190610b71919061450e565b6124f7565b005b348015610b8457600080fd5b50610b9f6004803603810190610b9a9190613ca6565b6125b7565b604051610bac9190613eb1565b60405180910390f35b60007f780e9d63000000000000000000000000000000000000000000000000000000007bffffffffffffffffffffffffffffffffffffffffffffffffffffffff1916827bffffffffffffffffffffffffffffffffffffffffffffffffffffffff19161480610c285750610c27826125d0565b5b9050919050565b610c376126b2565b73ffffffffffffffffffffffffffffffffffffffff16610c55611967565b73ffffffffffffffffffffffffffffffffffffffff1614610cab576040517f08c379a0000000000000000000000000000000000000000000000000000000008152600401610ca29061459a565b60405180910390fd5b8061010e60006101000a81548160ff02191690831515021790555050565b61010e60009054906101000a900460ff1615610ce457600080fd5b6000610cee6126ba565b9050610cfa33826126d8565b50565b606060658054610d0c906145e9565b80601f0160208091040260200160405190810160405280929190818152602001828054610d38906145e9565b8015610d855780601f10610d5a57610100808354040283529160200191610d85565b820191906000526020600020905b815481529060010190602001808311610d6857829003601f168201915b5050505050905090565b6000610d9a826126f1565b610dd9576040517f08c379a0000000000000000000000000000000000000000000000000000000008152600401610dd09061468c565b60405180910390fd5b6069600083815260200190815260200160002060009054906101000a900473ffffffffffffffffffffffffffffffffffffffff169050919050565b6000610e1f826115c0565b90508073ffffffffffffffffffffffffffffffffffffffff168373ffffffffffffffffffffffffffffffffffffffff1603610e8f576040517f08c379a0000000000000000000000000000000000000000000000000000000008152600401610e869061471e565b60405180910390fd5b8073ffffffffffffffffffffffffffffffffffffffff16610eae6126b2565b73ffffffffffffffffffffffffffffffffffffffff161480610edd5750610edc81610ed76126b2565b6122ab565b5b610f1c576040517f08c379a0000000000000000000000000000000000000000000000000000000008152600401610f13906147b0565b60405180910390fd5b610f26838361275d565b505050565b6101075481565b60fb60009054906101000a900473ffffffffffffffffffffffffffffffffffffffff1681565b610f606126b2565b73ffffffffffffffffffffffffffffffffffffffff16610f7e611967565b73ffffffffffffffffffffffffffffffffffffffff1614610fd4576040517f08c379a0000000000000000000000000000000000000000000000000000000008152600401610fcb9061459a565b60405180910390fd5b806101078190555050565b6000609980549050905090565b61010b6020528060005260406000206000915054906101000a900460ff1681565b61010a6020528060005260406000206000915054906101000a900460ff1681565b6101015481565b6110466110406126b2565b82612816565b611085576040517f08c379a000000000000000000000000000000000000000000000000000000000815260040161107c90614842565b60405180910390fd5b6110908383836128f4565b505050565b61109d6126b2565b73ffffffffffffffffffffffffffffffffffffffff166110bb611967565b73ffffffffffffffffffffffffffffffffffffffff1614611111576040517f08c379a00000000000000000000000000000000000000000000000000000000081526004016111089061459a565b60405180910390fd5b8060ff9080519060200190611127929190613929565b5050565b6111336126b2565b73ffffffffffffffffffffffffffffffffffffffff16611151611967565b73ffffffffffffffffffffffffffffffffffffffff16146111a7576040517f08c379a000000000000000000000000000000000000000000000000000000000815260040161119e9061459a565b60405180910390fd5b806101068190555050565b60006111bd836116ff565b82106111fe576040517f08c379a00000000000000000000000000000000000000000000000000000000081526004016111f5906148d4565b60405180910390fd5b609760008473ffffffffffffffffffffffffffffffffffffffff1673ffffffffffffffffffffffffffffffffffffffff168152602001908152602001600020600083815260200190815260200160002054905092915050565b61125f6126b2565b73ffffffffffffffffffffffffffffffffffffffff1661127d611967565b73ffffffffffffffffffffffffffffffffffffffff16146112d3576040517f08c379a00000000000000000000000000000000000000000000000000000000081526004016112ca9061459a565b60405180910390fd5b3373ffffffffffffffffffffffffffffffffffffffff166108fc479081150290604051600060405180830381858888f1935050505061131157600080fd5b565b61132e83838360405180602001604052806000815250611f94565b505050565b61010c60009054906101000a900473ffffffffffffffffffffffffffffffffffffffff1681565b6113626126b2565b73ffffffffffffffffffffffffffffffffffffffff16611380611967565b73ffffffffffffffffffffffffffffffffffffffff16146113d6576040517f08c379a00000000000000000000000000000000000000000000000000000000081526004016113cd9061459a565b60405180910390fd5b61010560006113e591906139af565b818161010591906113f79291906139d0565b505050565b60ff8054611409906145e9565b80601f0160208091040260200160405190810160405280929190818152602001828054611435906145e9565b80156114825780601f1061145757610100808354040283529160200191611482565b820191906000526020600020905b81548152906001019060200180831161146557829003601f168201915b505050505081565b6101065481565b600061149b610fdf565b82106114dc576040517f08c379a00000000000000000000000000000000000000000000000000000000081526004016114d390614966565b60405180910390fd5b609982815481106114f0576114ef614986565b5b90600052602060002001549050919050565b61010360009054906101000a900460ff1681565b61151e6126b2565b73ffffffffffffffffffffffffffffffffffffffff1661153c611967565b73ffffffffffffffffffffffffffffffffffffffff1614611592576040517f08c379a00000000000000000000000000000000000000000000000000000000081526004016115899061459a565b60405180910390fd5b8060fe90805190602001906115a8929190613929565b5050565b61010e60009054906101000a900460ff1681565b6000806067600084815260200190815260200160002060009054906101000a900473ffffffffffffffffffffffffffffffffffffffff169050600073ffffffffffffffffffffffffffffffffffffffff168173ffffffffffffffffffffffffffffffffffffffff1603611668576040517f08c379a000000000000000000000000000000000000000000000000000000000815260040161165f90614a27565b60405180910390fd5b80915050919050565b60fe805461167e906145e9565b80601f01602080910402602001604051908101604052809291908181526020018280546116aa906145e9565b80156116f75780601f106116cc576101008083540402835291602001916116f7565b820191906000526020600020905b8154815290600101906020018083116116da57829003601f168201915b505050505081565b60008073ffffffffffffffffffffffffffffffffffffffff168273ffffffffffffffffffffffffffffffffffffffff160361176f576040517f08c379a000000000000000000000000000000000000000000000000000000000815260040161176690614ab9565b60405180910390fd5b606860008373ffffffffffffffffffffffffffffffffffffffff1673ffffffffffffffffffffffffffffffffffffffff168152602001908152602001600020549050919050565b6117be6126b2565b73ffffffffffffffffffffffffffffffffffffffff166117dc611967565b73ffffffffffffffffffffffffffffffffffffffff1614611832576040517f08c379a00000000000000000000000000000000000000000000000000000000081526004016118299061459a565b60405180910390fd5b61183c6000612b5a565b565b6118466126b2565b73ffffffffffffffffffffffffffffffffffffffff16611864611967565b73ffffffffffffffffffffffffffffffffffffffff16146118ba576040517f08c379a00000000000000000000000000000000000000000000000000000000081526004016118b19061459a565b60405180910390fd5b806101018190555050565b6118cd6126b2565b73ffffffffffffffffffffffffffffffffffffffff166118eb611967565b73ffffffffffffffffffffffffffffffffffffffff1614611941576040517f08c379a00000000000000000000000000000000000000000000000000000000081526004016119389061459a565b60405180910390fd5b610104600061195091906139af565b818161010491906119629291906139d0565b505050565b600060c960009054906101000a900473ffffffffffffffffffffffffffffffffffffffff16905090565b61010e60009054906101000a900460ff16156119ac57600080fd5b60fd5460fc5460fb60009054906101000a900473ffffffffffffffffffffffffffffffffffffffff1673ffffffffffffffffffffffffffffffffffffffff166370a08231336040518263ffffffff1660e01b8152600401611a0d9190613d14565b602060405180830381865afa158015611a2a573d6000803e3d6000fd5b505050506040513d601f19601f82011682018060405250810190611a4e9190614aee565b611a589190614b79565b11611a98576040517f08c379a0000000000000000000000000000000000000000000000000000000008152600401611a8f90614bf6565b60405180910390fd5b6000611aa2611967565b73ffffffffffffffffffffffffffffffffffffffff163373ffffffffffffffffffffffffffffffffffffffff1614611df5576001151561010360019054906101000a900460ff16151503611df45761010a60003373ffffffffffffffffffffffffffffffffffffffff1673ffffffffffffffffffffffffffffffffffffffff16815260200190815260200160002060009054906101000a900460ff1680611b93575061010b60003373ffffffffffffffffffffffffffffffffffffffff1673ffffffffffffffffffffffffffffffffffffffff16815260200190815260200160002060009054906101000a900460ff165b611bd2576040517f08c379a0000000000000000000000000000000000000000000000000000000008152600401611bc990614c62565b60405180910390fd5b600033604051602001611be59190614cca565b6040516020818303038152906040528051906020012090506000611c4e878780806020026020016040519081016040528093929190818152602001838360200280828437600081840152601f19601f820116905080830192505050505050506101065484612c20565b90506000611ca1868680806020026020016040519081016040528093929190818152602001838360200280828437600081840152601f19601f820116905080830192505050505050506101075485612c20565b905081158015611caf575080155b611cee576040517f08c379a0000000000000000000000000000000000000000000000000000000008152600401611ce590614d31565b60405180910390fd5b8115611d695761010054611d006126ba565b1115611d0b57600080fd5b60019350600161010a60003373ffffffffffffffffffffffffffffffffffffffff1673ffffffffffffffffffffffffffffffffffffffff16815260200190815260200160002060006101000a81548160ff0219169083151502179055505b8015611df057610100546001611d7d6126ba565b611d879190614d51565b1115611d9257600080fd5b60029350600161010b60003373ffffffffffffffffffffffffffffffffffffffff1673ffffffffffffffffffffffffffffffffffffffff16815260200190815260200160002060006101000a81548160ff0219169083151502179055505b5050505b5b6000600190505b818111611e36576000611e0d6126ba565b9050611e24338383611e1f9190614d51565b6126d8565b5080611e2f90614da7565b9050611dfc565b505050505050565b606060668054611e4d906145e9565b80601f0160208091040260200160405190810160405280929190818152602001828054611e79906145e9565b8015611ec65780601f10611e9b57610100808354040283529160200191611ec6565b820191906000526020600020905b815481529060010190602001808311611ea957829003601f168201915b5050505050905090565b61010360019054906101000a900460ff1681565b611ef6611eef6126b2565b8383612c37565b5050565b611f026126b2565b73ffffffffffffffffffffffffffffffffffffffff16611f20611967565b73ffffffffffffffffffffffffffffffffffffffff1614611f76576040517f08c379a0000000000000000000000000000000000000000000000000000000008152600401611f6d9061459a565b60405180910390fd5b600161010360006101000a81548160ff021916908315150217905550565b611fa5611f9f6126b2565b83612816565b611fe4576040517f08c379a0000000000000000000000000000000000000000000000000000000008152600401611fdb90614842565b60405180910390fd5b611ff084848484612da3565b50505050565b6101025481565b6120056126b2565b73ffffffffffffffffffffffffffffffffffffffff16612023611967565b73ffffffffffffffffffffffffffffffffffffffff1614612079576040517f08c379a00000000000000000000000000000000000000000000000000000000081526004016120709061459a565b60405180910390fd5b8060fb60006101000a81548173ffffffffffffffffffffffffffffffffffffffff021916908373ffffffffffffffffffffffffffffffffffffffff16021790555050565b60606120c8826126f1565b612107576040517f08c379a00000000000000000000000000000000000000000000000000000000081526004016120fe90614e61565b60405180910390fd5b6000612111612dff565b905060008151116121315760405180602001604052806000815250612160565b60fe61213c84612e91565b60ff60405160200161215093929190614f51565b6040516020818303038152906040525b915050919050565b6121706126b2565b73ffffffffffffffffffffffffffffffffffffffff1661218e611967565b73ffffffffffffffffffffffffffffffffffffffff16146121e4576040517f08c379a00000000000000000000000000000000000000000000000000000000081526004016121db9061459a565b60405180910390fd5b8060fd8190555050565b606060006121fb836116ff565b905060008167ffffffffffffffff81111561221957612218613f56565b5b6040519080825280602002602001820160405280156122475781602001602082028036833780820191505090505b50905060005b612256856116ff565b8110156122995761226785826111b2565b82828151811061227a57612279614986565b5b602002602001018181525050808061229190614da7565b91505061224d565b819350505050919050565b6101005481565b6000606a60008473ffffffffffffffffffffffffffffffffffffffff1673ffffffffffffffffffffffffffffffffffffffff16815260200190815260200160002060008373ffffffffffffffffffffffffffffffffffffffff1673ffffffffffffffffffffffffffffffffffffffff16815260200190815260200160002060009054906101000a900460ff16905092915050565b6123476126b2565b73ffffffffffffffffffffffffffffffffffffffff16612365611967565b73ffffffffffffffffffffffffffffffffffffffff16146123bb576040517f08c379a00000000000000000000000000000000000000000000000000000000081526004016123b29061459a565b60405180910390fd5b8061010c60006101000a81548173ffffffffffffffffffffffffffffffffffffffff021916908373ffffffffffffffffffffffffffffffffffffffff16021790555050565b6124086126b2565b73ffffffffffffffffffffffffffffffffffffffff16612426611967565b73ffffffffffffffffffffffffffffffffffffffff161461247c576040517f08c379a00000000000000000000000000000000000000000000000000000000081526004016124739061459a565b60405180910390fd5b600073ffffffffffffffffffffffffffffffffffffffff168173ffffffffffffffffffffffffffffffffffffffff16036124eb576040517f08c379a00000000000000000000000000000000000000000000000000000000081526004016124e290614ff4565b60405180910390fd5b6124f481612b5a565b50565b61010c60009054906101000a900473ffffffffffffffffffffffffffffffffffffffff1673ffffffffffffffffffffffffffffffffffffffff163373ffffffffffffffffffffffffffffffffffffffff1614612588576040517f08c379a000000000000000000000000000000000000000000000000000000000815260040161257f90615060565b60405180910390fd5b8061010d600084815260200190815260200160002060008282546125ac9190614d51565b925050819055505050565b61010d6020528060005260406000206000915090505481565b60007f80ac58cd000000000000000000000000000000000000000000000000000000007bffffffffffffffffffffffffffffffffffffffffffffffffffffffff1916827bffffffffffffffffffffffffffffffffffffffffffffffffffffffff1916148061269b57507f5b5e139f000000000000000000000000000000000000000000000000000000007bffffffffffffffffffffffffffffffffffffffffffffffffffffffff1916827bffffffffffffffffffffffffffffffffffffffffffffffffffffffff1916145b806126ab57506126aa82612ff1565b5b9050919050565b600033905090565b600060016126c961010861305b565b6126d39190614d51565b905090565b6126e28282613069565b6126ed610108613087565b5050565b60008073ffffffffffffffffffffffffffffffffffffffff166067600084815260200190815260200160002060009054906101000a900473ffffffffffffffffffffffffffffffffffffffff1673ffffffffffffffffffffffffffffffffffffffff1614159050919050565b816069600083815260200190815260200160002060006101000a81548173ffffffffffffffffffffffffffffffffffffffff021916908373ffffffffffffffffffffffffffffffffffffffff160217905550808273ffffffffffffffffffffffffffffffffffffffff166127d0836115c0565b73ffffffffffffffffffffffffffffffffffffffff167f8c5be1e5ebec7d5bd14f71427d1e84f3dd0314c0f7b2291e5b200ac8c7c3b92560405160405180910390a45050565b6000612821826126f1565b612860576040517f08c379a0000000000000000000000000000000000000000000000000000000008152600401612857906150f2565b60405180910390fd5b600061286b836115c0565b90508073ffffffffffffffffffffffffffffffffffffffff168473ffffffffffffffffffffffffffffffffffffffff1614806128da57508373ffffffffffffffffffffffffffffffffffffffff166128c284610d8f565b73ffffffffffffffffffffffffffffffffffffffff16145b806128eb57506128ea81856122ab565b5b91505092915050565b8273ffffffffffffffffffffffffffffffffffffffff16612914826115c0565b73ffffffffffffffffffffffffffffffffffffffff161461296a576040517f08c379a000000000000000000000000000000000000000000000000000000000815260040161296190615184565b60405180910390fd5b600073ffffffffffffffffffffffffffffffffffffffff168273ffffffffffffffffffffffffffffffffffffffff16036129d9576040517f08c379a00000000000000000000000000000000000000000000000000000000081526004016129d090615216565b60405180910390fd5b6129e483838361309d565b6129ef60008261275d565b6001606860008573ffffffffffffffffffffffffffffffffffffffff1673ffffffffffffffffffffffffffffffffffffffff1681526020019081526020016000206000828254612a3f9190615236565b925050819055506001606860008473ffffffffffffffffffffffffffffffffffffffff1673ffffffffffffffffffffffffffffffffffffffff1681526020019081526020016000206000828254612a969190614d51565b92505081905550816067600083815260200190815260200160002060006101000a81548173ffffffffffffffffffffffffffffffffffffffff021916908373ffffffffffffffffffffffffffffffffffffffff160217905550808273ffffffffffffffffffffffffffffffffffffffff168473ffffffffffffffffffffffffffffffffffffffff167fddf252ad1be2c89b69c2b068fc378daa952ba7f163c4a11628f55a4df523b3ef60405160405180910390a4612b558383836131af565b505050565b600060c960009054906101000a900473ffffffffffffffffffffffffffffffffffffffff1690508160c960006101000a81548173ffffffffffffffffffffffffffffffffffffffff021916908373ffffffffffffffffffffffffffffffffffffffff1602179055508173ffffffffffffffffffffffffffffffffffffffff168173ffffffffffffffffffffffffffffffffffffffff167f8be0079c531659141344cd1fd0a4f28419497f9722a3daafe3b4186f6b6457e060405160405180910390a35050565b600082612c2d85846131b4565b1490509392505050565b8173ffffffffffffffffffffffffffffffffffffffff168373ffffffffffffffffffffffffffffffffffffffff1603612ca5576040517f08c379a0000000000000000000000000000000000000000000000000000000008152600401612c9c906152b6565b60405180910390fd5b80606a60008573ffffffffffffffffffffffffffffffffffffffff1673ffffffffffffffffffffffffffffffffffffffff16815260200190815260200160002060008473ffffffffffffffffffffffffffffffffffffffff1673ffffffffffffffffffffffffffffffffffffffff16815260200190815260200160002060006101000a81548160ff0219169083151502179055508173ffffffffffffffffffffffffffffffffffffffff168373ffffffffffffffffffffffffffffffffffffffff167f17307eab39ab6107e8899845ad3d59bd9653f200f220920489ca2b5937696c3183604051612d969190613b41565b60405180910390a3505050565b612dae8484846128f4565b612dba84848484613229565b612df9576040517f08c379a0000000000000000000000000000000000000000000000000000000008152600401612df090615348565b60405180910390fd5b50505050565b606060fe8054612e0e906145e9565b80601f0160208091040260200160405190810160405280929190818152602001828054612e3a906145e9565b8015612e875780601f10612e5c57610100808354040283529160200191612e87565b820191906000526020600020905b815481529060010190602001808311612e6a57829003601f168201915b5050505050905090565b606060008203612ed8576040518060400160405280600181526020017f30000000000000000000000000000000000000000000000000000000000000008152509050612fec565b600082905060005b60008214612f0a578080612ef390614da7565b915050600a82612f039190614b79565b9150612ee0565b60008167ffffffffffffffff811115612f2657612f25613f56565b5b6040519080825280601f01601f191660200182016040528015612f585781602001600182028036833780820191505090505b5090505b60008514612fe557600182612f719190615236565b9150600a85612f809190615368565b6030612f8c9190614d51565b60f81b818381518110612fa257612fa1614986565b5b60200101907effffffffffffffffffffffffffffffffffffffffffffffffffffffffffffff1916908160001a905350600a85612fde9190614b79565b9450612f5c565b8093505050505b919050565b60007f01ffc9a7000000000000000000000000000000000000000000000000000000007bffffffffffffffffffffffffffffffffffffffffffffffffffffffff1916827bffffffffffffffffffffffffffffffffffffffffffffffffffffffff1916149050919050565b600081600001549050919050565b6130838282604051806020016040528060008152506133b0565b5050565b6001816000016000828254019250508190555050565b6130a883838361340b565b600073ffffffffffffffffffffffffffffffffffffffff168373ffffffffffffffffffffffffffffffffffffffff16036130ea576130e581613410565b613129565b8173ffffffffffffffffffffffffffffffffffffffff168373ffffffffffffffffffffffffffffffffffffffff1614613128576131278382613459565b5b5b600073ffffffffffffffffffffffffffffffffffffffff168273ffffffffffffffffffffffffffffffffffffffff160361316b57613166816135c6565b6131aa565b8273ffffffffffffffffffffffffffffffffffffffff168273ffffffffffffffffffffffffffffffffffffffff16146131a9576131a88282613697565b5b5b505050565b505050565b60008082905060005b845181101561321e5760008582815181106131db576131da614986565b5b602002602001015190508083116131fd576131f68382613716565b925061320a565b6132078184613716565b92505b50808061321690614da7565b9150506131bd565b508091505092915050565b600061324a8473ffffffffffffffffffffffffffffffffffffffff1661372d565b156133a3578373ffffffffffffffffffffffffffffffffffffffff1663150b7a026132736126b2565b8786866040518563ffffffff1660e01b815260040161329594939291906153ee565b6020604051808303816000875af19250505080156132d157506040513d601f19601f820116820180604052508101906132ce919061544f565b60015b613353573d8060008114613301576040519150601f19603f3d011682016040523d82523d6000602084013e613306565b606091505b50600081510361334b576040517f08c379a000000000000000000000000000000000000000000000000000000000815260040161334290615348565b60405180910390fd5b805181602001fd5b63150b7a0260e01b7bffffffffffffffffffffffffffffffffffffffffffffffffffffffff1916817bffffffffffffffffffffffffffffffffffffffffffffffffffffffff1916149150506133a8565b600190505b949350505050565b6133ba8383613750565b6133c76000848484613229565b613406576040517f08c379a00000000000000000000000000000000000000000000000000000000081526004016133fd90615348565b60405180910390fd5b505050565b505050565b609980549050609a600083815260200190815260200160002081905550609981908060018154018082558091505060019003906000526020600020016000909190919091505550565b60006001613466846116ff565b6134709190615236565b9050600060986000848152602001908152602001600020549050818114613555576000609760008673ffffffffffffffffffffffffffffffffffffffff1673ffffffffffffffffffffffffffffffffffffffff168152602001908152602001600020600084815260200190815260200160002054905080609760008773ffffffffffffffffffffffffffffffffffffffff1673ffffffffffffffffffffffffffffffffffffffff168152602001908152602001600020600084815260200190815260200160002081905550816098600083815260200190815260200160002081905550505b6098600084815260200190815260200160002060009055609760008573ffffffffffffffffffffffffffffffffffffffff1673ffffffffffffffffffffffffffffffffffffffff16815260200190815260200160002060008381526020019081526020016000206000905550505050565b600060016099805490506135da9190615236565b90506000609a600084815260200190815260200160002054905060006099838154811061360a57613609614986565b5b90600052602060002001549050806099838154811061362c5761362b614986565b5b906000526020600020018190555081609a600083815260200190815260200160002081905550609a600085815260200190815260200160002060009055609980548061367b5761367a61547c565b5b6001900381819060005260206000200160009055905550505050565b60006136a2836116ff565b905081609760008573ffffffffffffffffffffffffffffffffffffffff1673ffffffffffffffffffffffffffffffffffffffff168152602001908152602001600020600083815260200190815260200160002081905550806098600084815260200190815260200160002081905550505050565b600082600052816020526040600020905092915050565b6000808273ffffffffffffffffffffffffffffffffffffffff163b119050919050565b600073ffffffffffffffffffffffffffffffffffffffff168273ffffffffffffffffffffffffffffffffffffffff16036137bf576040517f08c379a00000000000000000000000000000000000000000000000000000000081526004016137b6906154f7565b60405180910390fd5b6137c8816126f1565b15613808576040517f08c379a00000000000000000000000000000000000000000000000000000000081526004016137ff90615563565b60405180910390fd5b6138146000838361309d565b6001606860008473ffffffffffffffffffffffffffffffffffffffff1673ffffffffffffffffffffffffffffffffffffffff16815260200190815260200160002060008282546138649190614d51565b92505081905550816067600083815260200190815260200160002060006101000a81548173ffffffffffffffffffffffffffffffffffffffff021916908373ffffffffffffffffffffffffffffffffffffffff160217905550808273ffffffffffffffffffffffffffffffffffffffff16600073ffffffffffffffffffffffffffffffffffffffff167fddf252ad1be2c89b69c2b068fc378daa952ba7f163c4a11628f55a4df523b3ef60405160405180910390a4613925600083836131af565b5050565b828054613935906145e9565b90600052602060002090601f016020900481019282613957576000855561399e565b82601f1061397057805160ff191683800117855561399e565b8280016001018555821561399e579182015b8281111561399d578251825591602001919060010190613982565b5b5090506139ab9190613a70565b5090565b50805460008255906000526020600020908101906139cd9190613a70565b50565b828054828255906000526020600020908101928215613a5f579160200282015b82811115613a5e57823573ffffffffffffffffffffffffffffffffffffffff168260006101000a81548173ffffffffffffffffffffffffffffffffffffffff021916908373ffffffffffffffffffffffffffffffffffffffff160217905550916020019190600101906139f0565b5b509050613a6c9190613a70565b5090565b5b80821115613a89576000816000905550600101613a71565b5090565b6000604051905090565b600080fd5b600080fd5b60007fffffffff0000000000000000000000000000000000000000000000000000000082169050919050565b613ad681613aa1565b8114613ae157600080fd5b50565b600081359050613af381613acd565b92915050565b600060208284031215613b0f57613b0e613a97565b5b6000613b1d84828501613ae4565b91505092915050565b60008115159050919050565b613b3b81613b26565b82525050565b6000602082019050613b566000830184613b32565b92915050565b613b6581613b26565b8114613b7057600080fd5b50565b600081359050613b8281613b5c565b92915050565b600060208284031215613b9e57613b9d613a97565b5b6000613bac84828501613b73565b91505092915050565b600081519050919050565b600082825260208201905092915050565b60005b83811015613bef578082015181840152602081019050613bd4565b83811115613bfe576000848401525b50505050565b6000601f19601f8301169050919050565b6000613c2082613bb5565b613c2a8185613bc0565b9350613c3a818560208601613bd1565b613c4381613c04565b840191505092915050565b60006020820190508181036000830152613c688184613c15565b905092915050565b6000819050919050565b613c8381613c70565b8114613c8e57600080fd5b50565b600081359050613ca081613c7a565b92915050565b600060208284031215613cbc57613cbb613a97565b5b6000613cca84828501613c91565b91505092915050565b600073ffffffffffffffffffffffffffffffffffffffff82169050919050565b6000613cfe82613cd3565b9050919050565b613d0e81613cf3565b82525050565b6000602082019050613d296000830184613d05565b92915050565b613d3881613cf3565b8114613d4357600080fd5b50565b600081359050613d5581613d2f565b92915050565b60008060408385031215613d7257613d71613a97565b5b6000613d8085828601613d46565b9250506020613d9185828601613c91565b9150509250929050565b6000819050919050565b613dae81613d9b565b82525050565b6000602082019050613dc96000830184613da5565b92915050565b6000819050919050565b6000613df4613def613dea84613cd3565b613dcf565b613cd3565b9050919050565b6000613e0682613dd9565b9050919050565b6000613e1882613dfb565b9050919050565b613e2881613e0d565b82525050565b6000602082019050613e436000830184613e1f565b92915050565b613e5281613d9b565b8114613e5d57600080fd5b50565b600081359050613e6f81613e49565b92915050565b600060208284031215613e8b57613e8a613a97565b5b6000613e9984828501613e60565b91505092915050565b613eab81613c70565b82525050565b6000602082019050613ec66000830184613ea2565b92915050565b600060208284031215613ee257613ee1613a97565b5b6000613ef084828501613d46565b91505092915050565b600080600060608486031215613f1257613f11613a97565b5b6000613f2086828701613d46565b9350506020613f3186828701613d46565b9250506040613f4286828701613c91565b9150509250925092565b600080fd5b600080fd5b7f4e487b7100000000000000000000000000000000000000000000000000000000600052604160045260246000fd5b613f8e82613c04565b810181811067ffffffffffffffff82111715613fad57613fac613f56565b5b80604052505050565b6000613fc0613a8d565b9050613fcc8282613f85565b919050565b600067ffffffffffffffff821115613fec57613feb613f56565b5b613ff582613c04565b9050602081019050919050565b82818337600083830152505050565b600061402461401f84613fd1565b613fb6565b9050828152602081018484840111156140405761403f613f51565b5b61404b848285614002565b509392505050565b600082601f83011261406857614067613f4c565b5b8135614078848260208601614011565b91505092915050565b60006020828403121561409757614096613a97565b5b600082013567ffffffffffffffff8111156140b5576140b4613a9c565b5b6140c184828501614053565b91505092915050565b60006140d582613dfb565b9050919050565b6140e5816140ca565b82525050565b600060208201905061410060008301846140dc565b92915050565b600080fd5b600080fd5b60008083601f84011261412657614125613f4c565b5b8235905067ffffffffffffffff81111561414357614142614106565b5b60208301915083602082028301111561415f5761415e61410b565b5b9250929050565b6000806020838503121561417d5761417c613a97565b5b600083013567ffffffffffffffff81111561419b5761419a613a9c565b5b6141a785828601614110565b92509250509250929050565b60008083601f8401126141c9576141c8613f4c565b5b8235905067ffffffffffffffff8111156141e6576141e5614106565b5b6020830191508360208202830111156142025761420161410b565b5b9250929050565b6000806000806040858703121561422357614222613a97565b5b600085013567ffffffffffffffff81111561424157614240613a9c565b5b61424d878288016141b3565b9450945050602085013567ffffffffffffffff8111156142705761426f613a9c565b5b61427c878288016141b3565b925092505092959194509250565b600080604083850312156142a1576142a0613a97565b5b60006142af85828601613d46565b92505060206142c085828601613b73565b9150509250929050565b600067ffffffffffffffff8211156142e5576142e4613f56565b5b6142ee82613c04565b9050602081019050919050565b600061430e614309846142ca565b613fb6565b90508281526020810184848401111561432a57614329613f51565b5b614335848285614002565b509392505050565b600082601f83011261435257614351613f4c565b5b81356143628482602086016142fb565b91505092915050565b6000806000806080858703121561438557614384613a97565b5b600061439387828801613d46565b94505060206143a487828801613d46565b93505060406143b587828801613c91565b925050606085013567ffffffffffffffff8111156143d6576143d5613a9c565b5b6143e28782880161433d565b91505092959194509250565b600081519050919050565b600082825260208201905092915050565b6000819050602082019050919050565b61442381613c70565b82525050565b6000614435838361441a565b60208301905092915050565b6000602082019050919050565b6000614459826143ee565b61446381856143f9565b935061446e8361440a565b8060005b8381101561449f5781516144868882614429565b975061449183614441565b925050600181019050614472565b5085935050505092915050565b600060208201905081810360008301526144c6818461444e565b905092915050565b600080604083850312156144e5576144e4613a97565b5b60006144f385828601613d46565b925050602061450485828601613d46565b9150509250929050565b6000806040838503121561452557614524613a97565b5b600061453385828601613c91565b925050602061454485828601613c91565b9150509250929050565b7f4f776e61626c653a2063616c6c6572206973206e6f7420746865206f776e6572600082015250565b6000614584602083613bc0565b915061458f8261454e565b602082019050919050565b600060208201905081810360008301526145b381614577565b9050919050565b7f4e487b7100000000000000000000000000000000000000000000000000000000600052602260045260246000fd5b6000600282049050600182168061460157607f821691505b602082108103614614576146136145ba565b5b50919050565b7f4552433732313a20617070726f76656420717565727920666f72206e6f6e657860008201527f697374656e7420746f6b656e0000000000000000000000000000000000000000602082015250565b6000614676602c83613bc0565b91506146818261461a565b604082019050919050565b600060208201905081810360008301526146a581614669565b9050919050565b7f4552433732313a20617070726f76616c20746f2063757272656e74206f776e6560008201527f7200000000000000000000000000000000000000000000000000000000000000602082015250565b6000614708602183613bc0565b9150614713826146ac565b604082019050919050565b60006020820190508181036000830152614737816146fb565b9050919050565b7f4552433732313a20617070726f76652063616c6c6572206973206e6f74206f7760008201527f6e6572206e6f7220617070726f76656420666f7220616c6c0000000000000000602082015250565b600061479a603883613bc0565b91506147a58261473e565b604082019050919050565b600060208201905081810360008301526147c98161478d565b9050919050565b7f4552433732313a207472616e736665722063616c6c6572206973206e6f74206f60008201527f776e6572206e6f7220617070726f766564000000000000000000000000000000602082015250565b600061482c603183613bc0565b9150614837826147d0565b604082019050919050565b6000602082019050818103600083015261485b8161481f565b9050919050565b7f455243373231456e756d657261626c653a206f776e657220696e646578206f7560008201527f74206f6620626f756e6473000000000000000000000000000000000000000000602082015250565b60006148be602b83613bc0565b91506148c982614862565b604082019050919050565b600060208201905081810360008301526148ed816148b1565b9050919050565b7f455243373231456e756d657261626c653a20676c6f62616c20696e646578206f60008201527f7574206f6620626f756e64730000000000000000000000000000000000000000602082015250565b6000614950602c83613bc0565b915061495b826148f4565b604082019050919050565b6000602082019050818103600083015261497f81614943565b9050919050565b7f4e487b7100000000000000000000000000000000000000000000000000000000600052603260045260246000fd5b7f4552433732313a206f776e657220717565727920666f72206e6f6e657869737460008201527f656e7420746f6b656e0000000000000000000000000000000000000000000000602082015250565b6000614a11602983613bc0565b9150614a1c826149b5565b604082019050919050565b60006020820190508181036000830152614a4081614a04565b9050919050565b7f4552433732313a2062616c616e636520717565727920666f7220746865207a6560008201527f726f206164647265737300000000000000000000000000000000000000000000602082015250565b6000614aa3602a83613bc0565b9150614aae82614a47565b604082019050919050565b60006020820190508181036000830152614ad281614a96565b9050919050565b600081519050614ae881613c7a565b92915050565b600060208284031215614b0457614b03613a97565b5b6000614b1284828501614ad9565b91505092915050565b7f4e487b7100000000000000000000000000000000000000000000000000000000600052601260045260246000fd5b7f4e487b7100000000000000000000000000000000000000000000000000000000600052601160045260246000fd5b6000614b8482613c70565b9150614b8f83613c70565b925082614b9f57614b9e614b1b565b5b828204905092915050565b7f4e6f7420656e6f756768206d6167696320696e2077616c6c6574000000000000600082015250565b6000614be0601a83613bc0565b9150614beb82614baa565b602082019050919050565b60006020820190508181036000830152614c0f81614bd3565b9050919050565b7f7573657220616c72656164792077686974656c69737465640000000000000000600082015250565b6000614c4c601883613bc0565b9150614c5782614c16565b602082019050919050565b60006020820190508181036000830152614c7b81614c3f565b9050919050565b60008160601b9050919050565b6000614c9a82614c82565b9050919050565b6000614cac82614c8f565b9050919050565b614cc4614cbf82613cf3565b614ca1565b82525050565b6000614cd68284614cb3565b60148201915081905092915050565b7f496e76616c69642070726f6f66202d206e6f742077686974656c697374656400600082015250565b6000614d1b601f83613bc0565b9150614d2682614ce5565b602082019050919050565b60006020820190508181036000830152614d4a81614d0e565b9050919050565b6000614d5c82613c70565b9150614d6783613c70565b9250827fffffffffffffffffffffffffffffffffffffffffffffffffffffffffffffffff03821115614d9c57614d9b614b4a565b5b828201905092915050565b6000614db282613c70565b91507fffffffffffffffffffffffffffffffffffffffffffffffffffffffffffffffff8203614de457614de3614b4a565b5b600182019050919050565b7f4552433732314d657461646174613a2055524920717565727920666f72206e6f60008201527f6e6578697374656e7420746f6b656e0000000000000000000000000000000000602082015250565b6000614e4b602f83613bc0565b9150614e5682614def565b604082019050919050565b60006020820190508181036000830152614e7a81614e3e565b9050919050565b600081905092915050565b60008190508160005260206000209050919050565b60008154614eae816145e9565b614eb88186614e81565b94506001821660008114614ed35760018114614ee457614f17565b60ff19831686528186019350614f17565b614eed85614e8c565b60005b83811015614f0f57815481890152600182019150602081019050614ef0565b838801955050505b50505092915050565b6000614f2b82613bb5565b614f358185614e81565b9350614f45818560208601613bd1565b80840191505092915050565b6000614f5d8286614ea1565b9150614f698285614f20565b9150614f758284614ea1565b9150819050949350505050565b7f4f776e61626c653a206e6577206f776e657220697320746865207a65726f206160008201527f6464726573730000000000000000000000000000000000000000000000000000602082015250565b6000614fde602683613bc0565b9150614fe982614f82565b604082019050919050565b6000602082019050818103600083015261500d81614fd1565b9050919050565b7f426f626f74733a2021436f72654368616d626572000000000000000000000000600082015250565b600061504a601483613bc0565b915061505582615014565b602082019050919050565b600060208201905081810360008301526150798161503d565b9050919050565b7f4552433732313a206f70657261746f7220717565727920666f72206e6f6e657860008201527f697374656e7420746f6b656e0000000000000000000000000000000000000000602082015250565b60006150dc602c83613bc0565b91506150e782615080565b604082019050919050565b6000602082019050818103600083015261510b816150cf565b9050919050565b7f4552433732313a207472616e736665722066726f6d20696e636f72726563742060008201527f6f776e6572000000000000000000000000000000000000000000000000000000602082015250565b600061516e602583613bc0565b915061517982615112565b604082019050919050565b6000602082019050818103600083015261519d81615161565b9050919050565b7f4552433732313a207472616e7366657220746f20746865207a65726f2061646460008201527f7265737300000000000000000000000000000000000000000000000000000000602082015250565b6000615200602483613bc0565b915061520b826151a4565b604082019050919050565b6000602082019050818103600083015261522f816151f3565b9050919050565b600061524182613c70565b915061524c83613c70565b92508282101561525f5761525e614b4a565b5b828203905092915050565b7f4552433732313a20617070726f766520746f2063616c6c657200000000000000600082015250565b60006152a0601983613bc0565b91506152ab8261526a565b602082019050919050565b600060208201905081810360008301526152cf81615293565b9050919050565b7f4552433732313a207472616e7366657220746f206e6f6e20455243373231526560008201527f63656976657220696d706c656d656e7465720000000000000000000000000000602082015250565b6000615332603283613bc0565b915061533d826152d6565b604082019050919050565b6000602082019050818103600083015261536181615325565b9050919050565b600061537382613c70565b915061537e83613c70565b92508261538e5761538d614b1b565b5b828206905092915050565b600081519050919050565b600082825260208201905092915050565b60006153c082615399565b6153ca81856153a4565b93506153da818560208601613bd1565b6153e381613c04565b840191505092915050565b60006080820190506154036000830187613d05565b6154106020830186613d05565b61541d6040830185613ea2565b818103606083015261542f81846153b5565b905095945050505050565b60008151905061544981613acd565b92915050565b60006020828403121561546557615464613a97565b5b60006154738482850161543a565b91505092915050565b7f4e487b7100000000000000000000000000000000000000000000000000000000600052603160045260246000fd5b7f4552433732313a206d696e7420746f20746865207a65726f2061646472657373600082015250565b60006154e1602083613bc0565b91506154ec826154ab565b602082019050919050565b60006020820190508181036000830152615510816154d4565b9050919050565b7f4552433732313a20746f6b656e20616c7265616479206d696e74656400000000600082015250565b600061554d601c83613bc0565b915061555882615517565b602082019050919050565b6000602082019050818103600083015261557c81615540565b905091905056fea2646970667358221220f6036c8d7c0e840711f72d87941c248e3894b4d3e43146c514ce76fb296cf3d364736f6c634300080d0033",
  "linkReferences": {},
  "deployedLinkReferences": {}
}