{
  "_format": "hh-sol-artifact-1",
  "contractName": "BobotGenesis",
  "sourceName": "contracts/BobotGenesis.sol",
  "abi": [
    {
      "anonymous": false,
      "inputs": [
        {
          "indexed": true,
          "internalType": "address",
          "name": "owner",
          "type": "address"
        },
        {
          "indexed": true,
          "internalType": "address",
          "name": "approved",
          "type": "address"
        },
        {
          "indexed": true,
          "internalType": "uint256",
          "name": "tokenId",
          "type": "uint256"
        }
      ],
      "name": "Approval",
      "type": "event"
    },
    {
      "anonymous": false,
      "inputs": [
        {
          "indexed": true,
          "internalType": "address",
          "name": "owner",
          "type": "address"
        },
        {
          "indexed": true,
          "internalType": "address",
          "name": "operator",
          "type": "address"
        },
        {
          "indexed": false,
          "internalType": "bool",
          "name": "approved",
          "type": "bool"
        }
      ],
      "name": "ApprovalForAll",
      "type": "event"
    },
    {
      "anonymous": false,
      "inputs": [
        {
          "indexed": false,
          "internalType": "uint8",
          "name": "version",
          "type": "uint8"
        }
      ],
      "name": "Initialized",
      "type": "event"
    },
    {
      "anonymous": false,
      "inputs": [
        {
          "indexed": true,
          "internalType": "address",
          "name": "previousOwner",
          "type": "address"
        },
        {
          "indexed": true,
          "internalType": "address",
          "name": "newOwner",
          "type": "address"
        }
      ],
      "name": "OwnershipTransferred",
      "type": "event"
    },
    {
      "anonymous": false,
      "inputs": [
        {
          "indexed": true,
          "internalType": "address",
          "name": "from",
          "type": "address"
        },
        {
          "indexed": true,
          "internalType": "address",
          "name": "to",
          "type": "address"
        },
        {
          "indexed": true,
          "internalType": "uint256",
          "name": "tokenId",
          "type": "uint256"
        }
      ],
      "name": "Transfer",
      "type": "event"
    },
    {
      "inputs": [
        {
          "internalType": "address",
          "name": "_to",
          "type": "address"
        },
        {
          "internalType": "uint256",
          "name": "_amount",
          "type": "uint256"
        }
      ],
      "name": "airdrop",
      "outputs": [],
      "stateMutability": "nonpayable",
      "type": "function"
    },
    {
      "inputs": [
        {
          "internalType": "address",
          "name": "to",
          "type": "address"
        },
        {
          "internalType": "uint256",
          "name": "tokenId",
          "type": "uint256"
        }
      ],
      "name": "approve",
      "outputs": [],
      "stateMutability": "nonpayable",
      "type": "function"
    },
    {
      "inputs": [
        {
          "internalType": "address",
          "name": "owner",
          "type": "address"
        }
      ],
      "name": "balanceOf",
      "outputs": [
        {
          "internalType": "uint256",
          "name": "",
          "type": "uint256"
        }
      ],
      "stateMutability": "view",
      "type": "function"
    },
    {
      "inputs": [],
      "name": "baseExtention",
      "outputs": [
        {
          "internalType": "string",
          "name": "",
          "type": "string"
        }
      ],
      "stateMutability": "view",
      "type": "function"
    },
    {
      "inputs": [],
      "name": "baseHiddenURI",
      "outputs": [
        {
          "internalType": "string",
          "name": "",
          "type": "string"
        }
      ],
      "stateMutability": "view",
      "type": "function"
    },
    {
      "inputs": [],
      "name": "baseRevealedURI",
      "outputs": [
        {
          "internalType": "string",
          "name": "",
          "type": "string"
        }
      ],
      "stateMutability": "view",
      "type": "function"
    },
    {
      "inputs": [
        {
          "internalType": "uint256",
          "name": "",
          "type": "uint256"
        }
      ],
      "name": "bobotCorePoints",
      "outputs": [
        {
          "internalType": "uint256",
          "name": "",
          "type": "uint256"
        }
      ],
      "stateMutability": "view",
      "type": "function"
    },
    {
      "inputs": [
        {
          "internalType": "address",
          "name": "_claimed",
          "type": "address"
        }
      ],
      "name": "checkClaimed",
      "outputs": [
        {
          "internalType": "bool",
          "name": "",
          "type": "bool"
        }
      ],
      "stateMutability": "view",
      "type": "function"
    },
    {
      "inputs": [],
      "name": "coreChamber",
      "outputs": [
        {
          "internalType": "contract CoreChamber",
          "name": "",
          "type": "address"
        }
      ],
      "stateMutability": "view",
      "type": "function"
    },
    {
      "inputs": [
        {
          "internalType": "uint256",
          "name": "_tokenId",
          "type": "uint256"
        },
        {
          "internalType": "uint256",
          "name": "_coreEarned",
          "type": "uint256"
        }
      ],
      "name": "coreChamberCorePointUpdate",
      "outputs": [],
      "stateMutability": "nonpayable",
      "type": "function"
    },
    {
      "inputs": [],
      "name": "coreChamberLevelCost",
      "outputs": [
        {
          "internalType": "uint256",
          "name": "",
          "type": "uint256"
        }
      ],
      "stateMutability": "view",
      "type": "function"
    },
    {
      "inputs": [
        {
          "internalType": "uint256",
          "name": "tokenId",
          "type": "uint256"
        }
      ],
      "name": "getApproved",
      "outputs": [
        {
          "internalType": "address",
          "name": "",
          "type": "address"
        }
      ],
      "stateMutability": "view",
      "type": "function"
    },
    {
      "inputs": [],
      "name": "getBobotType",
      "outputs": [
        {
          "internalType": "enum IBobot.BobotType",
          "name": "",
          "type": "uint8"
        }
      ],
      "stateMutability": "view",
      "type": "function"
    },
    {
      "inputs": [
        {
          "internalType": "uint256",
          "name": "_tokenID",
          "type": "uint256"
        }
      ],
      "name": "getCurrentBobotLevel",
      "outputs": [
        {
          "internalType": "uint256",
          "name": "",
          "type": "uint256"
        }
      ],
      "stateMutability": "view",
      "type": "function"
    },
    {
      "inputs": [
        {
          "internalType": "address",
          "name": "_owner",
          "type": "address"
        }
      ],
      "name": "getTokenIds",
      "outputs": [
        {
          "internalType": "uint256[]",
          "name": "",
          "type": "uint256[]"
        }
      ],
      "stateMutability": "view",
      "type": "function"
    },
    {
      "inputs": [
        {
          "internalType": "uint256",
          "name": "tokenID",
          "type": "uint256"
        }
      ],
      "name": "getTokenURI",
      "outputs": [
        {
          "internalType": "string",
          "name": "",
          "type": "string"
        }
      ],
      "stateMutability": "view",
      "type": "function"
    },
    {
      "inputs": [],
      "name": "initialize",
      "outputs": [],
      "stateMutability": "nonpayable",
      "type": "function"
    },
    {
      "inputs": [
        {
          "internalType": "address",
          "name": "owner",
          "type": "address"
        },
        {
          "internalType": "address",
          "name": "operator",
          "type": "address"
        }
      ],
      "name": "isApprovedForAll",
      "outputs": [
        {
          "internalType": "bool",
          "name": "",
          "type": "bool"
        }
      ],
      "stateMutability": "view",
      "type": "function"
    },
    {
      "inputs": [],
      "name": "maxLevelAmount",
      "outputs": [
        {
          "internalType": "uint256",
          "name": "",
          "type": "uint256"
        }
      ],
      "stateMutability": "view",
      "type": "function"
    },
    {
      "inputs": [
        {
          "internalType": "bytes32[]",
          "name": "_merkleProof",
          "type": "bytes32[]"
        }
      ],
      "name": "mintBobot",
      "outputs": [],
      "stateMutability": "payable",
      "type": "function"
    },
    {
      "inputs": [],
      "name": "name",
      "outputs": [
        {
          "internalType": "string",
          "name": "",
          "type": "string"
        }
      ],
      "stateMutability": "view",
      "type": "function"
    },
    {
      "inputs": [],
      "name": "owner",
      "outputs": [
        {
          "internalType": "address",
          "name": "",
          "type": "address"
        }
      ],
      "stateMutability": "view",
      "type": "function"
    },
    {
      "inputs": [
        {
          "internalType": "uint256",
          "name": "tokenId",
          "type": "uint256"
        }
      ],
      "name": "ownerOf",
      "outputs": [
        {
          "internalType": "address",
          "name": "",
          "type": "address"
        }
      ],
      "stateMutability": "view",
      "type": "function"
    },
    {
      "inputs": [
        {
          "internalType": "bool",
          "name": "_state",
          "type": "bool"
        }
      ],
      "name": "pause",
      "outputs": [],
      "stateMutability": "nonpayable",
      "type": "function"
    },
    {
      "inputs": [],
      "name": "paused",
      "outputs": [
        {
          "internalType": "bool",
          "name": "",
          "type": "bool"
        }
      ],
      "stateMutability": "view",
      "type": "function"
    },
    {
      "inputs": [],
      "name": "renounceOwnership",
      "outputs": [],
      "stateMutability": "nonpayable",
      "type": "function"
    },
    {
      "inputs": [
        {
          "internalType": "bool",
          "name": "_revealed",
          "type": "bool"
        }
      ],
      "name": "reveal",
      "outputs": [],
      "stateMutability": "nonpayable",
      "type": "function"
    },
    {
      "inputs": [],
      "name": "revealed",
      "outputs": [
        {
          "internalType": "bool",
          "name": "",
          "type": "bool"
        }
      ],
      "stateMutability": "view",
      "type": "function"
    },
    {
      "inputs": [],
      "name": "rootGuardiansHash_1",
      "outputs": [
        {
          "internalType": "bytes32",
          "name": "",
          "type": "bytes32"
        }
      ],
      "stateMutability": "view",
      "type": "function"
    },
    {
      "inputs": [],
      "name": "rootGuardiansHash_2",
      "outputs": [
        {
          "internalType": "bytes32",
          "name": "",
          "type": "bytes32"
        }
      ],
      "stateMutability": "view",
      "type": "function"
    },
    {
      "inputs": [],
      "name": "rootLunarsHash",
      "outputs": [
        {
          "internalType": "bytes32",
          "name": "",
          "type": "bytes32"
        }
      ],
      "stateMutability": "view",
      "type": "function"
    },
    {
      "inputs": [
        {
          "internalType": "address",
          "name": "from",
          "type": "address"
        },
        {
          "internalType": "address",
          "name": "to",
          "type": "address"
        },
        {
          "internalType": "uint256",
          "name": "tokenId",
          "type": "uint256"
        }
      ],
      "name": "safeTransferFrom",
      "outputs": [],
      "stateMutability": "nonpayable",
      "type": "function"
    },
    {
      "inputs": [
        {
          "internalType": "address",
          "name": "from",
          "type": "address"
        },
        {
          "internalType": "address",
          "name": "to",
          "type": "address"
        },
        {
          "internalType": "uint256",
          "name": "tokenId",
          "type": "uint256"
        },
        {
          "internalType": "bytes",
          "name": "_data",
          "type": "bytes"
        }
      ],
      "name": "safeTransferFrom",
      "outputs": [],
      "stateMutability": "nonpayable",
      "type": "function"
    },
    {
      "inputs": [
        {
          "internalType": "address",
          "name": "operator",
          "type": "address"
        },
        {
          "internalType": "bool",
          "name": "approved",
          "type": "bool"
        }
      ],
      "name": "setApprovalForAll",
      "outputs": [],
      "stateMutability": "nonpayable",
      "type": "function"
    },
    {
      "inputs": [
        {
          "internalType": "string",
          "name": "_newBaseExtentions",
          "type": "string"
        }
      ],
      "name": "setBaseExtentions",
      "outputs": [],
      "stateMutability": "nonpayable",
      "type": "function"
    },
    {
      "inputs": [
        {
          "internalType": "string",
          "name": "_newBaseURI",
          "type": "string"
        }
      ],
      "name": "setBaseHiddenURI",
      "outputs": [],
      "stateMutability": "nonpayable",
      "type": "function"
    },
    {
      "inputs": [
        {
          "internalType": "string",
          "name": "_newBaseURI",
          "type": "string"
        }
      ],
      "name": "setBaseRevealedURI",
      "outputs": [],
      "stateMutability": "nonpayable",
      "type": "function"
    },
    {
      "inputs": [
        {
          "internalType": "address",
          "name": "_coreChamber",
          "type": "address"
        }
      ],
      "name": "setCoreChamber",
      "outputs": [],
      "stateMutability": "nonpayable",
      "type": "function"
    },
    {
      "inputs": [
        {
          "internalType": "uint256",
          "name": "_cost",
          "type": "uint256"
        }
      ],
      "name": "setCoreChamberLevelCost",
      "outputs": [],
      "stateMutability": "nonpayable",
      "type": "function"
    },
    {
      "inputs": [
        {
          "internalType": "uint256",
          "name": "_newLevelAmount",
          "type": "uint256"
        }
      ],
      "name": "setMaxLevel",
      "outputs": [],
      "stateMutability": "nonpayable",
      "type": "function"
    },
    {
      "inputs": [
        {
          "internalType": "bytes32",
          "name": "_rootHash",
          "type": "bytes32"
        }
      ],
      "name": "setRootGuardiansHash_1",
      "outputs": [],
      "stateMutability": "nonpayable",
      "type": "function"
    },
    {
      "inputs": [
        {
          "internalType": "bytes32",
          "name": "_rootHash",
          "type": "bytes32"
        }
      ],
      "name": "setRootGuardiansHash_2",
      "outputs": [],
      "stateMutability": "nonpayable",
      "type": "function"
    },
    {
      "inputs": [
        {
          "internalType": "bytes32",
          "name": "_rootHash",
          "type": "bytes32"
        }
      ],
      "name": "setRootLunarsHash",
      "outputs": [],
      "stateMutability": "nonpayable",
      "type": "function"
    },
    {
      "inputs": [
        {
          "internalType": "bytes4",
          "name": "interfaceId",
          "type": "bytes4"
        }
      ],
      "name": "supportsInterface",
      "outputs": [
        {
          "internalType": "bool",
          "name": "",
          "type": "bool"
        }
      ],
      "stateMutability": "view",
      "type": "function"
    },
    {
      "inputs": [],
      "name": "symbol",
      "outputs": [
        {
          "internalType": "string",
          "name": "",
          "type": "string"
        }
      ],
      "stateMutability": "view",
      "type": "function"
    },
    {
      "inputs": [
        {
          "internalType": "uint256",
          "name": "index",
          "type": "uint256"
        }
      ],
      "name": "tokenByIndex",
      "outputs": [
        {
          "internalType": "uint256",
          "name": "",
          "type": "uint256"
        }
      ],
      "stateMutability": "view",
      "type": "function"
    },
    {
      "inputs": [
        {
          "internalType": "address",
          "name": "owner",
          "type": "address"
        },
        {
          "internalType": "uint256",
          "name": "index",
          "type": "uint256"
        }
      ],
      "name": "tokenOfOwnerByIndex",
      "outputs": [
        {
          "internalType": "uint256",
          "name": "",
          "type": "uint256"
        }
      ],
      "stateMutability": "view",
      "type": "function"
    },
    {
      "inputs": [
        {
          "internalType": "uint256",
          "name": "tokenID",
          "type": "uint256"
        }
      ],
      "name": "tokenURI",
      "outputs": [
        {
          "internalType": "string",
          "name": "",
          "type": "string"
        }
      ],
      "stateMutability": "view",
      "type": "function"
    },
    {
      "inputs": [],
      "name": "totalSupply",
      "outputs": [
        {
          "internalType": "uint256",
          "name": "",
          "type": "uint256"
        }
      ],
      "stateMutability": "view",
      "type": "function"
    },
    {
      "inputs": [
        {
          "internalType": "address",
          "name": "from",
          "type": "address"
        },
        {
          "internalType": "address",
          "name": "to",
          "type": "address"
        },
        {
          "internalType": "uint256",
          "name": "tokenId",
          "type": "uint256"
        }
      ],
      "name": "transferFrom",
      "outputs": [],
      "stateMutability": "nonpayable",
      "type": "function"
    },
    {
      "inputs": [
        {
          "internalType": "address",
          "name": "newOwner",
          "type": "address"
        }
      ],
      "name": "transferOwnership",
      "outputs": [],
      "stateMutability": "nonpayable",
      "type": "function"
    },
    {
      "inputs": [
        {
          "internalType": "address",
          "name": "",
          "type": "address"
        }
      ],
      "name": "whitelistedAddressesClaimed",
      "outputs": [
        {
          "internalType": "bool",
          "name": "",
          "type": "bool"
        }
      ],
      "stateMutability": "view",
      "type": "function"
    }
  ],
  "bytecode": "0x608060405234801561001057600080fd5b50615aa080620000216000396000f3fe6080604052600436106102ff5760003560e01c8063715018a611610190578063b6e2a182116100dc578063d4c9a70f11610095578063ed6f57b71161006f578063ed6f57b714610ba7578063f2fde38b14610bd0578063f5c8834c14610bf9578063fed71b2814610c22576102ff565b8063d4c9a70f14610b04578063d60f2e6514610b41578063e985e9c514610b6a576102ff565b8063b6e2a182146109e2578063b88d4fde14610a0b578063ba58473714610a34578063c329a8cd14610a5f578063c87b56dd14610a8a578063d004b03614610ac7576102ff565b806395d89b4111610149578063a6a0305411610123578063a6a030541461094b578063a8fef08e14610974578063ab5e6df714610990578063aeb8e1cc146109b9576102ff565b806395d89b41146108ba578063a22cb465146108e5578063a3019cd01461090e576102ff565b8063715018a6146107d2578063768300f2146107e95780638129fc1c146108265780638ba4cc3c1461083d5780638da5cb5b14610866578063940cd05b14610891576102ff565b80632f745c591161024f5780634ba5f378116102085780635c975abb116101e25780635c975abb146107025780636352211e1461072d578063662125571461076a57806370a0823114610795576102ff565b80634ba5f3781461066f5780634f6ccce71461069a57806351830227146106d7576102ff565b80632f745c591461054d578063344f1ba51461058a5780633a5958e3146105b35780633bb3a24d146105de57806342842e0e1461061b57806343b946af14610644576102ff565b80630cf7572f116102bc57806318160ddd1161029657806318160ddd146104a557806323b872dd146104d057806325c13203146104f95780632793a0e314610522576102ff565b80630cf7572f146104265780630f774d0414610451578063133a979b1461047a576102ff565b806301ffc9a71461030457806302329a291461034157806306fdde031461036a578063081812fc1461039557806308454e12146103d2578063095ea7b3146103fd575b600080fd5b34801561031057600080fd5b5061032b60048036038101906103269190613e50565b610c5f565b6040516103389190613e98565b60405180910390f35b34801561034d57600080fd5b5061036860048036038101906103639190613edf565b610cd9565b005b34801561037657600080fd5b5061037f610d73565b60405161038c9190613fa5565b60405180910390f35b3480156103a157600080fd5b506103bc60048036038101906103b79190613ffd565b610e05565b6040516103c9919061406b565b60405180910390f35b3480156103de57600080fd5b506103e7610e8a565b6040516103f49190613fa5565b60405180910390f35b34801561040957600080fd5b50610424600480360381019061041f91906140b2565b610f18565b005b34801561043257600080fd5b5061043b61102f565b604051610448919061410b565b60405180910390f35b34801561045d57600080fd5b5061047860048036038101906104739190614152565b611036565b005b34801561048657600080fd5b5061048f6110bd565b60405161049c919061418e565b60405180910390f35b3480156104b157600080fd5b506104ba6110c4565b6040516104c7919061418e565b60405180910390f35b3480156104dc57600080fd5b506104f760048036038101906104f291906141a9565b6110d1565b005b34801561050557600080fd5b50610520600480360381019061051b9190614331565b611131565b005b34801561052e57600080fd5b506105376111c7565b604051610544919061410b565b60405180910390f35b34801561055957600080fd5b50610574600480360381019061056f91906140b2565b6111ce565b604051610581919061418e565b60405180910390f35b34801561059657600080fd5b506105b160048036038101906105ac9190613ffd565b611273565b005b3480156105bf57600080fd5b506105c86112f9565b6040516105d59190613fa5565b60405180910390f35b3480156105ea57600080fd5b5061060560048036038101906106009190613ffd565b611387565b6040516106129190613fa5565b60405180910390f35b34801561062757600080fd5b50610642600480360381019061063d91906141a9565b6114ef565b005b34801561065057600080fd5b5061065961150f565b60405161066691906143d9565b60405180910390f35b34801561067b57600080fd5b50610684611536565b6040516106919190613fa5565b60405180910390f35b3480156106a657600080fd5b506106c160048036038101906106bc9190613ffd565b6115c4565b6040516106ce919061418e565b60405180910390f35b3480156106e357600080fd5b506106ec611635565b6040516106f99190613e98565b60405180910390f35b34801561070e57600080fd5b50610717611648565b6040516107249190613e98565b60405180910390f35b34801561073957600080fd5b50610754600480360381019061074f9190613ffd565b61165c565b604051610761919061406b565b60405180910390f35b34801561077657600080fd5b5061077f61170d565b60405161078c919061418e565b60405180910390f35b3480156107a157600080fd5b506107bc60048036038101906107b791906143f4565b611713565b6040516107c9919061418e565b60405180910390f35b3480156107de57600080fd5b506107e76117ca565b005b3480156107f557600080fd5b50610810600480360381019061080b91906143f4565b611852565b60405161081d9190613e98565b60405180910390f35b34801561083257600080fd5b5061083b611873565b005b34801561084957600080fd5b50610864600480360381019061085f91906140b2565b611974565b005b34801561087257600080fd5b5061087b611a4b565b604051610888919061406b565b60405180910390f35b34801561089d57600080fd5b506108b860048036038101906108b39190613edf565b611a75565b005b3480156108c657600080fd5b506108cf611b0e565b6040516108dc9190613fa5565b60405180910390f35b3480156108f157600080fd5b5061090c60048036038101906109079190614421565b611ba0565b005b34801561091a57600080fd5b5061093560048036038101906109309190613ffd565b611bb6565b604051610942919061418e565b60405180910390f35b34801561095757600080fd5b50610972600480360381019061096d9190614331565b611bed565b005b61098e600480360381019061098991906144c1565b611c83565b005b34801561099c57600080fd5b506109b760048036038101906109b29190613ffd565b611f96565b005b3480156109c557600080fd5b506109e060048036038101906109db9190614152565b61201d565b005b3480156109ee57600080fd5b50610a096004803603810190610a049190614331565b6120a4565b005b348015610a1757600080fd5b50610a326004803603810190610a2d91906145af565b61213a565b005b348015610a4057600080fd5b50610a4961219c565b604051610a5691906146a9565b60405180910390f35b348015610a6b57600080fd5b50610a746121a1565b604051610a81919061410b565b60405180910390f35b348015610a9657600080fd5b50610ab16004803603810190610aac9190613ffd565b6121a8565b604051610abe9190613fa5565b60405180910390f35b348015610ad357600080fd5b50610aee6004803603810190610ae991906143f4565b6121ba565b604051610afb9190614782565b60405180910390f35b348015610b1057600080fd5b50610b2b6004803603810190610b2691906143f4565b612270565b604051610b389190613e98565b60405180910390f35b348015610b4d57600080fd5b50610b686004803603810190610b639190614152565b6122c7565b005b348015610b7657600080fd5b50610b916004803603810190610b8c91906147a4565b61234e565b604051610b9e9190613e98565b60405180910390f35b348015610bb357600080fd5b50610bce6004803603810190610bc991906143f4565b6123e2565b005b348015610bdc57600080fd5b50610bf76004803603810190610bf291906143f4565b6124a3565b005b348015610c0557600080fd5b50610c206004803603810190610c1b91906147e4565b61259a565b005b348015610c2e57600080fd5b50610c496004803603810190610c449190613ffd565b61265a565b604051610c56919061418e565b60405180910390f35b60007f780e9d63000000000000000000000000000000000000000000000000000000007bffffffffffffffffffffffffffffffffffffffffffffffffffffffff1916827bffffffffffffffffffffffffffffffffffffffffffffffffffffffff19161480610cd25750610cd182612673565b5b9050919050565b610ce1612755565b73ffffffffffffffffffffffffffffffffffffffff16610cff611a4b565b73ffffffffffffffffffffffffffffffffffffffff1614610d55576040517f08c379a0000000000000000000000000000000000000000000000000000000008152600401610d4c90614870565b60405180910390fd5b8061010760146101000a81548160ff02191690831515021790555050565b606060658054610d82906148bf565b80601f0160208091040260200160405190810160405280929190818152602001828054610dae906148bf565b8015610dfb5780601f10610dd057610100808354040283529160200191610dfb565b820191906000526020600020905b815481529060010190602001808311610dde57829003601f168201915b5050505050905090565b6000610e108261275d565b610e4f576040517f08c379a0000000000000000000000000000000000000000000000000000000008152600401610e4690614962565b60405180910390fd5b6069600083815260200190815260200160002060009054906101000a900473ffffffffffffffffffffffffffffffffffffffff169050919050565b60fb8054610e97906148bf565b80601f0160208091040260200160405190810160405280929190818152602001828054610ec3906148bf565b8015610f105780601f10610ee557610100808354040283529160200191610f10565b820191906000526020600020905b815481529060010190602001808311610ef357829003601f168201915b505050505081565b6000610f238261165c565b90508073ffffffffffffffffffffffffffffffffffffffff168373ffffffffffffffffffffffffffffffffffffffff1603610f93576040517f08c379a0000000000000000000000000000000000000000000000000000000008152600401610f8a906149f4565b60405180910390fd5b8073ffffffffffffffffffffffffffffffffffffffff16610fb2612755565b73ffffffffffffffffffffffffffffffffffffffff161480610fe15750610fe081610fdb612755565b61234e565b5b611020576040517f08c379a000000000000000000000000000000000000000000000000000000000815260040161101790614a86565b60405180910390fd5b61102a83836127c9565b505050565b6101025481565b61103e612755565b73ffffffffffffffffffffffffffffffffffffffff1661105c611a4b565b73ffffffffffffffffffffffffffffffffffffffff16146110b2576040517f08c379a00000000000000000000000000000000000000000000000000000000081526004016110a990614870565b60405180910390fd5b806101028190555050565b6101035481565b6000609980549050905090565b6110e26110dc612755565b82612882565b611121576040517f08c379a000000000000000000000000000000000000000000000000000000000815260040161111890614b18565b60405180910390fd5b61112c838383612960565b505050565b611139612755565b73ffffffffffffffffffffffffffffffffffffffff16611157611a4b565b73ffffffffffffffffffffffffffffffffffffffff16146111ad576040517f08c379a00000000000000000000000000000000000000000000000000000000081526004016111a490614870565b60405180910390fd5b8060fd90805190602001906111c3929190613d41565b5050565b6101015481565b60006111d983611713565b821061121a576040517f08c379a000000000000000000000000000000000000000000000000000000000815260040161121190614baa565b60405180910390fd5b609760008473ffffffffffffffffffffffffffffffffffffffff1673ffffffffffffffffffffffffffffffffffffffff168152602001908152602001600020600083815260200190815260200160002054905092915050565b61127b612755565b73ffffffffffffffffffffffffffffffffffffffff16611299611a4b565b73ffffffffffffffffffffffffffffffffffffffff16146112ef576040517f08c379a00000000000000000000000000000000000000000000000000000000081526004016112e690614870565b60405180910390fd5b8060fe8190555050565b60fc8054611306906148bf565b80601f0160208091040260200160405190810160405280929190818152602001828054611332906148bf565b801561137f5780601f106113545761010080835404028352916020019161137f565b820191906000526020600020905b81548152906001019060200180831161136257829003601f168201915b505050505081565b60606113928261275d565b6113d1576040517f08c379a00000000000000000000000000000000000000000000000000000000081526004016113c890614c3c565b60405180910390fd5b60006113db612bc6565b9050600060fb6113ea85612c74565b6113fb6113f687611bb6565b612c74565b60fd6040516020016114109493929190614d78565b6040516020818303038152906040529050600082511161143f57604051806020016040528060008152506114e6565b60ff60009054906101000a900460ff166114e35760fc8054611460906148bf565b80601f016020809104026020016040519081016040528092919081815260200182805461148c906148bf565b80156114d95780601f106114ae576101008083540402835291602001916114d9565b820191906000526020600020905b8154815290600101906020018083116114bc57829003601f168201915b50505050506114e5565b805b5b92505050919050565b61150a8383836040518060200160405280600081525061213a565b505050565b61010760009054906101000a900473ffffffffffffffffffffffffffffffffffffffff1681565b60fd8054611543906148bf565b80601f016020809104026020016040519081016040528092919081815260200182805461156f906148bf565b80156115bc5780601f10611591576101008083540402835291602001916115bc565b820191906000526020600020905b81548152906001019060200180831161159f57829003601f168201915b505050505081565b60006115ce6110c4565b821061160f576040517f08c379a000000000000000000000000000000000000000000000000000000000815260040161160690614e33565b60405180910390fd5b6099828154811061162357611622614e53565b5b90600052602060002001549050919050565b60ff60009054906101000a900460ff1681565b61010760149054906101000a900460ff1681565b6000806067600084815260200190815260200160002060009054906101000a900473ffffffffffffffffffffffffffffffffffffffff169050600073ffffffffffffffffffffffffffffffffffffffff168173ffffffffffffffffffffffffffffffffffffffff1603611704576040517f08c379a00000000000000000000000000000000000000000000000000000000081526004016116fb90614ef4565b60405180910390fd5b80915050919050565b60fe5481565b60008073ffffffffffffffffffffffffffffffffffffffff168273ffffffffffffffffffffffffffffffffffffffff1603611783576040517f08c379a000000000000000000000000000000000000000000000000000000000815260040161177a90614f86565b60405180910390fd5b606860008373ffffffffffffffffffffffffffffffffffffffff1673ffffffffffffffffffffffffffffffffffffffff168152602001908152602001600020549050919050565b6117d2612755565b73ffffffffffffffffffffffffffffffffffffffff166117f0611a4b565b73ffffffffffffffffffffffffffffffffffffffff1614611846576040517f08c379a000000000000000000000000000000000000000000000000000000000815260040161183d90614870565b60405180910390fd5b6118506000612dd4565b565b6101066020528060005260406000206000915054906101000a900460ff1681565b600061187f6001612e9a565b905080156118a3576001600060016101000a81548160ff0219169083151502179055505b6118ab612f8a565b6118b3612fdb565b6040518060200160405280600081525060fd90805190602001906118d8929190613d41565b50600a60fe81905550600060ff60006101000a81548160ff021916908315150217905550600061010760146101000a81548160ff02191690831515021790555080156119715760008060016101000a81548160ff0219169083151502179055507f7f26b83ff96e1f2b6a682f133852f6798a09c465da95921460cefb384740249860016040516119689190614fee565b60405180910390a15b50565b61197c612755565b73ffffffffffffffffffffffffffffffffffffffff1661199a611a4b565b73ffffffffffffffffffffffffffffffffffffffff16146119f0576040517f08c379a00000000000000000000000000000000000000000000000000000000081526004016119e790614870565b60405180910390fd5b610fc8816119fc613034565b611a069190615038565b10611a1057600080fd5b6000600190505b818111611a46576000611a28613034565b9050611a348482613052565b5080611a3f9061508e565b9050611a17565b505050565b600060c960009054906101000a900473ffffffffffffffffffffffffffffffffffffffff16905090565b611a7d612755565b73ffffffffffffffffffffffffffffffffffffffff16611a9b611a4b565b73ffffffffffffffffffffffffffffffffffffffff1614611af1576040517f08c379a0000000000000000000000000000000000000000000000000000000008152600401611ae890614870565b60405180910390fd5b8060ff60006101000a81548160ff02191690831515021790555050565b606060668054611b1d906148bf565b80601f0160208091040260200160405190810160405280929190818152602001828054611b49906148bf565b8015611b965780601f10611b6b57610100808354040283529160200191611b96565b820191906000526020600020905b815481529060010190602001808311611b7957829003601f168201915b5050505050905090565b611bb2611bab612755565b838361306b565b5050565b6000611be661010354610108600085815260200190815260200160002054611bde9190615105565b60fe546131d7565b9050919050565b611bf5612755565b73ffffffffffffffffffffffffffffffffffffffff16611c13611a4b565b73ffffffffffffffffffffffffffffffffffffffff1614611c69576040517f08c379a0000000000000000000000000000000000000000000000000000000008152600401611c6090614870565b60405180910390fd5b8060fb9080519060200190611c7f929190613d41565b5050565b61010760149054906101000a900460ff1615611c9e57600080fd5b600080151561010660003373ffffffffffffffffffffffffffffffffffffffff1673ffffffffffffffffffffffffffffffffffffffff16815260200190815260200160002060009054906101000a900460ff16151514611d33576040517f08c379a0000000000000000000000000000000000000000000000000000000008152600401611d2a90615182565b60405180910390fd5b600033604051602001611d4691906151ea565b6040516020818303038152906040528051906020012090506000611daf858580806020026020016040519081016040528093929190818152602001838360200280828437600081840152601f19601f8201169050808301925050505050505061010054846131f0565b90506000611e02868680806020026020016040519081016040528093929190818152602001838360200280828437600081840152601f19601f8201169050808301925050505050505061010154856131f0565b90506000611e55878780806020026020016040519081016040528093929190818152602001838360200280828437600081840152601f19601f8201169050808301925050505050505061010254866131f0565b90508280611e605750815b80611e685750805b611ea7576040517f08c379a0000000000000000000000000000000000000000000000000000000008152600401611e9e90615251565b60405180910390fd5b8280611eb05750815b15611ed057610fc8611ec0613034565b1115611ecb57600080fd5b600194505b8015611efd57610fc86001611ee3613034565b611eed9190615038565b1115611ef857600080fd5b600294505b600161010660003373ffffffffffffffffffffffffffffffffffffffff1673ffffffffffffffffffffffffffffffffffffffff16815260200190815260200160002060006101000a81548160ff0219169083151502179055506000600190505b858111611f8c576000611f6e613034565b9050611f7a3382613052565b5080611f859061508e565b9050611f5d565b5050505050505050565b611f9e612755565b73ffffffffffffffffffffffffffffffffffffffff16611fbc611a4b565b73ffffffffffffffffffffffffffffffffffffffff1614612012576040517f08c379a000000000000000000000000000000000000000000000000000000000815260040161200990614870565b60405180910390fd5b806101038190555050565b612025612755565b73ffffffffffffffffffffffffffffffffffffffff16612043611a4b565b73ffffffffffffffffffffffffffffffffffffffff1614612099576040517f08c379a000000000000000000000000000000000000000000000000000000000815260040161209090614870565b60405180910390fd5b806101008190555050565b6120ac612755565b73ffffffffffffffffffffffffffffffffffffffff166120ca611a4b565b73ffffffffffffffffffffffffffffffffffffffff1614612120576040517f08c379a000000000000000000000000000000000000000000000000000000000815260040161211790614870565b60405180910390fd5b8060fc9080519060200190612136929190613d41565b5050565b61214b612145612755565b83612882565b61218a576040517f08c379a000000000000000000000000000000000000000000000000000000000815260040161218190614b18565b60405180910390fd5b61219684848484613207565b50505050565b600090565b6101005481565b60606121b382611387565b9050919050565b606060006121c783611713565b905060008167ffffffffffffffff8111156121e5576121e4614206565b5b6040519080825280602002602001820160405280156122135781602001602082028036833780820191505090505b50905060005b61222285611713565b8110156122655761223385826111ce565b82828151811061224657612245614e53565b5b602002602001018181525050808061225d9061508e565b915050612219565b508092505050919050565b600061010660008373ffffffffffffffffffffffffffffffffffffffff1673ffffffffffffffffffffffffffffffffffffffff16815260200190815260200160002060009054906101000a900460ff169050919050565b6122cf612755565b73ffffffffffffffffffffffffffffffffffffffff166122ed611a4b565b73ffffffffffffffffffffffffffffffffffffffff1614612343576040517f08c379a000000000000000000000000000000000000000000000000000000000815260040161233a90614870565b60405180910390fd5b806101018190555050565b6000606a60008473ffffffffffffffffffffffffffffffffffffffff1673ffffffffffffffffffffffffffffffffffffffff16815260200190815260200160002060008373ffffffffffffffffffffffffffffffffffffffff1673ffffffffffffffffffffffffffffffffffffffff16815260200190815260200160002060009054906101000a900460ff16905092915050565b6123ea612755565b73ffffffffffffffffffffffffffffffffffffffff16612408611a4b565b73ffffffffffffffffffffffffffffffffffffffff161461245e576040517f08c379a000000000000000000000000000000000000000000000000000000000815260040161245590614870565b60405180910390fd5b8061010760006101000a81548173ffffffffffffffffffffffffffffffffffffffff021916908373ffffffffffffffffffffffffffffffffffffffff16021790555050565b6124ab612755565b73ffffffffffffffffffffffffffffffffffffffff166124c9611a4b565b73ffffffffffffffffffffffffffffffffffffffff161461251f576040517f08c379a000000000000000000000000000000000000000000000000000000000815260040161251690614870565b60405180910390fd5b600073ffffffffffffffffffffffffffffffffffffffff168173ffffffffffffffffffffffffffffffffffffffff160361258e576040517f08c379a0000000000000000000000000000000000000000000000000000000008152600401612585906152e3565b60405180910390fd5b61259781612dd4565b50565b61010760009054906101000a900473ffffffffffffffffffffffffffffffffffffffff1673ffffffffffffffffffffffffffffffffffffffff163373ffffffffffffffffffffffffffffffffffffffff161461262b576040517f08c379a00000000000000000000000000000000000000000000000000000000081526004016126229061534f565b60405180910390fd5b806101086000848152602001908152602001600020600082825461264f9190615038565b925050819055505050565b6101086020528060005260406000206000915090505481565b60007f80ac58cd000000000000000000000000000000000000000000000000000000007bffffffffffffffffffffffffffffffffffffffffffffffffffffffff1916827bffffffffffffffffffffffffffffffffffffffffffffffffffffffff1916148061273e57507f5b5e139f000000000000000000000000000000000000000000000000000000007bffffffffffffffffffffffffffffffffffffffffffffffffffffffff1916827bffffffffffffffffffffffffffffffffffffffffffffffffffffffff1916145b8061274e575061274d82613263565b5b9050919050565b600033905090565b60008073ffffffffffffffffffffffffffffffffffffffff166067600084815260200190815260200160002060009054906101000a900473ffffffffffffffffffffffffffffffffffffffff1673ffffffffffffffffffffffffffffffffffffffff1614159050919050565b816069600083815260200190815260200160002060006101000a81548173ffffffffffffffffffffffffffffffffffffffff021916908373ffffffffffffffffffffffffffffffffffffffff160217905550808273ffffffffffffffffffffffffffffffffffffffff1661283c8361165c565b73ffffffffffffffffffffffffffffffffffffffff167f8c5be1e5ebec7d5bd14f71427d1e84f3dd0314c0f7b2291e5b200ac8c7c3b92560405160405180910390a45050565b600061288d8261275d565b6128cc576040517f08c379a00000000000000000000000000000000000000000000000000000000081526004016128c3906153e1565b60405180910390fd5b60006128d78361165c565b90508073ffffffffffffffffffffffffffffffffffffffff168473ffffffffffffffffffffffffffffffffffffffff1614806129195750612918818561234e565b5b8061295757508373ffffffffffffffffffffffffffffffffffffffff1661293f84610e05565b73ffffffffffffffffffffffffffffffffffffffff16145b91505092915050565b8273ffffffffffffffffffffffffffffffffffffffff166129808261165c565b73ffffffffffffffffffffffffffffffffffffffff16146129d6576040517f08c379a00000000000000000000000000000000000000000000000000000000081526004016129cd90615473565b60405180910390fd5b600073ffffffffffffffffffffffffffffffffffffffff168273ffffffffffffffffffffffffffffffffffffffff1603612a45576040517f08c379a0000000000000000000000000000000000000000000000000000000008152600401612a3c90615505565b60405180910390fd5b612a508383836132cd565b612a5b6000826127c9565b6001606860008573ffffffffffffffffffffffffffffffffffffffff1673ffffffffffffffffffffffffffffffffffffffff1681526020019081526020016000206000828254612aab9190615525565b925050819055506001606860008473ffffffffffffffffffffffffffffffffffffffff1673ffffffffffffffffffffffffffffffffffffffff1681526020019081526020016000206000828254612b029190615038565b92505081905550816067600083815260200190815260200160002060006101000a81548173ffffffffffffffffffffffffffffffffffffffff021916908373ffffffffffffffffffffffffffffffffffffffff160217905550808273ffffffffffffffffffffffffffffffffffffffff168473ffffffffffffffffffffffffffffffffffffffff167fddf252ad1be2c89b69c2b068fc378daa952ba7f163c4a11628f55a4df523b3ef60405160405180910390a4612bc1838383613412565b505050565b606060ff60009054906101000a900460ff16612be35760fc612be6565b60fb5b8054612bf1906148bf565b80601f0160208091040260200160405190810160405280929190818152602001828054612c1d906148bf565b8015612c6a5780601f10612c3f57610100808354040283529160200191612c6a565b820191906000526020600020905b815481529060010190602001808311612c4d57829003601f168201915b5050505050905090565b606060008203612cbb576040518060400160405280600181526020017f30000000000000000000000000000000000000000000000000000000000000008152509050612dcf565b600082905060005b60008214612ced578080612cd69061508e565b915050600a82612ce69190615105565b9150612cc3565b60008167ffffffffffffffff811115612d0957612d08614206565b5b6040519080825280601f01601f191660200182016040528015612d3b5781602001600182028036833780820191505090505b5090505b60008514612dc857600182612d549190615525565b9150600a85612d639190615559565b6030612d6f9190615038565b60f81b818381518110612d8557612d84614e53565b5b60200101907effffffffffffffffffffffffffffffffffffffffffffffffffffffffffffff1916908160001a905350600a85612dc19190615105565b9450612d3f565b8093505050505b919050565b600060c960009054906101000a900473ffffffffffffffffffffffffffffffffffffffff1690508160c960006101000a81548173ffffffffffffffffffffffffffffffffffffffff021916908373ffffffffffffffffffffffffffffffffffffffff1602179055508173ffffffffffffffffffffffffffffffffffffffff168173ffffffffffffffffffffffffffffffffffffffff167f8be0079c531659141344cd1fd0a4f28419497f9722a3daafe3b4186f6b6457e060405160405180910390a35050565b60008060019054906101000a900460ff1615612f115760018260ff16148015612ec95750612ec730613417565b155b612f08576040517f08c379a0000000000000000000000000000000000000000000000000000000008152600401612eff906155fc565b60405180910390fd5b60009050612f85565b8160ff1660008054906101000a900460ff1660ff1610612f66576040517f08c379a0000000000000000000000000000000000000000000000000000000008152600401612f5d906155fc565b60405180910390fd5b816000806101000a81548160ff021916908360ff160217905550600190505b919050565b600060019054906101000a900460ff16612fd9576040517f08c379a0000000000000000000000000000000000000000000000000000000008152600401612fd09061568e565b60405180910390fd5b565b600060019054906101000a900460ff1661302a576040517f08c379a00000000000000000000000000000000000000000000000000000000081526004016130219061568e565b60405180910390fd5b61303261343a565b565b6000600161304361010461349b565b61304d9190615038565b905090565b61305c82826134a9565b6130676101046134c7565b5050565b8173ffffffffffffffffffffffffffffffffffffffff168373ffffffffffffffffffffffffffffffffffffffff16036130d9576040517f08c379a00000000000000000000000000000000000000000000000000000000081526004016130d0906156fa565b60405180910390fd5b80606a60008573ffffffffffffffffffffffffffffffffffffffff1673ffffffffffffffffffffffffffffffffffffffff16815260200190815260200160002060008473ffffffffffffffffffffffffffffffffffffffff1673ffffffffffffffffffffffffffffffffffffffff16815260200190815260200160002060006101000a81548160ff0219169083151502179055508173ffffffffffffffffffffffffffffffffffffffff168373ffffffffffffffffffffffffffffffffffffffff167f17307eab39ab6107e8899845ad3d59bd9653f200f220920489ca2b5937696c31836040516131ca9190613e98565b60405180910390a3505050565b60008183106131e657816131e8565b825b905092915050565b6000826131fd85846134dd565b1490509392505050565b613212848484612960565b61321e84848484613552565b61325d576040517f08c379a00000000000000000000000000000000000000000000000000000000081526004016132549061578c565b60405180910390fd5b50505050565b60007f01ffc9a7000000000000000000000000000000000000000000000000000000007bffffffffffffffffffffffffffffffffffffffffffffffffffffffff1916827bffffffffffffffffffffffffffffffffffffffffffffffffffffffff1916149050919050565b6132d88383836136d9565b600073ffffffffffffffffffffffffffffffffffffffff1661010760009054906101000a900473ffffffffffffffffffffffffffffffffffffffff1673ffffffffffffffffffffffffffffffffffffffff161461340d5761010760009054906101000a900473ffffffffffffffffffffffffffffffffffffffff1673ffffffffffffffffffffffffffffffffffffffff16639328f537826040518263ffffffff1660e01b815260040161338b919061418e565b602060405180830381865afa1580156133a8573d6000803e3d6000fd5b505050506040513d601f19601f820116820180604052508101906133cc91906157c1565b1561340c576040517f08c379a000000000000000000000000000000000000000000000000000000000815260040161340390615860565b60405180910390fd5b5b505050565b505050565b6000808273ffffffffffffffffffffffffffffffffffffffff163b119050919050565b600060019054906101000a900460ff16613489576040517f08c379a00000000000000000000000000000000000000000000000000000000081526004016134809061568e565b60405180910390fd5b613499613494612755565b612dd4565b565b600081600001549050919050565b6134c38282604051806020016040528060008152506137eb565b5050565b6001816000016000828254019250508190555050565b60008082905060005b845181101561354757600085828151811061350457613503614e53565b5b602002602001015190508083116135265761351f8382613846565b9250613533565b6135308184613846565b92505b50808061353f9061508e565b9150506134e6565b508091505092915050565b60006135738473ffffffffffffffffffffffffffffffffffffffff16613417565b156136cc578373ffffffffffffffffffffffffffffffffffffffff1663150b7a0261359c612755565b8786866040518563ffffffff1660e01b81526004016135be94939291906158d5565b6020604051808303816000875af19250505080156135fa57506040513d601f19601f820116820180604052508101906135f79190615936565b60015b61367c573d806000811461362a576040519150601f19603f3d011682016040523d82523d6000602084013e61362f565b606091505b506000815103613674576040517f08c379a000000000000000000000000000000000000000000000000000000000815260040161366b9061578c565b60405180910390fd5b805181602001fd5b63150b7a0260e01b7bffffffffffffffffffffffffffffffffffffffffffffffffffffffff1916817bffffffffffffffffffffffffffffffffffffffffffffffffffffffff1916149150506136d1565b600190505b949350505050565b6136e483838361385d565b600073ffffffffffffffffffffffffffffffffffffffff168373ffffffffffffffffffffffffffffffffffffffff16036137265761372181613862565b613765565b8173ffffffffffffffffffffffffffffffffffffffff168373ffffffffffffffffffffffffffffffffffffffff16146137645761376383826138ab565b5b5b600073ffffffffffffffffffffffffffffffffffffffff168273ffffffffffffffffffffffffffffffffffffffff16036137a7576137a281613a18565b6137e6565b8273ffffffffffffffffffffffffffffffffffffffff168273ffffffffffffffffffffffffffffffffffffffff16146137e5576137e48282613ae9565b5b5b505050565b6137f58383613b68565b6138026000848484613552565b613841576040517f08c379a00000000000000000000000000000000000000000000000000000000081526004016138389061578c565b60405180910390fd5b505050565b600082600052816020526040600020905092915050565b505050565b609980549050609a600083815260200190815260200160002081905550609981908060018154018082558091505060019003906000526020600020016000909190919091505550565b600060016138b884611713565b6138c29190615525565b90506000609860008481526020019081526020016000205490508181146139a7576000609760008673ffffffffffffffffffffffffffffffffffffffff1673ffffffffffffffffffffffffffffffffffffffff168152602001908152602001600020600084815260200190815260200160002054905080609760008773ffffffffffffffffffffffffffffffffffffffff1673ffffffffffffffffffffffffffffffffffffffff168152602001908152602001600020600084815260200190815260200160002081905550816098600083815260200190815260200160002081905550505b6098600084815260200190815260200160002060009055609760008573ffffffffffffffffffffffffffffffffffffffff1673ffffffffffffffffffffffffffffffffffffffff16815260200190815260200160002060008381526020019081526020016000206000905550505050565b60006001609980549050613a2c9190615525565b90506000609a6000848152602001908152602001600020549050600060998381548110613a5c57613a5b614e53565b5b906000526020600020015490508060998381548110613a7e57613a7d614e53565b5b906000526020600020018190555081609a600083815260200190815260200160002081905550609a6000858152602001908152602001600020600090556099805480613acd57613acc615963565b5b6001900381819060005260206000200160009055905550505050565b6000613af483611713565b905081609760008573ffffffffffffffffffffffffffffffffffffffff1673ffffffffffffffffffffffffffffffffffffffff168152602001908152602001600020600083815260200190815260200160002081905550806098600084815260200190815260200160002081905550505050565b600073ffffffffffffffffffffffffffffffffffffffff168273ffffffffffffffffffffffffffffffffffffffff1603613bd7576040517f08c379a0000000000000000000000000000000000000000000000000000000008152600401613bce906159de565b60405180910390fd5b613be08161275d565b15613c20576040517f08c379a0000000000000000000000000000000000000000000000000000000008152600401613c1790615a4a565b60405180910390fd5b613c2c600083836132cd565b6001606860008473ffffffffffffffffffffffffffffffffffffffff1673ffffffffffffffffffffffffffffffffffffffff1681526020019081526020016000206000828254613c7c9190615038565b92505081905550816067600083815260200190815260200160002060006101000a81548173ffffffffffffffffffffffffffffffffffffffff021916908373ffffffffffffffffffffffffffffffffffffffff160217905550808273ffffffffffffffffffffffffffffffffffffffff16600073ffffffffffffffffffffffffffffffffffffffff167fddf252ad1be2c89b69c2b068fc378daa952ba7f163c4a11628f55a4df523b3ef60405160405180910390a4613d3d60008383613412565b5050565b828054613d4d906148bf565b90600052602060002090601f016020900481019282613d6f5760008555613db6565b82601f10613d8857805160ff1916838001178555613db6565b82800160010185558215613db6579182015b82811115613db5578251825591602001919060010190613d9a565b5b509050613dc39190613dc7565b5090565b5b80821115613de0576000816000905550600101613dc8565b5090565b6000604051905090565b600080fd5b600080fd5b60007fffffffff0000000000000000000000000000000000000000000000000000000082169050919050565b613e2d81613df8565b8114613e3857600080fd5b50565b600081359050613e4a81613e24565b92915050565b600060208284031215613e6657613e65613dee565b5b6000613e7484828501613e3b565b91505092915050565b60008115159050919050565b613e9281613e7d565b82525050565b6000602082019050613ead6000830184613e89565b92915050565b613ebc81613e7d565b8114613ec757600080fd5b50565b600081359050613ed981613eb3565b92915050565b600060208284031215613ef557613ef4613dee565b5b6000613f0384828501613eca565b91505092915050565b600081519050919050565b600082825260208201905092915050565b60005b83811015613f46578082015181840152602081019050613f2b565b83811115613f55576000848401525b50505050565b6000601f19601f8301169050919050565b6000613f7782613f0c565b613f818185613f17565b9350613f91818560208601613f28565b613f9a81613f5b565b840191505092915050565b60006020820190508181036000830152613fbf8184613f6c565b905092915050565b6000819050919050565b613fda81613fc7565b8114613fe557600080fd5b50565b600081359050613ff781613fd1565b92915050565b60006020828403121561401357614012613dee565b5b600061402184828501613fe8565b91505092915050565b600073ffffffffffffffffffffffffffffffffffffffff82169050919050565b60006140558261402a565b9050919050565b6140658161404a565b82525050565b6000602082019050614080600083018461405c565b92915050565b61408f8161404a565b811461409a57600080fd5b50565b6000813590506140ac81614086565b92915050565b600080604083850312156140c9576140c8613dee565b5b60006140d78582860161409d565b92505060206140e885828601613fe8565b9150509250929050565b6000819050919050565b614105816140f2565b82525050565b600060208201905061412060008301846140fc565b92915050565b61412f816140f2565b811461413a57600080fd5b50565b60008135905061414c81614126565b92915050565b60006020828403121561416857614167613dee565b5b60006141768482850161413d565b91505092915050565b61418881613fc7565b82525050565b60006020820190506141a3600083018461417f565b92915050565b6000806000606084860312156141c2576141c1613dee565b5b60006141d08682870161409d565b93505060206141e18682870161409d565b92505060406141f286828701613fe8565b9150509250925092565b600080fd5b600080fd5b7f4e487b7100000000000000000000000000000000000000000000000000000000600052604160045260246000fd5b61423e82613f5b565b810181811067ffffffffffffffff8211171561425d5761425c614206565b5b80604052505050565b6000614270613de4565b905061427c8282614235565b919050565b600067ffffffffffffffff82111561429c5761429b614206565b5b6142a582613f5b565b9050602081019050919050565b82818337600083830152505050565b60006142d46142cf84614281565b614266565b9050828152602081018484840111156142f0576142ef614201565b5b6142fb8482856142b2565b509392505050565b600082601f830112614318576143176141fc565b5b81356143288482602086016142c1565b91505092915050565b60006020828403121561434757614346613dee565b5b600082013567ffffffffffffffff81111561436557614364613df3565b5b61437184828501614303565b91505092915050565b6000819050919050565b600061439f61439a6143958461402a565b61437a565b61402a565b9050919050565b60006143b182614384565b9050919050565b60006143c3826143a6565b9050919050565b6143d3816143b8565b82525050565b60006020820190506143ee60008301846143ca565b92915050565b60006020828403121561440a57614409613dee565b5b60006144188482850161409d565b91505092915050565b6000806040838503121561443857614437613dee565b5b60006144468582860161409d565b925050602061445785828601613eca565b9150509250929050565b600080fd5b600080fd5b60008083601f840112614481576144806141fc565b5b8235905067ffffffffffffffff81111561449e5761449d614461565b5b6020830191508360208202830111156144ba576144b9614466565b5b9250929050565b600080602083850312156144d8576144d7613dee565b5b600083013567ffffffffffffffff8111156144f6576144f5613df3565b5b6145028582860161446b565b92509250509250929050565b600067ffffffffffffffff82111561452957614528614206565b5b61453282613f5b565b9050602081019050919050565b600061455261454d8461450e565b614266565b90508281526020810184848401111561456e5761456d614201565b5b6145798482856142b2565b509392505050565b600082601f830112614596576145956141fc565b5b81356145a684826020860161453f565b91505092915050565b600080600080608085870312156145c9576145c8613dee565b5b60006145d78782880161409d565b94505060206145e88782880161409d565b93505060406145f987828801613fe8565b925050606085013567ffffffffffffffff81111561461a57614619613df3565b5b61462687828801614581565b91505092959194509250565b7f4e487b7100000000000000000000000000000000000000000000000000000000600052602160045260246000fd5b6003811061467257614671614632565b5b50565b600081905061468382614661565b919050565b600061469382614675565b9050919050565b6146a381614688565b82525050565b60006020820190506146be600083018461469a565b92915050565b600081519050919050565b600082825260208201905092915050565b6000819050602082019050919050565b6146f981613fc7565b82525050565b600061470b83836146f0565b60208301905092915050565b6000602082019050919050565b600061472f826146c4565b61473981856146cf565b9350614744836146e0565b8060005b8381101561477557815161475c88826146ff565b975061476783614717565b925050600181019050614748565b5085935050505092915050565b6000602082019050818103600083015261479c8184614724565b905092915050565b600080604083850312156147bb576147ba613dee565b5b60006147c98582860161409d565b92505060206147da8582860161409d565b9150509250929050565b600080604083850312156147fb576147fa613dee565b5b600061480985828601613fe8565b925050602061481a85828601613fe8565b9150509250929050565b7f4f776e61626c653a2063616c6c6572206973206e6f7420746865206f776e6572600082015250565b600061485a602083613f17565b915061486582614824565b602082019050919050565b600060208201905081810360008301526148898161484d565b9050919050565b7f4e487b7100000000000000000000000000000000000000000000000000000000600052602260045260246000fd5b600060028204905060018216806148d757607f821691505b6020821081036148ea576148e9614890565b5b50919050565b7f4552433732313a20617070726f76656420717565727920666f72206e6f6e657860008201527f697374656e7420746f6b656e0000000000000000000000000000000000000000602082015250565b600061494c602c83613f17565b9150614957826148f0565b604082019050919050565b6000602082019050818103600083015261497b8161493f565b9050919050565b7f4552433732313a20617070726f76616c20746f2063757272656e74206f776e6560008201527f7200000000000000000000000000000000000000000000000000000000000000602082015250565b60006149de602183613f17565b91506149e982614982565b604082019050919050565b60006020820190508181036000830152614a0d816149d1565b9050919050565b7f4552433732313a20617070726f76652063616c6c6572206973206e6f74206f7760008201527f6e6572206e6f7220617070726f76656420666f7220616c6c0000000000000000602082015250565b6000614a70603883613f17565b9150614a7b82614a14565b604082019050919050565b60006020820190508181036000830152614a9f81614a63565b9050919050565b7f4552433732313a207472616e736665722063616c6c6572206973206e6f74206f60008201527f776e6572206e6f7220617070726f766564000000000000000000000000000000602082015250565b6000614b02603183613f17565b9150614b0d82614aa6565b604082019050919050565b60006020820190508181036000830152614b3181614af5565b9050919050565b7f455243373231456e756d657261626c653a206f776e657220696e646578206f7560008201527f74206f6620626f756e6473000000000000000000000000000000000000000000602082015250565b6000614b94602b83613f17565b9150614b9f82614b38565b604082019050919050565b60006020820190508181036000830152614bc381614b87565b9050919050565b7f4552433732314d657461646174613a2055524920717565727920666f72206e6f60008201527f6e6578697374656e7420746f6b656e0000000000000000000000000000000000602082015250565b6000614c26602f83613f17565b9150614c3182614bca565b604082019050919050565b60006020820190508181036000830152614c5581614c19565b9050919050565b600081905092915050565b60008190508160005260206000209050919050565b60008154614c89816148bf565b614c938186614c5c565b94506001821660008114614cae5760018114614cbf57614cf2565b60ff19831686528186019350614cf2565b614cc885614c67565b60005b83811015614cea57815481890152600182019150602081019050614ccb565b838801955050505b50505092915050565b6000614d0682613f0c565b614d108185614c5c565b9350614d20818560208601613f28565b80840191505092915050565b7f2f00000000000000000000000000000000000000000000000000000000000000600082015250565b6000614d62600183614c5c565b9150614d6d82614d2c565b600182019050919050565b6000614d848287614c7c565b9150614d908286614cfb565b9150614d9b82614d55565b9150614da78285614cfb565b9150614db38284614c7c565b915081905095945050505050565b7f455243373231456e756d657261626c653a20676c6f62616c20696e646578206f60008201527f7574206f6620626f756e64730000000000000000000000000000000000000000602082015250565b6000614e1d602c83613f17565b9150614e2882614dc1565b604082019050919050565b60006020820190508181036000830152614e4c81614e10565b9050919050565b7f4e487b7100000000000000000000000000000000000000000000000000000000600052603260045260246000fd5b7f4552433732313a206f776e657220717565727920666f72206e6f6e657869737460008201527f656e7420746f6b656e0000000000000000000000000000000000000000000000602082015250565b6000614ede602983613f17565b9150614ee982614e82565b604082019050919050565b60006020820190508181036000830152614f0d81614ed1565b9050919050565b7f4552433732313a2062616c616e636520717565727920666f7220746865207a6560008201527f726f206164647265737300000000000000000000000000000000000000000000602082015250565b6000614f70602a83613f17565b9150614f7b82614f14565b604082019050919050565b60006020820190508181036000830152614f9f81614f63565b9050919050565b6000819050919050565b600060ff82169050919050565b6000614fd8614fd3614fce84614fa6565b61437a565b614fb0565b9050919050565b614fe881614fbd565b82525050565b60006020820190506150036000830184614fdf565b92915050565b7f4e487b7100000000000000000000000000000000000000000000000000000000600052601160045260246000fd5b600061504382613fc7565b915061504e83613fc7565b9250827fffffffffffffffffffffffffffffffffffffffffffffffffffffffffffffffff0382111561508357615082615009565b5b828201905092915050565b600061509982613fc7565b91507fffffffffffffffffffffffffffffffffffffffffffffffffffffffffffffffff82036150cb576150ca615009565b5b600182019050919050565b7f4e487b7100000000000000000000000000000000000000000000000000000000600052601260045260246000fd5b600061511082613fc7565b915061511b83613fc7565b92508261512b5761512a6150d6565b5b828204905092915050565b7f7573657220616c72656164792077686974656c69737465640000000000000000600082015250565b600061516c601883613f17565b915061517782615136565b602082019050919050565b6000602082019050818103600083015261519b8161515f565b9050919050565b60008160601b9050919050565b60006151ba826151a2565b9050919050565b60006151cc826151af565b9050919050565b6151e46151df8261404a565b6151c1565b82525050565b60006151f682846151d3565b60148201915081905092915050565b7f496e76616c69642070726f6f66202d206e6f742077686974656c697374656400600082015250565b600061523b601f83613f17565b915061524682615205565b602082019050919050565b6000602082019050818103600083015261526a8161522e565b9050919050565b7f4f776e61626c653a206e6577206f776e657220697320746865207a65726f206160008201527f6464726573730000000000000000000000000000000000000000000000000000602082015250565b60006152cd602683613f17565b91506152d882615271565b604082019050919050565b600060208201905081810360008301526152fc816152c0565b9050919050565b7f426f626f74733a2021436f72654368616d626572000000000000000000000000600082015250565b6000615339601483613f17565b915061534482615303565b602082019050919050565b600060208201905081810360008301526153688161532c565b9050919050565b7f4552433732313a206f70657261746f7220717565727920666f72206e6f6e657860008201527f697374656e7420746f6b656e0000000000000000000000000000000000000000602082015250565b60006153cb602c83613f17565b91506153d68261536f565b604082019050919050565b600060208201905081810360008301526153fa816153be565b9050919050565b7f4552433732313a207472616e736665722066726f6d20696e636f72726563742060008201527f6f776e6572000000000000000000000000000000000000000000000000000000602082015250565b600061545d602583613f17565b915061546882615401565b604082019050919050565b6000602082019050818103600083015261548c81615450565b9050919050565b7f4552433732313a207472616e7366657220746f20746865207a65726f2061646460008201527f7265737300000000000000000000000000000000000000000000000000000000602082015250565b60006154ef602483613f17565b91506154fa82615493565b604082019050919050565b6000602082019050818103600083015261551e816154e2565b9050919050565b600061553082613fc7565b915061553b83613fc7565b92508282101561554e5761554d615009565b5b828203905092915050565b600061556482613fc7565b915061556f83613fc7565b92508261557f5761557e6150d6565b5b828206905092915050565b7f496e697469616c697a61626c653a20636f6e747261637420697320616c72656160008201527f647920696e697469616c697a6564000000000000000000000000000000000000602082015250565b60006155e6602e83613f17565b91506155f18261558a565b604082019050919050565b60006020820190508181036000830152615615816155d9565b9050919050565b7f496e697469616c697a61626c653a20636f6e7472616374206973206e6f74206960008201527f6e697469616c697a696e67000000000000000000000000000000000000000000602082015250565b6000615678602b83613f17565b91506156838261561c565b604082019050919050565b600060208201905081810360008301526156a78161566b565b9050919050565b7f4552433732313a20617070726f766520746f2063616c6c657200000000000000600082015250565b60006156e4601983613f17565b91506156ef826156ae565b602082019050919050565b60006020820190508181036000830152615713816156d7565b9050919050565b7f4552433732313a207472616e7366657220746f206e6f6e20455243373231526560008201527f63656976657220696d706c656d656e7465720000000000000000000000000000602082015250565b6000615776603283613f17565b91506157818261571a565b604082019050919050565b600060208201905081810360008301526157a581615769565b9050919050565b6000815190506157bb81613eb3565b92915050565b6000602082840312156157d7576157d6613dee565b5b60006157e5848285016157ac565b91505092915050565b7f47656e657369733a20617420636f7265206368616d6265722e20556e7374616b60008201527f6520746f207472616e736665722e000000000000000000000000000000000000602082015250565b600061584a602e83613f17565b9150615855826157ee565b604082019050919050565b600060208201905081810360008301526158798161583d565b9050919050565b600081519050919050565b600082825260208201905092915050565b60006158a782615880565b6158b1818561588b565b93506158c1818560208601613f28565b6158ca81613f5b565b840191505092915050565b60006080820190506158ea600083018761405c565b6158f7602083018661405c565b615904604083018561417f565b8181036060830152615916818461589c565b905095945050505050565b60008151905061593081613e24565b92915050565b60006020828403121561594c5761594b613dee565b5b600061595a84828501615921565b91505092915050565b7f4e487b7100000000000000000000000000000000000000000000000000000000600052603160045260246000fd5b7f4552433732313a206d696e7420746f20746865207a65726f2061646472657373600082015250565b60006159c8602083613f17565b91506159d382615992565b602082019050919050565b600060208201905081810360008301526159f7816159bb565b9050919050565b7f4552433732313a20746f6b656e20616c7265616479206d696e74656400000000600082015250565b6000615a34601c83613f17565b9150615a3f826159fe565b602082019050919050565b60006020820190508181036000830152615a6381615a27565b905091905056fea2646970667358221220173094056a6102e5998f3fb9b5c4f1655a2452598d54a494133e809a62fe7fd964736f6c634300080d0033",
  "linkReferences": {},
  "deployedLinkReferences": {}
}