{
  "_format": "hh-sol-artifact-1",
  "contractName": "BobotGenesis",
  "sourceName": "contracts/BobotGenesis.sol",
  "abi": [
    {
      "anonymous": false,
      "inputs": [
        {
          "indexed": true,
          "internalType": "address",
          "name": "owner",
          "type": "address"
        },
        {
          "indexed": true,
          "internalType": "address",
          "name": "approved",
          "type": "address"
        },
        {
          "indexed": true,
          "internalType": "uint256",
          "name": "tokenId",
          "type": "uint256"
        }
      ],
      "name": "Approval",
      "type": "event"
    },
    {
      "anonymous": false,
      "inputs": [
        {
          "indexed": true,
          "internalType": "address",
          "name": "owner",
          "type": "address"
        },
        {
          "indexed": true,
          "internalType": "address",
          "name": "operator",
          "type": "address"
        },
        {
          "indexed": false,
          "internalType": "bool",
          "name": "approved",
          "type": "bool"
        }
      ],
      "name": "ApprovalForAll",
      "type": "event"
    },
    {
      "anonymous": false,
      "inputs": [
        {
          "indexed": true,
          "internalType": "address",
          "name": "previousOwner",
          "type": "address"
        },
        {
          "indexed": true,
          "internalType": "address",
          "name": "newOwner",
          "type": "address"
        }
      ],
      "name": "OwnershipTransferred",
      "type": "event"
    },
    {
      "anonymous": false,
      "inputs": [
        {
          "indexed": true,
          "internalType": "address",
          "name": "from",
          "type": "address"
        },
        {
          "indexed": true,
          "internalType": "address",
          "name": "to",
          "type": "address"
        },
        {
          "indexed": true,
          "internalType": "uint256",
          "name": "tokenId",
          "type": "uint256"
        }
      ],
      "name": "Transfer",
      "type": "event"
    },
    {
      "inputs": [
        {
          "internalType": "address",
          "name": "to",
          "type": "address"
        },
        {
          "internalType": "uint256",
          "name": "tokenId",
          "type": "uint256"
        }
      ],
      "name": "approve",
      "outputs": [],
      "stateMutability": "nonpayable",
      "type": "function"
    },
    {
      "inputs": [
        {
          "internalType": "address",
          "name": "owner",
          "type": "address"
        }
      ],
      "name": "balanceOf",
      "outputs": [
        {
          "internalType": "uint256",
          "name": "",
          "type": "uint256"
        }
      ],
      "stateMutability": "view",
      "type": "function"
    },
    {
      "inputs": [],
      "name": "baseExtention",
      "outputs": [
        {
          "internalType": "string",
          "name": "",
          "type": "string"
        }
      ],
      "stateMutability": "view",
      "type": "function"
    },
    {
      "inputs": [],
      "name": "baseHiddenURI",
      "outputs": [
        {
          "internalType": "string",
          "name": "",
          "type": "string"
        }
      ],
      "stateMutability": "view",
      "type": "function"
    },
    {
      "inputs": [],
      "name": "baseRevealedURI",
      "outputs": [
        {
          "internalType": "string",
          "name": "",
          "type": "string"
        }
      ],
      "stateMutability": "view",
      "type": "function"
    },
    {
      "inputs": [
        {
          "internalType": "uint256",
          "name": "",
          "type": "uint256"
        }
      ],
      "name": "bobotCorePoints",
      "outputs": [
        {
          "internalType": "uint256",
          "name": "",
          "type": "uint256"
        }
      ],
      "stateMutability": "view",
      "type": "function"
    },
    {
      "inputs": [],
      "name": "coreChamber",
      "outputs": [
        {
          "internalType": "contract CoreChamber",
          "name": "",
          "type": "address"
        }
      ],
      "stateMutability": "view",
      "type": "function"
    },
    {
      "inputs": [
        {
          "internalType": "uint256",
          "name": "_tokenId",
          "type": "uint256"
        },
        {
          "internalType": "uint256",
          "name": "_coreEarned",
          "type": "uint256"
        }
      ],
      "name": "coreChamberCorePointUpdate",
      "outputs": [],
      "stateMutability": "nonpayable",
      "type": "function"
    },
    {
      "inputs": [],
      "name": "coreChamberLevelCost",
      "outputs": [
        {
          "internalType": "uint256",
          "name": "",
          "type": "uint256"
        }
      ],
      "stateMutability": "view",
      "type": "function"
    },
    {
      "inputs": [
        {
          "internalType": "uint256",
          "name": "tokenId",
          "type": "uint256"
        }
      ],
      "name": "getApproved",
      "outputs": [
        {
          "internalType": "address",
          "name": "",
          "type": "address"
        }
      ],
      "stateMutability": "view",
      "type": "function"
    },
    {
      "inputs": [
        {
          "internalType": "address",
          "name": "_owner",
          "type": "address"
        }
      ],
      "name": "getTokenIds",
      "outputs": [
        {
          "internalType": "uint256[]",
          "name": "",
          "type": "uint256[]"
        }
      ],
      "stateMutability": "view",
      "type": "function"
    },
    {
      "inputs": [
        {
          "internalType": "address",
          "name": "owner",
          "type": "address"
        },
        {
          "internalType": "address",
          "name": "operator",
          "type": "address"
        }
      ],
      "name": "isApprovedForAll",
      "outputs": [
        {
          "internalType": "bool",
          "name": "",
          "type": "bool"
        }
      ],
      "stateMutability": "view",
      "type": "function"
    },
    {
      "inputs": [],
      "name": "magic",
      "outputs": [
        {
          "internalType": "contract IERC20Upgradeable",
          "name": "",
          "type": "address"
        }
      ],
      "stateMutability": "view",
      "type": "function"
    },
    {
      "inputs": [],
      "name": "maxLevelAmount",
      "outputs": [
        {
          "internalType": "uint256",
          "name": "",
          "type": "uint256"
        }
      ],
      "stateMutability": "view",
      "type": "function"
    },
    {
      "inputs": [],
      "name": "maxMintAmount",
      "outputs": [
        {
          "internalType": "uint256",
          "name": "",
          "type": "uint256"
        }
      ],
      "stateMutability": "view",
      "type": "function"
    },
    {
      "inputs": [],
      "name": "maxSupply",
      "outputs": [
        {
          "internalType": "uint256",
          "name": "",
          "type": "uint256"
        }
      ],
      "stateMutability": "view",
      "type": "function"
    },
    {
      "inputs": [
        {
          "internalType": "bytes32[]",
          "name": "_merkleProof",
          "type": "bytes32[]"
        },
        {
          "internalType": "bytes32[]",
          "name": "_merkleProof2",
          "type": "bytes32[]"
        }
      ],
      "name": "mintBobot",
      "outputs": [],
      "stateMutability": "payable",
      "type": "function"
    },
    {
      "inputs": [],
      "name": "mintBobotTest",
      "outputs": [],
      "stateMutability": "payable",
      "type": "function"
    },
    {
      "inputs": [],
      "name": "name",
      "outputs": [
        {
          "internalType": "string",
          "name": "",
          "type": "string"
        }
      ],
      "stateMutability": "view",
      "type": "function"
    },
    {
      "inputs": [],
      "name": "nftPerAddressLimit",
      "outputs": [
        {
          "internalType": "uint256",
          "name": "",
          "type": "uint256"
        }
      ],
      "stateMutability": "view",
      "type": "function"
    },
    {
      "inputs": [],
      "name": "onlyWhitelisted",
      "outputs": [
        {
          "internalType": "bool",
          "name": "",
          "type": "bool"
        }
      ],
      "stateMutability": "view",
      "type": "function"
    },
    {
      "inputs": [],
      "name": "owner",
      "outputs": [
        {
          "internalType": "address",
          "name": "",
          "type": "address"
        }
      ],
      "stateMutability": "view",
      "type": "function"
    },
    {
      "inputs": [
        {
          "internalType": "uint256",
          "name": "tokenId",
          "type": "uint256"
        }
      ],
      "name": "ownerOf",
      "outputs": [
        {
          "internalType": "address",
          "name": "",
          "type": "address"
        }
      ],
      "stateMutability": "view",
      "type": "function"
    },
    {
      "inputs": [
        {
          "internalType": "bool",
          "name": "_state",
          "type": "bool"
        }
      ],
      "name": "pause",
      "outputs": [],
      "stateMutability": "nonpayable",
      "type": "function"
    },
    {
      "inputs": [],
      "name": "paused",
      "outputs": [
        {
          "internalType": "bool",
          "name": "",
          "type": "bool"
        }
      ],
      "stateMutability": "view",
      "type": "function"
    },
    {
      "inputs": [],
      "name": "renounceOwnership",
      "outputs": [],
      "stateMutability": "nonpayable",
      "type": "function"
    },
    {
      "inputs": [
        {
          "internalType": "bool",
          "name": "_revealed",
          "type": "bool"
        }
      ],
      "name": "reveal",
      "outputs": [],
      "stateMutability": "nonpayable",
      "type": "function"
    },
    {
      "inputs": [],
      "name": "revealed",
      "outputs": [
        {
          "internalType": "bool",
          "name": "",
          "type": "bool"
        }
      ],
      "stateMutability": "view",
      "type": "function"
    },
    {
      "inputs": [],
      "name": "rootGuardiansHash",
      "outputs": [
        {
          "internalType": "bytes32",
          "name": "",
          "type": "bytes32"
        }
      ],
      "stateMutability": "view",
      "type": "function"
    },
    {
      "inputs": [],
      "name": "rootLunarsHash",
      "outputs": [
        {
          "internalType": "bytes32",
          "name": "",
          "type": "bytes32"
        }
      ],
      "stateMutability": "view",
      "type": "function"
    },
    {
      "inputs": [
        {
          "internalType": "address",
          "name": "from",
          "type": "address"
        },
        {
          "internalType": "address",
          "name": "to",
          "type": "address"
        },
        {
          "internalType": "uint256",
          "name": "tokenId",
          "type": "uint256"
        }
      ],
      "name": "safeTransferFrom",
      "outputs": [],
      "stateMutability": "nonpayable",
      "type": "function"
    },
    {
      "inputs": [
        {
          "internalType": "address",
          "name": "from",
          "type": "address"
        },
        {
          "internalType": "address",
          "name": "to",
          "type": "address"
        },
        {
          "internalType": "uint256",
          "name": "tokenId",
          "type": "uint256"
        },
        {
          "internalType": "bytes",
          "name": "_data",
          "type": "bytes"
        }
      ],
      "name": "safeTransferFrom",
      "outputs": [],
      "stateMutability": "nonpayable",
      "type": "function"
    },
    {
      "inputs": [
        {
          "internalType": "address",
          "name": "operator",
          "type": "address"
        },
        {
          "internalType": "bool",
          "name": "approved",
          "type": "bool"
        }
      ],
      "name": "setApprovalForAll",
      "outputs": [],
      "stateMutability": "nonpayable",
      "type": "function"
    },
    {
      "inputs": [
        {
          "internalType": "string",
          "name": "_newBaseExtentions",
          "type": "string"
        }
      ],
      "name": "setBaseExtentions",
      "outputs": [],
      "stateMutability": "nonpayable",
      "type": "function"
    },
    {
      "inputs": [
        {
          "internalType": "string",
          "name": "_newBaseURI",
          "type": "string"
        }
      ],
      "name": "setBaseHiddenURI",
      "outputs": [],
      "stateMutability": "nonpayable",
      "type": "function"
    },
    {
      "inputs": [
        {
          "internalType": "string",
          "name": "_newBaseURI",
          "type": "string"
        }
      ],
      "name": "setBaseRevealedURI",
      "outputs": [],
      "stateMutability": "nonpayable",
      "type": "function"
    },
    {
      "inputs": [
        {
          "internalType": "address",
          "name": "_coreChamber",
          "type": "address"
        }
      ],
      "name": "setCoreChamber",
      "outputs": [],
      "stateMutability": "nonpayable",
      "type": "function"
    },
    {
      "inputs": [
        {
          "internalType": "address",
          "name": "_address",
          "type": "address"
        }
      ],
      "name": "setMagicAddress",
      "outputs": [],
      "stateMutability": "nonpayable",
      "type": "function"
    },
    {
      "inputs": [
        {
          "internalType": "uint256",
          "name": "_newAmount",
          "type": "uint256"
        }
      ],
      "name": "setMagicBalanceCost",
      "outputs": [],
      "stateMutability": "nonpayable",
      "type": "function"
    },
    {
      "inputs": [
        {
          "internalType": "bytes32",
          "name": "_rootHash",
          "type": "bytes32"
        }
      ],
      "name": "setRootGuardiansHash",
      "outputs": [],
      "stateMutability": "nonpayable",
      "type": "function"
    },
    {
      "inputs": [
        {
          "internalType": "bytes32",
          "name": "_rootHash",
          "type": "bytes32"
        }
      ],
      "name": "setRootLunarsHash",
      "outputs": [],
      "stateMutability": "nonpayable",
      "type": "function"
    },
    {
      "inputs": [
        {
          "internalType": "address[]",
          "name": "_address",
          "type": "address[]"
        }
      ],
      "name": "setWhitelistGuardians",
      "outputs": [],
      "stateMutability": "nonpayable",
      "type": "function"
    },
    {
      "inputs": [
        {
          "internalType": "address[]",
          "name": "_address",
          "type": "address[]"
        }
      ],
      "name": "setWhitelistLunars",
      "outputs": [],
      "stateMutability": "nonpayable",
      "type": "function"
    },
    {
      "inputs": [
        {
          "internalType": "uint256",
          "name": "_newmaxMintAmount",
          "type": "uint256"
        }
      ],
      "name": "setmaxMintAmount",
      "outputs": [],
      "stateMutability": "nonpayable",
      "type": "function"
    },
    {
      "inputs": [
        {
          "internalType": "bytes4",
          "name": "interfaceId",
          "type": "bytes4"
        }
      ],
      "name": "supportsInterface",
      "outputs": [
        {
          "internalType": "bool",
          "name": "",
          "type": "bool"
        }
      ],
      "stateMutability": "view",
      "type": "function"
    },
    {
      "inputs": [],
      "name": "symbol",
      "outputs": [
        {
          "internalType": "string",
          "name": "",
          "type": "string"
        }
      ],
      "stateMutability": "view",
      "type": "function"
    },
    {
      "inputs": [
        {
          "internalType": "uint256",
          "name": "index",
          "type": "uint256"
        }
      ],
      "name": "tokenByIndex",
      "outputs": [
        {
          "internalType": "uint256",
          "name": "",
          "type": "uint256"
        }
      ],
      "stateMutability": "view",
      "type": "function"
    },
    {
      "inputs": [
        {
          "internalType": "address",
          "name": "owner",
          "type": "address"
        },
        {
          "internalType": "uint256",
          "name": "index",
          "type": "uint256"
        }
      ],
      "name": "tokenOfOwnerByIndex",
      "outputs": [
        {
          "internalType": "uint256",
          "name": "",
          "type": "uint256"
        }
      ],
      "stateMutability": "view",
      "type": "function"
    },
    {
      "inputs": [
        {
          "internalType": "uint256",
          "name": "tokenID",
          "type": "uint256"
        }
      ],
      "name": "tokenURI",
      "outputs": [
        {
          "internalType": "string",
          "name": "",
          "type": "string"
        }
      ],
      "stateMutability": "view",
      "type": "function"
    },
    {
      "inputs": [],
      "name": "totalSupply",
      "outputs": [
        {
          "internalType": "uint256",
          "name": "",
          "type": "uint256"
        }
      ],
      "stateMutability": "view",
      "type": "function"
    },
    {
      "inputs": [
        {
          "internalType": "address",
          "name": "from",
          "type": "address"
        },
        {
          "internalType": "address",
          "name": "to",
          "type": "address"
        },
        {
          "internalType": "uint256",
          "name": "tokenId",
          "type": "uint256"
        }
      ],
      "name": "transferFrom",
      "outputs": [],
      "stateMutability": "nonpayable",
      "type": "function"
    },
    {
      "inputs": [
        {
          "internalType": "address",
          "name": "newOwner",
          "type": "address"
        }
      ],
      "name": "transferOwnership",
      "outputs": [],
      "stateMutability": "nonpayable",
      "type": "function"
    },
    {
      "inputs": [
        {
          "internalType": "address",
          "name": "",
          "type": "address"
        }
      ],
      "name": "whitelistedAddressesGuardiansClaimed",
      "outputs": [
        {
          "internalType": "bool",
          "name": "",
          "type": "bool"
        }
      ],
      "stateMutability": "view",
      "type": "function"
    },
    {
      "inputs": [
        {
          "internalType": "address",
          "name": "",
          "type": "address"
        }
      ],
      "name": "whitelistedAddressesLunarClaimed",
      "outputs": [
        {
          "internalType": "bool",
          "name": "",
          "type": "bool"
        }
      ],
      "stateMutability": "view",
      "type": "function"
    },
    {
      "inputs": [],
      "name": "withdraw",
      "outputs": [],
      "stateMutability": "payable",
      "type": "function"
    }
  ],
  "bytecode": "0x6080604052633b9aca0060fc55601960fd556040518060400160405280600581526020017f2e6a736f6e00000000000000000000000000000000000000000000000000000081525061010090805190602001906200005f929190620000e7565b50610fc861010155600161010255600a61010355600561010455600061010560006101000a81548160ff021916908315150217905550600161010560016101000a81548160ff021916908315150217905550606461010a55600061011160006101000a81548160ff021916908315150217905550348015620000e057600080fd5b50620001fb565b828054620000f590620001c6565b90600052602060002090601f01602090048101928262000119576000855562000165565b82601f106200013457805160ff191683800117855562000165565b8280016001018555821562000165579182015b828111156200016457825182559160200191906001019062000147565b5b50905062000174919062000178565b5090565b5b808211156200019357600081600090555060010162000179565b5090565b7f4e487b7100000000000000000000000000000000000000000000000000000000600052602260045260246000fd5b60006002820490506001821680620001df57607f821691505b602082108103620001f557620001f462000197565b5b50919050565b61599a806200020b6000396000f3fe6080604052600436106103505760003560e01c806351830227116101c6578063a6a03054116100f7578063d004b03611610095578063ed6f57b71161006f578063ed6f57b714610c25578063f2fde38b14610c4e578063f5c8834c14610c77578063fed71b2814610ca057610350565b8063d004b03614610b80578063d5abeb0114610bbd578063e985e9c514610be857610350565b8063ba7d2c76116100d1578063ba7d2c7614610ac6578063c17846dc14610af1578063c87b56dd14610b1a578063cae2446c14610b5757610350565b8063a6a0305414610a4b578063b6e2a18214610a74578063b88d4fde14610a9d57610350565b8063819243c7116101645780639519f4521161013e5780639519f452146109b057806395d89b41146109cc5780639c70b512146109f7578063a22cb46514610a2257610350565b8063819243c7146109335780638da5cb5b1461095c578063940cd05b1461098757610350565b806366212557116101a0578063662125571461088b57806370a08231146108b6578063715018a6146108f35780637f00c7a61461090a57610350565b806351830227146107f85780635c975abb146108235780636352211e1461084e57610350565b80632139f035116102a05780633ccfd60b1161023e57806349aec19a1161021857806349aec19a1461073c5780634ba5f378146107655780634c0f577a146107905780634f6ccce7146107bb57610350565b80633ccfd60b146106de57806342842e0e146106e857806343b946af1461071157610350565b806325c132031161027a57806325c13203146106245780632e256c411461064d5780632f745c59146106765780633a5958e3146106b357610350565b80632139f03514610593578063239c70ae146105d057806323b872dd146105fb57610350565b8063095ea7b31161030d5780630f774d04116102e75780630f774d04146104d7578063133a979b1461050057806318160ddd1461052b578063205f12381461055657610350565b8063095ea7b3146104585780630cf7572f146104815780630d854646146104ac57610350565b806301ffc9a71461035557806302329a291461039257806302428db6146103bb57806306fdde03146103c5578063081812fc146103f057806308454e121461042d575b600080fd5b34801561036157600080fd5b5061037c60048036038101906103779190613e76565b610cdd565b6040516103899190613ebe565b60405180910390f35b34801561039e57600080fd5b506103b960048036038101906103b49190613f05565b610d57565b005b6103c3610df1565b005b3480156103d157600080fd5b506103da610e25565b6040516103e79190613fcb565b60405180910390f35b3480156103fc57600080fd5b5061041760048036038101906104129190614023565b610eb7565b6040516104249190614091565b60405180910390f35b34801561043957600080fd5b50610442610f3c565b60405161044f9190613fcb565b60405180910390f35b34801561046457600080fd5b5061047f600480360381019061047a91906140d8565b610fca565b005b34801561048d57600080fd5b506104966110e1565b6040516104a39190614131565b60405180910390f35b3480156104b857600080fd5b506104c16110e8565b6040516104ce91906141ab565b60405180910390f35b3480156104e357600080fd5b506104fe60048036038101906104f991906141f2565b61110e565b005b34801561050c57600080fd5b50610515611195565b604051610522919061422e565b60405180910390f35b34801561053757600080fd5b5061054061119c565b60405161054d919061422e565b60405180910390f35b34801561056257600080fd5b5061057d60048036038101906105789190614249565b6111a9565b60405161058a9190613ebe565b60405180910390f35b34801561059f57600080fd5b506105ba60048036038101906105b59190614249565b6111ca565b6040516105c79190613ebe565b60405180910390f35b3480156105dc57600080fd5b506105e56111eb565b6040516105f2919061422e565b60405180910390f35b34801561060757600080fd5b50610622600480360381019061061d9190614276565b6111f2565b005b34801561063057600080fd5b5061064b600480360381019061064691906143fe565b611252565b005b34801561065957600080fd5b50610674600480360381019061066f91906141f2565b6112e9565b005b34801561068257600080fd5b5061069d600480360381019061069891906140d8565b611370565b6040516106aa919061422e565b60405180910390f35b3480156106bf57600080fd5b506106c8611415565b6040516106d59190613fcb565b60405180910390f35b6106e66114a3565b005b3480156106f457600080fd5b5061070f600480360381019061070a9190614276565b61155f565b005b34801561071d57600080fd5b5061072661157f565b6040516107339190614468565b60405180910390f35b34801561074857600080fd5b50610763600480360381019061075e91906144e3565b6115a6565b005b34801561077157600080fd5b5061077a611648565b6040516107879190613fcb565b60405180910390f35b34801561079c57600080fd5b506107a56116d7565b6040516107b29190614131565b60405180910390f35b3480156107c757600080fd5b506107e260048036038101906107dd9190614023565b6116de565b6040516107ef919061422e565b60405180910390f35b34801561080457600080fd5b5061080d61174f565b60405161081a9190613ebe565b60405180910390f35b34801561082f57600080fd5b50610838611763565b6040516108459190613ebe565b60405180910390f35b34801561085a57600080fd5b5061087560048036038101906108709190614023565b611777565b6040516108829190614091565b60405180910390f35b34801561089757600080fd5b506108a0611828565b6040516108ad919061422e565b60405180910390f35b3480156108c257600080fd5b506108dd60048036038101906108d89190614249565b61182f565b6040516108ea919061422e565b60405180910390f35b3480156108ff57600080fd5b506109086118e6565b005b34801561091657600080fd5b50610931600480360381019061092c9190614023565b61196e565b005b34801561093f57600080fd5b5061095a600480360381019061095591906144e3565b6119f5565b005b34801561096857600080fd5b50610971611a97565b60405161097e9190614091565b60405180910390f35b34801561099357600080fd5b506109ae60048036038101906109a99190613f05565b611ac1565b005b6109ca60048036038101906109c59190614586565b611b5b565b005b3480156109d857600080fd5b506109e1612008565b6040516109ee9190613fcb565b60405180910390f35b348015610a0357600080fd5b50610a0c61209a565b604051610a199190613ebe565b60405180910390f35b348015610a2e57600080fd5b50610a496004803603810190610a449190614607565b6120ae565b005b348015610a5757600080fd5b50610a726004803603810190610a6d91906143fe565b6120c4565b005b348015610a8057600080fd5b50610a9b6004803603810190610a9691906143fe565b61215a565b005b348015610aa957600080fd5b50610ac46004803603810190610abf91906146e8565b6121f0565b005b348015610ad257600080fd5b50610adb612252565b604051610ae8919061422e565b60405180910390f35b348015610afd57600080fd5b50610b186004803603810190610b139190614249565b612259565b005b348015610b2657600080fd5b50610b416004803603810190610b3c9190614023565b612319565b604051610b4e9190613fcb565b60405180910390f35b348015610b6357600080fd5b50610b7e6004803603810190610b799190614023565b6124af565b005b348015610b8c57600080fd5b50610ba76004803603810190610ba29190614249565b612535565b604051610bb49190614829565b60405180910390f35b348015610bc957600080fd5b50610bd26125eb565b604051610bdf919061422e565b60405180910390f35b348015610bf457600080fd5b50610c0f6004803603810190610c0a919061484b565b6125f2565b604051610c1c9190613ebe565b60405180910390f35b348015610c3157600080fd5b50610c4c6004803603810190610c479190614249565b612686565b005b348015610c5a57600080fd5b50610c756004803603810190610c709190614249565b612747565b005b348015610c8357600080fd5b50610c9e6004803603810190610c99919061488b565b61283e565b005b348015610cac57600080fd5b50610cc76004803603810190610cc29190614023565b6128fe565b604051610cd4919061422e565b60405180910390f35b60007f780e9d63000000000000000000000000000000000000000000000000000000007bffffffffffffffffffffffffffffffffffffffffffffffffffffffff1916827bffffffffffffffffffffffffffffffffffffffffffffffffffffffff19161480610d505750610d4f82612917565b5b9050919050565b610d5f6129f9565b73ffffffffffffffffffffffffffffffffffffffff16610d7d611a97565b73ffffffffffffffffffffffffffffffffffffffff1614610dd3576040517f08c379a0000000000000000000000000000000000000000000000000000000008152600401610dca90614917565b60405180910390fd5b8061011160006101000a81548160ff02191690831515021790555050565b61011160009054906101000a900460ff1615610e0c57600080fd5b6000610e16612a01565b9050610e223382612a1f565b50565b606060658054610e3490614966565b80601f0160208091040260200160405190810160405280929190818152602001828054610e6090614966565b8015610ead5780601f10610e8257610100808354040283529160200191610ead565b820191906000526020600020905b815481529060010190602001808311610e9057829003601f168201915b5050505050905090565b6000610ec282612a38565b610f01576040517f08c379a0000000000000000000000000000000000000000000000000000000008152600401610ef890614a09565b60405180910390fd5b6069600083815260200190815260200160002060009054906101000a900473ffffffffffffffffffffffffffffffffffffffff169050919050565b60fe8054610f4990614966565b80601f0160208091040260200160405190810160405280929190818152602001828054610f7590614966565b8015610fc25780601f10610f9757610100808354040283529160200191610fc2565b820191906000526020600020905b815481529060010190602001808311610fa557829003601f168201915b505050505081565b6000610fd582611777565b90508073ffffffffffffffffffffffffffffffffffffffff168373ffffffffffffffffffffffffffffffffffffffff1603611045576040517f08c379a000000000000000000000000000000000000000000000000000000000815260040161103c90614a9b565b60405180910390fd5b8073ffffffffffffffffffffffffffffffffffffffff166110646129f9565b73ffffffffffffffffffffffffffffffffffffffff16148061109357506110928161108d6129f9565b6125f2565b5b6110d2576040517f08c379a00000000000000000000000000000000000000000000000000000000081526004016110c990614b2d565b60405180910390fd5b6110dc8383612aa4565b505050565b6101095481565b60fb60009054906101000a900473ffffffffffffffffffffffffffffffffffffffff1681565b6111166129f9565b73ffffffffffffffffffffffffffffffffffffffff16611134611a97565b73ffffffffffffffffffffffffffffffffffffffff161461118a576040517f08c379a000000000000000000000000000000000000000000000000000000000815260040161118190614917565b60405180910390fd5b806101098190555050565b61010a5481565b6000609980549050905090565b61010e6020528060005260406000206000915054906101000a900460ff1681565b61010d6020528060005260406000206000915054906101000a900460ff1681565b6101025481565b6112036111fd6129f9565b82612b5d565b611242576040517f08c379a000000000000000000000000000000000000000000000000000000000815260040161123990614bbf565b60405180910390fd5b61124d838383612c3b565b505050565b61125a6129f9565b73ffffffffffffffffffffffffffffffffffffffff16611278611a97565b73ffffffffffffffffffffffffffffffffffffffff16146112ce576040517f08c379a00000000000000000000000000000000000000000000000000000000081526004016112c590614917565b60405180910390fd5b8061010090805190602001906112e5929190613ca6565b5050565b6112f16129f9565b73ffffffffffffffffffffffffffffffffffffffff1661130f611a97565b73ffffffffffffffffffffffffffffffffffffffff1614611365576040517f08c379a000000000000000000000000000000000000000000000000000000000815260040161135c90614917565b60405180910390fd5b806101088190555050565b600061137b8361182f565b82106113bc576040517f08c379a00000000000000000000000000000000000000000000000000000000081526004016113b390614c51565b60405180910390fd5b609760008473ffffffffffffffffffffffffffffffffffffffff1673ffffffffffffffffffffffffffffffffffffffff168152602001908152602001600020600083815260200190815260200160002054905092915050565b60ff805461142290614966565b80601f016020809104026020016040519081016040528092919081815260200182805461144e90614966565b801561149b5780601f106114705761010080835404028352916020019161149b565b820191906000526020600020905b81548152906001019060200180831161147e57829003601f168201915b505050505081565b6114ab6129f9565b73ffffffffffffffffffffffffffffffffffffffff166114c9611a97565b73ffffffffffffffffffffffffffffffffffffffff161461151f576040517f08c379a000000000000000000000000000000000000000000000000000000000815260040161151690614917565b60405180910390fd5b3373ffffffffffffffffffffffffffffffffffffffff166108fc479081150290604051600060405180830381858888f1935050505061155d57600080fd5b565b61157a838383604051806020016040528060008152506121f0565b505050565b61010f60009054906101000a900473ffffffffffffffffffffffffffffffffffffffff1681565b6115ae6129f9565b73ffffffffffffffffffffffffffffffffffffffff166115cc611a97565b73ffffffffffffffffffffffffffffffffffffffff1614611622576040517f08c379a000000000000000000000000000000000000000000000000000000000815260040161161990614917565b60405180910390fd5b61010760006116319190613d2c565b81816101079190611643929190613d4d565b505050565b610100805461165690614966565b80601f016020809104026020016040519081016040528092919081815260200182805461168290614966565b80156116cf5780601f106116a4576101008083540402835291602001916116cf565b820191906000526020600020905b8154815290600101906020018083116116b257829003601f168201915b505050505081565b6101085481565b60006116e861119c565b8210611729576040517f08c379a000000000000000000000000000000000000000000000000000000000815260040161172090614ce3565b60405180910390fd5b6099828154811061173d5761173c614d03565b5b90600052602060002001549050919050565b61010560009054906101000a900460ff1681565b61011160009054906101000a900460ff1681565b6000806067600084815260200190815260200160002060009054906101000a900473ffffffffffffffffffffffffffffffffffffffff169050600073ffffffffffffffffffffffffffffffffffffffff168173ffffffffffffffffffffffffffffffffffffffff160361181f576040517f08c379a000000000000000000000000000000000000000000000000000000000815260040161181690614da4565b60405180910390fd5b80915050919050565b6101035481565b60008073ffffffffffffffffffffffffffffffffffffffff168273ffffffffffffffffffffffffffffffffffffffff160361189f576040517f08c379a000000000000000000000000000000000000000000000000000000000815260040161189690614e36565b60405180910390fd5b606860008373ffffffffffffffffffffffffffffffffffffffff1673ffffffffffffffffffffffffffffffffffffffff168152602001908152602001600020549050919050565b6118ee6129f9565b73ffffffffffffffffffffffffffffffffffffffff1661190c611a97565b73ffffffffffffffffffffffffffffffffffffffff1614611962576040517f08c379a000000000000000000000000000000000000000000000000000000000815260040161195990614917565b60405180910390fd5b61196c6000612ea1565b565b6119766129f9565b73ffffffffffffffffffffffffffffffffffffffff16611994611a97565b73ffffffffffffffffffffffffffffffffffffffff16146119ea576040517f08c379a00000000000000000000000000000000000000000000000000000000081526004016119e190614917565b60405180910390fd5b806101028190555050565b6119fd6129f9565b73ffffffffffffffffffffffffffffffffffffffff16611a1b611a97565b73ffffffffffffffffffffffffffffffffffffffff1614611a71576040517f08c379a0000000000000000000000000000000000000000000000000000000008152600401611a6890614917565b60405180910390fd5b6101066000611a809190613d2c565b81816101069190611a92929190613d4d565b505050565b600060c960009054906101000a900473ffffffffffffffffffffffffffffffffffffffff16905090565b611ac96129f9565b73ffffffffffffffffffffffffffffffffffffffff16611ae7611a97565b73ffffffffffffffffffffffffffffffffffffffff1614611b3d576040517f08c379a0000000000000000000000000000000000000000000000000000000008152600401611b3490614917565b60405180910390fd5b8061010560006101000a81548160ff02191690831515021790555050565b61011160009054906101000a900460ff1615611b7657600080fd5b60fd5460fc5460fb60009054906101000a900473ffffffffffffffffffffffffffffffffffffffff1673ffffffffffffffffffffffffffffffffffffffff166370a08231336040518263ffffffff1660e01b8152600401611bd79190614091565b602060405180830381865afa158015611bf4573d6000803e3d6000fd5b505050506040513d601f19601f82011682018060405250810190611c189190614e6b565b611c229190614ef6565b11611c62576040517f08c379a0000000000000000000000000000000000000000000000000000000008152600401611c5990614f73565b60405180910390fd5b6000611c6c611a97565b73ffffffffffffffffffffffffffffffffffffffff163373ffffffffffffffffffffffffffffffffffffffff1614611fbf576001151561010560019054906101000a900460ff16151503611fbe5761010d60003373ffffffffffffffffffffffffffffffffffffffff1673ffffffffffffffffffffffffffffffffffffffff16815260200190815260200160002060009054906101000a900460ff1680611d5d575061010e60003373ffffffffffffffffffffffffffffffffffffffff1673ffffffffffffffffffffffffffffffffffffffff16815260200190815260200160002060009054906101000a900460ff165b611d9c576040517f08c379a0000000000000000000000000000000000000000000000000000000008152600401611d9390614fdf565b60405180910390fd5b600033604051602001611daf9190615047565b6040516020818303038152906040528051906020012090506000611e18878780806020026020016040519081016040528093929190818152602001838360200280828437600081840152601f19601f820116905080830192505050505050506101085484612f67565b90506000611e6b868680806020026020016040519081016040528093929190818152602001838360200280828437600081840152601f19601f820116905080830192505050505050506101095485612f67565b905081158015611e79575080155b611eb8576040517f08c379a0000000000000000000000000000000000000000000000000000000008152600401611eaf906150ae565b60405180910390fd5b8115611f335761010154611eca612a01565b1115611ed557600080fd5b60019350600161010d60003373ffffffffffffffffffffffffffffffffffffffff1673ffffffffffffffffffffffffffffffffffffffff16815260200190815260200160002060006101000a81548160ff0219169083151502179055505b8015611fba57610101546001611f47612a01565b611f5191906150ce565b1115611f5c57600080fd5b60029350600161010e60003373ffffffffffffffffffffffffffffffffffffffff1673ffffffffffffffffffffffffffffffffffffffff16815260200190815260200160002060006101000a81548160ff0219169083151502179055505b5050505b5b6000600190505b818111612000576000611fd7612a01565b9050611fee338383611fe991906150ce565b612a1f565b5080611ff990615124565b9050611fc6565b505050505050565b60606066805461201790614966565b80601f016020809104026020016040519081016040528092919081815260200182805461204390614966565b80156120905780601f1061206557610100808354040283529160200191612090565b820191906000526020600020905b81548152906001019060200180831161207357829003601f168201915b5050505050905090565b61010560019054906101000a900460ff1681565b6120c06120b96129f9565b8383612f7e565b5050565b6120cc6129f9565b73ffffffffffffffffffffffffffffffffffffffff166120ea611a97565b73ffffffffffffffffffffffffffffffffffffffff1614612140576040517f08c379a000000000000000000000000000000000000000000000000000000000815260040161213790614917565b60405180910390fd5b8060fe9080519060200190612156929190613ca6565b5050565b6121626129f9565b73ffffffffffffffffffffffffffffffffffffffff16612180611a97565b73ffffffffffffffffffffffffffffffffffffffff16146121d6576040517f08c379a00000000000000000000000000000000000000000000000000000000081526004016121cd90614917565b60405180910390fd5b8060ff90805190602001906121ec929190613ca6565b5050565b6122016121fb6129f9565b83612b5d565b612240576040517f08c379a000000000000000000000000000000000000000000000000000000000815260040161223790614bbf565b60405180910390fd5b61224c848484846130ea565b50505050565b6101045481565b6122616129f9565b73ffffffffffffffffffffffffffffffffffffffff1661227f611a97565b73ffffffffffffffffffffffffffffffffffffffff16146122d5576040517f08c379a00000000000000000000000000000000000000000000000000000000081526004016122cc90614917565b60405180910390fd5b8060fb60006101000a81548173ffffffffffffffffffffffffffffffffffffffff021916908373ffffffffffffffffffffffffffffffffffffffff16021790555050565b606061232482612a38565b612363576040517f08c379a000000000000000000000000000000000000000000000000000000000815260040161235a906151de565b60405180910390fd5b600061236d613146565b905060006123a061010a546101106000878152602001908152602001600020546123979190614ef6565b610103546131f5565b9050600060fe6123af8661320e565b6123b88461320e565b6101006040516020016123ce949392919061531a565b604051602081830303815290604052905060008351116123fd57604051806020016040528060008152506124a5565b61010560009054906101000a900460ff166124a25760ff805461241f90614966565b80601f016020809104026020016040519081016040528092919081815260200182805461244b90614966565b80156124985780601f1061246d57610100808354040283529160200191612498565b820191906000526020600020905b81548152906001019060200180831161247b57829003601f168201915b50505050506124a4565b805b5b9350505050919050565b6124b76129f9565b73ffffffffffffffffffffffffffffffffffffffff166124d5611a97565b73ffffffffffffffffffffffffffffffffffffffff161461252b576040517f08c379a000000000000000000000000000000000000000000000000000000000815260040161252290614917565b60405180910390fd5b8060fd8190555050565b606060006125428361182f565b905060008167ffffffffffffffff8111156125605761255f6142d3565b5b60405190808252806020026020018201604052801561258e5781602001602082028036833780820191505090505b50905060005b61259d8561182f565b8110156125e0576125ae8582611370565b8282815181106125c1576125c0614d03565b5b60200260200101818152505080806125d890615124565b915050612594565b819350505050919050565b6101015481565b6000606a60008473ffffffffffffffffffffffffffffffffffffffff1673ffffffffffffffffffffffffffffffffffffffff16815260200190815260200160002060008373ffffffffffffffffffffffffffffffffffffffff1673ffffffffffffffffffffffffffffffffffffffff16815260200190815260200160002060009054906101000a900460ff16905092915050565b61268e6129f9565b73ffffffffffffffffffffffffffffffffffffffff166126ac611a97565b73ffffffffffffffffffffffffffffffffffffffff1614612702576040517f08c379a00000000000000000000000000000000000000000000000000000000081526004016126f990614917565b60405180910390fd5b8061010f60006101000a81548173ffffffffffffffffffffffffffffffffffffffff021916908373ffffffffffffffffffffffffffffffffffffffff16021790555050565b61274f6129f9565b73ffffffffffffffffffffffffffffffffffffffff1661276d611a97565b73ffffffffffffffffffffffffffffffffffffffff16146127c3576040517f08c379a00000000000000000000000000000000000000000000000000000000081526004016127ba90614917565b60405180910390fd5b600073ffffffffffffffffffffffffffffffffffffffff168173ffffffffffffffffffffffffffffffffffffffff1603612832576040517f08c379a0000000000000000000000000000000000000000000000000000000008152600401612829906153d5565b60405180910390fd5b61283b81612ea1565b50565b61010f60009054906101000a900473ffffffffffffffffffffffffffffffffffffffff1673ffffffffffffffffffffffffffffffffffffffff163373ffffffffffffffffffffffffffffffffffffffff16146128cf576040517f08c379a00000000000000000000000000000000000000000000000000000000081526004016128c690615441565b60405180910390fd5b80610110600084815260200190815260200160002060008282546128f391906150ce565b925050819055505050565b6101106020528060005260406000206000915090505481565b60007f80ac58cd000000000000000000000000000000000000000000000000000000007bffffffffffffffffffffffffffffffffffffffffffffffffffffffff1916827bffffffffffffffffffffffffffffffffffffffffffffffffffffffff191614806129e257507f5b5e139f000000000000000000000000000000000000000000000000000000007bffffffffffffffffffffffffffffffffffffffffffffffffffffffff1916827bffffffffffffffffffffffffffffffffffffffffffffffffffffffff1916145b806129f257506129f18261336e565b5b9050919050565b600033905090565b60006001612a1061010b6133d8565b612a1a91906150ce565b905090565b612a2982826133e6565b612a3461010b613404565b5050565b60008073ffffffffffffffffffffffffffffffffffffffff166067600084815260200190815260200160002060009054906101000a900473ffffffffffffffffffffffffffffffffffffffff1673ffffffffffffffffffffffffffffffffffffffff1614159050919050565b816069600083815260200190815260200160002060006101000a81548173ffffffffffffffffffffffffffffffffffffffff021916908373ffffffffffffffffffffffffffffffffffffffff160217905550808273ffffffffffffffffffffffffffffffffffffffff16612b1783611777565b73ffffffffffffffffffffffffffffffffffffffff167f8c5be1e5ebec7d5bd14f71427d1e84f3dd0314c0f7b2291e5b200ac8c7c3b92560405160405180910390a45050565b6000612b6882612a38565b612ba7576040517f08c379a0000000000000000000000000000000000000000000000000000000008152600401612b9e906154d3565b60405180910390fd5b6000612bb283611777565b90508073ffffffffffffffffffffffffffffffffffffffff168473ffffffffffffffffffffffffffffffffffffffff161480612c2157508373ffffffffffffffffffffffffffffffffffffffff16612c0984610eb7565b73ffffffffffffffffffffffffffffffffffffffff16145b80612c325750612c3181856125f2565b5b91505092915050565b8273ffffffffffffffffffffffffffffffffffffffff16612c5b82611777565b73ffffffffffffffffffffffffffffffffffffffff1614612cb1576040517f08c379a0000000000000000000000000000000000000000000000000000000008152600401612ca890615565565b60405180910390fd5b600073ffffffffffffffffffffffffffffffffffffffff168273ffffffffffffffffffffffffffffffffffffffff1603612d20576040517f08c379a0000000000000000000000000000000000000000000000000000000008152600401612d17906155f7565b60405180910390fd5b612d2b83838361341a565b612d36600082612aa4565b6001606860008573ffffffffffffffffffffffffffffffffffffffff1673ffffffffffffffffffffffffffffffffffffffff1681526020019081526020016000206000828254612d869190615617565b925050819055506001606860008473ffffffffffffffffffffffffffffffffffffffff1673ffffffffffffffffffffffffffffffffffffffff1681526020019081526020016000206000828254612ddd91906150ce565b92505081905550816067600083815260200190815260200160002060006101000a81548173ffffffffffffffffffffffffffffffffffffffff021916908373ffffffffffffffffffffffffffffffffffffffff160217905550808273ffffffffffffffffffffffffffffffffffffffff168473ffffffffffffffffffffffffffffffffffffffff167fddf252ad1be2c89b69c2b068fc378daa952ba7f163c4a11628f55a4df523b3ef60405160405180910390a4612e9c83838361352c565b505050565b600060c960009054906101000a900473ffffffffffffffffffffffffffffffffffffffff1690508160c960006101000a81548173ffffffffffffffffffffffffffffffffffffffff021916908373ffffffffffffffffffffffffffffffffffffffff1602179055508173ffffffffffffffffffffffffffffffffffffffff168173ffffffffffffffffffffffffffffffffffffffff167f8be0079c531659141344cd1fd0a4f28419497f9722a3daafe3b4186f6b6457e060405160405180910390a35050565b600082612f748584613531565b1490509392505050565b8173ffffffffffffffffffffffffffffffffffffffff168373ffffffffffffffffffffffffffffffffffffffff1603612fec576040517f08c379a0000000000000000000000000000000000000000000000000000000008152600401612fe390615697565b60405180910390fd5b80606a60008573ffffffffffffffffffffffffffffffffffffffff1673ffffffffffffffffffffffffffffffffffffffff16815260200190815260200160002060008473ffffffffffffffffffffffffffffffffffffffff1673ffffffffffffffffffffffffffffffffffffffff16815260200190815260200160002060006101000a81548160ff0219169083151502179055508173ffffffffffffffffffffffffffffffffffffffff168373ffffffffffffffffffffffffffffffffffffffff167f17307eab39ab6107e8899845ad3d59bd9653f200f220920489ca2b5937696c31836040516130dd9190613ebe565b60405180910390a3505050565b6130f5848484612c3b565b613101848484846135a6565b613140576040517f08c379a000000000000000000000000000000000000000000000000000000000815260040161313790615729565b60405180910390fd5b50505050565b606061010560009054906101000a900460ff166131645760ff613167565b60fe5b805461317290614966565b80601f016020809104026020016040519081016040528092919081815260200182805461319e90614966565b80156131eb5780601f106131c0576101008083540402835291602001916131eb565b820191906000526020600020905b8154815290600101906020018083116131ce57829003601f168201915b5050505050905090565b60008183106132045781613206565b825b905092915050565b606060008203613255576040518060400160405280600181526020017f30000000000000000000000000000000000000000000000000000000000000008152509050613369565b600082905060005b6000821461328757808061327090615124565b915050600a826132809190614ef6565b915061325d565b60008167ffffffffffffffff8111156132a3576132a26142d3565b5b6040519080825280601f01601f1916602001820160405280156132d55781602001600182028036833780820191505090505b5090505b60008514613362576001826132ee9190615617565b9150600a856132fd9190615749565b603061330991906150ce565b60f81b81838151811061331f5761331e614d03565b5b60200101907effffffffffffffffffffffffffffffffffffffffffffffffffffffffffffff1916908160001a905350600a8561335b9190614ef6565b94506132d9565b8093505050505b919050565b60007f01ffc9a7000000000000000000000000000000000000000000000000000000007bffffffffffffffffffffffffffffffffffffffffffffffffffffffff1916827bffffffffffffffffffffffffffffffffffffffffffffffffffffffff1916149050919050565b600081600001549050919050565b61340082826040518060200160405280600081525061372d565b5050565b6001816000016000828254019250508190555050565b613425838383613788565b600073ffffffffffffffffffffffffffffffffffffffff168373ffffffffffffffffffffffffffffffffffffffff1603613467576134628161378d565b6134a6565b8173ffffffffffffffffffffffffffffffffffffffff168373ffffffffffffffffffffffffffffffffffffffff16146134a5576134a483826137d6565b5b5b600073ffffffffffffffffffffffffffffffffffffffff168273ffffffffffffffffffffffffffffffffffffffff16036134e8576134e381613943565b613527565b8273ffffffffffffffffffffffffffffffffffffffff168273ffffffffffffffffffffffffffffffffffffffff1614613526576135258282613a14565b5b5b505050565b505050565b60008082905060005b845181101561359b57600085828151811061355857613557614d03565b5b6020026020010151905080831161357a576135738382613a93565b9250613587565b6135848184613a93565b92505b50808061359390615124565b91505061353a565b508091505092915050565b60006135c78473ffffffffffffffffffffffffffffffffffffffff16613aaa565b15613720578373ffffffffffffffffffffffffffffffffffffffff1663150b7a026135f06129f9565b8786866040518563ffffffff1660e01b815260040161361294939291906157cf565b6020604051808303816000875af192505050801561364e57506040513d601f19601f8201168201806040525081019061364b9190615830565b60015b6136d0573d806000811461367e576040519150601f19603f3d011682016040523d82523d6000602084013e613683565b606091505b5060008151036136c8576040517f08c379a00000000000000000000000000000000000000000000000000000000081526004016136bf90615729565b60405180910390fd5b805181602001fd5b63150b7a0260e01b7bffffffffffffffffffffffffffffffffffffffffffffffffffffffff1916817bffffffffffffffffffffffffffffffffffffffffffffffffffffffff191614915050613725565b600190505b949350505050565b6137378383613acd565b61374460008484846135a6565b613783576040517f08c379a000000000000000000000000000000000000000000000000000000000815260040161377a90615729565b60405180910390fd5b505050565b505050565b609980549050609a600083815260200190815260200160002081905550609981908060018154018082558091505060019003906000526020600020016000909190919091505550565b600060016137e38461182f565b6137ed9190615617565b90506000609860008481526020019081526020016000205490508181146138d2576000609760008673ffffffffffffffffffffffffffffffffffffffff1673ffffffffffffffffffffffffffffffffffffffff168152602001908152602001600020600084815260200190815260200160002054905080609760008773ffffffffffffffffffffffffffffffffffffffff1673ffffffffffffffffffffffffffffffffffffffff168152602001908152602001600020600084815260200190815260200160002081905550816098600083815260200190815260200160002081905550505b6098600084815260200190815260200160002060009055609760008573ffffffffffffffffffffffffffffffffffffffff1673ffffffffffffffffffffffffffffffffffffffff16815260200190815260200160002060008381526020019081526020016000206000905550505050565b600060016099805490506139579190615617565b90506000609a600084815260200190815260200160002054905060006099838154811061398757613986614d03565b5b9060005260206000200154905080609983815481106139a9576139a8614d03565b5b906000526020600020018190555081609a600083815260200190815260200160002081905550609a60008581526020019081526020016000206000905560998054806139f8576139f761585d565b5b6001900381819060005260206000200160009055905550505050565b6000613a1f8361182f565b905081609760008573ffffffffffffffffffffffffffffffffffffffff1673ffffffffffffffffffffffffffffffffffffffff168152602001908152602001600020600083815260200190815260200160002081905550806098600084815260200190815260200160002081905550505050565b600082600052816020526040600020905092915050565b6000808273ffffffffffffffffffffffffffffffffffffffff163b119050919050565b600073ffffffffffffffffffffffffffffffffffffffff168273ffffffffffffffffffffffffffffffffffffffff1603613b3c576040517f08c379a0000000000000000000000000000000000000000000000000000000008152600401613b33906158d8565b60405180910390fd5b613b4581612a38565b15613b85576040517f08c379a0000000000000000000000000000000000000000000000000000000008152600401613b7c90615944565b60405180910390fd5b613b916000838361341a565b6001606860008473ffffffffffffffffffffffffffffffffffffffff1673ffffffffffffffffffffffffffffffffffffffff1681526020019081526020016000206000828254613be191906150ce565b92505081905550816067600083815260200190815260200160002060006101000a81548173ffffffffffffffffffffffffffffffffffffffff021916908373ffffffffffffffffffffffffffffffffffffffff160217905550808273ffffffffffffffffffffffffffffffffffffffff16600073ffffffffffffffffffffffffffffffffffffffff167fddf252ad1be2c89b69c2b068fc378daa952ba7f163c4a11628f55a4df523b3ef60405160405180910390a4613ca26000838361352c565b5050565b828054613cb290614966565b90600052602060002090601f016020900481019282613cd45760008555613d1b565b82601f10613ced57805160ff1916838001178555613d1b565b82800160010185558215613d1b579182015b82811115613d1a578251825591602001919060010190613cff565b5b509050613d289190613ded565b5090565b5080546000825590600052602060002090810190613d4a9190613ded565b50565b828054828255906000526020600020908101928215613ddc579160200282015b82811115613ddb57823573ffffffffffffffffffffffffffffffffffffffff168260006101000a81548173ffffffffffffffffffffffffffffffffffffffff021916908373ffffffffffffffffffffffffffffffffffffffff16021790555091602001919060010190613d6d565b5b509050613de99190613ded565b5090565b5b80821115613e06576000816000905550600101613dee565b5090565b6000604051905090565b600080fd5b600080fd5b60007fffffffff0000000000000000000000000000000000000000000000000000000082169050919050565b613e5381613e1e565b8114613e5e57600080fd5b50565b600081359050613e7081613e4a565b92915050565b600060208284031215613e8c57613e8b613e14565b5b6000613e9a84828501613e61565b91505092915050565b60008115159050919050565b613eb881613ea3565b82525050565b6000602082019050613ed36000830184613eaf565b92915050565b613ee281613ea3565b8114613eed57600080fd5b50565b600081359050613eff81613ed9565b92915050565b600060208284031215613f1b57613f1a613e14565b5b6000613f2984828501613ef0565b91505092915050565b600081519050919050565b600082825260208201905092915050565b60005b83811015613f6c578082015181840152602081019050613f51565b83811115613f7b576000848401525b50505050565b6000601f19601f8301169050919050565b6000613f9d82613f32565b613fa78185613f3d565b9350613fb7818560208601613f4e565b613fc081613f81565b840191505092915050565b60006020820190508181036000830152613fe58184613f92565b905092915050565b6000819050919050565b61400081613fed565b811461400b57600080fd5b50565b60008135905061401d81613ff7565b92915050565b60006020828403121561403957614038613e14565b5b60006140478482850161400e565b91505092915050565b600073ffffffffffffffffffffffffffffffffffffffff82169050919050565b600061407b82614050565b9050919050565b61408b81614070565b82525050565b60006020820190506140a66000830184614082565b92915050565b6140b581614070565b81146140c057600080fd5b50565b6000813590506140d2816140ac565b92915050565b600080604083850312156140ef576140ee613e14565b5b60006140fd858286016140c3565b925050602061410e8582860161400e565b9150509250929050565b6000819050919050565b61412b81614118565b82525050565b60006020820190506141466000830184614122565b92915050565b6000819050919050565b600061417161416c61416784614050565b61414c565b614050565b9050919050565b600061418382614156565b9050919050565b600061419582614178565b9050919050565b6141a58161418a565b82525050565b60006020820190506141c0600083018461419c565b92915050565b6141cf81614118565b81146141da57600080fd5b50565b6000813590506141ec816141c6565b92915050565b60006020828403121561420857614207613e14565b5b6000614216848285016141dd565b91505092915050565b61422881613fed565b82525050565b6000602082019050614243600083018461421f565b92915050565b60006020828403121561425f5761425e613e14565b5b600061426d848285016140c3565b91505092915050565b60008060006060848603121561428f5761428e613e14565b5b600061429d868287016140c3565b93505060206142ae868287016140c3565b92505060406142bf8682870161400e565b9150509250925092565b600080fd5b600080fd5b7f4e487b7100000000000000000000000000000000000000000000000000000000600052604160045260246000fd5b61430b82613f81565b810181811067ffffffffffffffff8211171561432a576143296142d3565b5b80604052505050565b600061433d613e0a565b90506143498282614302565b919050565b600067ffffffffffffffff821115614369576143686142d3565b5b61437282613f81565b9050602081019050919050565b82818337600083830152505050565b60006143a161439c8461434e565b614333565b9050828152602081018484840111156143bd576143bc6142ce565b5b6143c884828561437f565b509392505050565b600082601f8301126143e5576143e46142c9565b5b81356143f584826020860161438e565b91505092915050565b60006020828403121561441457614413613e14565b5b600082013567ffffffffffffffff81111561443257614431613e19565b5b61443e848285016143d0565b91505092915050565b600061445282614178565b9050919050565b61446281614447565b82525050565b600060208201905061447d6000830184614459565b92915050565b600080fd5b600080fd5b60008083601f8401126144a3576144a26142c9565b5b8235905067ffffffffffffffff8111156144c0576144bf614483565b5b6020830191508360208202830111156144dc576144db614488565b5b9250929050565b600080602083850312156144fa576144f9613e14565b5b600083013567ffffffffffffffff81111561451857614517613e19565b5b6145248582860161448d565b92509250509250929050565b60008083601f840112614546576145456142c9565b5b8235905067ffffffffffffffff81111561456357614562614483565b5b60208301915083602082028301111561457f5761457e614488565b5b9250929050565b600080600080604085870312156145a05761459f613e14565b5b600085013567ffffffffffffffff8111156145be576145bd613e19565b5b6145ca87828801614530565b9450945050602085013567ffffffffffffffff8111156145ed576145ec613e19565b5b6145f987828801614530565b925092505092959194509250565b6000806040838503121561461e5761461d613e14565b5b600061462c858286016140c3565b925050602061463d85828601613ef0565b9150509250929050565b600067ffffffffffffffff821115614662576146616142d3565b5b61466b82613f81565b9050602081019050919050565b600061468b61468684614647565b614333565b9050828152602081018484840111156146a7576146a66142ce565b5b6146b284828561437f565b509392505050565b600082601f8301126146cf576146ce6142c9565b5b81356146df848260208601614678565b91505092915050565b6000806000806080858703121561470257614701613e14565b5b6000614710878288016140c3565b9450506020614721878288016140c3565b93505060406147328782880161400e565b925050606085013567ffffffffffffffff81111561475357614752613e19565b5b61475f878288016146ba565b91505092959194509250565b600081519050919050565b600082825260208201905092915050565b6000819050602082019050919050565b6147a081613fed565b82525050565b60006147b28383614797565b60208301905092915050565b6000602082019050919050565b60006147d68261476b565b6147e08185614776565b93506147eb83614787565b8060005b8381101561481c57815161480388826147a6565b975061480e836147be565b9250506001810190506147ef565b5085935050505092915050565b6000602082019050818103600083015261484381846147cb565b905092915050565b6000806040838503121561486257614861613e14565b5b6000614870858286016140c3565b9250506020614881858286016140c3565b9150509250929050565b600080604083850312156148a2576148a1613e14565b5b60006148b08582860161400e565b92505060206148c18582860161400e565b9150509250929050565b7f4f776e61626c653a2063616c6c6572206973206e6f7420746865206f776e6572600082015250565b6000614901602083613f3d565b915061490c826148cb565b602082019050919050565b60006020820190508181036000830152614930816148f4565b9050919050565b7f4e487b7100000000000000000000000000000000000000000000000000000000600052602260045260246000fd5b6000600282049050600182168061497e57607f821691505b60208210810361499157614990614937565b5b50919050565b7f4552433732313a20617070726f76656420717565727920666f72206e6f6e657860008201527f697374656e7420746f6b656e0000000000000000000000000000000000000000602082015250565b60006149f3602c83613f3d565b91506149fe82614997565b604082019050919050565b60006020820190508181036000830152614a22816149e6565b9050919050565b7f4552433732313a20617070726f76616c20746f2063757272656e74206f776e6560008201527f7200000000000000000000000000000000000000000000000000000000000000602082015250565b6000614a85602183613f3d565b9150614a9082614a29565b604082019050919050565b60006020820190508181036000830152614ab481614a78565b9050919050565b7f4552433732313a20617070726f76652063616c6c6572206973206e6f74206f7760008201527f6e6572206e6f7220617070726f76656420666f7220616c6c0000000000000000602082015250565b6000614b17603883613f3d565b9150614b2282614abb565b604082019050919050565b60006020820190508181036000830152614b4681614b0a565b9050919050565b7f4552433732313a207472616e736665722063616c6c6572206973206e6f74206f60008201527f776e6572206e6f7220617070726f766564000000000000000000000000000000602082015250565b6000614ba9603183613f3d565b9150614bb482614b4d565b604082019050919050565b60006020820190508181036000830152614bd881614b9c565b9050919050565b7f455243373231456e756d657261626c653a206f776e657220696e646578206f7560008201527f74206f6620626f756e6473000000000000000000000000000000000000000000602082015250565b6000614c3b602b83613f3d565b9150614c4682614bdf565b604082019050919050565b60006020820190508181036000830152614c6a81614c2e565b9050919050565b7f455243373231456e756d657261626c653a20676c6f62616c20696e646578206f60008201527f7574206f6620626f756e64730000000000000000000000000000000000000000602082015250565b6000614ccd602c83613f3d565b9150614cd882614c71565b604082019050919050565b60006020820190508181036000830152614cfc81614cc0565b9050919050565b7f4e487b7100000000000000000000000000000000000000000000000000000000600052603260045260246000fd5b7f4552433732313a206f776e657220717565727920666f72206e6f6e657869737460008201527f656e7420746f6b656e0000000000000000000000000000000000000000000000602082015250565b6000614d8e602983613f3d565b9150614d9982614d32565b604082019050919050565b60006020820190508181036000830152614dbd81614d81565b9050919050565b7f4552433732313a2062616c616e636520717565727920666f7220746865207a6560008201527f726f206164647265737300000000000000000000000000000000000000000000602082015250565b6000614e20602a83613f3d565b9150614e2b82614dc4565b604082019050919050565b60006020820190508181036000830152614e4f81614e13565b9050919050565b600081519050614e6581613ff7565b92915050565b600060208284031215614e8157614e80613e14565b5b6000614e8f84828501614e56565b91505092915050565b7f4e487b7100000000000000000000000000000000000000000000000000000000600052601260045260246000fd5b7f4e487b7100000000000000000000000000000000000000000000000000000000600052601160045260246000fd5b6000614f0182613fed565b9150614f0c83613fed565b925082614f1c57614f1b614e98565b5b828204905092915050565b7f4e6f7420656e6f756768206d6167696320696e2077616c6c6574000000000000600082015250565b6000614f5d601a83613f3d565b9150614f6882614f27565b602082019050919050565b60006020820190508181036000830152614f8c81614f50565b9050919050565b7f7573657220616c72656164792077686974656c69737465640000000000000000600082015250565b6000614fc9601883613f3d565b9150614fd482614f93565b602082019050919050565b60006020820190508181036000830152614ff881614fbc565b9050919050565b60008160601b9050919050565b600061501782614fff565b9050919050565b60006150298261500c565b9050919050565b61504161503c82614070565b61501e565b82525050565b60006150538284615030565b60148201915081905092915050565b7f496e76616c69642070726f6f66202d206e6f742077686974656c697374656400600082015250565b6000615098601f83613f3d565b91506150a382615062565b602082019050919050565b600060208201905081810360008301526150c78161508b565b9050919050565b60006150d982613fed565b91506150e483613fed565b9250827fffffffffffffffffffffffffffffffffffffffffffffffffffffffffffffffff0382111561511957615118614ec7565b5b828201905092915050565b600061512f82613fed565b91507fffffffffffffffffffffffffffffffffffffffffffffffffffffffffffffffff820361516157615160614ec7565b5b600182019050919050565b7f4552433732314d657461646174613a2055524920717565727920666f72206e6f60008201527f6e6578697374656e7420746f6b656e0000000000000000000000000000000000602082015250565b60006151c8602f83613f3d565b91506151d38261516c565b604082019050919050565b600060208201905081810360008301526151f7816151bb565b9050919050565b600081905092915050565b60008190508160005260206000209050919050565b6000815461522b81614966565b61523581866151fe565b94506001821660008114615250576001811461526157615294565b60ff19831686528186019350615294565b61526a85615209565b60005b8381101561528c5781548189015260018201915060208101905061526d565b838801955050505b50505092915050565b60006152a882613f32565b6152b281856151fe565b93506152c2818560208601613f4e565b80840191505092915050565b7f2f00000000000000000000000000000000000000000000000000000000000000600082015250565b60006153046001836151fe565b915061530f826152ce565b600182019050919050565b6000615326828761521e565b9150615332828661529d565b915061533d826152f7565b9150615349828561529d565b9150615355828461521e565b915081905095945050505050565b7f4f776e61626c653a206e6577206f776e657220697320746865207a65726f206160008201527f6464726573730000000000000000000000000000000000000000000000000000602082015250565b60006153bf602683613f3d565b91506153ca82615363565b604082019050919050565b600060208201905081810360008301526153ee816153b2565b9050919050565b7f426f626f74733a2021436f72654368616d626572000000000000000000000000600082015250565b600061542b601483613f3d565b9150615436826153f5565b602082019050919050565b6000602082019050818103600083015261545a8161541e565b9050919050565b7f4552433732313a206f70657261746f7220717565727920666f72206e6f6e657860008201527f697374656e7420746f6b656e0000000000000000000000000000000000000000602082015250565b60006154bd602c83613f3d565b91506154c882615461565b604082019050919050565b600060208201905081810360008301526154ec816154b0565b9050919050565b7f4552433732313a207472616e736665722066726f6d20696e636f72726563742060008201527f6f776e6572000000000000000000000000000000000000000000000000000000602082015250565b600061554f602583613f3d565b915061555a826154f3565b604082019050919050565b6000602082019050818103600083015261557e81615542565b9050919050565b7f4552433732313a207472616e7366657220746f20746865207a65726f2061646460008201527f7265737300000000000000000000000000000000000000000000000000000000602082015250565b60006155e1602483613f3d565b91506155ec82615585565b604082019050919050565b60006020820190508181036000830152615610816155d4565b9050919050565b600061562282613fed565b915061562d83613fed565b9250828210156156405761563f614ec7565b5b828203905092915050565b7f4552433732313a20617070726f766520746f2063616c6c657200000000000000600082015250565b6000615681601983613f3d565b915061568c8261564b565b602082019050919050565b600060208201905081810360008301526156b081615674565b9050919050565b7f4552433732313a207472616e7366657220746f206e6f6e20455243373231526560008201527f63656976657220696d706c656d656e7465720000000000000000000000000000602082015250565b6000615713603283613f3d565b915061571e826156b7565b604082019050919050565b6000602082019050818103600083015261574281615706565b9050919050565b600061575482613fed565b915061575f83613fed565b92508261576f5761576e614e98565b5b828206905092915050565b600081519050919050565b600082825260208201905092915050565b60006157a18261577a565b6157ab8185615785565b93506157bb818560208601613f4e565b6157c481613f81565b840191505092915050565b60006080820190506157e46000830187614082565b6157f16020830186614082565b6157fe604083018561421f565b81810360608301526158108184615796565b905095945050505050565b60008151905061582a81613e4a565b92915050565b60006020828403121561584657615845613e14565b5b60006158548482850161581b565b91505092915050565b7f4e487b7100000000000000000000000000000000000000000000000000000000600052603160045260246000fd5b7f4552433732313a206d696e7420746f20746865207a65726f2061646472657373600082015250565b60006158c2602083613f3d565b91506158cd8261588c565b602082019050919050565b600060208201905081810360008301526158f1816158b5565b9050919050565b7f4552433732313a20746f6b656e20616c7265616479206d696e74656400000000600082015250565b600061592e601c83613f3d565b9150615939826158f8565b602082019050919050565b6000602082019050818103600083015261595d81615921565b905091905056fea2646970667358221220923e2a067a164e32fb823e0a80d70a3b9d9ba2cbea24ae080a549789d3e76abf64736f6c634300080d0033",
  "linkReferences": {},
  "deployedLinkReferences": {}
}