{
  "_format": "hh-sol-artifact-1",
  "contractName": "BobotGenesis",
  "sourceName": "contracts/BobotGenesis.sol",
  "abi": [
    {
      "anonymous": false,
      "inputs": [
        {
          "indexed": true,
          "internalType": "address",
          "name": "owner",
          "type": "address"
        },
        {
          "indexed": true,
          "internalType": "address",
          "name": "approved",
          "type": "address"
        },
        {
          "indexed": true,
          "internalType": "uint256",
          "name": "tokenId",
          "type": "uint256"
        }
      ],
      "name": "Approval",
      "type": "event"
    },
    {
      "anonymous": false,
      "inputs": [
        {
          "indexed": true,
          "internalType": "address",
          "name": "owner",
          "type": "address"
        },
        {
          "indexed": true,
          "internalType": "address",
          "name": "operator",
          "type": "address"
        },
        {
          "indexed": false,
          "internalType": "bool",
          "name": "approved",
          "type": "bool"
        }
      ],
      "name": "ApprovalForAll",
      "type": "event"
    },
    {
      "anonymous": false,
      "inputs": [
        {
          "indexed": true,
          "internalType": "address",
          "name": "previousOwner",
          "type": "address"
        },
        {
          "indexed": true,
          "internalType": "address",
          "name": "newOwner",
          "type": "address"
        }
      ],
      "name": "OwnershipTransferred",
      "type": "event"
    },
    {
      "anonymous": false,
      "inputs": [
        {
          "indexed": true,
          "internalType": "address",
          "name": "from",
          "type": "address"
        },
        {
          "indexed": true,
          "internalType": "address",
          "name": "to",
          "type": "address"
        },
        {
          "indexed": true,
          "internalType": "uint256",
          "name": "tokenId",
          "type": "uint256"
        }
      ],
      "name": "Transfer",
      "type": "event"
    },
    {
      "inputs": [
        {
          "internalType": "address",
          "name": "to",
          "type": "address"
        },
        {
          "internalType": "uint256",
          "name": "tokenId",
          "type": "uint256"
        }
      ],
      "name": "approve",
      "outputs": [],
      "stateMutability": "nonpayable",
      "type": "function"
    },
    {
      "inputs": [
        {
          "internalType": "address",
          "name": "owner",
          "type": "address"
        }
      ],
      "name": "balanceOf",
      "outputs": [
        {
          "internalType": "uint256",
          "name": "",
          "type": "uint256"
        }
      ],
      "stateMutability": "view",
      "type": "function"
    },
    {
      "inputs": [],
      "name": "baseExtention",
      "outputs": [
        {
          "internalType": "string",
          "name": "",
          "type": "string"
        }
      ],
      "stateMutability": "view",
      "type": "function"
    },
    {
      "inputs": [],
      "name": "baseHiddenURI",
      "outputs": [
        {
          "internalType": "string",
          "name": "",
          "type": "string"
        }
      ],
      "stateMutability": "view",
      "type": "function"
    },
    {
      "inputs": [],
      "name": "baseRevealedURI",
      "outputs": [
        {
          "internalType": "string",
          "name": "",
          "type": "string"
        }
      ],
      "stateMutability": "view",
      "type": "function"
    },
    {
      "inputs": [
        {
          "internalType": "uint256",
          "name": "",
          "type": "uint256"
        }
      ],
      "name": "bobotCorePoints",
      "outputs": [
        {
          "internalType": "uint256",
          "name": "",
          "type": "uint256"
        }
      ],
      "stateMutability": "view",
      "type": "function"
    },
    {
      "inputs": [],
      "name": "coreChamber",
      "outputs": [
        {
          "internalType": "contract CoreChamber",
          "name": "",
          "type": "address"
        }
      ],
      "stateMutability": "view",
      "type": "function"
    },
    {
      "inputs": [
        {
          "internalType": "uint256",
          "name": "_tokenId",
          "type": "uint256"
        },
        {
          "internalType": "uint256",
          "name": "_coreEarned",
          "type": "uint256"
        }
      ],
      "name": "coreChamberCorePointUpdate",
      "outputs": [],
      "stateMutability": "nonpayable",
      "type": "function"
    },
    {
      "inputs": [],
      "name": "coreChamberLevelCost",
      "outputs": [
        {
          "internalType": "uint256",
          "name": "",
          "type": "uint256"
        }
      ],
      "stateMutability": "view",
      "type": "function"
    },
    {
      "inputs": [
        {
          "internalType": "uint256",
          "name": "tokenId",
          "type": "uint256"
        }
      ],
      "name": "getApproved",
      "outputs": [
        {
          "internalType": "address",
          "name": "",
          "type": "address"
        }
      ],
      "stateMutability": "view",
      "type": "function"
    },
    {
      "inputs": [
        {
          "internalType": "address",
          "name": "_owner",
          "type": "address"
        }
      ],
      "name": "getTokenIds",
      "outputs": [
        {
          "internalType": "uint256[]",
          "name": "",
          "type": "uint256[]"
        }
      ],
      "stateMutability": "view",
      "type": "function"
    },
    {
      "inputs": [
        {
          "internalType": "address",
          "name": "_magicAddress",
          "type": "address"
        }
      ],
      "name": "initialize",
      "outputs": [],
      "stateMutability": "nonpayable",
      "type": "function"
    },
    {
      "inputs": [
        {
          "internalType": "address",
          "name": "owner",
          "type": "address"
        },
        {
          "internalType": "address",
          "name": "operator",
          "type": "address"
        }
      ],
      "name": "isApprovedForAll",
      "outputs": [
        {
          "internalType": "bool",
          "name": "",
          "type": "bool"
        }
      ],
      "stateMutability": "view",
      "type": "function"
    },
    {
      "inputs": [],
      "name": "magic",
      "outputs": [
        {
          "internalType": "contract IERC20Upgradeable",
          "name": "",
          "type": "address"
        }
      ],
      "stateMutability": "view",
      "type": "function"
    },
    {
      "inputs": [],
      "name": "maxLevelAmount",
      "outputs": [
        {
          "internalType": "uint256",
          "name": "",
          "type": "uint256"
        }
      ],
      "stateMutability": "view",
      "type": "function"
    },
    {
      "inputs": [],
      "name": "maxMintAmount",
      "outputs": [
        {
          "internalType": "uint256",
          "name": "",
          "type": "uint256"
        }
      ],
      "stateMutability": "view",
      "type": "function"
    },
    {
      "inputs": [],
      "name": "maxSupply",
      "outputs": [
        {
          "internalType": "uint256",
          "name": "",
          "type": "uint256"
        }
      ],
      "stateMutability": "view",
      "type": "function"
    },
    {
      "inputs": [
        {
          "internalType": "bytes32[]",
          "name": "_merkleProof",
          "type": "bytes32[]"
        },
        {
          "internalType": "bytes32[]",
          "name": "_merkleProof2",
          "type": "bytes32[]"
        }
      ],
      "name": "mintBobot",
      "outputs": [],
      "stateMutability": "payable",
      "type": "function"
    },
    {
      "inputs": [],
      "name": "mintBobotTest",
      "outputs": [],
      "stateMutability": "payable",
      "type": "function"
    },
    {
      "inputs": [],
      "name": "name",
      "outputs": [
        {
          "internalType": "string",
          "name": "",
          "type": "string"
        }
      ],
      "stateMutability": "view",
      "type": "function"
    },
    {
      "inputs": [],
      "name": "nftPerAddressLimit",
      "outputs": [
        {
          "internalType": "uint256",
          "name": "",
          "type": "uint256"
        }
      ],
      "stateMutability": "view",
      "type": "function"
    },
    {
      "inputs": [],
      "name": "onlyWhitelisted",
      "outputs": [
        {
          "internalType": "bool",
          "name": "",
          "type": "bool"
        }
      ],
      "stateMutability": "view",
      "type": "function"
    },
    {
      "inputs": [],
      "name": "owner",
      "outputs": [
        {
          "internalType": "address",
          "name": "",
          "type": "address"
        }
      ],
      "stateMutability": "view",
      "type": "function"
    },
    {
      "inputs": [
        {
          "internalType": "uint256",
          "name": "tokenId",
          "type": "uint256"
        }
      ],
      "name": "ownerOf",
      "outputs": [
        {
          "internalType": "address",
          "name": "",
          "type": "address"
        }
      ],
      "stateMutability": "view",
      "type": "function"
    },
    {
      "inputs": [
        {
          "internalType": "bool",
          "name": "_state",
          "type": "bool"
        }
      ],
      "name": "pause",
      "outputs": [],
      "stateMutability": "nonpayable",
      "type": "function"
    },
    {
      "inputs": [],
      "name": "paused",
      "outputs": [
        {
          "internalType": "bool",
          "name": "",
          "type": "bool"
        }
      ],
      "stateMutability": "view",
      "type": "function"
    },
    {
      "inputs": [],
      "name": "renounceOwnership",
      "outputs": [],
      "stateMutability": "nonpayable",
      "type": "function"
    },
    {
      "inputs": [
        {
          "internalType": "bool",
          "name": "_revealed",
          "type": "bool"
        }
      ],
      "name": "reveal",
      "outputs": [],
      "stateMutability": "nonpayable",
      "type": "function"
    },
    {
      "inputs": [],
      "name": "revealed",
      "outputs": [
        {
          "internalType": "bool",
          "name": "",
          "type": "bool"
        }
      ],
      "stateMutability": "view",
      "type": "function"
    },
    {
      "inputs": [],
      "name": "rootGuardiansHash",
      "outputs": [
        {
          "internalType": "bytes32",
          "name": "",
          "type": "bytes32"
        }
      ],
      "stateMutability": "view",
      "type": "function"
    },
    {
      "inputs": [],
      "name": "rootLunarsHash",
      "outputs": [
        {
          "internalType": "bytes32",
          "name": "",
          "type": "bytes32"
        }
      ],
      "stateMutability": "view",
      "type": "function"
    },
    {
      "inputs": [
        {
          "internalType": "address",
          "name": "from",
          "type": "address"
        },
        {
          "internalType": "address",
          "name": "to",
          "type": "address"
        },
        {
          "internalType": "uint256",
          "name": "tokenId",
          "type": "uint256"
        }
      ],
      "name": "safeTransferFrom",
      "outputs": [],
      "stateMutability": "nonpayable",
      "type": "function"
    },
    {
      "inputs": [
        {
          "internalType": "address",
          "name": "from",
          "type": "address"
        },
        {
          "internalType": "address",
          "name": "to",
          "type": "address"
        },
        {
          "internalType": "uint256",
          "name": "tokenId",
          "type": "uint256"
        },
        {
          "internalType": "bytes",
          "name": "_data",
          "type": "bytes"
        }
      ],
      "name": "safeTransferFrom",
      "outputs": [],
      "stateMutability": "nonpayable",
      "type": "function"
    },
    {
      "inputs": [
        {
          "internalType": "address",
          "name": "operator",
          "type": "address"
        },
        {
          "internalType": "bool",
          "name": "approved",
          "type": "bool"
        }
      ],
      "name": "setApprovalForAll",
      "outputs": [],
      "stateMutability": "nonpayable",
      "type": "function"
    },
    {
      "inputs": [
        {
          "internalType": "string",
          "name": "_newBaseExtentions",
          "type": "string"
        }
      ],
      "name": "setBaseExtentions",
      "outputs": [],
      "stateMutability": "nonpayable",
      "type": "function"
    },
    {
      "inputs": [
        {
          "internalType": "string",
          "name": "_newBaseURI",
          "type": "string"
        }
      ],
      "name": "setBaseHiddenURI",
      "outputs": [],
      "stateMutability": "nonpayable",
      "type": "function"
    },
    {
      "inputs": [
        {
          "internalType": "string",
          "name": "_newBaseURI",
          "type": "string"
        }
      ],
      "name": "setBaseRevealedURI",
      "outputs": [],
      "stateMutability": "nonpayable",
      "type": "function"
    },
    {
      "inputs": [
        {
          "internalType": "address",
          "name": "_coreChamber",
          "type": "address"
        }
      ],
      "name": "setCoreChamber",
      "outputs": [],
      "stateMutability": "nonpayable",
      "type": "function"
    },
    {
      "inputs": [
        {
          "internalType": "address",
          "name": "_address",
          "type": "address"
        }
      ],
      "name": "setMagicAddress",
      "outputs": [],
      "stateMutability": "nonpayable",
      "type": "function"
    },
    {
      "inputs": [
        {
          "internalType": "uint256",
          "name": "_newAmount",
          "type": "uint256"
        }
      ],
      "name": "setMagicBalanceCost",
      "outputs": [],
      "stateMutability": "nonpayable",
      "type": "function"
    },
    {
      "inputs": [
        {
          "internalType": "bytes32",
          "name": "_rootHash",
          "type": "bytes32"
        }
      ],
      "name": "setRootGuardiansHash",
      "outputs": [],
      "stateMutability": "nonpayable",
      "type": "function"
    },
    {
      "inputs": [
        {
          "internalType": "bytes32",
          "name": "_rootHash",
          "type": "bytes32"
        }
      ],
      "name": "setRootLunarsHash",
      "outputs": [],
      "stateMutability": "nonpayable",
      "type": "function"
    },
    {
      "inputs": [
        {
          "internalType": "address[]",
          "name": "_address",
          "type": "address[]"
        }
      ],
      "name": "setWhitelistGuardians",
      "outputs": [],
      "stateMutability": "nonpayable",
      "type": "function"
    },
    {
      "inputs": [
        {
          "internalType": "address[]",
          "name": "_address",
          "type": "address[]"
        }
      ],
      "name": "setWhitelistLunars",
      "outputs": [],
      "stateMutability": "nonpayable",
      "type": "function"
    },
    {
      "inputs": [
        {
          "internalType": "uint256",
          "name": "_newmaxMintAmount",
          "type": "uint256"
        }
      ],
      "name": "setmaxMintAmount",
      "outputs": [],
      "stateMutability": "nonpayable",
      "type": "function"
    },
    {
      "inputs": [
        {
          "internalType": "bytes4",
          "name": "interfaceId",
          "type": "bytes4"
        }
      ],
      "name": "supportsInterface",
      "outputs": [
        {
          "internalType": "bool",
          "name": "",
          "type": "bool"
        }
      ],
      "stateMutability": "view",
      "type": "function"
    },
    {
      "inputs": [],
      "name": "symbol",
      "outputs": [
        {
          "internalType": "string",
          "name": "",
          "type": "string"
        }
      ],
      "stateMutability": "view",
      "type": "function"
    },
    {
      "inputs": [
        {
          "internalType": "uint256",
          "name": "index",
          "type": "uint256"
        }
      ],
      "name": "tokenByIndex",
      "outputs": [
        {
          "internalType": "uint256",
          "name": "",
          "type": "uint256"
        }
      ],
      "stateMutability": "view",
      "type": "function"
    },
    {
      "inputs": [
        {
          "internalType": "address",
          "name": "owner",
          "type": "address"
        },
        {
          "internalType": "uint256",
          "name": "index",
          "type": "uint256"
        }
      ],
      "name": "tokenOfOwnerByIndex",
      "outputs": [
        {
          "internalType": "uint256",
          "name": "",
          "type": "uint256"
        }
      ],
      "stateMutability": "view",
      "type": "function"
    },
    {
      "inputs": [
        {
          "internalType": "uint256",
          "name": "tokenID",
          "type": "uint256"
        }
      ],
      "name": "tokenURI",
      "outputs": [
        {
          "internalType": "string",
          "name": "",
          "type": "string"
        }
      ],
      "stateMutability": "view",
      "type": "function"
    },
    {
      "inputs": [],
      "name": "totalSupply",
      "outputs": [
        {
          "internalType": "uint256",
          "name": "",
          "type": "uint256"
        }
      ],
      "stateMutability": "view",
      "type": "function"
    },
    {
      "inputs": [
        {
          "internalType": "address",
          "name": "from",
          "type": "address"
        },
        {
          "internalType": "address",
          "name": "to",
          "type": "address"
        },
        {
          "internalType": "uint256",
          "name": "tokenId",
          "type": "uint256"
        }
      ],
      "name": "transferFrom",
      "outputs": [],
      "stateMutability": "nonpayable",
      "type": "function"
    },
    {
      "inputs": [
        {
          "internalType": "address",
          "name": "newOwner",
          "type": "address"
        }
      ],
      "name": "transferOwnership",
      "outputs": [],
      "stateMutability": "nonpayable",
      "type": "function"
    },
    {
      "inputs": [
        {
          "internalType": "address",
          "name": "",
          "type": "address"
        }
      ],
      "name": "whitelistedAddressesGuardiansClaimed",
      "outputs": [
        {
          "internalType": "bool",
          "name": "",
          "type": "bool"
        }
      ],
      "stateMutability": "view",
      "type": "function"
    },
    {
      "inputs": [
        {
          "internalType": "address",
          "name": "",
          "type": "address"
        }
      ],
      "name": "whitelistedAddressesLunarClaimed",
      "outputs": [
        {
          "internalType": "bool",
          "name": "",
          "type": "bool"
        }
      ],
      "stateMutability": "view",
      "type": "function"
    },
    {
      "inputs": [],
      "name": "withdraw",
      "outputs": [],
      "stateMutability": "payable",
      "type": "function"
    }
  ],
  "bytecode": "0x6080604052633b9aca0060fc55601960fd556040518060400160405280600581526020017f2e6a736f6e00000000000000000000000000000000000000000000000000000081525061010090805190602001906200005f929190620000e7565b50610fc861010155600161010255600a61010355600561010455600061010560006101000a81548160ff021916908315150217905550600161010560016101000a81548160ff021916908315150217905550606461010a55600061011160006101000a81548160ff021916908315150217905550348015620000e057600080fd5b50620001fb565b828054620000f590620001c6565b90600052602060002090601f01602090048101928262000119576000855562000165565b82601f106200013457805160ff191683800117855562000165565b8280016001018555821562000165579182015b828111156200016457825182559160200191906001019062000147565b5b50905062000174919062000178565b5090565b5b808211156200019357600081600090555060010162000179565b5090565b7f4e487b7100000000000000000000000000000000000000000000000000000000600052602260045260246000fd5b60006002820490506001821680620001df57607f821691505b602082108103620001f557620001f462000197565b5b50919050565b615d54806200020b6000396000f3fe60806040526004361061036b5760003560e01c80635c975abb116101c6578063b6e2a182116100f7578063d004b03611610095578063ed6f57b71161006f578063ed6f57b714610c69578063f2fde38b14610c92578063f5c8834c14610cbb578063fed71b2814610ce45761036b565b8063d004b03614610bc4578063d5abeb0114610c01578063e985e9c514610c2c5761036b565b8063c17846dc116100d1578063c17846dc14610b0c578063c4d66de814610b35578063c87b56dd14610b5e578063cae2446c14610b9b5761036b565b8063b6e2a18214610a8f578063b88d4fde14610ab8578063ba7d2c7614610ae15761036b565b80638da5cb5b1161016457806395d89b411161013e57806395d89b41146109e75780639c70b51214610a12578063a22cb46514610a3d578063a6a0305414610a665761036b565b80638da5cb5b14610977578063940cd05b146109a25780639519f452146109cb5761036b565b806370a08231116101a057806370a08231146108d1578063715018a61461090e5780637f00c7a614610925578063819243c71461094e5761036b565b80635c975abb1461083e5780636352211e1461086957806366212557146108a65761036b565b8063239c70ae116102a057806342842e0e1161023e5780634ba5f378116102185780634ba5f378146107805780634c0f577a146107ab5780634f6ccce7146107d657806351830227146108135761036b565b806342842e0e1461070357806343b946af1461072c57806349aec19a146107575761036b565b80632e256c411161027a5780632e256c41146106685780632f745c59146106915780633a5958e3146106ce5780633ccfd60b146106f95761036b565b8063239c70ae146105eb57806323b872dd1461061657806325c132031461063f5761036b565b80630cf7572f1161030d578063133a979b116102e7578063133a979b1461051b57806318160ddd14610546578063205f1238146105715780632139f035146105ae5761036b565b80630cf7572f1461049c5780630d854646146104c75780630f774d04146104f25761036b565b806306fdde031161034957806306fdde03146103e0578063081812fc1461040b57806308454e1214610448578063095ea7b3146104735761036b565b806301ffc9a71461037057806302329a29146103ad57806302428db6146103d6575b600080fd5b34801561037c57600080fd5b506103976004803603810190610392919061410c565b610d21565b6040516103a49190614154565b60405180910390f35b3480156103b957600080fd5b506103d460048036038101906103cf919061419b565b610d9b565b005b6103de610e35565b005b3480156103ec57600080fd5b506103f5610e69565b6040516104029190614261565b60405180910390f35b34801561041757600080fd5b50610432600480360381019061042d91906142b9565b610efb565b60405161043f9190614327565b60405180910390f35b34801561045457600080fd5b5061045d610f80565b60405161046a9190614261565b60405180910390f35b34801561047f57600080fd5b5061049a6004803603810190610495919061436e565b61100e565b005b3480156104a857600080fd5b506104b1611125565b6040516104be91906143c7565b60405180910390f35b3480156104d357600080fd5b506104dc61112c565b6040516104e99190614441565b60405180910390f35b3480156104fe57600080fd5b5061051960048036038101906105149190614488565b611152565b005b34801561052757600080fd5b506105306111d9565b60405161053d91906144c4565b60405180910390f35b34801561055257600080fd5b5061055b6111e0565b60405161056891906144c4565b60405180910390f35b34801561057d57600080fd5b50610598600480360381019061059391906144df565b6111ed565b6040516105a59190614154565b60405180910390f35b3480156105ba57600080fd5b506105d560048036038101906105d091906144df565b61120e565b6040516105e29190614154565b60405180910390f35b3480156105f757600080fd5b5061060061122f565b60405161060d91906144c4565b60405180910390f35b34801561062257600080fd5b5061063d6004803603810190610638919061450c565b611236565b005b34801561064b57600080fd5b5061066660048036038101906106619190614694565b611296565b005b34801561067457600080fd5b5061068f600480360381019061068a9190614488565b61132d565b005b34801561069d57600080fd5b506106b860048036038101906106b3919061436e565b6113b4565b6040516106c591906144c4565b60405180910390f35b3480156106da57600080fd5b506106e3611459565b6040516106f09190614261565b60405180910390f35b6107016114e7565b005b34801561070f57600080fd5b5061072a6004803603810190610725919061450c565b6115a3565b005b34801561073857600080fd5b506107416115c3565b60405161074e91906146fe565b60405180910390f35b34801561076357600080fd5b5061077e60048036038101906107799190614779565b6115ea565b005b34801561078c57600080fd5b5061079561168c565b6040516107a29190614261565b60405180910390f35b3480156107b757600080fd5b506107c061171b565b6040516107cd91906143c7565b60405180910390f35b3480156107e257600080fd5b506107fd60048036038101906107f891906142b9565b611722565b60405161080a91906144c4565b60405180910390f35b34801561081f57600080fd5b50610828611793565b6040516108359190614154565b60405180910390f35b34801561084a57600080fd5b506108536117a7565b6040516108609190614154565b60405180910390f35b34801561087557600080fd5b50610890600480360381019061088b91906142b9565b6117bb565b60405161089d9190614327565b60405180910390f35b3480156108b257600080fd5b506108bb61186c565b6040516108c891906144c4565b60405180910390f35b3480156108dd57600080fd5b506108f860048036038101906108f391906144df565b611873565b60405161090591906144c4565b60405180910390f35b34801561091a57600080fd5b5061092361192a565b005b34801561093157600080fd5b5061094c600480360381019061094791906142b9565b6119b2565b005b34801561095a57600080fd5b5061097560048036038101906109709190614779565b611a39565b005b34801561098357600080fd5b5061098c611adb565b6040516109999190614327565b60405180910390f35b3480156109ae57600080fd5b506109c960048036038101906109c4919061419b565b611b05565b005b6109e560048036038101906109e0919061481c565b611b9f565b005b3480156109f357600080fd5b506109fc61204c565b604051610a099190614261565b60405180910390f35b348015610a1e57600080fd5b50610a276120de565b604051610a349190614154565b60405180910390f35b348015610a4957600080fd5b50610a646004803603810190610a5f919061489d565b6120f2565b005b348015610a7257600080fd5b50610a8d6004803603810190610a889190614694565b612108565b005b348015610a9b57600080fd5b50610ab66004803603810190610ab19190614694565b61219e565b005b348015610ac457600080fd5b50610adf6004803603810190610ada919061497e565b612234565b005b348015610aed57600080fd5b50610af6612296565b604051610b0391906144c4565b60405180910390f35b348015610b1857600080fd5b50610b336004803603810190610b2e91906144df565b61229d565b005b348015610b4157600080fd5b50610b5c6004803603810190610b5791906144df565b61235d565b005b348015610b6a57600080fd5b50610b856004803603810190610b8091906142b9565b612493565b604051610b929190614261565b60405180910390f35b348015610ba757600080fd5b50610bc26004803603810190610bbd91906142b9565b612629565b005b348015610bd057600080fd5b50610beb6004803603810190610be691906144df565b6126af565b604051610bf89190614abf565b60405180910390f35b348015610c0d57600080fd5b50610c16612765565b604051610c2391906144c4565b60405180910390f35b348015610c3857600080fd5b50610c536004803603810190610c4e9190614ae1565b61276c565b604051610c609190614154565b60405180910390f35b348015610c7557600080fd5b50610c906004803603810190610c8b91906144df565b612800565b005b348015610c9e57600080fd5b50610cb96004803603810190610cb491906144df565b6128c1565b005b348015610cc757600080fd5b50610ce26004803603810190610cdd9190614b21565b6129b8565b005b348015610cf057600080fd5b50610d0b6004803603810190610d0691906142b9565b612a78565b604051610d1891906144c4565b60405180910390f35b60007f780e9d63000000000000000000000000000000000000000000000000000000007bffffffffffffffffffffffffffffffffffffffffffffffffffffffff1916827bffffffffffffffffffffffffffffffffffffffffffffffffffffffff19161480610d945750610d9382612a91565b5b9050919050565b610da3612b73565b73ffffffffffffffffffffffffffffffffffffffff16610dc1611adb565b73ffffffffffffffffffffffffffffffffffffffff1614610e17576040517f08c379a0000000000000000000000000000000000000000000000000000000008152600401610e0e90614bad565b60405180910390fd5b8061011160006101000a81548160ff02191690831515021790555050565b61011160009054906101000a900460ff1615610e5057600080fd5b6000610e5a612b7b565b9050610e663382612b99565b50565b606060658054610e7890614bfc565b80601f0160208091040260200160405190810160405280929190818152602001828054610ea490614bfc565b8015610ef15780601f10610ec657610100808354040283529160200191610ef1565b820191906000526020600020905b815481529060010190602001808311610ed457829003601f168201915b5050505050905090565b6000610f0682612bb2565b610f45576040517f08c379a0000000000000000000000000000000000000000000000000000000008152600401610f3c90614c9f565b60405180910390fd5b6069600083815260200190815260200160002060009054906101000a900473ffffffffffffffffffffffffffffffffffffffff169050919050565b60fe8054610f8d90614bfc565b80601f0160208091040260200160405190810160405280929190818152602001828054610fb990614bfc565b80156110065780601f10610fdb57610100808354040283529160200191611006565b820191906000526020600020905b815481529060010190602001808311610fe957829003601f168201915b505050505081565b6000611019826117bb565b90508073ffffffffffffffffffffffffffffffffffffffff168373ffffffffffffffffffffffffffffffffffffffff1603611089576040517f08c379a000000000000000000000000000000000000000000000000000000000815260040161108090614d31565b60405180910390fd5b8073ffffffffffffffffffffffffffffffffffffffff166110a8612b73565b73ffffffffffffffffffffffffffffffffffffffff1614806110d757506110d6816110d1612b73565b61276c565b5b611116576040517f08c379a000000000000000000000000000000000000000000000000000000000815260040161110d90614dc3565b60405180910390fd5b6111208383612c1e565b505050565b6101095481565b60fb60009054906101000a900473ffffffffffffffffffffffffffffffffffffffff1681565b61115a612b73565b73ffffffffffffffffffffffffffffffffffffffff16611178611adb565b73ffffffffffffffffffffffffffffffffffffffff16146111ce576040517f08c379a00000000000000000000000000000000000000000000000000000000081526004016111c590614bad565b60405180910390fd5b806101098190555050565b61010a5481565b6000609980549050905090565b61010e6020528060005260406000206000915054906101000a900460ff1681565b61010d6020528060005260406000206000915054906101000a900460ff1681565b6101025481565b611247611241612b73565b82612cd7565b611286576040517f08c379a000000000000000000000000000000000000000000000000000000000815260040161127d90614e55565b60405180910390fd5b611291838383612db5565b505050565b61129e612b73565b73ffffffffffffffffffffffffffffffffffffffff166112bc611adb565b73ffffffffffffffffffffffffffffffffffffffff1614611312576040517f08c379a000000000000000000000000000000000000000000000000000000000815260040161130990614bad565b60405180910390fd5b806101009080519060200190611329929190613f3c565b5050565b611335612b73565b73ffffffffffffffffffffffffffffffffffffffff16611353611adb565b73ffffffffffffffffffffffffffffffffffffffff16146113a9576040517f08c379a00000000000000000000000000000000000000000000000000000000081526004016113a090614bad565b60405180910390fd5b806101088190555050565b60006113bf83611873565b8210611400576040517f08c379a00000000000000000000000000000000000000000000000000000000081526004016113f790614ee7565b60405180910390fd5b609760008473ffffffffffffffffffffffffffffffffffffffff1673ffffffffffffffffffffffffffffffffffffffff168152602001908152602001600020600083815260200190815260200160002054905092915050565b60ff805461146690614bfc565b80601f016020809104026020016040519081016040528092919081815260200182805461149290614bfc565b80156114df5780601f106114b4576101008083540402835291602001916114df565b820191906000526020600020905b8154815290600101906020018083116114c257829003601f168201915b505050505081565b6114ef612b73565b73ffffffffffffffffffffffffffffffffffffffff1661150d611adb565b73ffffffffffffffffffffffffffffffffffffffff1614611563576040517f08c379a000000000000000000000000000000000000000000000000000000000815260040161155a90614bad565b60405180910390fd5b3373ffffffffffffffffffffffffffffffffffffffff166108fc479081150290604051600060405180830381858888f193505050506115a157600080fd5b565b6115be83838360405180602001604052806000815250612234565b505050565b61010f60009054906101000a900473ffffffffffffffffffffffffffffffffffffffff1681565b6115f2612b73565b73ffffffffffffffffffffffffffffffffffffffff16611610611adb565b73ffffffffffffffffffffffffffffffffffffffff1614611666576040517f08c379a000000000000000000000000000000000000000000000000000000000815260040161165d90614bad565b60405180910390fd5b61010760006116759190613fc2565b81816101079190611687929190613fe3565b505050565b610100805461169a90614bfc565b80601f01602080910402602001604051908101604052809291908181526020018280546116c690614bfc565b80156117135780601f106116e857610100808354040283529160200191611713565b820191906000526020600020905b8154815290600101906020018083116116f657829003601f168201915b505050505081565b6101085481565b600061172c6111e0565b821061176d576040517f08c379a000000000000000000000000000000000000000000000000000000000815260040161176490614f79565b60405180910390fd5b6099828154811061178157611780614f99565b5b90600052602060002001549050919050565b61010560009054906101000a900460ff1681565b61011160009054906101000a900460ff1681565b6000806067600084815260200190815260200160002060009054906101000a900473ffffffffffffffffffffffffffffffffffffffff169050600073ffffffffffffffffffffffffffffffffffffffff168173ffffffffffffffffffffffffffffffffffffffff1603611863576040517f08c379a000000000000000000000000000000000000000000000000000000000815260040161185a9061503a565b60405180910390fd5b80915050919050565b6101035481565b60008073ffffffffffffffffffffffffffffffffffffffff168273ffffffffffffffffffffffffffffffffffffffff16036118e3576040517f08c379a00000000000000000000000000000000000000000000000000000000081526004016118da906150cc565b60405180910390fd5b606860008373ffffffffffffffffffffffffffffffffffffffff1673ffffffffffffffffffffffffffffffffffffffff168152602001908152602001600020549050919050565b611932612b73565b73ffffffffffffffffffffffffffffffffffffffff16611950611adb565b73ffffffffffffffffffffffffffffffffffffffff16146119a6576040517f08c379a000000000000000000000000000000000000000000000000000000000815260040161199d90614bad565b60405180910390fd5b6119b0600061301b565b565b6119ba612b73565b73ffffffffffffffffffffffffffffffffffffffff166119d8611adb565b73ffffffffffffffffffffffffffffffffffffffff1614611a2e576040517f08c379a0000000000000000000000000000000000000000000000000000000008152600401611a2590614bad565b60405180910390fd5b806101028190555050565b611a41612b73565b73ffffffffffffffffffffffffffffffffffffffff16611a5f611adb565b73ffffffffffffffffffffffffffffffffffffffff1614611ab5576040517f08c379a0000000000000000000000000000000000000000000000000000000008152600401611aac90614bad565b60405180910390fd5b6101066000611ac49190613fc2565b81816101069190611ad6929190613fe3565b505050565b600060c960009054906101000a900473ffffffffffffffffffffffffffffffffffffffff16905090565b611b0d612b73565b73ffffffffffffffffffffffffffffffffffffffff16611b2b611adb565b73ffffffffffffffffffffffffffffffffffffffff1614611b81576040517f08c379a0000000000000000000000000000000000000000000000000000000008152600401611b7890614bad565b60405180910390fd5b8061010560006101000a81548160ff02191690831515021790555050565b61011160009054906101000a900460ff1615611bba57600080fd5b60fd5460fc5460fb60009054906101000a900473ffffffffffffffffffffffffffffffffffffffff1673ffffffffffffffffffffffffffffffffffffffff166370a08231336040518263ffffffff1660e01b8152600401611c1b9190614327565b602060405180830381865afa158015611c38573d6000803e3d6000fd5b505050506040513d601f19601f82011682018060405250810190611c5c9190615101565b611c66919061518c565b11611ca6576040517f08c379a0000000000000000000000000000000000000000000000000000000008152600401611c9d90615209565b60405180910390fd5b6000611cb0611adb565b73ffffffffffffffffffffffffffffffffffffffff163373ffffffffffffffffffffffffffffffffffffffff1614612003576001151561010560019054906101000a900460ff161515036120025761010d60003373ffffffffffffffffffffffffffffffffffffffff1673ffffffffffffffffffffffffffffffffffffffff16815260200190815260200160002060009054906101000a900460ff1680611da1575061010e60003373ffffffffffffffffffffffffffffffffffffffff1673ffffffffffffffffffffffffffffffffffffffff16815260200190815260200160002060009054906101000a900460ff165b611de0576040517f08c379a0000000000000000000000000000000000000000000000000000000008152600401611dd790615275565b60405180910390fd5b600033604051602001611df391906152dd565b6040516020818303038152906040528051906020012090506000611e5c878780806020026020016040519081016040528093929190818152602001838360200280828437600081840152601f19601f8201169050808301925050505050505061010854846130e1565b90506000611eaf868680806020026020016040519081016040528093929190818152602001838360200280828437600081840152601f19601f8201169050808301925050505050505061010954856130e1565b905081158015611ebd575080155b611efc576040517f08c379a0000000000000000000000000000000000000000000000000000000008152600401611ef390615344565b60405180910390fd5b8115611f775761010154611f0e612b7b565b1115611f1957600080fd5b60019350600161010d60003373ffffffffffffffffffffffffffffffffffffffff1673ffffffffffffffffffffffffffffffffffffffff16815260200190815260200160002060006101000a81548160ff0219169083151502179055505b8015611ffe57610101546001611f8b612b7b565b611f959190615364565b1115611fa057600080fd5b60029350600161010e60003373ffffffffffffffffffffffffffffffffffffffff1673ffffffffffffffffffffffffffffffffffffffff16815260200190815260200160002060006101000a81548160ff0219169083151502179055505b5050505b5b6000600190505b81811161204457600061201b612b7b565b905061203233838361202d9190615364565b612b99565b508061203d906153ba565b905061200a565b505050505050565b60606066805461205b90614bfc565b80601f016020809104026020016040519081016040528092919081815260200182805461208790614bfc565b80156120d45780601f106120a9576101008083540402835291602001916120d4565b820191906000526020600020905b8154815290600101906020018083116120b757829003601f168201915b5050505050905090565b61010560019054906101000a900460ff1681565b6121046120fd612b73565b83836130f8565b5050565b612110612b73565b73ffffffffffffffffffffffffffffffffffffffff1661212e611adb565b73ffffffffffffffffffffffffffffffffffffffff1614612184576040517f08c379a000000000000000000000000000000000000000000000000000000000815260040161217b90614bad565b60405180910390fd5b8060fe908051906020019061219a929190613f3c565b5050565b6121a6612b73565b73ffffffffffffffffffffffffffffffffffffffff166121c4611adb565b73ffffffffffffffffffffffffffffffffffffffff161461221a576040517f08c379a000000000000000000000000000000000000000000000000000000000815260040161221190614bad565b60405180910390fd5b8060ff9080519060200190612230929190613f3c565b5050565b61224561223f612b73565b83612cd7565b612284576040517f08c379a000000000000000000000000000000000000000000000000000000000815260040161227b90614e55565b60405180910390fd5b61229084848484613264565b50505050565b6101045481565b6122a5612b73565b73ffffffffffffffffffffffffffffffffffffffff166122c3611adb565b73ffffffffffffffffffffffffffffffffffffffff1614612319576040517f08c379a000000000000000000000000000000000000000000000000000000000815260040161231090614bad565b60405180910390fd5b8060fb60006101000a81548173ffffffffffffffffffffffffffffffffffffffff021916908373ffffffffffffffffffffffffffffffffffffffff16021790555050565b600060019054906101000a900460ff166123855760008054906101000a900460ff161561238e565b61238d6132c0565b5b6123cd576040517f08c379a00000000000000000000000000000000000000000000000000000000081526004016123c490615474565b60405180910390fd5b60008060019054906101000a900460ff16159050801561241d576001600060016101000a81548160ff02191690831515021790555060016000806101000a81548160ff0219169083151502179055505b6124256132d1565b61242d613322565b8160fb60006101000a81548173ffffffffffffffffffffffffffffffffffffffff021916908373ffffffffffffffffffffffffffffffffffffffff160217905550801561248f5760008060016101000a81548160ff0219169083151502179055505b5050565b606061249e82612bb2565b6124dd576040517f08c379a00000000000000000000000000000000000000000000000000000000081526004016124d490615506565b60405180910390fd5b60006124e761337b565b9050600061251a61010a54610110600087815260200190815260200160002054612511919061518c565b6101035461342a565b9050600060fe61252986613443565b61253284613443565b6101006040516020016125489493929190615642565b60405160208183030381529060405290506000835111612577576040518060200160405280600081525061261f565b61010560009054906101000a900460ff1661261c5760ff805461259990614bfc565b80601f01602080910402602001604051908101604052809291908181526020018280546125c590614bfc565b80156126125780601f106125e757610100808354040283529160200191612612565b820191906000526020600020905b8154815290600101906020018083116125f557829003601f168201915b505050505061261e565b805b5b9350505050919050565b612631612b73565b73ffffffffffffffffffffffffffffffffffffffff1661264f611adb565b73ffffffffffffffffffffffffffffffffffffffff16146126a5576040517f08c379a000000000000000000000000000000000000000000000000000000000815260040161269c90614bad565b60405180910390fd5b8060fd8190555050565b606060006126bc83611873565b905060008167ffffffffffffffff8111156126da576126d9614569565b5b6040519080825280602002602001820160405280156127085781602001602082028036833780820191505090505b50905060005b61271785611873565b81101561275a5761272885826113b4565b82828151811061273b5761273a614f99565b5b6020026020010181815250508080612752906153ba565b91505061270e565b819350505050919050565b6101015481565b6000606a60008473ffffffffffffffffffffffffffffffffffffffff1673ffffffffffffffffffffffffffffffffffffffff16815260200190815260200160002060008373ffffffffffffffffffffffffffffffffffffffff1673ffffffffffffffffffffffffffffffffffffffff16815260200190815260200160002060009054906101000a900460ff16905092915050565b612808612b73565b73ffffffffffffffffffffffffffffffffffffffff16612826611adb565b73ffffffffffffffffffffffffffffffffffffffff161461287c576040517f08c379a000000000000000000000000000000000000000000000000000000000815260040161287390614bad565b60405180910390fd5b8061010f60006101000a81548173ffffffffffffffffffffffffffffffffffffffff021916908373ffffffffffffffffffffffffffffffffffffffff16021790555050565b6128c9612b73565b73ffffffffffffffffffffffffffffffffffffffff166128e7611adb565b73ffffffffffffffffffffffffffffffffffffffff161461293d576040517f08c379a000000000000000000000000000000000000000000000000000000000815260040161293490614bad565b60405180910390fd5b600073ffffffffffffffffffffffffffffffffffffffff168173ffffffffffffffffffffffffffffffffffffffff16036129ac576040517f08c379a00000000000000000000000000000000000000000000000000000000081526004016129a3906156fd565b60405180910390fd5b6129b58161301b565b50565b61010f60009054906101000a900473ffffffffffffffffffffffffffffffffffffffff1673ffffffffffffffffffffffffffffffffffffffff163373ffffffffffffffffffffffffffffffffffffffff1614612a49576040517f08c379a0000000000000000000000000000000000000000000000000000000008152600401612a4090615769565b60405180910390fd5b8061011060008481526020019081526020016000206000828254612a6d9190615364565b925050819055505050565b6101106020528060005260406000206000915090505481565b60007f80ac58cd000000000000000000000000000000000000000000000000000000007bffffffffffffffffffffffffffffffffffffffffffffffffffffffff1916827bffffffffffffffffffffffffffffffffffffffffffffffffffffffff19161480612b5c57507f5b5e139f000000000000000000000000000000000000000000000000000000007bffffffffffffffffffffffffffffffffffffffffffffffffffffffff1916827bffffffffffffffffffffffffffffffffffffffffffffffffffffffff1916145b80612b6c5750612b6b826135a3565b5b9050919050565b600033905090565b60006001612b8a61010b61360d565b612b949190615364565b905090565b612ba3828261361b565b612bae61010b613639565b5050565b60008073ffffffffffffffffffffffffffffffffffffffff166067600084815260200190815260200160002060009054906101000a900473ffffffffffffffffffffffffffffffffffffffff1673ffffffffffffffffffffffffffffffffffffffff1614159050919050565b816069600083815260200190815260200160002060006101000a81548173ffffffffffffffffffffffffffffffffffffffff021916908373ffffffffffffffffffffffffffffffffffffffff160217905550808273ffffffffffffffffffffffffffffffffffffffff16612c91836117bb565b73ffffffffffffffffffffffffffffffffffffffff167f8c5be1e5ebec7d5bd14f71427d1e84f3dd0314c0f7b2291e5b200ac8c7c3b92560405160405180910390a45050565b6000612ce282612bb2565b612d21576040517f08c379a0000000000000000000000000000000000000000000000000000000008152600401612d18906157fb565b60405180910390fd5b6000612d2c836117bb565b90508073ffffffffffffffffffffffffffffffffffffffff168473ffffffffffffffffffffffffffffffffffffffff161480612d9b57508373ffffffffffffffffffffffffffffffffffffffff16612d8384610efb565b73ffffffffffffffffffffffffffffffffffffffff16145b80612dac5750612dab818561276c565b5b91505092915050565b8273ffffffffffffffffffffffffffffffffffffffff16612dd5826117bb565b73ffffffffffffffffffffffffffffffffffffffff1614612e2b576040517f08c379a0000000000000000000000000000000000000000000000000000000008152600401612e229061588d565b60405180910390fd5b600073ffffffffffffffffffffffffffffffffffffffff168273ffffffffffffffffffffffffffffffffffffffff1603612e9a576040517f08c379a0000000000000000000000000000000000000000000000000000000008152600401612e919061591f565b60405180910390fd5b612ea583838361364f565b612eb0600082612c1e565b6001606860008573ffffffffffffffffffffffffffffffffffffffff1673ffffffffffffffffffffffffffffffffffffffff1681526020019081526020016000206000828254612f00919061593f565b925050819055506001606860008473ffffffffffffffffffffffffffffffffffffffff1673ffffffffffffffffffffffffffffffffffffffff1681526020019081526020016000206000828254612f579190615364565b92505081905550816067600083815260200190815260200160002060006101000a81548173ffffffffffffffffffffffffffffffffffffffff021916908373ffffffffffffffffffffffffffffffffffffffff160217905550808273ffffffffffffffffffffffffffffffffffffffff168473ffffffffffffffffffffffffffffffffffffffff167fddf252ad1be2c89b69c2b068fc378daa952ba7f163c4a11628f55a4df523b3ef60405160405180910390a4613016838383613761565b505050565b600060c960009054906101000a900473ffffffffffffffffffffffffffffffffffffffff1690508160c960006101000a81548173ffffffffffffffffffffffffffffffffffffffff021916908373ffffffffffffffffffffffffffffffffffffffff1602179055508173ffffffffffffffffffffffffffffffffffffffff168173ffffffffffffffffffffffffffffffffffffffff167f8be0079c531659141344cd1fd0a4f28419497f9722a3daafe3b4186f6b6457e060405160405180910390a35050565b6000826130ee8584613766565b1490509392505050565b8173ffffffffffffffffffffffffffffffffffffffff168373ffffffffffffffffffffffffffffffffffffffff1603613166576040517f08c379a000000000000000000000000000000000000000000000000000000000815260040161315d906159bf565b60405180910390fd5b80606a60008573ffffffffffffffffffffffffffffffffffffffff1673ffffffffffffffffffffffffffffffffffffffff16815260200190815260200160002060008473ffffffffffffffffffffffffffffffffffffffff1673ffffffffffffffffffffffffffffffffffffffff16815260200190815260200160002060006101000a81548160ff0219169083151502179055508173ffffffffffffffffffffffffffffffffffffffff168373ffffffffffffffffffffffffffffffffffffffff167f17307eab39ab6107e8899845ad3d59bd9653f200f220920489ca2b5937696c31836040516132579190614154565b60405180910390a3505050565b61326f848484612db5565b61327b848484846137db565b6132ba576040517f08c379a00000000000000000000000000000000000000000000000000000000081526004016132b190615a51565b60405180910390fd5b50505050565b60006132cb30613962565b15905090565b600060019054906101000a900460ff16613320576040517f08c379a000000000000000000000000000000000000000000000000000000000815260040161331790615ae3565b60405180910390fd5b565b600060019054906101000a900460ff16613371576040517f08c379a000000000000000000000000000000000000000000000000000000000815260040161336890615ae3565b60405180910390fd5b613379613985565b565b606061010560009054906101000a900460ff166133995760ff61339c565b60fe5b80546133a790614bfc565b80601f01602080910402602001604051908101604052809291908181526020018280546133d390614bfc565b80156134205780601f106133f557610100808354040283529160200191613420565b820191906000526020600020905b81548152906001019060200180831161340357829003601f168201915b5050505050905090565b6000818310613439578161343b565b825b905092915050565b60606000820361348a576040518060400160405280600181526020017f3000000000000000000000000000000000000000000000000000000000000000815250905061359e565b600082905060005b600082146134bc5780806134a5906153ba565b915050600a826134b5919061518c565b9150613492565b60008167ffffffffffffffff8111156134d8576134d7614569565b5b6040519080825280601f01601f19166020018201604052801561350a5781602001600182028036833780820191505090505b5090505b6000851461359757600182613523919061593f565b9150600a856135329190615b03565b603061353e9190615364565b60f81b81838151811061355457613553614f99565b5b60200101907effffffffffffffffffffffffffffffffffffffffffffffffffffffffffffff1916908160001a905350600a85613590919061518c565b945061350e565b8093505050505b919050565b60007f01ffc9a7000000000000000000000000000000000000000000000000000000007bffffffffffffffffffffffffffffffffffffffffffffffffffffffff1916827bffffffffffffffffffffffffffffffffffffffffffffffffffffffff1916149050919050565b600081600001549050919050565b6136358282604051806020016040528060008152506139e6565b5050565b6001816000016000828254019250508190555050565b61365a838383613a41565b600073ffffffffffffffffffffffffffffffffffffffff168373ffffffffffffffffffffffffffffffffffffffff160361369c5761369781613a46565b6136db565b8173ffffffffffffffffffffffffffffffffffffffff168373ffffffffffffffffffffffffffffffffffffffff16146136da576136d98382613a8f565b5b5b600073ffffffffffffffffffffffffffffffffffffffff168273ffffffffffffffffffffffffffffffffffffffff160361371d5761371881613bfc565b61375c565b8273ffffffffffffffffffffffffffffffffffffffff168273ffffffffffffffffffffffffffffffffffffffff161461375b5761375a8282613ccd565b5b5b505050565b505050565b60008082905060005b84518110156137d057600085828151811061378d5761378c614f99565b5b602002602001015190508083116137af576137a88382613d4c565b92506137bc565b6137b98184613d4c565b92505b5080806137c8906153ba565b91505061376f565b508091505092915050565b60006137fc8473ffffffffffffffffffffffffffffffffffffffff16613962565b15613955578373ffffffffffffffffffffffffffffffffffffffff1663150b7a02613825612b73565b8786866040518563ffffffff1660e01b81526004016138479493929190615b89565b6020604051808303816000875af192505050801561388357506040513d601f19601f820116820180604052508101906138809190615bea565b60015b613905573d80600081146138b3576040519150601f19603f3d011682016040523d82523d6000602084013e6138b8565b606091505b5060008151036138fd576040517f08c379a00000000000000000000000000000000000000000000000000000000081526004016138f490615a51565b60405180910390fd5b805181602001fd5b63150b7a0260e01b7bffffffffffffffffffffffffffffffffffffffffffffffffffffffff1916817bffffffffffffffffffffffffffffffffffffffffffffffffffffffff19161491505061395a565b600190505b949350505050565b6000808273ffffffffffffffffffffffffffffffffffffffff163b119050919050565b600060019054906101000a900460ff166139d4576040517f08c379a00000000000000000000000000000000000000000000000000000000081526004016139cb90615ae3565b60405180910390fd5b6139e46139df612b73565b61301b565b565b6139f08383613d63565b6139fd60008484846137db565b613a3c576040517f08c379a0000000000000000000000000000000000000000000000000000000008152600401613a3390615a51565b60405180910390fd5b505050565b505050565b609980549050609a600083815260200190815260200160002081905550609981908060018154018082558091505060019003906000526020600020016000909190919091505550565b60006001613a9c84611873565b613aa6919061593f565b9050600060986000848152602001908152602001600020549050818114613b8b576000609760008673ffffffffffffffffffffffffffffffffffffffff1673ffffffffffffffffffffffffffffffffffffffff168152602001908152602001600020600084815260200190815260200160002054905080609760008773ffffffffffffffffffffffffffffffffffffffff1673ffffffffffffffffffffffffffffffffffffffff168152602001908152602001600020600084815260200190815260200160002081905550816098600083815260200190815260200160002081905550505b6098600084815260200190815260200160002060009055609760008573ffffffffffffffffffffffffffffffffffffffff1673ffffffffffffffffffffffffffffffffffffffff16815260200190815260200160002060008381526020019081526020016000206000905550505050565b60006001609980549050613c10919061593f565b90506000609a6000848152602001908152602001600020549050600060998381548110613c4057613c3f614f99565b5b906000526020600020015490508060998381548110613c6257613c61614f99565b5b906000526020600020018190555081609a600083815260200190815260200160002081905550609a6000858152602001908152602001600020600090556099805480613cb157613cb0615c17565b5b6001900381819060005260206000200160009055905550505050565b6000613cd883611873565b905081609760008573ffffffffffffffffffffffffffffffffffffffff1673ffffffffffffffffffffffffffffffffffffffff168152602001908152602001600020600083815260200190815260200160002081905550806098600084815260200190815260200160002081905550505050565b600082600052816020526040600020905092915050565b600073ffffffffffffffffffffffffffffffffffffffff168273ffffffffffffffffffffffffffffffffffffffff1603613dd2576040517f08c379a0000000000000000000000000000000000000000000000000000000008152600401613dc990615c92565b60405180910390fd5b613ddb81612bb2565b15613e1b576040517f08c379a0000000000000000000000000000000000000000000000000000000008152600401613e1290615cfe565b60405180910390fd5b613e276000838361364f565b6001606860008473ffffffffffffffffffffffffffffffffffffffff1673ffffffffffffffffffffffffffffffffffffffff1681526020019081526020016000206000828254613e779190615364565b92505081905550816067600083815260200190815260200160002060006101000a81548173ffffffffffffffffffffffffffffffffffffffff021916908373ffffffffffffffffffffffffffffffffffffffff160217905550808273ffffffffffffffffffffffffffffffffffffffff16600073ffffffffffffffffffffffffffffffffffffffff167fddf252ad1be2c89b69c2b068fc378daa952ba7f163c4a11628f55a4df523b3ef60405160405180910390a4613f3860008383613761565b5050565b828054613f4890614bfc565b90600052602060002090601f016020900481019282613f6a5760008555613fb1565b82601f10613f8357805160ff1916838001178555613fb1565b82800160010185558215613fb1579182015b82811115613fb0578251825591602001919060010190613f95565b5b509050613fbe9190614083565b5090565b5080546000825590600052602060002090810190613fe09190614083565b50565b828054828255906000526020600020908101928215614072579160200282015b8281111561407157823573ffffffffffffffffffffffffffffffffffffffff168260006101000a81548173ffffffffffffffffffffffffffffffffffffffff021916908373ffffffffffffffffffffffffffffffffffffffff16021790555091602001919060010190614003565b5b50905061407f9190614083565b5090565b5b8082111561409c576000816000905550600101614084565b5090565b6000604051905090565b600080fd5b600080fd5b60007fffffffff0000000000000000000000000000000000000000000000000000000082169050919050565b6140e9816140b4565b81146140f457600080fd5b50565b600081359050614106816140e0565b92915050565b600060208284031215614122576141216140aa565b5b6000614130848285016140f7565b91505092915050565b60008115159050919050565b61414e81614139565b82525050565b60006020820190506141696000830184614145565b92915050565b61417881614139565b811461418357600080fd5b50565b6000813590506141958161416f565b92915050565b6000602082840312156141b1576141b06140aa565b5b60006141bf84828501614186565b91505092915050565b600081519050919050565b600082825260208201905092915050565b60005b838110156142025780820151818401526020810190506141e7565b83811115614211576000848401525b50505050565b6000601f19601f8301169050919050565b6000614233826141c8565b61423d81856141d3565b935061424d8185602086016141e4565b61425681614217565b840191505092915050565b6000602082019050818103600083015261427b8184614228565b905092915050565b6000819050919050565b61429681614283565b81146142a157600080fd5b50565b6000813590506142b38161428d565b92915050565b6000602082840312156142cf576142ce6140aa565b5b60006142dd848285016142a4565b91505092915050565b600073ffffffffffffffffffffffffffffffffffffffff82169050919050565b6000614311826142e6565b9050919050565b61432181614306565b82525050565b600060208201905061433c6000830184614318565b92915050565b61434b81614306565b811461435657600080fd5b50565b60008135905061436881614342565b92915050565b60008060408385031215614385576143846140aa565b5b600061439385828601614359565b92505060206143a4858286016142a4565b9150509250929050565b6000819050919050565b6143c1816143ae565b82525050565b60006020820190506143dc60008301846143b8565b92915050565b6000819050919050565b60006144076144026143fd846142e6565b6143e2565b6142e6565b9050919050565b6000614419826143ec565b9050919050565b600061442b8261440e565b9050919050565b61443b81614420565b82525050565b60006020820190506144566000830184614432565b92915050565b614465816143ae565b811461447057600080fd5b50565b6000813590506144828161445c565b92915050565b60006020828403121561449e5761449d6140aa565b5b60006144ac84828501614473565b91505092915050565b6144be81614283565b82525050565b60006020820190506144d960008301846144b5565b92915050565b6000602082840312156144f5576144f46140aa565b5b600061450384828501614359565b91505092915050565b600080600060608486031215614525576145246140aa565b5b600061453386828701614359565b935050602061454486828701614359565b9250506040614555868287016142a4565b9150509250925092565b600080fd5b600080fd5b7f4e487b7100000000000000000000000000000000000000000000000000000000600052604160045260246000fd5b6145a182614217565b810181811067ffffffffffffffff821117156145c0576145bf614569565b5b80604052505050565b60006145d36140a0565b90506145df8282614598565b919050565b600067ffffffffffffffff8211156145ff576145fe614569565b5b61460882614217565b9050602081019050919050565b82818337600083830152505050565b6000614637614632846145e4565b6145c9565b90508281526020810184848401111561465357614652614564565b5b61465e848285614615565b509392505050565b600082601f83011261467b5761467a61455f565b5b813561468b848260208601614624565b91505092915050565b6000602082840312156146aa576146a96140aa565b5b600082013567ffffffffffffffff8111156146c8576146c76140af565b5b6146d484828501614666565b91505092915050565b60006146e88261440e565b9050919050565b6146f8816146dd565b82525050565b600060208201905061471360008301846146ef565b92915050565b600080fd5b600080fd5b60008083601f8401126147395761473861455f565b5b8235905067ffffffffffffffff81111561475657614755614719565b5b6020830191508360208202830111156147725761477161471e565b5b9250929050565b600080602083850312156147905761478f6140aa565b5b600083013567ffffffffffffffff8111156147ae576147ad6140af565b5b6147ba85828601614723565b92509250509250929050565b60008083601f8401126147dc576147db61455f565b5b8235905067ffffffffffffffff8111156147f9576147f8614719565b5b6020830191508360208202830111156148155761481461471e565b5b9250929050565b60008060008060408587031215614836576148356140aa565b5b600085013567ffffffffffffffff811115614854576148536140af565b5b614860878288016147c6565b9450945050602085013567ffffffffffffffff811115614883576148826140af565b5b61488f878288016147c6565b925092505092959194509250565b600080604083850312156148b4576148b36140aa565b5b60006148c285828601614359565b92505060206148d385828601614186565b9150509250929050565b600067ffffffffffffffff8211156148f8576148f7614569565b5b61490182614217565b9050602081019050919050565b600061492161491c846148dd565b6145c9565b90508281526020810184848401111561493d5761493c614564565b5b614948848285614615565b509392505050565b600082601f8301126149655761496461455f565b5b813561497584826020860161490e565b91505092915050565b60008060008060808587031215614998576149976140aa565b5b60006149a687828801614359565b94505060206149b787828801614359565b93505060406149c8878288016142a4565b925050606085013567ffffffffffffffff8111156149e9576149e86140af565b5b6149f587828801614950565b91505092959194509250565b600081519050919050565b600082825260208201905092915050565b6000819050602082019050919050565b614a3681614283565b82525050565b6000614a488383614a2d565b60208301905092915050565b6000602082019050919050565b6000614a6c82614a01565b614a768185614a0c565b9350614a8183614a1d565b8060005b83811015614ab2578151614a998882614a3c565b9750614aa483614a54565b925050600181019050614a85565b5085935050505092915050565b60006020820190508181036000830152614ad98184614a61565b905092915050565b60008060408385031215614af857614af76140aa565b5b6000614b0685828601614359565b9250506020614b1785828601614359565b9150509250929050565b60008060408385031215614b3857614b376140aa565b5b6000614b46858286016142a4565b9250506020614b57858286016142a4565b9150509250929050565b7f4f776e61626c653a2063616c6c6572206973206e6f7420746865206f776e6572600082015250565b6000614b976020836141d3565b9150614ba282614b61565b602082019050919050565b60006020820190508181036000830152614bc681614b8a565b9050919050565b7f4e487b7100000000000000000000000000000000000000000000000000000000600052602260045260246000fd5b60006002820490506001821680614c1457607f821691505b602082108103614c2757614c26614bcd565b5b50919050565b7f4552433732313a20617070726f76656420717565727920666f72206e6f6e657860008201527f697374656e7420746f6b656e0000000000000000000000000000000000000000602082015250565b6000614c89602c836141d3565b9150614c9482614c2d565b604082019050919050565b60006020820190508181036000830152614cb881614c7c565b9050919050565b7f4552433732313a20617070726f76616c20746f2063757272656e74206f776e6560008201527f7200000000000000000000000000000000000000000000000000000000000000602082015250565b6000614d1b6021836141d3565b9150614d2682614cbf565b604082019050919050565b60006020820190508181036000830152614d4a81614d0e565b9050919050565b7f4552433732313a20617070726f76652063616c6c6572206973206e6f74206f7760008201527f6e6572206e6f7220617070726f76656420666f7220616c6c0000000000000000602082015250565b6000614dad6038836141d3565b9150614db882614d51565b604082019050919050565b60006020820190508181036000830152614ddc81614da0565b9050919050565b7f4552433732313a207472616e736665722063616c6c6572206973206e6f74206f60008201527f776e6572206e6f7220617070726f766564000000000000000000000000000000602082015250565b6000614e3f6031836141d3565b9150614e4a82614de3565b604082019050919050565b60006020820190508181036000830152614e6e81614e32565b9050919050565b7f455243373231456e756d657261626c653a206f776e657220696e646578206f7560008201527f74206f6620626f756e6473000000000000000000000000000000000000000000602082015250565b6000614ed1602b836141d3565b9150614edc82614e75565b604082019050919050565b60006020820190508181036000830152614f0081614ec4565b9050919050565b7f455243373231456e756d657261626c653a20676c6f62616c20696e646578206f60008201527f7574206f6620626f756e64730000000000000000000000000000000000000000602082015250565b6000614f63602c836141d3565b9150614f6e82614f07565b604082019050919050565b60006020820190508181036000830152614f9281614f56565b9050919050565b7f4e487b7100000000000000000000000000000000000000000000000000000000600052603260045260246000fd5b7f4552433732313a206f776e657220717565727920666f72206e6f6e657869737460008201527f656e7420746f6b656e0000000000000000000000000000000000000000000000602082015250565b60006150246029836141d3565b915061502f82614fc8565b604082019050919050565b6000602082019050818103600083015261505381615017565b9050919050565b7f4552433732313a2062616c616e636520717565727920666f7220746865207a6560008201527f726f206164647265737300000000000000000000000000000000000000000000602082015250565b60006150b6602a836141d3565b91506150c18261505a565b604082019050919050565b600060208201905081810360008301526150e5816150a9565b9050919050565b6000815190506150fb8161428d565b92915050565b600060208284031215615117576151166140aa565b5b6000615125848285016150ec565b91505092915050565b7f4e487b7100000000000000000000000000000000000000000000000000000000600052601260045260246000fd5b7f4e487b7100000000000000000000000000000000000000000000000000000000600052601160045260246000fd5b600061519782614283565b91506151a283614283565b9250826151b2576151b161512e565b5b828204905092915050565b7f4e6f7420656e6f756768206d6167696320696e2077616c6c6574000000000000600082015250565b60006151f3601a836141d3565b91506151fe826151bd565b602082019050919050565b60006020820190508181036000830152615222816151e6565b9050919050565b7f7573657220616c72656164792077686974656c69737465640000000000000000600082015250565b600061525f6018836141d3565b915061526a82615229565b602082019050919050565b6000602082019050818103600083015261528e81615252565b9050919050565b60008160601b9050919050565b60006152ad82615295565b9050919050565b60006152bf826152a2565b9050919050565b6152d76152d282614306565b6152b4565b82525050565b60006152e982846152c6565b60148201915081905092915050565b7f496e76616c69642070726f6f66202d206e6f742077686974656c697374656400600082015250565b600061532e601f836141d3565b9150615339826152f8565b602082019050919050565b6000602082019050818103600083015261535d81615321565b9050919050565b600061536f82614283565b915061537a83614283565b9250827fffffffffffffffffffffffffffffffffffffffffffffffffffffffffffffffff038211156153af576153ae61515d565b5b828201905092915050565b60006153c582614283565b91507fffffffffffffffffffffffffffffffffffffffffffffffffffffffffffffffff82036153f7576153f661515d565b5b600182019050919050565b7f496e697469616c697a61626c653a20636f6e747261637420697320616c72656160008201527f647920696e697469616c697a6564000000000000000000000000000000000000602082015250565b600061545e602e836141d3565b915061546982615402565b604082019050919050565b6000602082019050818103600083015261548d81615451565b9050919050565b7f4552433732314d657461646174613a2055524920717565727920666f72206e6f60008201527f6e6578697374656e7420746f6b656e0000000000000000000000000000000000602082015250565b60006154f0602f836141d3565b91506154fb82615494565b604082019050919050565b6000602082019050818103600083015261551f816154e3565b9050919050565b600081905092915050565b60008190508160005260206000209050919050565b6000815461555381614bfc565b61555d8186615526565b945060018216600081146155785760018114615589576155bc565b60ff198316865281860193506155bc565b61559285615531565b60005b838110156155b457815481890152600182019150602081019050615595565b838801955050505b50505092915050565b60006155d0826141c8565b6155da8185615526565b93506155ea8185602086016141e4565b80840191505092915050565b7f2f00000000000000000000000000000000000000000000000000000000000000600082015250565b600061562c600183615526565b9150615637826155f6565b600182019050919050565b600061564e8287615546565b915061565a82866155c5565b91506156658261561f565b915061567182856155c5565b915061567d8284615546565b915081905095945050505050565b7f4f776e61626c653a206e6577206f776e657220697320746865207a65726f206160008201527f6464726573730000000000000000000000000000000000000000000000000000602082015250565b60006156e76026836141d3565b91506156f28261568b565b604082019050919050565b60006020820190508181036000830152615716816156da565b9050919050565b7f426f626f74733a2021436f72654368616d626572000000000000000000000000600082015250565b60006157536014836141d3565b915061575e8261571d565b602082019050919050565b6000602082019050818103600083015261578281615746565b9050919050565b7f4552433732313a206f70657261746f7220717565727920666f72206e6f6e657860008201527f697374656e7420746f6b656e0000000000000000000000000000000000000000602082015250565b60006157e5602c836141d3565b91506157f082615789565b604082019050919050565b60006020820190508181036000830152615814816157d8565b9050919050565b7f4552433732313a207472616e736665722066726f6d20696e636f72726563742060008201527f6f776e6572000000000000000000000000000000000000000000000000000000602082015250565b60006158776025836141d3565b91506158828261581b565b604082019050919050565b600060208201905081810360008301526158a68161586a565b9050919050565b7f4552433732313a207472616e7366657220746f20746865207a65726f2061646460008201527f7265737300000000000000000000000000000000000000000000000000000000602082015250565b60006159096024836141d3565b9150615914826158ad565b604082019050919050565b60006020820190508181036000830152615938816158fc565b9050919050565b600061594a82614283565b915061595583614283565b9250828210156159685761596761515d565b5b828203905092915050565b7f4552433732313a20617070726f766520746f2063616c6c657200000000000000600082015250565b60006159a96019836141d3565b91506159b482615973565b602082019050919050565b600060208201905081810360008301526159d88161599c565b9050919050565b7f4552433732313a207472616e7366657220746f206e6f6e20455243373231526560008201527f63656976657220696d706c656d656e7465720000000000000000000000000000602082015250565b6000615a3b6032836141d3565b9150615a46826159df565b604082019050919050565b60006020820190508181036000830152615a6a81615a2e565b9050919050565b7f496e697469616c697a61626c653a20636f6e7472616374206973206e6f74206960008201527f6e697469616c697a696e67000000000000000000000000000000000000000000602082015250565b6000615acd602b836141d3565b9150615ad882615a71565b604082019050919050565b60006020820190508181036000830152615afc81615ac0565b9050919050565b6000615b0e82614283565b9150615b1983614283565b925082615b2957615b2861512e565b5b828206905092915050565b600081519050919050565b600082825260208201905092915050565b6000615b5b82615b34565b615b658185615b3f565b9350615b758185602086016141e4565b615b7e81614217565b840191505092915050565b6000608082019050615b9e6000830187614318565b615bab6020830186614318565b615bb860408301856144b5565b8181036060830152615bca8184615b50565b905095945050505050565b600081519050615be4816140e0565b92915050565b600060208284031215615c0057615bff6140aa565b5b6000615c0e84828501615bd5565b91505092915050565b7f4e487b7100000000000000000000000000000000000000000000000000000000600052603160045260246000fd5b7f4552433732313a206d696e7420746f20746865207a65726f2061646472657373600082015250565b6000615c7c6020836141d3565b9150615c8782615c46565b602082019050919050565b60006020820190508181036000830152615cab81615c6f565b9050919050565b7f4552433732313a20746f6b656e20616c7265616479206d696e74656400000000600082015250565b6000615ce8601c836141d3565b9150615cf382615cb2565b602082019050919050565b60006020820190508181036000830152615d1781615cdb565b905091905056fea2646970667358221220693624597689655cfe0821f8afcd0d7ac28ba8eaaf645d2ccec588a1b5b8931864736f6c634300080d0033",
  "linkReferences": {},
  "deployedLinkReferences": {}
}