{
  "_format": "hh-sol-artifact-1",
  "contractName": "BobotInstallation",
  "sourceName": "contracts/BobotInstallation.sol",
  "abi": [
    {
      "inputs": [
        {
          "internalType": "string",
          "name": "_name",
          "type": "string"
        },
        {
          "internalType": "string",
          "name": "_symbol",
          "type": "string"
        },
        {
          "internalType": "string",
          "name": "_initBaseURI",
          "type": "string"
        }
      ],
      "stateMutability": "nonpayable",
      "type": "constructor"
    },
    {
      "anonymous": false,
      "inputs": [
        {
          "indexed": true,
          "internalType": "address",
          "name": "owner",
          "type": "address"
        },
        {
          "indexed": true,
          "internalType": "address",
          "name": "approved",
          "type": "address"
        },
        {
          "indexed": true,
          "internalType": "uint256",
          "name": "tokenId",
          "type": "uint256"
        }
      ],
      "name": "Approval",
      "type": "event"
    },
    {
      "anonymous": false,
      "inputs": [
        {
          "indexed": true,
          "internalType": "address",
          "name": "owner",
          "type": "address"
        },
        {
          "indexed": true,
          "internalType": "address",
          "name": "operator",
          "type": "address"
        },
        {
          "indexed": false,
          "internalType": "bool",
          "name": "approved",
          "type": "bool"
        }
      ],
      "name": "ApprovalForAll",
      "type": "event"
    },
    {
      "anonymous": false,
      "inputs": [
        {
          "indexed": true,
          "internalType": "address",
          "name": "previousOwner",
          "type": "address"
        },
        {
          "indexed": true,
          "internalType": "address",
          "name": "newOwner",
          "type": "address"
        }
      ],
      "name": "OwnershipTransferred",
      "type": "event"
    },
    {
      "anonymous": false,
      "inputs": [
        {
          "indexed": true,
          "internalType": "address",
          "name": "from",
          "type": "address"
        },
        {
          "indexed": true,
          "internalType": "address",
          "name": "to",
          "type": "address"
        },
        {
          "indexed": true,
          "internalType": "uint256",
          "name": "tokenId",
          "type": "uint256"
        }
      ],
      "name": "Transfer",
      "type": "event"
    },
    {
      "inputs": [
        {
          "internalType": "address",
          "name": "to",
          "type": "address"
        },
        {
          "internalType": "uint256",
          "name": "tokenId",
          "type": "uint256"
        }
      ],
      "name": "approve",
      "outputs": [],
      "stateMutability": "nonpayable",
      "type": "function"
    },
    {
      "inputs": [
        {
          "internalType": "address",
          "name": "owner",
          "type": "address"
        }
      ],
      "name": "balanceOf",
      "outputs": [
        {
          "internalType": "uint256",
          "name": "",
          "type": "uint256"
        }
      ],
      "stateMutability": "view",
      "type": "function"
    },
    {
      "inputs": [],
      "name": "baseExtention",
      "outputs": [
        {
          "internalType": "string",
          "name": "",
          "type": "string"
        }
      ],
      "stateMutability": "view",
      "type": "function"
    },
    {
      "inputs": [],
      "name": "baseURI",
      "outputs": [
        {
          "internalType": "string",
          "name": "",
          "type": "string"
        }
      ],
      "stateMutability": "view",
      "type": "function"
    },
    {
      "inputs": [],
      "name": "cost",
      "outputs": [
        {
          "internalType": "uint256",
          "name": "",
          "type": "uint256"
        }
      ],
      "stateMutability": "view",
      "type": "function"
    },
    {
      "inputs": [
        {
          "internalType": "uint256",
          "name": "tokenId",
          "type": "uint256"
        }
      ],
      "name": "getApproved",
      "outputs": [
        {
          "internalType": "address",
          "name": "",
          "type": "address"
        }
      ],
      "stateMutability": "view",
      "type": "function"
    },
    {
      "inputs": [
        {
          "internalType": "address",
          "name": "_owner",
          "type": "address"
        }
      ],
      "name": "getTokenIds",
      "outputs": [
        {
          "internalType": "uint256[]",
          "name": "",
          "type": "uint256[]"
        }
      ],
      "stateMutability": "view",
      "type": "function"
    },
    {
      "inputs": [
        {
          "internalType": "address",
          "name": "owner",
          "type": "address"
        },
        {
          "internalType": "address",
          "name": "operator",
          "type": "address"
        }
      ],
      "name": "isApprovedForAll",
      "outputs": [
        {
          "internalType": "bool",
          "name": "",
          "type": "bool"
        }
      ],
      "stateMutability": "view",
      "type": "function"
    },
    {
      "inputs": [],
      "name": "maxMintAmount",
      "outputs": [
        {
          "internalType": "uint256",
          "name": "",
          "type": "uint256"
        }
      ],
      "stateMutability": "view",
      "type": "function"
    },
    {
      "inputs": [],
      "name": "maxSupply",
      "outputs": [
        {
          "internalType": "uint256",
          "name": "",
          "type": "uint256"
        }
      ],
      "stateMutability": "view",
      "type": "function"
    },
    {
      "inputs": [
        {
          "internalType": "address",
          "name": "_to",
          "type": "address"
        },
        {
          "internalType": "uint256",
          "name": "_mintAmount",
          "type": "uint256"
        }
      ],
      "name": "mintBobot",
      "outputs": [],
      "stateMutability": "payable",
      "type": "function"
    },
    {
      "inputs": [],
      "name": "name",
      "outputs": [
        {
          "internalType": "string",
          "name": "",
          "type": "string"
        }
      ],
      "stateMutability": "view",
      "type": "function"
    },
    {
      "inputs": [],
      "name": "owner",
      "outputs": [
        {
          "internalType": "address",
          "name": "",
          "type": "address"
        }
      ],
      "stateMutability": "view",
      "type": "function"
    },
    {
      "inputs": [
        {
          "internalType": "uint256",
          "name": "tokenId",
          "type": "uint256"
        }
      ],
      "name": "ownerOf",
      "outputs": [
        {
          "internalType": "address",
          "name": "",
          "type": "address"
        }
      ],
      "stateMutability": "view",
      "type": "function"
    },
    {
      "inputs": [
        {
          "internalType": "bool",
          "name": "_state",
          "type": "bool"
        }
      ],
      "name": "pause",
      "outputs": [],
      "stateMutability": "nonpayable",
      "type": "function"
    },
    {
      "inputs": [],
      "name": "paused",
      "outputs": [
        {
          "internalType": "bool",
          "name": "",
          "type": "bool"
        }
      ],
      "stateMutability": "view",
      "type": "function"
    },
    {
      "inputs": [],
      "name": "renounceOwnership",
      "outputs": [],
      "stateMutability": "nonpayable",
      "type": "function"
    },
    {
      "inputs": [
        {
          "internalType": "address",
          "name": "from",
          "type": "address"
        },
        {
          "internalType": "address",
          "name": "to",
          "type": "address"
        },
        {
          "internalType": "uint256",
          "name": "tokenId",
          "type": "uint256"
        }
      ],
      "name": "safeTransferFrom",
      "outputs": [],
      "stateMutability": "nonpayable",
      "type": "function"
    },
    {
      "inputs": [
        {
          "internalType": "address",
          "name": "from",
          "type": "address"
        },
        {
          "internalType": "address",
          "name": "to",
          "type": "address"
        },
        {
          "internalType": "uint256",
          "name": "tokenId",
          "type": "uint256"
        },
        {
          "internalType": "bytes",
          "name": "_data",
          "type": "bytes"
        }
      ],
      "name": "safeTransferFrom",
      "outputs": [],
      "stateMutability": "nonpayable",
      "type": "function"
    },
    {
      "inputs": [
        {
          "internalType": "address",
          "name": "operator",
          "type": "address"
        },
        {
          "internalType": "bool",
          "name": "approved",
          "type": "bool"
        }
      ],
      "name": "setApprovalForAll",
      "outputs": [],
      "stateMutability": "nonpayable",
      "type": "function"
    },
    {
      "inputs": [
        {
          "internalType": "string",
          "name": "_newBaseExtentions",
          "type": "string"
        }
      ],
      "name": "setBaseExtentions",
      "outputs": [],
      "stateMutability": "nonpayable",
      "type": "function"
    },
    {
      "inputs": [
        {
          "internalType": "string",
          "name": "_newBaseURI",
          "type": "string"
        }
      ],
      "name": "setBaseURI",
      "outputs": [],
      "stateMutability": "nonpayable",
      "type": "function"
    },
    {
      "inputs": [
        {
          "internalType": "uint256",
          "name": "_newCost",
          "type": "uint256"
        }
      ],
      "name": "setCost",
      "outputs": [],
      "stateMutability": "nonpayable",
      "type": "function"
    },
    {
      "inputs": [
        {
          "internalType": "uint256",
          "name": "_newmaxMintAmount",
          "type": "uint256"
        }
      ],
      "name": "setmaxMintAmount",
      "outputs": [],
      "stateMutability": "nonpayable",
      "type": "function"
    },
    {
      "inputs": [
        {
          "internalType": "bytes4",
          "name": "interfaceId",
          "type": "bytes4"
        }
      ],
      "name": "supportsInterface",
      "outputs": [
        {
          "internalType": "bool",
          "name": "",
          "type": "bool"
        }
      ],
      "stateMutability": "view",
      "type": "function"
    },
    {
      "inputs": [],
      "name": "symbol",
      "outputs": [
        {
          "internalType": "string",
          "name": "",
          "type": "string"
        }
      ],
      "stateMutability": "view",
      "type": "function"
    },
    {
      "inputs": [
        {
          "internalType": "uint256",
          "name": "index",
          "type": "uint256"
        }
      ],
      "name": "tokenByIndex",
      "outputs": [
        {
          "internalType": "uint256",
          "name": "",
          "type": "uint256"
        }
      ],
      "stateMutability": "view",
      "type": "function"
    },
    {
      "inputs": [
        {
          "internalType": "address",
          "name": "owner",
          "type": "address"
        },
        {
          "internalType": "uint256",
          "name": "index",
          "type": "uint256"
        }
      ],
      "name": "tokenOfOwnerByIndex",
      "outputs": [
        {
          "internalType": "uint256",
          "name": "",
          "type": "uint256"
        }
      ],
      "stateMutability": "view",
      "type": "function"
    },
    {
      "inputs": [
        {
          "internalType": "uint256",
          "name": "tokenID",
          "type": "uint256"
        }
      ],
      "name": "tokenURI",
      "outputs": [
        {
          "internalType": "string",
          "name": "",
          "type": "string"
        }
      ],
      "stateMutability": "view",
      "type": "function"
    },
    {
      "inputs": [],
      "name": "totalSupply",
      "outputs": [
        {
          "internalType": "uint256",
          "name": "",
          "type": "uint256"
        }
      ],
      "stateMutability": "view",
      "type": "function"
    },
    {
      "inputs": [
        {
          "internalType": "address",
          "name": "from",
          "type": "address"
        },
        {
          "internalType": "address",
          "name": "to",
          "type": "address"
        },
        {
          "internalType": "uint256",
          "name": "tokenId",
          "type": "uint256"
        }
      ],
      "name": "transferFrom",
      "outputs": [],
      "stateMutability": "nonpayable",
      "type": "function"
    },
    {
      "inputs": [
        {
          "internalType": "address",
          "name": "newOwner",
          "type": "address"
        }
      ],
      "name": "transferOwnership",
      "outputs": [],
      "stateMutability": "nonpayable",
      "type": "function"
    },
    {
      "inputs": [
        {
          "internalType": "address",
          "name": "_owner",
          "type": "address"
        }
      ],
      "name": "walletOfOwner",
      "outputs": [
        {
          "internalType": "uint256[]",
          "name": "",
          "type": "uint256[]"
        }
      ],
      "stateMutability": "view",
      "type": "function"
    },
    {
      "inputs": [],
      "name": "withdraw",
      "outputs": [],
      "stateMutability": "payable",
      "type": "function"
    }
  ],
  "bytecode": "0x60806040526040518060400160405280600581526020017f2e6a736f6e000000000000000000000000000000000000000000000000000000815250600c908051906020019062000051929190620002c9565b5066470de4df820000600d55610bb8600e556014600f556000601060006101000a81548160ff0219169083151502179055503480156200009057600080fd5b50604051620048b6380380620048b68339818101604052810190620000b6919062000516565b82828160009080519060200190620000d0929190620002c9565b508060019080519060200190620000e9929190620002c9565b5050506200010c620001006200012660201b60201c565b6200012e60201b60201c565b6200011d81620001f460201b60201c565b505050620006b6565b600033905090565b6000600a60009054906101000a900473ffffffffffffffffffffffffffffffffffffffff16905081600a60006101000a81548173ffffffffffffffffffffffffffffffffffffffff021916908373ffffffffffffffffffffffffffffffffffffffff1602179055508173ffffffffffffffffffffffffffffffffffffffff168173ffffffffffffffffffffffffffffffffffffffff167f8be0079c531659141344cd1fd0a4f28419497f9722a3daafe3b4186f6b6457e060405160405180910390a35050565b620002046200012660201b60201c565b73ffffffffffffffffffffffffffffffffffffffff166200022a6200029f60201b60201c565b73ffffffffffffffffffffffffffffffffffffffff161462000283576040517f08c379a00000000000000000000000000000000000000000000000000000000081526004016200027a9062000630565b60405180910390fd5b80600b90805190602001906200029b929190620002c9565b5050565b6000600a60009054906101000a900473ffffffffffffffffffffffffffffffffffffffff16905090565b828054620002d79062000681565b90600052602060002090601f016020900481019282620002fb576000855562000347565b82601f106200031657805160ff191683800117855562000347565b8280016001018555821562000347579182015b828111156200034657825182559160200191906001019062000329565b5b5090506200035691906200035a565b5090565b5b80821115620003755760008160009055506001016200035b565b5090565b6000604051905090565b600080fd5b600080fd5b600080fd5b600080fd5b6000601f19601f8301169050919050565b7f4e487b7100000000000000000000000000000000000000000000000000000000600052604160045260246000fd5b620003e28262000397565b810181811067ffffffffffffffff82111715620004045762000403620003a8565b5b80604052505050565b60006200041962000379565b9050620004278282620003d7565b919050565b600067ffffffffffffffff8211156200044a5762000449620003a8565b5b620004558262000397565b9050602081019050919050565b60005b838110156200048257808201518184015260208101905062000465565b8381111562000492576000848401525b50505050565b6000620004af620004a9846200042c565b6200040d565b905082815260208101848484011115620004ce57620004cd62000392565b5b620004db84828562000462565b509392505050565b600082601f830112620004fb57620004fa6200038d565b5b81516200050d84826020860162000498565b91505092915050565b60008060006060848603121562000532576200053162000383565b5b600084015167ffffffffffffffff81111562000553576200055262000388565b5b6200056186828701620004e3565b935050602084015167ffffffffffffffff81111562000585576200058462000388565b5b6200059386828701620004e3565b925050604084015167ffffffffffffffff811115620005b757620005b662000388565b5b620005c586828701620004e3565b9150509250925092565b600082825260208201905092915050565b7f4f776e61626c653a2063616c6c6572206973206e6f7420746865206f776e6572600082015250565b600062000618602083620005cf565b91506200062582620005e0565b602082019050919050565b600060208201905081810360008301526200064b8162000609565b9050919050565b7f4e487b7100000000000000000000000000000000000000000000000000000000600052602260045260246000fd5b600060028204905060018216806200069a57607f821691505b602082108103620006b057620006af62000652565b5b50919050565b6141f080620006c66000396000f3fe6080604052600436106101f95760003560e01c80634f6ccce71161010d5780638da5cb5b116100a0578063c87b56dd1161006f578063c87b56dd14610703578063d004b03614610740578063d5abeb011461077d578063e985e9c5146107a8578063f2fde38b146107e5576101f9565b80638da5cb5b1461065b57806395d89b4114610686578063a22cb465146106b1578063b88d4fde146106da576101f9565b80636c0360eb116100dc5780636c0360eb146105b357806370a08231146105de578063715018a61461061b5780637f00c7a614610632576101f9565b80634f6ccce7146104e557806355f804b3146105225780635c975abb1461054b5780636352211e14610576576101f9565b8063239c70ae116101905780633ccfd60b1161015f5780633ccfd60b1461042157806342842e0e1461042b578063438b63001461045457806344a0d68a146104915780634ba5f378146104ba576101f9565b8063239c70ae1461036757806323b872dd1461039257806325c13203146103bb5780632f745c59146103e4576101f9565b8063095ea7b3116101cc578063095ea7b3146102cc5780630a617dd5146102f557806313faede61461031157806318160ddd1461033c576101f9565b806301ffc9a7146101fe57806302329a291461023b57806306fdde0314610264578063081812fc1461028f575b600080fd5b34801561020a57600080fd5b5061022560048036038101906102209190612c32565b61080e565b6040516102329190612c7a565b60405180910390f35b34801561024757600080fd5b50610262600480360381019061025d9190612cc1565b610888565b005b34801561027057600080fd5b50610279610921565b6040516102869190612d87565b60405180910390f35b34801561029b57600080fd5b506102b660048036038101906102b19190612ddf565b6109b3565b6040516102c39190612e4d565b60405180910390f35b3480156102d857600080fd5b506102f360048036038101906102ee9190612e94565b610a38565b005b61030f600480360381019061030a9190612e94565b610b4f565b005b34801561031d57600080fd5b50610326610c3a565b6040516103339190612ee3565b60405180910390f35b34801561034857600080fd5b50610351610c40565b60405161035e9190612ee3565b60405180910390f35b34801561037357600080fd5b5061037c610c4d565b6040516103899190612ee3565b60405180910390f35b34801561039e57600080fd5b506103b960048036038101906103b49190612efe565b610c53565b005b3480156103c757600080fd5b506103e260048036038101906103dd9190613086565b610cb3565b005b3480156103f057600080fd5b5061040b60048036038101906104069190612e94565b610d49565b6040516104189190612ee3565b60405180910390f35b610429610dee565b005b34801561043757600080fd5b50610452600480360381019061044d9190612efe565b610eaa565b005b34801561046057600080fd5b5061047b600480360381019061047691906130cf565b610eca565b60405161048891906131ba565b60405180910390f35b34801561049d57600080fd5b506104b860048036038101906104b39190612ddf565b610f76565b005b3480156104c657600080fd5b506104cf610ffc565b6040516104dc9190612d87565b60405180910390f35b3480156104f157600080fd5b5061050c60048036038101906105079190612ddf565b61108a565b6040516105199190612ee3565b60405180910390f35b34801561052e57600080fd5b5061054960048036038101906105449190613086565b6110fb565b005b34801561055757600080fd5b50610560611191565b60405161056d9190612c7a565b60405180910390f35b34801561058257600080fd5b5061059d60048036038101906105989190612ddf565b6111a4565b6040516105aa9190612e4d565b60405180910390f35b3480156105bf57600080fd5b506105c8611255565b6040516105d59190612d87565b60405180910390f35b3480156105ea57600080fd5b50610605600480360381019061060091906130cf565b6112e3565b6040516106129190612ee3565b60405180910390f35b34801561062757600080fd5b5061063061139a565b005b34801561063e57600080fd5b5061065960048036038101906106549190612ddf565b611422565b005b34801561066757600080fd5b506106706114a8565b60405161067d9190612e4d565b60405180910390f35b34801561069257600080fd5b5061069b6114d2565b6040516106a89190612d87565b60405180910390f35b3480156106bd57600080fd5b506106d860048036038101906106d391906131dc565b611564565b005b3480156106e657600080fd5b5061070160048036038101906106fc91906132bd565b61157a565b005b34801561070f57600080fd5b5061072a60048036038101906107259190612ddf565b6115dc565b6040516107379190612d87565b60405180910390f35b34801561074c57600080fd5b50610767600480360381019061076291906130cf565b611687565b60405161077491906131ba565b60405180910390f35b34801561078957600080fd5b50610792611737565b60405161079f9190612ee3565b60405180910390f35b3480156107b457600080fd5b506107cf60048036038101906107ca9190613340565b61173d565b6040516107dc9190612c7a565b60405180910390f35b3480156107f157600080fd5b5061080c600480360381019061080791906130cf565b6117d1565b005b60007f780e9d63000000000000000000000000000000000000000000000000000000007bffffffffffffffffffffffffffffffffffffffffffffffffffffffff1916827bffffffffffffffffffffffffffffffffffffffffffffffffffffffff191614806108815750610880826118c8565b5b9050919050565b6108906119aa565b73ffffffffffffffffffffffffffffffffffffffff166108ae6114a8565b73ffffffffffffffffffffffffffffffffffffffff1614610904576040517f08c379a00000000000000000000000000000000000000000000000000000000081526004016108fb906133cc565b60405180910390fd5b80601060006101000a81548160ff02191690831515021790555050565b6060600080546109309061341b565b80601f016020809104026020016040519081016040528092919081815260200182805461095c9061341b565b80156109a95780601f1061097e576101008083540402835291602001916109a9565b820191906000526020600020905b81548152906001019060200180831161098c57829003601f168201915b5050505050905090565b60006109be826119b2565b6109fd576040517f08c379a00000000000000000000000000000000000000000000000000000000081526004016109f4906134be565b60405180910390fd5b6004600083815260200190815260200160002060009054906101000a900473ffffffffffffffffffffffffffffffffffffffff169050919050565b6000610a43826111a4565b90508073ffffffffffffffffffffffffffffffffffffffff168373ffffffffffffffffffffffffffffffffffffffff1603610ab3576040517f08c379a0000000000000000000000000000000000000000000000000000000008152600401610aaa90613550565b60405180910390fd5b8073ffffffffffffffffffffffffffffffffffffffff16610ad26119aa565b73ffffffffffffffffffffffffffffffffffffffff161480610b015750610b0081610afb6119aa565b61173d565b5b610b40576040517f08c379a0000000000000000000000000000000000000000000000000000000008152600401610b37906135e2565b60405180910390fd5b610b4a8383611a1e565b505050565b6000610b59610c40565b9050601060009054906101000a900460ff1615610b7557600080fd5b60008211610b8257600080fd5b600f54821115610b9157600080fd5b600e548282610ba09190613631565b1115610bab57600080fd5b610bb36114a8565b73ffffffffffffffffffffffffffffffffffffffff163373ffffffffffffffffffffffffffffffffffffffff1614610c005781600d54610bf39190613687565b341015610bff57600080fd5b5b6000600190505b828111610c3457610c23848284610c1e9190613631565b611ad7565b80610c2d906136e1565b9050610c07565b50505050565b600d5481565b6000600880549050905090565b600f5481565b610c64610c5e6119aa565b82611af5565b610ca3576040517f08c379a0000000000000000000000000000000000000000000000000000000008152600401610c9a9061379b565b60405180910390fd5b610cae838383611bd3565b505050565b610cbb6119aa565b73ffffffffffffffffffffffffffffffffffffffff16610cd96114a8565b73ffffffffffffffffffffffffffffffffffffffff1614610d2f576040517f08c379a0000000000000000000000000000000000000000000000000000000008152600401610d26906133cc565b60405180910390fd5b80600c9080519060200190610d45929190612b23565b5050565b6000610d54836112e3565b8210610d95576040517f08c379a0000000000000000000000000000000000000000000000000000000008152600401610d8c9061382d565b60405180910390fd5b600660008473ffffffffffffffffffffffffffffffffffffffff1673ffffffffffffffffffffffffffffffffffffffff168152602001908152602001600020600083815260200190815260200160002054905092915050565b610df66119aa565b73ffffffffffffffffffffffffffffffffffffffff16610e146114a8565b73ffffffffffffffffffffffffffffffffffffffff1614610e6a576040517f08c379a0000000000000000000000000000000000000000000000000000000008152600401610e61906133cc565b60405180910390fd5b3373ffffffffffffffffffffffffffffffffffffffff166108fc479081150290604051600060405180830381858888f19350505050610ea857600080fd5b565b610ec58383836040518060200160405280600081525061157a565b505050565b60606000610ed7836112e3565b905060008167ffffffffffffffff811115610ef557610ef4612f5b565b5b604051908082528060200260200182016040528015610f235781602001602082028036833780820191505090505b50905060005b82811015610f6b57610f3b8582610d49565b828281518110610f4e57610f4d61384d565b5b60200260200101818152505080610f64906136e1565b9050610f29565b508092505050919050565b610f7e6119aa565b73ffffffffffffffffffffffffffffffffffffffff16610f9c6114a8565b73ffffffffffffffffffffffffffffffffffffffff1614610ff2576040517f08c379a0000000000000000000000000000000000000000000000000000000008152600401610fe9906133cc565b60405180910390fd5b80600d8190555050565b600c80546110099061341b565b80601f01602080910402602001604051908101604052809291908181526020018280546110359061341b565b80156110825780601f1061105757610100808354040283529160200191611082565b820191906000526020600020905b81548152906001019060200180831161106557829003601f168201915b505050505081565b6000611094610c40565b82106110d5576040517f08c379a00000000000000000000000000000000000000000000000000000000081526004016110cc906138ee565b60405180910390fd5b600882815481106110e9576110e861384d565b5b90600052602060002001549050919050565b6111036119aa565b73ffffffffffffffffffffffffffffffffffffffff166111216114a8565b73ffffffffffffffffffffffffffffffffffffffff1614611177576040517f08c379a000000000000000000000000000000000000000000000000000000000815260040161116e906133cc565b60405180910390fd5b80600b908051906020019061118d929190612b23565b5050565b601060009054906101000a900460ff1681565b6000806002600084815260200190815260200160002060009054906101000a900473ffffffffffffffffffffffffffffffffffffffff169050600073ffffffffffffffffffffffffffffffffffffffff168173ffffffffffffffffffffffffffffffffffffffff160361124c576040517f08c379a000000000000000000000000000000000000000000000000000000000815260040161124390613980565b60405180910390fd5b80915050919050565b600b80546112629061341b565b80601f016020809104026020016040519081016040528092919081815260200182805461128e9061341b565b80156112db5780601f106112b0576101008083540402835291602001916112db565b820191906000526020600020905b8154815290600101906020018083116112be57829003601f168201915b505050505081565b60008073ffffffffffffffffffffffffffffffffffffffff168273ffffffffffffffffffffffffffffffffffffffff1603611353576040517f08c379a000000000000000000000000000000000000000000000000000000000815260040161134a90613a12565b60405180910390fd5b600360008373ffffffffffffffffffffffffffffffffffffffff1673ffffffffffffffffffffffffffffffffffffffff168152602001908152602001600020549050919050565b6113a26119aa565b73ffffffffffffffffffffffffffffffffffffffff166113c06114a8565b73ffffffffffffffffffffffffffffffffffffffff1614611416576040517f08c379a000000000000000000000000000000000000000000000000000000000815260040161140d906133cc565b60405180910390fd5b6114206000611e39565b565b61142a6119aa565b73ffffffffffffffffffffffffffffffffffffffff166114486114a8565b73ffffffffffffffffffffffffffffffffffffffff161461149e576040517f08c379a0000000000000000000000000000000000000000000000000000000008152600401611495906133cc565b60405180910390fd5b80600f8190555050565b6000600a60009054906101000a900473ffffffffffffffffffffffffffffffffffffffff16905090565b6060600180546114e19061341b565b80601f016020809104026020016040519081016040528092919081815260200182805461150d9061341b565b801561155a5780601f1061152f5761010080835404028352916020019161155a565b820191906000526020600020905b81548152906001019060200180831161153d57829003601f168201915b5050505050905090565b61157661156f6119aa565b8383611eff565b5050565b61158b6115856119aa565b83611af5565b6115ca576040517f08c379a00000000000000000000000000000000000000000000000000000000081526004016115c19061379b565b60405180910390fd5b6115d68484848461206b565b50505050565b60606115e7826119b2565b611626576040517f08c379a000000000000000000000000000000000000000000000000000000000815260040161161d90613aa4565b60405180910390fd5b60006116306120c7565b90506000815111611650576040518060200160405280600081525061167f565b600b61165b84612159565b600c60405160200161166f93929190613b94565b6040516020818303038152906040525b915050919050565b60606000611694836112e3565b67ffffffffffffffff8111156116ad576116ac612f5b565b5b6040519080825280602002602001820160405280156116db5781602001602082028036833780820191505090505b50905060005b6116ea846112e3565b81101561172d576116fb8482610d49565b82828151811061170e5761170d61384d565b5b6020026020010181815250508080611725906136e1565b9150506116e1565b8192505050919050565b600e5481565b6000600560008473ffffffffffffffffffffffffffffffffffffffff1673ffffffffffffffffffffffffffffffffffffffff16815260200190815260200160002060008373ffffffffffffffffffffffffffffffffffffffff1673ffffffffffffffffffffffffffffffffffffffff16815260200190815260200160002060009054906101000a900460ff16905092915050565b6117d96119aa565b73ffffffffffffffffffffffffffffffffffffffff166117f76114a8565b73ffffffffffffffffffffffffffffffffffffffff161461184d576040517f08c379a0000000000000000000000000000000000000000000000000000000008152600401611844906133cc565b60405180910390fd5b600073ffffffffffffffffffffffffffffffffffffffff168173ffffffffffffffffffffffffffffffffffffffff16036118bc576040517f08c379a00000000000000000000000000000000000000000000000000000000081526004016118b390613c37565b60405180910390fd5b6118c581611e39565b50565b60007f80ac58cd000000000000000000000000000000000000000000000000000000007bffffffffffffffffffffffffffffffffffffffffffffffffffffffff1916827bffffffffffffffffffffffffffffffffffffffffffffffffffffffff1916148061199357507f5b5e139f000000000000000000000000000000000000000000000000000000007bffffffffffffffffffffffffffffffffffffffffffffffffffffffff1916827bffffffffffffffffffffffffffffffffffffffffffffffffffffffff1916145b806119a357506119a2826122b9565b5b9050919050565b600033905090565b60008073ffffffffffffffffffffffffffffffffffffffff166002600084815260200190815260200160002060009054906101000a900473ffffffffffffffffffffffffffffffffffffffff1673ffffffffffffffffffffffffffffffffffffffff1614159050919050565b816004600083815260200190815260200160002060006101000a81548173ffffffffffffffffffffffffffffffffffffffff021916908373ffffffffffffffffffffffffffffffffffffffff160217905550808273ffffffffffffffffffffffffffffffffffffffff16611a91836111a4565b73ffffffffffffffffffffffffffffffffffffffff167f8c5be1e5ebec7d5bd14f71427d1e84f3dd0314c0f7b2291e5b200ac8c7c3b92560405160405180910390a45050565b611af1828260405180602001604052806000815250612323565b5050565b6000611b00826119b2565b611b3f576040517f08c379a0000000000000000000000000000000000000000000000000000000008152600401611b3690613cc9565b60405180910390fd5b6000611b4a836111a4565b90508073ffffffffffffffffffffffffffffffffffffffff168473ffffffffffffffffffffffffffffffffffffffff161480611bb957508373ffffffffffffffffffffffffffffffffffffffff16611ba1846109b3565b73ffffffffffffffffffffffffffffffffffffffff16145b80611bca5750611bc9818561173d565b5b91505092915050565b8273ffffffffffffffffffffffffffffffffffffffff16611bf3826111a4565b73ffffffffffffffffffffffffffffffffffffffff1614611c49576040517f08c379a0000000000000000000000000000000000000000000000000000000008152600401611c4090613d5b565b60405180910390fd5b600073ffffffffffffffffffffffffffffffffffffffff168273ffffffffffffffffffffffffffffffffffffffff1603611cb8576040517f08c379a0000000000000000000000000000000000000000000000000000000008152600401611caf90613ded565b60405180910390fd5b611cc383838361237e565b611cce600082611a1e565b6001600360008573ffffffffffffffffffffffffffffffffffffffff1673ffffffffffffffffffffffffffffffffffffffff1681526020019081526020016000206000828254611d1e9190613e0d565b925050819055506001600360008473ffffffffffffffffffffffffffffffffffffffff1673ffffffffffffffffffffffffffffffffffffffff1681526020019081526020016000206000828254611d759190613631565b92505081905550816002600083815260200190815260200160002060006101000a81548173ffffffffffffffffffffffffffffffffffffffff021916908373ffffffffffffffffffffffffffffffffffffffff160217905550808273ffffffffffffffffffffffffffffffffffffffff168473ffffffffffffffffffffffffffffffffffffffff167fddf252ad1be2c89b69c2b068fc378daa952ba7f163c4a11628f55a4df523b3ef60405160405180910390a4611e34838383612490565b505050565b6000600a60009054906101000a900473ffffffffffffffffffffffffffffffffffffffff16905081600a60006101000a81548173ffffffffffffffffffffffffffffffffffffffff021916908373ffffffffffffffffffffffffffffffffffffffff1602179055508173ffffffffffffffffffffffffffffffffffffffff168173ffffffffffffffffffffffffffffffffffffffff167f8be0079c531659141344cd1fd0a4f28419497f9722a3daafe3b4186f6b6457e060405160405180910390a35050565b8173ffffffffffffffffffffffffffffffffffffffff168373ffffffffffffffffffffffffffffffffffffffff1603611f6d576040517f08c379a0000000000000000000000000000000000000000000000000000000008152600401611f6490613e8d565b60405180910390fd5b80600560008573ffffffffffffffffffffffffffffffffffffffff1673ffffffffffffffffffffffffffffffffffffffff16815260200190815260200160002060008473ffffffffffffffffffffffffffffffffffffffff1673ffffffffffffffffffffffffffffffffffffffff16815260200190815260200160002060006101000a81548160ff0219169083151502179055508173ffffffffffffffffffffffffffffffffffffffff168373ffffffffffffffffffffffffffffffffffffffff167f17307eab39ab6107e8899845ad3d59bd9653f200f220920489ca2b5937696c318360405161205e9190612c7a565b60405180910390a3505050565b612076848484611bd3565b61208284848484612495565b6120c1576040517f08c379a00000000000000000000000000000000000000000000000000000000081526004016120b890613f1f565b60405180910390fd5b50505050565b6060600b80546120d69061341b565b80601f01602080910402602001604051908101604052809291908181526020018280546121029061341b565b801561214f5780601f106121245761010080835404028352916020019161214f565b820191906000526020600020905b81548152906001019060200180831161213257829003601f168201915b5050505050905090565b6060600082036121a0576040518060400160405280600181526020017f300000000000000000000000000000000000000000000000000000000000000081525090506122b4565b600082905060005b600082146121d25780806121bb906136e1565b915050600a826121cb9190613f6e565b91506121a8565b60008167ffffffffffffffff8111156121ee576121ed612f5b565b5b6040519080825280601f01601f1916602001820160405280156122205781602001600182028036833780820191505090505b5090505b600085146122ad576001826122399190613e0d565b9150600a856122489190613f9f565b60306122549190613631565b60f81b81838151811061226a5761226961384d565b5b60200101907effffffffffffffffffffffffffffffffffffffffffffffffffffffffffffff1916908160001a905350600a856122a69190613f6e565b9450612224565b8093505050505b919050565b60007f01ffc9a7000000000000000000000000000000000000000000000000000000007bffffffffffffffffffffffffffffffffffffffffffffffffffffffff1916827bffffffffffffffffffffffffffffffffffffffffffffffffffffffff1916149050919050565b61232d838361261c565b61233a6000848484612495565b612379576040517f08c379a000000000000000000000000000000000000000000000000000000000815260040161237090613f1f565b60405180910390fd5b505050565b6123898383836127f5565b600073ffffffffffffffffffffffffffffffffffffffff168373ffffffffffffffffffffffffffffffffffffffff16036123cb576123c6816127fa565b61240a565b8173ffffffffffffffffffffffffffffffffffffffff168373ffffffffffffffffffffffffffffffffffffffff1614612409576124088382612843565b5b5b600073ffffffffffffffffffffffffffffffffffffffff168273ffffffffffffffffffffffffffffffffffffffff160361244c57612447816129b0565b61248b565b8273ffffffffffffffffffffffffffffffffffffffff168273ffffffffffffffffffffffffffffffffffffffff161461248a576124898282612a81565b5b5b505050565b505050565b60006124b68473ffffffffffffffffffffffffffffffffffffffff16612b00565b1561260f578373ffffffffffffffffffffffffffffffffffffffff1663150b7a026124df6119aa565b8786866040518563ffffffff1660e01b81526004016125019493929190614025565b6020604051808303816000875af192505050801561253d57506040513d601f19601f8201168201806040525081019061253a9190614086565b60015b6125bf573d806000811461256d576040519150601f19603f3d011682016040523d82523d6000602084013e612572565b606091505b5060008151036125b7576040517f08c379a00000000000000000000000000000000000000000000000000000000081526004016125ae90613f1f565b60405180910390fd5b805181602001fd5b63150b7a0260e01b7bffffffffffffffffffffffffffffffffffffffffffffffffffffffff1916817bffffffffffffffffffffffffffffffffffffffffffffffffffffffff191614915050612614565b600190505b949350505050565b600073ffffffffffffffffffffffffffffffffffffffff168273ffffffffffffffffffffffffffffffffffffffff160361268b576040517f08c379a0000000000000000000000000000000000000000000000000000000008152600401612682906140ff565b60405180910390fd5b612694816119b2565b156126d4576040517f08c379a00000000000000000000000000000000000000000000000000000000081526004016126cb9061416b565b60405180910390fd5b6126e06000838361237e565b6001600360008473ffffffffffffffffffffffffffffffffffffffff1673ffffffffffffffffffffffffffffffffffffffff16815260200190815260200160002060008282546127309190613631565b92505081905550816002600083815260200190815260200160002060006101000a81548173ffffffffffffffffffffffffffffffffffffffff021916908373ffffffffffffffffffffffffffffffffffffffff160217905550808273ffffffffffffffffffffffffffffffffffffffff16600073ffffffffffffffffffffffffffffffffffffffff167fddf252ad1be2c89b69c2b068fc378daa952ba7f163c4a11628f55a4df523b3ef60405160405180910390a46127f160008383612490565b5050565b505050565b6008805490506009600083815260200190815260200160002081905550600881908060018154018082558091505060019003906000526020600020016000909190919091505550565b60006001612850846112e3565b61285a9190613e0d565b905060006007600084815260200190815260200160002054905081811461293f576000600660008673ffffffffffffffffffffffffffffffffffffffff1673ffffffffffffffffffffffffffffffffffffffff168152602001908152602001600020600084815260200190815260200160002054905080600660008773ffffffffffffffffffffffffffffffffffffffff1673ffffffffffffffffffffffffffffffffffffffff168152602001908152602001600020600084815260200190815260200160002081905550816007600083815260200190815260200160002081905550505b6007600084815260200190815260200160002060009055600660008573ffffffffffffffffffffffffffffffffffffffff1673ffffffffffffffffffffffffffffffffffffffff16815260200190815260200160002060008381526020019081526020016000206000905550505050565b600060016008805490506129c49190613e0d565b90506000600960008481526020019081526020016000205490506000600883815481106129f4576129f361384d565b5b906000526020600020015490508060088381548110612a1657612a1561384d565b5b906000526020600020018190555081600960008381526020019081526020016000208190555060096000858152602001908152602001600020600090556008805480612a6557612a6461418b565b5b6001900381819060005260206000200160009055905550505050565b6000612a8c836112e3565b905081600660008573ffffffffffffffffffffffffffffffffffffffff1673ffffffffffffffffffffffffffffffffffffffff168152602001908152602001600020600083815260200190815260200160002081905550806007600084815260200190815260200160002081905550505050565b6000808273ffffffffffffffffffffffffffffffffffffffff163b119050919050565b828054612b2f9061341b565b90600052602060002090601f016020900481019282612b515760008555612b98565b82601f10612b6a57805160ff1916838001178555612b98565b82800160010185558215612b98579182015b82811115612b97578251825591602001919060010190612b7c565b5b509050612ba59190612ba9565b5090565b5b80821115612bc2576000816000905550600101612baa565b5090565b6000604051905090565b600080fd5b600080fd5b60007fffffffff0000000000000000000000000000000000000000000000000000000082169050919050565b612c0f81612bda565b8114612c1a57600080fd5b50565b600081359050612c2c81612c06565b92915050565b600060208284031215612c4857612c47612bd0565b5b6000612c5684828501612c1d565b91505092915050565b60008115159050919050565b612c7481612c5f565b82525050565b6000602082019050612c8f6000830184612c6b565b92915050565b612c9e81612c5f565b8114612ca957600080fd5b50565b600081359050612cbb81612c95565b92915050565b600060208284031215612cd757612cd6612bd0565b5b6000612ce584828501612cac565b91505092915050565b600081519050919050565b600082825260208201905092915050565b60005b83811015612d28578082015181840152602081019050612d0d565b83811115612d37576000848401525b50505050565b6000601f19601f8301169050919050565b6000612d5982612cee565b612d638185612cf9565b9350612d73818560208601612d0a565b612d7c81612d3d565b840191505092915050565b60006020820190508181036000830152612da18184612d4e565b905092915050565b6000819050919050565b612dbc81612da9565b8114612dc757600080fd5b50565b600081359050612dd981612db3565b92915050565b600060208284031215612df557612df4612bd0565b5b6000612e0384828501612dca565b91505092915050565b600073ffffffffffffffffffffffffffffffffffffffff82169050919050565b6000612e3782612e0c565b9050919050565b612e4781612e2c565b82525050565b6000602082019050612e626000830184612e3e565b92915050565b612e7181612e2c565b8114612e7c57600080fd5b50565b600081359050612e8e81612e68565b92915050565b60008060408385031215612eab57612eaa612bd0565b5b6000612eb985828601612e7f565b9250506020612eca85828601612dca565b9150509250929050565b612edd81612da9565b82525050565b6000602082019050612ef86000830184612ed4565b92915050565b600080600060608486031215612f1757612f16612bd0565b5b6000612f2586828701612e7f565b9350506020612f3686828701612e7f565b9250506040612f4786828701612dca565b9150509250925092565b600080fd5b600080fd5b7f4e487b7100000000000000000000000000000000000000000000000000000000600052604160045260246000fd5b612f9382612d3d565b810181811067ffffffffffffffff82111715612fb257612fb1612f5b565b5b80604052505050565b6000612fc5612bc6565b9050612fd18282612f8a565b919050565b600067ffffffffffffffff821115612ff157612ff0612f5b565b5b612ffa82612d3d565b9050602081019050919050565b82818337600083830152505050565b600061302961302484612fd6565b612fbb565b90508281526020810184848401111561304557613044612f56565b5b613050848285613007565b509392505050565b600082601f83011261306d5761306c612f51565b5b813561307d848260208601613016565b91505092915050565b60006020828403121561309c5761309b612bd0565b5b600082013567ffffffffffffffff8111156130ba576130b9612bd5565b5b6130c684828501613058565b91505092915050565b6000602082840312156130e5576130e4612bd0565b5b60006130f384828501612e7f565b91505092915050565b600081519050919050565b600082825260208201905092915050565b6000819050602082019050919050565b61313181612da9565b82525050565b60006131438383613128565b60208301905092915050565b6000602082019050919050565b6000613167826130fc565b6131718185613107565b935061317c83613118565b8060005b838110156131ad5781516131948882613137565b975061319f8361314f565b925050600181019050613180565b5085935050505092915050565b600060208201905081810360008301526131d4818461315c565b905092915050565b600080604083850312156131f3576131f2612bd0565b5b600061320185828601612e7f565b925050602061321285828601612cac565b9150509250929050565b600067ffffffffffffffff82111561323757613236612f5b565b5b61324082612d3d565b9050602081019050919050565b600061326061325b8461321c565b612fbb565b90508281526020810184848401111561327c5761327b612f56565b5b613287848285613007565b509392505050565b600082601f8301126132a4576132a3612f51565b5b81356132b484826020860161324d565b91505092915050565b600080600080608085870312156132d7576132d6612bd0565b5b60006132e587828801612e7f565b94505060206132f687828801612e7f565b935050604061330787828801612dca565b925050606085013567ffffffffffffffff81111561332857613327612bd5565b5b6133348782880161328f565b91505092959194509250565b6000806040838503121561335757613356612bd0565b5b600061336585828601612e7f565b925050602061337685828601612e7f565b9150509250929050565b7f4f776e61626c653a2063616c6c6572206973206e6f7420746865206f776e6572600082015250565b60006133b6602083612cf9565b91506133c182613380565b602082019050919050565b600060208201905081810360008301526133e5816133a9565b9050919050565b7f4e487b7100000000000000000000000000000000000000000000000000000000600052602260045260246000fd5b6000600282049050600182168061343357607f821691505b602082108103613446576134456133ec565b5b50919050565b7f4552433732313a20617070726f76656420717565727920666f72206e6f6e657860008201527f697374656e7420746f6b656e0000000000000000000000000000000000000000602082015250565b60006134a8602c83612cf9565b91506134b38261344c565b604082019050919050565b600060208201905081810360008301526134d78161349b565b9050919050565b7f4552433732313a20617070726f76616c20746f2063757272656e74206f776e6560008201527f7200000000000000000000000000000000000000000000000000000000000000602082015250565b600061353a602183612cf9565b9150613545826134de565b604082019050919050565b600060208201905081810360008301526135698161352d565b9050919050565b7f4552433732313a20617070726f76652063616c6c6572206973206e6f74206f7760008201527f6e6572206e6f7220617070726f76656420666f7220616c6c0000000000000000602082015250565b60006135cc603883612cf9565b91506135d782613570565b604082019050919050565b600060208201905081810360008301526135fb816135bf565b9050919050565b7f4e487b7100000000000000000000000000000000000000000000000000000000600052601160045260246000fd5b600061363c82612da9565b915061364783612da9565b9250827fffffffffffffffffffffffffffffffffffffffffffffffffffffffffffffffff0382111561367c5761367b613602565b5b828201905092915050565b600061369282612da9565b915061369d83612da9565b9250817fffffffffffffffffffffffffffffffffffffffffffffffffffffffffffffffff04831182151516156136d6576136d5613602565b5b828202905092915050565b60006136ec82612da9565b91507fffffffffffffffffffffffffffffffffffffffffffffffffffffffffffffffff820361371e5761371d613602565b5b600182019050919050565b7f4552433732313a207472616e736665722063616c6c6572206973206e6f74206f60008201527f776e6572206e6f7220617070726f766564000000000000000000000000000000602082015250565b6000613785603183612cf9565b915061379082613729565b604082019050919050565b600060208201905081810360008301526137b481613778565b9050919050565b7f455243373231456e756d657261626c653a206f776e657220696e646578206f7560008201527f74206f6620626f756e6473000000000000000000000000000000000000000000602082015250565b6000613817602b83612cf9565b9150613822826137bb565b604082019050919050565b600060208201905081810360008301526138468161380a565b9050919050565b7f4e487b7100000000000000000000000000000000000000000000000000000000600052603260045260246000fd5b7f455243373231456e756d657261626c653a20676c6f62616c20696e646578206f60008201527f7574206f6620626f756e64730000000000000000000000000000000000000000602082015250565b60006138d8602c83612cf9565b91506138e38261387c565b604082019050919050565b60006020820190508181036000830152613907816138cb565b9050919050565b7f4552433732313a206f776e657220717565727920666f72206e6f6e657869737460008201527f656e7420746f6b656e0000000000000000000000000000000000000000000000602082015250565b600061396a602983612cf9565b91506139758261390e565b604082019050919050565b600060208201905081810360008301526139998161395d565b9050919050565b7f4552433732313a2062616c616e636520717565727920666f7220746865207a6560008201527f726f206164647265737300000000000000000000000000000000000000000000602082015250565b60006139fc602a83612cf9565b9150613a07826139a0565b604082019050919050565b60006020820190508181036000830152613a2b816139ef565b9050919050565b7f4552433732314d657461646174613a2055524920717565727920666f72206e6f60008201527f6e6578697374656e7420746f6b656e0000000000000000000000000000000000602082015250565b6000613a8e602f83612cf9565b9150613a9982613a32565b604082019050919050565b60006020820190508181036000830152613abd81613a81565b9050919050565b600081905092915050565b60008190508160005260206000209050919050565b60008154613af18161341b565b613afb8186613ac4565b94506001821660008114613b165760018114613b2757613b5a565b60ff19831686528186019350613b5a565b613b3085613acf565b60005b83811015613b5257815481890152600182019150602081019050613b33565b838801955050505b50505092915050565b6000613b6e82612cee565b613b788185613ac4565b9350613b88818560208601612d0a565b80840191505092915050565b6000613ba08286613ae4565b9150613bac8285613b63565b9150613bb88284613ae4565b9150819050949350505050565b7f4f776e61626c653a206e6577206f776e657220697320746865207a65726f206160008201527f6464726573730000000000000000000000000000000000000000000000000000602082015250565b6000613c21602683612cf9565b9150613c2c82613bc5565b604082019050919050565b60006020820190508181036000830152613c5081613c14565b9050919050565b7f4552433732313a206f70657261746f7220717565727920666f72206e6f6e657860008201527f697374656e7420746f6b656e0000000000000000000000000000000000000000602082015250565b6000613cb3602c83612cf9565b9150613cbe82613c57565b604082019050919050565b60006020820190508181036000830152613ce281613ca6565b9050919050565b7f4552433732313a207472616e736665722066726f6d20696e636f72726563742060008201527f6f776e6572000000000000000000000000000000000000000000000000000000602082015250565b6000613d45602583612cf9565b9150613d5082613ce9565b604082019050919050565b60006020820190508181036000830152613d7481613d38565b9050919050565b7f4552433732313a207472616e7366657220746f20746865207a65726f2061646460008201527f7265737300000000000000000000000000000000000000000000000000000000602082015250565b6000613dd7602483612cf9565b9150613de282613d7b565b604082019050919050565b60006020820190508181036000830152613e0681613dca565b9050919050565b6000613e1882612da9565b9150613e2383612da9565b925082821015613e3657613e35613602565b5b828203905092915050565b7f4552433732313a20617070726f766520746f2063616c6c657200000000000000600082015250565b6000613e77601983612cf9565b9150613e8282613e41565b602082019050919050565b60006020820190508181036000830152613ea681613e6a565b9050919050565b7f4552433732313a207472616e7366657220746f206e6f6e20455243373231526560008201527f63656976657220696d706c656d656e7465720000000000000000000000000000602082015250565b6000613f09603283612cf9565b9150613f1482613ead565b604082019050919050565b60006020820190508181036000830152613f3881613efc565b9050919050565b7f4e487b7100000000000000000000000000000000000000000000000000000000600052601260045260246000fd5b6000613f7982612da9565b9150613f8483612da9565b925082613f9457613f93613f3f565b5b828204905092915050565b6000613faa82612da9565b9150613fb583612da9565b925082613fc557613fc4613f3f565b5b828206905092915050565b600081519050919050565b600082825260208201905092915050565b6000613ff782613fd0565b6140018185613fdb565b9350614011818560208601612d0a565b61401a81612d3d565b840191505092915050565b600060808201905061403a6000830187612e3e565b6140476020830186612e3e565b6140546040830185612ed4565b81810360608301526140668184613fec565b905095945050505050565b60008151905061408081612c06565b92915050565b60006020828403121561409c5761409b612bd0565b5b60006140aa84828501614071565b91505092915050565b7f4552433732313a206d696e7420746f20746865207a65726f2061646472657373600082015250565b60006140e9602083612cf9565b91506140f4826140b3565b602082019050919050565b60006020820190508181036000830152614118816140dc565b9050919050565b7f4552433732313a20746f6b656e20616c7265616479206d696e74656400000000600082015250565b6000614155601c83612cf9565b91506141608261411f565b602082019050919050565b6000602082019050818103600083015261418481614148565b9050919050565b7f4e487b7100000000000000000000000000000000000000000000000000000000600052603160045260246000fdfea26469706673582212208cb48d017b843c5b83f421e059cfa9e2553e686ae3f06632d70bf44bd80c510b64736f6c634300080d0033",
  "linkReferences": {},
  "deployedLinkReferences": {}
}