{
    "_format": "hh-sol-artifact-1",
    "contractName": "BobotGenesis",
    "sourceName": "contracts/BobotGenesis.sol",
    "abi": [
        {
            "inputs": [
                {
                    "internalType": "string",
                    "name": "_name",
                    "type": "string"
                },
                {
                    "internalType": "string",
                    "name": "_symbol",
                    "type": "string"
                },
                {
                    "internalType": "string",
                    "name": "_initBaseURI",
                    "type": "string"
                }
            ],
            "stateMutability": "nonpayable",
            "type": "constructor"
        },
        {
            "anonymous": false,
            "inputs": [
                {
                    "indexed": true,
                    "internalType": "address",
                    "name": "owner",
                    "type": "address"
                },
                {
                    "indexed": true,
                    "internalType": "address",
                    "name": "approved",
                    "type": "address"
                },
                {
                    "indexed": true,
                    "internalType": "uint256",
                    "name": "tokenId",
                    "type": "uint256"
                }
            ],
            "name": "Approval",
            "type": "event"
        },
        {
            "anonymous": false,
            "inputs": [
                {
                    "indexed": true,
                    "internalType": "address",
                    "name": "owner",
                    "type": "address"
                },
                {
                    "indexed": true,
                    "internalType": "address",
                    "name": "operator",
                    "type": "address"
                },
                {
                    "indexed": false,
                    "internalType": "bool",
                    "name": "approved",
                    "type": "bool"
                }
            ],
            "name": "ApprovalForAll",
            "type": "event"
        },
        {
            "anonymous": false,
            "inputs": [
                {
                    "indexed": true,
                    "internalType": "address",
                    "name": "previousOwner",
                    "type": "address"
                },
                {
                    "indexed": true,
                    "internalType": "address",
                    "name": "newOwner",
                    "type": "address"
                }
            ],
            "name": "OwnershipTransferred",
            "type": "event"
        },
        {
            "anonymous": false,
            "inputs": [
                {
                    "indexed": true,
                    "internalType": "address",
                    "name": "from",
                    "type": "address"
                },
                {
                    "indexed": true,
                    "internalType": "address",
                    "name": "to",
                    "type": "address"
                },
                {
                    "indexed": true,
                    "internalType": "uint256",
                    "name": "tokenId",
                    "type": "uint256"
                }
            ],
            "name": "Transfer",
            "type": "event"
        },
        {
            "inputs": [
                {
                    "internalType": "address",
                    "name": "to",
                    "type": "address"
                },
                {
                    "internalType": "uint256",
                    "name": "tokenId",
                    "type": "uint256"
                }
            ],
            "name": "approve",
            "outputs": [],
            "stateMutability": "nonpayable",
            "type": "function"
        },
        {
            "inputs": [
                {
                    "internalType": "address",
                    "name": "owner",
                    "type": "address"
                }
            ],
            "name": "balanceOf",
            "outputs": [
                {
                    "internalType": "uint256",
                    "name": "",
                    "type": "uint256"
                }
            ],
            "stateMutability": "view",
            "type": "function"
        },
        {
            "inputs": [],
            "name": "baseExtention",
            "outputs": [
                {
                    "internalType": "string",
                    "name": "",
                    "type": "string"
                }
            ],
            "stateMutability": "view",
            "type": "function"
        },
        {
            "inputs": [],
            "name": "baseURI",
            "outputs": [
                {
                    "internalType": "string",
                    "name": "",
                    "type": "string"
                }
            ],
            "stateMutability": "view",
            "type": "function"
        },
        {
            "inputs": [],
            "name": "cost",
            "outputs": [
                {
                    "internalType": "uint256",
                    "name": "",
                    "type": "uint256"
                }
            ],
            "stateMutability": "view",
            "type": "function"
        },
        {
            "inputs": [
                {
                    "internalType": "uint256",
                    "name": "tokenId",
                    "type": "uint256"
                }
            ],
            "name": "getApproved",
            "outputs": [
                {
                    "internalType": "address",
                    "name": "",
                    "type": "address"
                }
            ],
            "stateMutability": "view",
            "type": "function"
        },
        {
            "inputs": [
                {
                    "internalType": "address",
                    "name": "owner",
                    "type": "address"
                },
                {
                    "internalType": "address",
                    "name": "operator",
                    "type": "address"
                }
            ],
            "name": "isApprovedForAll",
            "outputs": [
                {
                    "internalType": "bool",
                    "name": "",
                    "type": "bool"
                }
            ],
            "stateMutability": "view",
            "type": "function"
        },
        {
            "inputs": [],
            "name": "maxMintAmount",
            "outputs": [
                {
                    "internalType": "uint256",
                    "name": "",
                    "type": "uint256"
                }
            ],
            "stateMutability": "view",
            "type": "function"
        },
        {
            "inputs": [],
            "name": "maxSupply",
            "outputs": [
                {
                    "internalType": "uint256",
                    "name": "",
                    "type": "uint256"
                }
            ],
            "stateMutability": "view",
            "type": "function"
        },
        {
            "inputs": [
                {
                    "internalType": "address",
                    "name": "_to",
                    "type": "address"
                },
                {
                    "internalType": "uint256",
                    "name": "_mintAmount",
                    "type": "uint256"
                }
            ],
            "name": "mint",
            "outputs": [],
            "stateMutability": "payable",
            "type": "function"
        },
        {
            "inputs": [],
            "name": "name",
            "outputs": [
                {
                    "internalType": "string",
                    "name": "",
                    "type": "string"
                }
            ],
            "stateMutability": "view",
            "type": "function"
        },
        {
            "inputs": [],
            "name": "owner",
            "outputs": [
                {
                    "internalType": "address",
                    "name": "",
                    "type": "address"
                }
            ],
            "stateMutability": "view",
            "type": "function"
        },
        {
            "inputs": [
                {
                    "internalType": "uint256",
                    "name": "tokenId",
                    "type": "uint256"
                }
            ],
            "name": "ownerOf",
            "outputs": [
                {
                    "internalType": "address",
                    "name": "",
                    "type": "address"
                }
            ],
            "stateMutability": "view",
            "type": "function"
        },
        {
            "inputs": [
                {
                    "internalType": "bool",
                    "name": "_state",
                    "type": "bool"
                }
            ],
            "name": "pause",
            "outputs": [],
            "stateMutability": "nonpayable",
            "type": "function"
        },
        {
            "inputs": [],
            "name": "paused",
            "outputs": [
                {
                    "internalType": "bool",
                    "name": "",
                    "type": "bool"
                }
            ],
            "stateMutability": "view",
            "type": "function"
        },
        {
            "inputs": [],
            "name": "renounceOwnership",
            "outputs": [],
            "stateMutability": "nonpayable",
            "type": "function"
        },
        {
            "inputs": [
                {
                    "internalType": "address",
                    "name": "from",
                    "type": "address"
                },
                {
                    "internalType": "address",
                    "name": "to",
                    "type": "address"
                },
                {
                    "internalType": "uint256",
                    "name": "tokenId",
                    "type": "uint256"
                }
            ],
            "name": "safeTransferFrom",
            "outputs": [],
            "stateMutability": "nonpayable",
            "type": "function"
        },
        {
            "inputs": [
                {
                    "internalType": "address",
                    "name": "from",
                    "type": "address"
                },
                {
                    "internalType": "address",
                    "name": "to",
                    "type": "address"
                },
                {
                    "internalType": "uint256",
                    "name": "tokenId",
                    "type": "uint256"
                },
                {
                    "internalType": "bytes",
                    "name": "_data",
                    "type": "bytes"
                }
            ],
            "name": "safeTransferFrom",
            "outputs": [],
            "stateMutability": "nonpayable",
            "type": "function"
        },
        {
            "inputs": [
                {
                    "internalType": "address",
                    "name": "operator",
                    "type": "address"
                },
                {
                    "internalType": "bool",
                    "name": "approved",
                    "type": "bool"
                }
            ],
            "name": "setApprovalForAll",
            "outputs": [],
            "stateMutability": "nonpayable",
            "type": "function"
        },
        {
            "inputs": [
                {
                    "internalType": "string",
                    "name": "_newBaseExtentions",
                    "type": "string"
                }
            ],
            "name": "setBaseExtentions",
            "outputs": [],
            "stateMutability": "nonpayable",
            "type": "function"
        },
        {
            "inputs": [
                {
                    "internalType": "string",
                    "name": "_newBaseURI",
                    "type": "string"
                }
            ],
            "name": "setBaseURI",
            "outputs": [],
            "stateMutability": "nonpayable",
            "type": "function"
        },
        {
            "inputs": [
                {
                    "internalType": "uint256",
                    "name": "_newCost",
                    "type": "uint256"
                }
            ],
            "name": "setCost",
            "outputs": [],
            "stateMutability": "nonpayable",
            "type": "function"
        },
        {
            "inputs": [
                {
                    "internalType": "uint256",
                    "name": "_newmaxMintAmount",
                    "type": "uint256"
                }
            ],
            "name": "setmaxMintAmount",
            "outputs": [],
            "stateMutability": "nonpayable",
            "type": "function"
        },
        {
            "inputs": [
                {
                    "internalType": "bytes4",
                    "name": "interfaceId",
                    "type": "bytes4"
                }
            ],
            "name": "supportsInterface",
            "outputs": [
                {
                    "internalType": "bool",
                    "name": "",
                    "type": "bool"
                }
            ],
            "stateMutability": "view",
            "type": "function"
        },
        {
            "inputs": [],
            "name": "symbol",
            "outputs": [
                {
                    "internalType": "string",
                    "name": "",
                    "type": "string"
                }
            ],
            "stateMutability": "view",
            "type": "function"
        },
        {
            "inputs": [
                {
                    "internalType": "uint256",
                    "name": "index",
                    "type": "uint256"
                }
            ],
            "name": "tokenByIndex",
            "outputs": [
                {
                    "internalType": "uint256",
                    "name": "",
                    "type": "uint256"
                }
            ],
            "stateMutability": "view",
            "type": "function"
        },
        {
            "inputs": [
                {
                    "internalType": "address",
                    "name": "owner",
                    "type": "address"
                },
                {
                    "internalType": "uint256",
                    "name": "index",
                    "type": "uint256"
                }
            ],
            "name": "tokenOfOwnerByIndex",
            "outputs": [
                {
                    "internalType": "uint256",
                    "name": "",
                    "type": "uint256"
                }
            ],
            "stateMutability": "view",
            "type": "function"
        },
        {
            "inputs": [
                {
                    "internalType": "uint256",
                    "name": "tokenID",
                    "type": "uint256"
                }
            ],
            "name": "tokenURI",
            "outputs": [
                {
                    "internalType": "string",
                    "name": "",
                    "type": "string"
                }
            ],
            "stateMutability": "view",
            "type": "function"
        },
        {
            "inputs": [],
            "name": "totalSupply",
            "outputs": [
                {
                    "internalType": "uint256",
                    "name": "",
                    "type": "uint256"
                }
            ],
            "stateMutability": "view",
            "type": "function"
        },
        {
            "inputs": [
                {
                    "internalType": "address",
                    "name": "from",
                    "type": "address"
                },
                {
                    "internalType": "address",
                    "name": "to",
                    "type": "address"
                },
                {
                    "internalType": "uint256",
                    "name": "tokenId",
                    "type": "uint256"
                }
            ],
            "name": "transferFrom",
            "outputs": [],
            "stateMutability": "nonpayable",
            "type": "function"
        },
        {
            "inputs": [
                {
                    "internalType": "address",
                    "name": "newOwner",
                    "type": "address"
                }
            ],
            "name": "transferOwnership",
            "outputs": [],
            "stateMutability": "nonpayable",
            "type": "function"
        },
        {
            "inputs": [
                {
                    "internalType": "address",
                    "name": "_owner",
                    "type": "address"
                }
            ],
            "name": "walletOfOwner",
            "outputs": [
                {
                    "internalType": "uint256[]",
                    "name": "",
                    "type": "uint256[]"
                }
            ],
            "stateMutability": "view",
            "type": "function"
        },
        {
            "inputs": [],
            "name": "withdraw",
            "outputs": [],
            "stateMutability": "payable",
            "type": "function"
        }
    ],
    "bytecode": "0x60806040526040518060400160405280600581526020017f2e6a736f6e000000000000000000000000000000000000000000000000000000815250600c90805190602001906200005192919062000e79565b5066470de4df820000600d55610bb8600e556014600f556000601060006101000a81548160ff0219169083151502179055503480156200009057600080fd5b50604051620058f1380380620058f18339818101604052810190620000b6919062000fde565b82828160009080519060200190620000d092919062000e79565b508060019080519060200190620000e992919062000e79565b5050506200010c620001006200013960201b60201c565b6200014160201b60201c565b6200011d816200020760201b60201c565b62000130336009620002b260201b60201c565b50505062001753565b600033905090565b6000600a60009054906101000a900473ffffffffffffffffffffffffffffffffffffffff16905081600a60006101000a81548173ffffffffffffffffffffffffffffffffffffffff021916908373ffffffffffffffffffffffffffffffffffffffff1602179055508173ffffffffffffffffffffffffffffffffffffffff168173ffffffffffffffffffffffffffffffffffffffff167f8be0079c531659141344cd1fd0a4f28419497f9722a3daafe3b4186f6b6457e060405160405180910390a35050565b620002176200013960201b60201c565b73ffffffffffffffffffffffffffffffffffffffff166200023d620003c560201b60201c565b73ffffffffffffffffffffffffffffffffffffffff161462000296576040517f08c379a00000000000000000000000000000000000000000000000000000000081526004016200028d9062001281565b60405180910390fd5b80600b9080519060200190620002ae92919062000e79565b5050565b6000620002c4620003ef60201b60201c565b9050601060009054906101000a900460ff1615620002e157600080fd5b60008211620002ef57600080fd5b600f54821115620002ff57600080fd5b600e5482826200031091906200132f565b11156200031c57600080fd5b6200032c620003c560201b60201c565b73ffffffffffffffffffffffffffffffffffffffff163373ffffffffffffffffffffffffffffffffffffffff16146200037d5781600d546200036f91906200138c565b3410156200037c57600080fd5b5b6000600190505b828111620003bf57620003ab8482846200039f91906200132f565b620003fc60201b60201c565b80620003b79062001534565b905062000384565b50505050565b6000600a60009054906101000a900473ffffffffffffffffffffffffffffffffffffffff16905090565b6000600880549050905090565b6200041e8282604051806020016040528060008152506200042260201b60201c565b5050565b6200043483836200049060201b60201c565b6200044960008484846200068a60201b60201c565b6200048b576040517f08c379a00000000000000000000000000000000000000000000000000000000081526004016200048290620011f9565b60405180910390fd5b505050565b600073ffffffffffffffffffffffffffffffffffffffff168273ffffffffffffffffffffffffffffffffffffffff16141562000503576040517f08c379a0000000000000000000000000000000000000000000000000000000008152600401620004fa906200125f565b60405180910390fd5b62000514816200084460201b60201c565b1562000557576040517f08c379a00000000000000000000000000000000000000000000000000000000081526004016200054e906200121b565b60405180910390fd5b6200056b60008383620008b060201b60201c565b6001600360008473ffffffffffffffffffffffffffffffffffffffff1673ffffffffffffffffffffffffffffffffffffffff1681526020019081526020016000206000828254620005bd91906200132f565b92505081905550816002600083815260200190815260200160002060006101000a81548173ffffffffffffffffffffffffffffffffffffffff021916908373ffffffffffffffffffffffffffffffffffffffff160217905550808273ffffffffffffffffffffffffffffffffffffffff16600073ffffffffffffffffffffffffffffffffffffffff167fddf252ad1be2c89b69c2b068fc378daa952ba7f163c4a11628f55a4df523b3ef60405160405180910390a46200068660008383620009f760201b60201c565b5050565b6000620006b88473ffffffffffffffffffffffffffffffffffffffff16620009fc60201b620018461760201c565b1562000837578373ffffffffffffffffffffffffffffffffffffffff1663150b7a02620006ea6200013960201b60201c565b8786866040518563ffffffff1660e01b81526004016200070e9493929190620011a5565b602060405180830381600087803b1580156200072957600080fd5b505af19250505080156200075d57506040513d601f19601f820116820180604052508101906200075a919062000fb2565b60015b620007e6573d806000811462000790576040519150601f19603f3d011682016040523d82523d6000602084013e62000795565b606091505b50600081511415620007de576040517f08c379a0000000000000000000000000000000000000000000000000000000008152600401620007d590620011f9565b60405180910390fd5b805181602001fd5b63150b7a0260e01b7bffffffffffffffffffffffffffffffffffffffffffffffffffffffff1916817bffffffffffffffffffffffffffffffffffffffffffffffffffffffff1916149150506200083c565b600190505b949350505050565b60008073ffffffffffffffffffffffffffffffffffffffff166002600084815260200190815260200160002060009054906101000a900473ffffffffffffffffffffffffffffffffffffffff1673ffffffffffffffffffffffffffffffffffffffff1614159050919050565b620008c883838362000a1f60201b620018691760201c565b600073ffffffffffffffffffffffffffffffffffffffff168373ffffffffffffffffffffffffffffffffffffffff16141562000915576200090f8162000a2460201b60201c565b6200095d565b8173ffffffffffffffffffffffffffffffffffffffff168373ffffffffffffffffffffffffffffffffffffffff16146200095c576200095b838262000a6d60201b60201c565b5b5b600073ffffffffffffffffffffffffffffffffffffffff168273ffffffffffffffffffffffffffffffffffffffff161415620009aa57620009a48162000bea60201b60201c565b620009f2565b8273ffffffffffffffffffffffffffffffffffffffff168273ffffffffffffffffffffffffffffffffffffffff1614620009f157620009f0828262000d3260201b60201c565b5b5b505050565b505050565b6000808273ffffffffffffffffffffffffffffffffffffffff163b119050919050565b505050565b6008805490506009600083815260200190815260200160002081905550600881908060018154018082558091505060019003906000526020600020016000909190919091505550565b6000600162000a878462000dbe60201b6200130f1760201c565b62000a939190620013ed565b905060006007600084815260200190815260200160002054905081811462000b79576000600660008673ffffffffffffffffffffffffffffffffffffffff1673ffffffffffffffffffffffffffffffffffffffff168152602001908152602001600020600084815260200190815260200160002054905080600660008773ffffffffffffffffffffffffffffffffffffffff1673ffffffffffffffffffffffffffffffffffffffff168152602001908152602001600020600084815260200190815260200160002081905550816007600083815260200190815260200160002081905550505b6007600084815260200190815260200160002060009055600660008573ffffffffffffffffffffffffffffffffffffffff1673ffffffffffffffffffffffffffffffffffffffff16815260200190815260200160002060008381526020019081526020016000206000905550505050565b6000600160088054905062000c009190620013ed565b905060006009600084815260200190815260200160002054905060006008838154811062000c57577f4e487b7100000000000000000000000000000000000000000000000000000000600052603260045260246000fd5b90600052602060002001549050806008838154811062000ca0577f4e487b7100000000000000000000000000000000000000000000000000000000600052603260045260246000fd5b90600052602060002001819055508160096000838152602001908152602001600020819055506009600085815260200190815260200160002060009055600880548062000d16577f4e487b7100000000000000000000000000000000000000000000000000000000600052603160045260246000fd5b6001900381819060005260206000200160009055905550505050565b600062000d4a8362000dbe60201b6200130f1760201c565b905081600660008573ffffffffffffffffffffffffffffffffffffffff1673ffffffffffffffffffffffffffffffffffffffff168152602001908152602001600020600083815260200190815260200160002081905550806007600084815260200190815260200160002081905550505050565b60008073ffffffffffffffffffffffffffffffffffffffff168273ffffffffffffffffffffffffffffffffffffffff16141562000e32576040517f08c379a000000000000000000000000000000000000000000000000000000000815260040162000e29906200123d565b60405180910390fd5b600360008373ffffffffffffffffffffffffffffffffffffffff1673ffffffffffffffffffffffffffffffffffffffff168152602001908152602001600020549050919050565b82805462000e8790620014c8565b90600052602060002090601f01602090048101928262000eab576000855562000ef7565b82601f1062000ec657805160ff191683800117855562000ef7565b8280016001018555821562000ef7579182015b8281111562000ef657825182559160200191906001019062000ed9565b5b50905062000f06919062000f0a565b5090565b5b8082111562000f2557600081600090555060010162000f0b565b5090565b600062000f4062000f3a84620012cc565b620012a3565b90508281526020810184848401111562000f5957600080fd5b62000f6684828562001492565b509392505050565b60008151905062000f7f8162001739565b92915050565b600082601f83011262000f9757600080fd5b815162000fa984826020860162000f29565b91505092915050565b60006020828403121562000fc557600080fd5b600062000fd58482850162000f6e565b91505092915050565b60008060006060848603121562000ff457600080fd5b600084015167ffffffffffffffff8111156200100f57600080fd5b6200101d8682870162000f85565b935050602084015167ffffffffffffffff8111156200103b57600080fd5b620010498682870162000f85565b925050604084015167ffffffffffffffff8111156200106757600080fd5b620010758682870162000f85565b9150509250925092565b6200108a8162001428565b82525050565b60006200109d8262001302565b620010a981856200130d565b9350620010bb81856020860162001492565b620010c6816200160f565b840191505092915050565b6000620010e06032836200131e565b9150620010ed8262001620565b604082019050919050565b600062001107601c836200131e565b915062001114826200166f565b602082019050919050565b60006200112e602a836200131e565b91506200113b8262001698565b604082019050919050565b6000620011556020836200131e565b91506200116282620016e7565b602082019050919050565b60006200117c6020836200131e565b9150620011898262001710565b602082019050919050565b6200119f8162001488565b82525050565b6000608082019050620011bc60008301876200107f565b620011cb60208301866200107f565b620011da604083018562001194565b8181036060830152620011ee818462001090565b905095945050505050565b600060208201905081810360008301526200121481620010d1565b9050919050565b600060208201905081810360008301526200123681620010f8565b9050919050565b6000602082019050818103600083015262001258816200111f565b9050919050565b600060208201905081810360008301526200127a8162001146565b9050919050565b600060208201905081810360008301526200129c816200116d565b9050919050565b6000620012af620012c2565b9050620012bd8282620014fe565b919050565b6000604051905090565b600067ffffffffffffffff821115620012ea57620012e9620015e0565b5b620012f5826200160f565b9050602081019050919050565b600081519050919050565b600082825260208201905092915050565b600082825260208201905092915050565b60006200133c8262001488565b9150620013498362001488565b9250827fffffffffffffffffffffffffffffffffffffffffffffffffffffffffffffffff0382111562001381576200138062001582565b5b828201905092915050565b6000620013998262001488565b9150620013a68362001488565b9250817fffffffffffffffffffffffffffffffffffffffffffffffffffffffffffffffff0483118215151615620013e257620013e162001582565b5b828202905092915050565b6000620013fa8262001488565b9150620014078362001488565b9250828210156200141d576200141c62001582565b5b828203905092915050565b6000620014358262001468565b9050919050565b60007fffffffff0000000000000000000000000000000000000000000000000000000082169050919050565b600073ffffffffffffffffffffffffffffffffffffffff82169050919050565b6000819050919050565b60005b83811015620014b257808201518184015260208101905062001495565b83811115620014c2576000848401525b50505050565b60006002820490506001821680620014e157607f821691505b60208210811415620014f857620014f7620015b1565b5b50919050565b62001509826200160f565b810181811067ffffffffffffffff821117156200152b576200152a620015e0565b5b80604052505050565b6000620015418262001488565b91507fffffffffffffffffffffffffffffffffffffffffffffffffffffffffffffffff82141562001577576200157662001582565b5b600182019050919050565b7f4e487b7100000000000000000000000000000000000000000000000000000000600052601160045260246000fd5b7f4e487b7100000000000000000000000000000000000000000000000000000000600052602260045260246000fd5b7f4e487b7100000000000000000000000000000000000000000000000000000000600052604160045260246000fd5b6000601f19601f8301169050919050565b7f4552433732313a207472616e7366657220746f206e6f6e20455243373231526560008201527f63656976657220696d706c656d656e7465720000000000000000000000000000602082015250565b7f4552433732313a20746f6b656e20616c7265616479206d696e74656400000000600082015250565b7f4552433732313a2062616c616e636520717565727920666f7220746865207a6560008201527f726f206164647265737300000000000000000000000000000000000000000000602082015250565b7f4552433732313a206d696e7420746f20746865207a65726f2061646472657373600082015250565b7f4f776e61626c653a2063616c6c6572206973206e6f7420746865206f776e6572600082015250565b62001744816200143c565b81146200175057600080fd5b50565b61418e80620017636000396000f3fe6080604052600436106101ee5760003560e01c80634ba5f3781161010d5780637f00c7a6116100a0578063b88d4fde1161006f578063b88d4fde146106cf578063c87b56dd146106f8578063d5abeb0114610735578063e985e9c514610760578063f2fde38b1461079d576101ee565b80637f00c7a6146106275780638da5cb5b1461065057806395d89b411461067b578063a22cb465146106a6576101ee565b80636352211e116100dc5780636352211e1461056b5780636c0360eb146105a857806370a08231146105d3578063715018a614610610576101ee565b80634ba5f378146104af5780634f6ccce7146104da57806355f804b3146105175780635c975abb14610540576101ee565b806323b872dd1161018557806340c10f191161015457806340c10f191461040457806342842e0e14610420578063438b63001461044957806344a0d68a14610486576101ee565b806323b872dd1461036b57806325c13203146103945780632f745c59146103bd5780633ccfd60b146103fa576101ee565b8063095ea7b3116101c1578063095ea7b3146102c157806313faede6146102ea57806318160ddd14610315578063239c70ae14610340576101ee565b806301ffc9a7146101f357806302329a291461023057806306fdde0314610259578063081812fc14610284575b600080fd5b3480156101ff57600080fd5b5061021a60048036038101906102159190612f21565b6107c6565b60405161022791906134e1565b60405180910390f35b34801561023c57600080fd5b5061025760048036038101906102529190612ef8565b610840565b005b34801561026557600080fd5b5061026e6108d9565b60405161027b91906134fc565b60405180910390f35b34801561029057600080fd5b506102ab60048036038101906102a69190612fb4565b61096b565b6040516102b89190613458565b60405180910390f35b3480156102cd57600080fd5b506102e860048036038101906102e39190612ebc565b6109f0565b005b3480156102f657600080fd5b506102ff610b08565b60405161030c919061375e565b60405180910390f35b34801561032157600080fd5b5061032a610b0e565b604051610337919061375e565b60405180910390f35b34801561034c57600080fd5b50610355610b1b565b604051610362919061375e565b60405180910390f35b34801561037757600080fd5b50610392600480360381019061038d9190612db6565b610b21565b005b3480156103a057600080fd5b506103bb60048036038101906103b69190612f73565b610b81565b005b3480156103c957600080fd5b506103e460048036038101906103df9190612ebc565b610c17565b6040516103f1919061375e565b60405180910390f35b610402610cbc565b005b61041e60048036038101906104199190612ebc565b610d78565b005b34801561042c57600080fd5b5061044760048036038101906104429190612db6565b610e63565b005b34801561045557600080fd5b50610470600480360381019061046b9190612d51565b610e83565b60405161047d91906134bf565b60405180910390f35b34801561049257600080fd5b506104ad60048036038101906104a89190612fb4565b610f7b565b005b3480156104bb57600080fd5b506104c4611001565b6040516104d191906134fc565b60405180910390f35b3480156104e657600080fd5b5061050160048036038101906104fc9190612fb4565b61108f565b60405161050e919061375e565b60405180910390f35b34801561052357600080fd5b5061053e60048036038101906105399190612f73565b611126565b005b34801561054c57600080fd5b506105556111bc565b60405161056291906134e1565b60405180910390f35b34801561057757600080fd5b50610592600480360381019061058d9190612fb4565b6111cf565b60405161059f9190613458565b60405180910390f35b3480156105b457600080fd5b506105bd611281565b6040516105ca91906134fc565b60405180910390f35b3480156105df57600080fd5b506105fa60048036038101906105f59190612d51565b61130f565b604051610607919061375e565b60405180910390f35b34801561061c57600080fd5b506106256113c7565b005b34801561063357600080fd5b5061064e60048036038101906106499190612fb4565b61144f565b005b34801561065c57600080fd5b506106656114d5565b6040516106729190613458565b60405180910390f35b34801561068757600080fd5b506106906114ff565b60405161069d91906134fc565b60405180910390f35b3480156106b257600080fd5b506106cd60048036038101906106c89190612e80565b611591565b005b3480156106db57600080fd5b506106f660048036038101906106f19190612e05565b6115a7565b005b34801561070457600080fd5b5061071f600480360381019061071a9190612fb4565b611609565b60405161072c91906134fc565b60405180910390f35b34801561074157600080fd5b5061074a6116b4565b604051610757919061375e565b60405180910390f35b34801561076c57600080fd5b5061078760048036038101906107829190612d7a565b6116ba565b60405161079491906134e1565b60405180910390f35b3480156107a957600080fd5b506107c460048036038101906107bf9190612d51565b61174e565b005b60007f780e9d63000000000000000000000000000000000000000000000000000000007bffffffffffffffffffffffffffffffffffffffffffffffffffffffff1916827bffffffffffffffffffffffffffffffffffffffffffffffffffffffff1916148061083957506108388261186e565b5b9050919050565b610848611950565b73ffffffffffffffffffffffffffffffffffffffff166108666114d5565b73ffffffffffffffffffffffffffffffffffffffff16146108bc576040517f08c379a00000000000000000000000000000000000000000000000000000000081526004016108b3906136be565b60405180910390fd5b80601060006101000a81548160ff02191690831515021790555050565b6060600080546108e890613a5c565b80601f016020809104026020016040519081016040528092919081815260200182805461091490613a5c565b80156109615780601f1061093657610100808354040283529160200191610961565b820191906000526020600020905b81548152906001019060200180831161094457829003601f168201915b5050505050905090565b600061097682611958565b6109b5576040517f08c379a00000000000000000000000000000000000000000000000000000000081526004016109ac9061369e565b60405180910390fd5b6004600083815260200190815260200160002060009054906101000a900473ffffffffffffffffffffffffffffffffffffffff169050919050565b60006109fb826111cf565b90508073ffffffffffffffffffffffffffffffffffffffff168373ffffffffffffffffffffffffffffffffffffffff161415610a6c576040517f08c379a0000000000000000000000000000000000000000000000000000000008152600401610a63906136fe565b60405180910390fd5b8073ffffffffffffffffffffffffffffffffffffffff16610a8b611950565b73ffffffffffffffffffffffffffffffffffffffff161480610aba5750610ab981610ab4611950565b6116ba565b5b610af9576040517f08c379a0000000000000000000000000000000000000000000000000000000008152600401610af09061361e565b60405180910390fd5b610b0383836119c4565b505050565b600d5481565b6000600880549050905090565b600f5481565b610b32610b2c611950565b82611a7d565b610b71576040517f08c379a0000000000000000000000000000000000000000000000000000000008152600401610b689061371e565b60405180910390fd5b610b7c838383611b5b565b505050565b610b89611950565b73ffffffffffffffffffffffffffffffffffffffff16610ba76114d5565b73ffffffffffffffffffffffffffffffffffffffff1614610bfd576040517f08c379a0000000000000000000000000000000000000000000000000000000008152600401610bf4906136be565b60405180910390fd5b80600c9080519060200190610c13929190612b75565b5050565b6000610c228361130f565b8210610c63576040517f08c379a0000000000000000000000000000000000000000000000000000000008152600401610c5a9061351e565b60405180910390fd5b600660008473ffffffffffffffffffffffffffffffffffffffff1673ffffffffffffffffffffffffffffffffffffffff168152602001908152602001600020600083815260200190815260200160002054905092915050565b610cc4611950565b73ffffffffffffffffffffffffffffffffffffffff16610ce26114d5565b73ffffffffffffffffffffffffffffffffffffffff1614610d38576040517f08c379a0000000000000000000000000000000000000000000000000000000008152600401610d2f906136be565b60405180910390fd5b3373ffffffffffffffffffffffffffffffffffffffff166108fc479081150290604051600060405180830381858888f19350505050610d7657600080fd5b565b6000610d82610b0e565b9050601060009054906101000a900460ff1615610d9e57600080fd5b60008211610dab57600080fd5b600f54821115610dba57600080fd5b600e548282610dc99190613891565b1115610dd457600080fd5b610ddc6114d5565b73ffffffffffffffffffffffffffffffffffffffff163373ffffffffffffffffffffffffffffffffffffffff1614610e295781600d54610e1c9190613918565b341015610e2857600080fd5b5b6000600190505b828111610e5d57610e4c848284610e479190613891565b611dc2565b80610e5690613abf565b9050610e30565b50505050565b610e7e838383604051806020016040528060008152506115a7565b505050565b60606000610e908361130f565b905060008167ffffffffffffffff811115610ed4577f4e487b7100000000000000000000000000000000000000000000000000000000600052604160045260246000fd5b604051908082528060200260200182016040528015610f025781602001602082028036833780820191505090505b50905060005b82811015610f7057610f1a8582610c17565b828281518110610f53577f4e487b7100000000000000000000000000000000000000000000000000000000600052603260045260246000fd5b60200260200101818152505080610f6990613abf565b9050610f08565b508092505050919050565b610f83611950565b73ffffffffffffffffffffffffffffffffffffffff16610fa16114d5565b73ffffffffffffffffffffffffffffffffffffffff1614610ff7576040517f08c379a0000000000000000000000000000000000000000000000000000000008152600401610fee906136be565b60405180910390fd5b80600d8190555050565b600c805461100e90613a5c565b80601f016020809104026020016040519081016040528092919081815260200182805461103a90613a5c565b80156110875780601f1061105c57610100808354040283529160200191611087565b820191906000526020600020905b81548152906001019060200180831161106a57829003601f168201915b505050505081565b6000611099610b0e565b82106110da576040517f08c379a00000000000000000000000000000000000000000000000000000000081526004016110d19061373e565b60405180910390fd5b60088281548110611114577f4e487b7100000000000000000000000000000000000000000000000000000000600052603260045260246000fd5b90600052602060002001549050919050565b61112e611950565b73ffffffffffffffffffffffffffffffffffffffff1661114c6114d5565b73ffffffffffffffffffffffffffffffffffffffff16146111a2576040517f08c379a0000000000000000000000000000000000000000000000000000000008152600401611199906136be565b60405180910390fd5b80600b90805190602001906111b8929190612b75565b5050565b601060009054906101000a900460ff1681565b6000806002600084815260200190815260200160002060009054906101000a900473ffffffffffffffffffffffffffffffffffffffff169050600073ffffffffffffffffffffffffffffffffffffffff168173ffffffffffffffffffffffffffffffffffffffff161415611278576040517f08c379a000000000000000000000000000000000000000000000000000000000815260040161126f9061365e565b60405180910390fd5b80915050919050565b600b805461128e90613a5c565b80601f01602080910402602001604051908101604052809291908181526020018280546112ba90613a5c565b80156113075780601f106112dc57610100808354040283529160200191611307565b820191906000526020600020905b8154815290600101906020018083116112ea57829003601f168201915b505050505081565b60008073ffffffffffffffffffffffffffffffffffffffff168273ffffffffffffffffffffffffffffffffffffffff161415611380576040517f08c379a00000000000000000000000000000000000000000000000000000000081526004016113779061363e565b60405180910390fd5b600360008373ffffffffffffffffffffffffffffffffffffffff1673ffffffffffffffffffffffffffffffffffffffff168152602001908152602001600020549050919050565b6113cf611950565b73ffffffffffffffffffffffffffffffffffffffff166113ed6114d5565b73ffffffffffffffffffffffffffffffffffffffff1614611443576040517f08c379a000000000000000000000000000000000000000000000000000000000815260040161143a906136be565b60405180910390fd5b61144d6000611de0565b565b611457611950565b73ffffffffffffffffffffffffffffffffffffffff166114756114d5565b73ffffffffffffffffffffffffffffffffffffffff16146114cb576040517f08c379a00000000000000000000000000000000000000000000000000000000081526004016114c2906136be565b60405180910390fd5b80600f8190555050565b6000600a60009054906101000a900473ffffffffffffffffffffffffffffffffffffffff16905090565b60606001805461150e90613a5c565b80601f016020809104026020016040519081016040528092919081815260200182805461153a90613a5c565b80156115875780601f1061155c57610100808354040283529160200191611587565b820191906000526020600020905b81548152906001019060200180831161156a57829003601f168201915b5050505050905090565b6115a361159c611950565b8383611ea6565b5050565b6115b86115b2611950565b83611a7d565b6115f7576040517f08c379a00000000000000000000000000000000000000000000000000000000081526004016115ee9061371e565b60405180910390fd5b61160384848484612013565b50505050565b606061161482611958565b611653576040517f08c379a000000000000000000000000000000000000000000000000000000000815260040161164a906136de565b60405180910390fd5b600061165d61206f565b9050600081511161167d57604051806020016040528060008152506116ac565b600b61168884612101565b600c60405160200161169c93929190613427565b6040516020818303038152906040525b915050919050565b600e5481565b6000600560008473ffffffffffffffffffffffffffffffffffffffff1673ffffffffffffffffffffffffffffffffffffffff16815260200190815260200160002060008373ffffffffffffffffffffffffffffffffffffffff1673ffffffffffffffffffffffffffffffffffffffff16815260200190815260200160002060009054906101000a900460ff16905092915050565b611756611950565b73ffffffffffffffffffffffffffffffffffffffff166117746114d5565b73ffffffffffffffffffffffffffffffffffffffff16146117ca576040517f08c379a00000000000000000000000000000000000000000000000000000000081526004016117c1906136be565b60405180910390fd5b600073ffffffffffffffffffffffffffffffffffffffff168173ffffffffffffffffffffffffffffffffffffffff16141561183a576040517f08c379a00000000000000000000000000000000000000000000000000000000081526004016118319061355e565b60405180910390fd5b61184381611de0565b50565b6000808273ffffffffffffffffffffffffffffffffffffffff163b119050919050565b505050565b60007f80ac58cd000000000000000000000000000000000000000000000000000000007bffffffffffffffffffffffffffffffffffffffffffffffffffffffff1916827bffffffffffffffffffffffffffffffffffffffffffffffffffffffff1916148061193957507f5b5e139f000000000000000000000000000000000000000000000000000000007bffffffffffffffffffffffffffffffffffffffffffffffffffffffff1916827bffffffffffffffffffffffffffffffffffffffffffffffffffffffff1916145b806119495750611948826122ae565b5b9050919050565b600033905090565b60008073ffffffffffffffffffffffffffffffffffffffff166002600084815260200190815260200160002060009054906101000a900473ffffffffffffffffffffffffffffffffffffffff1673ffffffffffffffffffffffffffffffffffffffff1614159050919050565b816004600083815260200190815260200160002060006101000a81548173ffffffffffffffffffffffffffffffffffffffff021916908373ffffffffffffffffffffffffffffffffffffffff160217905550808273ffffffffffffffffffffffffffffffffffffffff16611a37836111cf565b73ffffffffffffffffffffffffffffffffffffffff167f8c5be1e5ebec7d5bd14f71427d1e84f3dd0314c0f7b2291e5b200ac8c7c3b92560405160405180910390a45050565b6000611a8882611958565b611ac7576040517f08c379a0000000000000000000000000000000000000000000000000000000008152600401611abe906135fe565b60405180910390fd5b6000611ad2836111cf565b90508073ffffffffffffffffffffffffffffffffffffffff168473ffffffffffffffffffffffffffffffffffffffff161480611b4157508373ffffffffffffffffffffffffffffffffffffffff16611b298461096b565b73ffffffffffffffffffffffffffffffffffffffff16145b80611b525750611b5181856116ba565b5b91505092915050565b8273ffffffffffffffffffffffffffffffffffffffff16611b7b826111cf565b73ffffffffffffffffffffffffffffffffffffffff1614611bd1576040517f08c379a0000000000000000000000000000000000000000000000000000000008152600401611bc89061357e565b60405180910390fd5b600073ffffffffffffffffffffffffffffffffffffffff168273ffffffffffffffffffffffffffffffffffffffff161415611c41576040517f08c379a0000000000000000000000000000000000000000000000000000000008152600401611c38906135be565b60405180910390fd5b611c4c838383612318565b611c576000826119c4565b6001600360008573ffffffffffffffffffffffffffffffffffffffff1673ffffffffffffffffffffffffffffffffffffffff1681526020019081526020016000206000828254611ca79190613972565b925050819055506001600360008473ffffffffffffffffffffffffffffffffffffffff1673ffffffffffffffffffffffffffffffffffffffff1681526020019081526020016000206000828254611cfe9190613891565b92505081905550816002600083815260200190815260200160002060006101000a81548173ffffffffffffffffffffffffffffffffffffffff021916908373ffffffffffffffffffffffffffffffffffffffff160217905550808273ffffffffffffffffffffffffffffffffffffffff168473ffffffffffffffffffffffffffffffffffffffff167fddf252ad1be2c89b69c2b068fc378daa952ba7f163c4a11628f55a4df523b3ef60405160405180910390a4611dbd83838361242c565b505050565b611ddc828260405180602001604052806000815250612431565b5050565b6000600a60009054906101000a900473ffffffffffffffffffffffffffffffffffffffff16905081600a60006101000a81548173ffffffffffffffffffffffffffffffffffffffff021916908373ffffffffffffffffffffffffffffffffffffffff1602179055508173ffffffffffffffffffffffffffffffffffffffff168173ffffffffffffffffffffffffffffffffffffffff167f8be0079c531659141344cd1fd0a4f28419497f9722a3daafe3b4186f6b6457e060405160405180910390a35050565b8173ffffffffffffffffffffffffffffffffffffffff168373ffffffffffffffffffffffffffffffffffffffff161415611f15576040517f08c379a0000000000000000000000000000000000000000000000000000000008152600401611f0c906135de565b60405180910390fd5b80600560008573ffffffffffffffffffffffffffffffffffffffff1673ffffffffffffffffffffffffffffffffffffffff16815260200190815260200160002060008473ffffffffffffffffffffffffffffffffffffffff1673ffffffffffffffffffffffffffffffffffffffff16815260200190815260200160002060006101000a81548160ff0219169083151502179055508173ffffffffffffffffffffffffffffffffffffffff168373ffffffffffffffffffffffffffffffffffffffff167f17307eab39ab6107e8899845ad3d59bd9653f200f220920489ca2b5937696c318360405161200691906134e1565b60405180910390a3505050565b61201e848484611b5b565b61202a8484848461248c565b612069576040517f08c379a00000000000000000000000000000000000000000000000000000000081526004016120609061353e565b60405180910390fd5b50505050565b6060600b805461207e90613a5c565b80601f01602080910402602001604051908101604052809291908181526020018280546120aa90613a5c565b80156120f75780601f106120cc576101008083540402835291602001916120f7565b820191906000526020600020905b8154815290600101906020018083116120da57829003601f168201915b5050505050905090565b60606000821415612149576040518060400160405280600181526020017f300000000000000000000000000000000000000000000000000000000000000081525090506122a9565b600082905060005b6000821461217b57808061216490613abf565b915050600a8261217491906138e7565b9150612151565b60008167ffffffffffffffff8111156121bd577f4e487b7100000000000000000000000000000000000000000000000000000000600052604160045260246000fd5b6040519080825280601f01601f1916602001820160405280156121ef5781602001600182028036833780820191505090505b5090505b600085146122a2576001826122089190613972565b9150600a856122179190613b08565b60306122239190613891565b60f81b81838151811061225f577f4e487b7100000000000000000000000000000000000000000000000000000000600052603260045260246000fd5b60200101907effffffffffffffffffffffffffffffffffffffffffffffffffffffffffffff1916908160001a905350600a8561229b91906138e7565b94506121f3565b8093505050505b919050565b60007f01ffc9a7000000000000000000000000000000000000000000000000000000007bffffffffffffffffffffffffffffffffffffffffffffffffffffffff1916827bffffffffffffffffffffffffffffffffffffffffffffffffffffffff1916149050919050565b612323838383611869565b600073ffffffffffffffffffffffffffffffffffffffff168373ffffffffffffffffffffffffffffffffffffffff1614156123665761236181612623565b6123a5565b8173ffffffffffffffffffffffffffffffffffffffff168373ffffffffffffffffffffffffffffffffffffffff16146123a4576123a3838261266c565b5b5b600073ffffffffffffffffffffffffffffffffffffffff168273ffffffffffffffffffffffffffffffffffffffff1614156123e8576123e3816127d9565b612427565b8273ffffffffffffffffffffffffffffffffffffffff168273ffffffffffffffffffffffffffffffffffffffff161461242657612425828261291c565b5b5b505050565b505050565b61243b838361299b565b612448600084848461248c565b612487576040517f08c379a000000000000000000000000000000000000000000000000000000000815260040161247e9061353e565b60405180910390fd5b505050565b60006124ad8473ffffffffffffffffffffffffffffffffffffffff16611846565b15612616578373ffffffffffffffffffffffffffffffffffffffff1663150b7a026124d6611950565b8786866040518563ffffffff1660e01b81526004016124f89493929190613473565b602060405180830381600087803b15801561251257600080fd5b505af192505050801561254357506040513d601f19601f820116820180604052508101906125409190612f4a565b60015b6125c6573d8060008114612573576040519150601f19603f3d011682016040523d82523d6000602084013e612578565b606091505b506000815114156125be576040517f08c379a00000000000000000000000000000000000000000000000000000000081526004016125b59061353e565b60405180910390fd5b805181602001fd5b63150b7a0260e01b7bffffffffffffffffffffffffffffffffffffffffffffffffffffffff1916817bffffffffffffffffffffffffffffffffffffffffffffffffffffffff19161491505061261b565b600190505b949350505050565b6008805490506009600083815260200190815260200160002081905550600881908060018154018082558091505060019003906000526020600020016000909190919091505550565b600060016126798461130f565b6126839190613972565b9050600060076000848152602001908152602001600020549050818114612768576000600660008673ffffffffffffffffffffffffffffffffffffffff1673ffffffffffffffffffffffffffffffffffffffff168152602001908152602001600020600084815260200190815260200160002054905080600660008773ffffffffffffffffffffffffffffffffffffffff1673ffffffffffffffffffffffffffffffffffffffff168152602001908152602001600020600084815260200190815260200160002081905550816007600083815260200190815260200160002081905550505b6007600084815260200190815260200160002060009055600660008573ffffffffffffffffffffffffffffffffffffffff1673ffffffffffffffffffffffffffffffffffffffff16815260200190815260200160002060008381526020019081526020016000206000905550505050565b600060016008805490506127ed9190613972565b9050600060096000848152602001908152602001600020549050600060088381548110612843577f4e487b7100000000000000000000000000000000000000000000000000000000600052603260045260246000fd5b90600052602060002001549050806008838154811061288b577f4e487b7100000000000000000000000000000000000000000000000000000000600052603260045260246000fd5b906000526020600020018190555081600960008381526020019081526020016000208190555060096000858152602001908152602001600020600090556008805480612900577f4e487b7100000000000000000000000000000000000000000000000000000000600052603160045260246000fd5b6001900381819060005260206000200160009055905550505050565b60006129278361130f565b905081600660008573ffffffffffffffffffffffffffffffffffffffff1673ffffffffffffffffffffffffffffffffffffffff168152602001908152602001600020600083815260200190815260200160002081905550806007600084815260200190815260200160002081905550505050565b600073ffffffffffffffffffffffffffffffffffffffff168273ffffffffffffffffffffffffffffffffffffffff161415612a0b576040517f08c379a0000000000000000000000000000000000000000000000000000000008152600401612a029061367e565b60405180910390fd5b612a1481611958565b15612a54576040517f08c379a0000000000000000000000000000000000000000000000000000000008152600401612a4b9061359e565b60405180910390fd5b612a6060008383612318565b6001600360008473ffffffffffffffffffffffffffffffffffffffff1673ffffffffffffffffffffffffffffffffffffffff1681526020019081526020016000206000828254612ab09190613891565b92505081905550816002600083815260200190815260200160002060006101000a81548173ffffffffffffffffffffffffffffffffffffffff021916908373ffffffffffffffffffffffffffffffffffffffff160217905550808273ffffffffffffffffffffffffffffffffffffffff16600073ffffffffffffffffffffffffffffffffffffffff167fddf252ad1be2c89b69c2b068fc378daa952ba7f163c4a11628f55a4df523b3ef60405160405180910390a4612b716000838361242c565b5050565b828054612b8190613a5c565b90600052602060002090601f016020900481019282612ba35760008555612bea565b82601f10612bbc57805160ff1916838001178555612bea565b82800160010185558215612bea579182015b82811115612be9578251825591602001919060010190612bce565b5b509050612bf79190612bfb565b5090565b5b80821115612c14576000816000905550600101612bfc565b5090565b6000612c2b612c268461379e565b613779565b905082815260208101848484011115612c4357600080fd5b612c4e848285613a1a565b509392505050565b6000612c69612c64846137cf565b613779565b905082815260208101848484011115612c8157600080fd5b612c8c848285613a1a565b509392505050565b600081359050612ca3816140fc565b92915050565b600081359050612cb881614113565b92915050565b600081359050612ccd8161412a565b92915050565b600081519050612ce28161412a565b92915050565b600082601f830112612cf957600080fd5b8135612d09848260208601612c18565b91505092915050565b600082601f830112612d2357600080fd5b8135612d33848260208601612c56565b91505092915050565b600081359050612d4b81614141565b92915050565b600060208284031215612d6357600080fd5b6000612d7184828501612c94565b91505092915050565b60008060408385031215612d8d57600080fd5b6000612d9b85828601612c94565b9250506020612dac85828601612c94565b9150509250929050565b600080600060608486031215612dcb57600080fd5b6000612dd986828701612c94565b9350506020612dea86828701612c94565b9250506040612dfb86828701612d3c565b9150509250925092565b60008060008060808587031215612e1b57600080fd5b6000612e2987828801612c94565b9450506020612e3a87828801612c94565b9350506040612e4b87828801612d3c565b925050606085013567ffffffffffffffff811115612e6857600080fd5b612e7487828801612ce8565b91505092959194509250565b60008060408385031215612e9357600080fd5b6000612ea185828601612c94565b9250506020612eb285828601612ca9565b9150509250929050565b60008060408385031215612ecf57600080fd5b6000612edd85828601612c94565b9250506020612eee85828601612d3c565b9150509250929050565b600060208284031215612f0a57600080fd5b6000612f1884828501612ca9565b91505092915050565b600060208284031215612f3357600080fd5b6000612f4184828501612cbe565b91505092915050565b600060208284031215612f5c57600080fd5b6000612f6a84828501612cd3565b91505092915050565b600060208284031215612f8557600080fd5b600082013567ffffffffffffffff811115612f9f57600080fd5b612fab84828501612d12565b91505092915050565b600060208284031215612fc657600080fd5b6000612fd484828501612d3c565b91505092915050565b6000612fe98383613409565b60208301905092915050565b612ffe816139a6565b82525050565b600061300f82613825565b6130198185613853565b935061302483613800565b8060005b8381101561305557815161303c8882612fdd565b975061304783613846565b925050600181019050613028565b5085935050505092915050565b61306b816139b8565b82525050565b600061307c82613830565b6130868185613864565b9350613096818560208601613a29565b61309f81613bf5565b840191505092915050565b60006130b58261383b565b6130bf8185613875565b93506130cf818560208601613a29565b6130d881613bf5565b840191505092915050565b60006130ee8261383b565b6130f88185613886565b9350613108818560208601613a29565b80840191505092915050565b6000815461312181613a5c565b61312b8186613886565b9450600182166000811461314657600181146131575761318a565b60ff1983168652818601935061318a565b61316085613810565b60005b8381101561318257815481890152600182019150602081019050613163565b838801955050505b50505092915050565b60006131a0602b83613875565b91506131ab82613c06565b604082019050919050565b60006131c3603283613875565b91506131ce82613c55565b604082019050919050565b60006131e6602683613875565b91506131f182613ca4565b604082019050919050565b6000613209602583613875565b915061321482613cf3565b604082019050919050565b600061322c601c83613875565b915061323782613d42565b602082019050919050565b600061324f602483613875565b915061325a82613d6b565b604082019050919050565b6000613272601983613875565b915061327d82613dba565b602082019050919050565b6000613295602c83613875565b91506132a082613de3565b604082019050919050565b60006132b8603883613875565b91506132c382613e32565b604082019050919050565b60006132db602a83613875565b91506132e682613e81565b604082019050919050565b60006132fe602983613875565b915061330982613ed0565b604082019050919050565b6000613321602083613875565b915061332c82613f1f565b602082019050919050565b6000613344602c83613875565b915061334f82613f48565b604082019050919050565b6000613367602083613875565b915061337282613f97565b602082019050919050565b600061338a602f83613875565b915061339582613fc0565b604082019050919050565b60006133ad602183613875565b91506133b88261400f565b604082019050919050565b60006133d0603183613875565b91506133db8261405e565b604082019050919050565b60006133f3602c83613875565b91506133fe826140ad565b604082019050919050565b61341281613a10565b82525050565b61342181613a10565b82525050565b60006134338286613114565b915061343f82856130e3565b915061344b8284613114565b9150819050949350505050565b600060208201905061346d6000830184612ff5565b92915050565b60006080820190506134886000830187612ff5565b6134956020830186612ff5565b6134a26040830185613418565b81810360608301526134b48184613071565b905095945050505050565b600060208201905081810360008301526134d98184613004565b905092915050565b60006020820190506134f66000830184613062565b92915050565b6000602082019050818103600083015261351681846130aa565b905092915050565b6000602082019050818103600083015261353781613193565b9050919050565b60006020820190508181036000830152613557816131b6565b9050919050565b60006020820190508181036000830152613577816131d9565b9050919050565b60006020820190508181036000830152613597816131fc565b9050919050565b600060208201905081810360008301526135b78161321f565b9050919050565b600060208201905081810360008301526135d781613242565b9050919050565b600060208201905081810360008301526135f781613265565b9050919050565b6000602082019050818103600083015261361781613288565b9050919050565b60006020820190508181036000830152613637816132ab565b9050919050565b60006020820190508181036000830152613657816132ce565b9050919050565b60006020820190508181036000830152613677816132f1565b9050919050565b6000602082019050818103600083015261369781613314565b9050919050565b600060208201905081810360008301526136b781613337565b9050919050565b600060208201905081810360008301526136d78161335a565b9050919050565b600060208201905081810360008301526136f78161337d565b9050919050565b60006020820190508181036000830152613717816133a0565b9050919050565b60006020820190508181036000830152613737816133c3565b9050919050565b60006020820190508181036000830152613757816133e6565b9050919050565b60006020820190506137736000830184613418565b92915050565b6000613783613794565b905061378f8282613a8e565b919050565b6000604051905090565b600067ffffffffffffffff8211156137b9576137b8613bc6565b5b6137c282613bf5565b9050602081019050919050565b600067ffffffffffffffff8211156137ea576137e9613bc6565b5b6137f382613bf5565b9050602081019050919050565b6000819050602082019050919050565b60008190508160005260206000209050919050565b600081519050919050565b600081519050919050565b600081519050919050565b6000602082019050919050565b600082825260208201905092915050565b600082825260208201905092915050565b600082825260208201905092915050565b600081905092915050565b600061389c82613a10565b91506138a783613a10565b9250827fffffffffffffffffffffffffffffffffffffffffffffffffffffffffffffffff038211156138dc576138db613b39565b5b828201905092915050565b60006138f282613a10565b91506138fd83613a10565b92508261390d5761390c613b68565b5b828204905092915050565b600061392382613a10565b915061392e83613a10565b9250817fffffffffffffffffffffffffffffffffffffffffffffffffffffffffffffffff048311821515161561396757613966613b39565b5b828202905092915050565b600061397d82613a10565b915061398883613a10565b92508282101561399b5761399a613b39565b5b828203905092915050565b60006139b1826139f0565b9050919050565b60008115159050919050565b60007fffffffff0000000000000000000000000000000000000000000000000000000082169050919050565b600073ffffffffffffffffffffffffffffffffffffffff82169050919050565b6000819050919050565b82818337600083830152505050565b60005b83811015613a47578082015181840152602081019050613a2c565b83811115613a56576000848401525b50505050565b60006002820490506001821680613a7457607f821691505b60208210811415613a8857613a87613b97565b5b50919050565b613a9782613bf5565b810181811067ffffffffffffffff82111715613ab657613ab5613bc6565b5b80604052505050565b6000613aca82613a10565b91507fffffffffffffffffffffffffffffffffffffffffffffffffffffffffffffffff821415613afd57613afc613b39565b5b600182019050919050565b6000613b1382613a10565b9150613b1e83613a10565b925082613b2e57613b2d613b68565b5b828206905092915050565b7f4e487b7100000000000000000000000000000000000000000000000000000000600052601160045260246000fd5b7f4e487b7100000000000000000000000000000000000000000000000000000000600052601260045260246000fd5b7f4e487b7100000000000000000000000000000000000000000000000000000000600052602260045260246000fd5b7f4e487b7100000000000000000000000000000000000000000000000000000000600052604160045260246000fd5b6000601f19601f8301169050919050565b7f455243373231456e756d657261626c653a206f776e657220696e646578206f7560008201527f74206f6620626f756e6473000000000000000000000000000000000000000000602082015250565b7f4552433732313a207472616e7366657220746f206e6f6e20455243373231526560008201527f63656976657220696d706c656d656e7465720000000000000000000000000000602082015250565b7f4f776e61626c653a206e6577206f776e657220697320746865207a65726f206160008201527f6464726573730000000000000000000000000000000000000000000000000000602082015250565b7f4552433732313a207472616e736665722066726f6d20696e636f72726563742060008201527f6f776e6572000000000000000000000000000000000000000000000000000000602082015250565b7f4552433732313a20746f6b656e20616c7265616479206d696e74656400000000600082015250565b7f4552433732313a207472616e7366657220746f20746865207a65726f2061646460008201527f7265737300000000000000000000000000000000000000000000000000000000602082015250565b7f4552433732313a20617070726f766520746f2063616c6c657200000000000000600082015250565b7f4552433732313a206f70657261746f7220717565727920666f72206e6f6e657860008201527f697374656e7420746f6b656e0000000000000000000000000000000000000000602082015250565b7f4552433732313a20617070726f76652063616c6c6572206973206e6f74206f7760008201527f6e6572206e6f7220617070726f76656420666f7220616c6c0000000000000000602082015250565b7f4552433732313a2062616c616e636520717565727920666f7220746865207a6560008201527f726f206164647265737300000000000000000000000000000000000000000000602082015250565b7f4552433732313a206f776e657220717565727920666f72206e6f6e657869737460008201527f656e7420746f6b656e0000000000000000000000000000000000000000000000602082015250565b7f4552433732313a206d696e7420746f20746865207a65726f2061646472657373600082015250565b7f4552433732313a20617070726f76656420717565727920666f72206e6f6e657860008201527f697374656e7420746f6b656e0000000000000000000000000000000000000000602082015250565b7f4f776e61626c653a2063616c6c6572206973206e6f7420746865206f776e6572600082015250565b7f4552433732314d657461646174613a2055524920717565727920666f72206e6f60008201527f6e6578697374656e7420746f6b656e0000000000000000000000000000000000602082015250565b7f4552433732313a20617070726f76616c20746f2063757272656e74206f776e6560008201527f7200000000000000000000000000000000000000000000000000000000000000602082015250565b7f4552433732313a207472616e736665722063616c6c6572206973206e6f74206f60008201527f776e6572206e6f7220617070726f766564000000000000000000000000000000602082015250565b7f455243373231456e756d657261626c653a20676c6f62616c20696e646578206f60008201527f7574206f6620626f756e64730000000000000000000000000000000000000000602082015250565b614105816139a6565b811461411057600080fd5b50565b61411c816139b8565b811461412757600080fd5b50565b614133816139c4565b811461413e57600080fd5b50565b61414a81613a10565b811461415557600080fd5b5056fea26469706673582212201e0d3b6dd7e7e70f2eeee45ea772ae9168b8aef88c47629ee69404a70d380c9964736f6c63430008040033",
    "linkReferences": {},
    "deployedLinkReferences": {}
}