{
  "_format": "hh-sol-artifact-1",
  "contractName": "BobotGenesis",
  "sourceName": "contracts/BobotGenesis.sol",
  "abi": [
    {
      "inputs": [
        {
          "internalType": "string",
          "name": "_name",
          "type": "string"
        },
        {
          "internalType": "string",
          "name": "_symbol",
          "type": "string"
        },
        {
          "internalType": "string",
          "name": "_initBaseURI",
          "type": "string"
        }
      ],
      "stateMutability": "nonpayable",
      "type": "constructor"
    },
    {
      "anonymous": false,
      "inputs": [
        {
          "indexed": true,
          "internalType": "address",
          "name": "owner",
          "type": "address"
        },
        {
          "indexed": true,
          "internalType": "address",
          "name": "approved",
          "type": "address"
        },
        {
          "indexed": true,
          "internalType": "uint256",
          "name": "tokenId",
          "type": "uint256"
        }
      ],
      "name": "Approval",
      "type": "event"
    },
    {
      "anonymous": false,
      "inputs": [
        {
          "indexed": true,
          "internalType": "address",
          "name": "owner",
          "type": "address"
        },
        {
          "indexed": true,
          "internalType": "address",
          "name": "operator",
          "type": "address"
        },
        {
          "indexed": false,
          "internalType": "bool",
          "name": "approved",
          "type": "bool"
        }
      ],
      "name": "ApprovalForAll",
      "type": "event"
    },
    {
      "anonymous": false,
      "inputs": [
        {
          "indexed": true,
          "internalType": "address",
          "name": "previousOwner",
          "type": "address"
        },
        {
          "indexed": true,
          "internalType": "address",
          "name": "newOwner",
          "type": "address"
        }
      ],
      "name": "OwnershipTransferred",
      "type": "event"
    },
    {
      "anonymous": false,
      "inputs": [
        {
          "indexed": true,
          "internalType": "address",
          "name": "from",
          "type": "address"
        },
        {
          "indexed": true,
          "internalType": "address",
          "name": "to",
          "type": "address"
        },
        {
          "indexed": true,
          "internalType": "uint256",
          "name": "tokenId",
          "type": "uint256"
        }
      ],
      "name": "Transfer",
      "type": "event"
    },
    {
      "inputs": [
        {
          "internalType": "address",
          "name": "to",
          "type": "address"
        },
        {
          "internalType": "uint256",
          "name": "tokenId",
          "type": "uint256"
        }
      ],
      "name": "approve",
      "outputs": [],
      "stateMutability": "nonpayable",
      "type": "function"
    },
    {
      "inputs": [
        {
          "internalType": "address",
          "name": "owner",
          "type": "address"
        }
      ],
      "name": "balanceOf",
      "outputs": [
        {
          "internalType": "uint256",
          "name": "",
          "type": "uint256"
        }
      ],
      "stateMutability": "view",
      "type": "function"
    },
    {
      "inputs": [],
      "name": "baseExtention",
      "outputs": [
        {
          "internalType": "string",
          "name": "",
          "type": "string"
        }
      ],
      "stateMutability": "view",
      "type": "function"
    },
    {
      "inputs": [],
      "name": "baseURI",
      "outputs": [
        {
          "internalType": "string",
          "name": "",
          "type": "string"
        }
      ],
      "stateMutability": "view",
      "type": "function"
    },
    {
      "inputs": [],
      "name": "cost",
      "outputs": [
        {
          "internalType": "uint256",
          "name": "",
          "type": "uint256"
        }
      ],
      "stateMutability": "view",
      "type": "function"
    },
    {
      "inputs": [
        {
          "internalType": "uint256",
          "name": "tokenId",
          "type": "uint256"
        }
      ],
      "name": "getApproved",
      "outputs": [
        {
          "internalType": "address",
          "name": "",
          "type": "address"
        }
      ],
      "stateMutability": "view",
      "type": "function"
    },
    {
      "inputs": [
        {
          "internalType": "address",
          "name": "_owner",
          "type": "address"
        }
      ],
      "name": "getTokenIds",
      "outputs": [
        {
          "internalType": "uint256[]",
          "name": "",
          "type": "uint256[]"
        }
      ],
      "stateMutability": "view",
      "type": "function"
    },
    {
      "inputs": [
        {
          "internalType": "address",
          "name": "owner",
          "type": "address"
        },
        {
          "internalType": "address",
          "name": "operator",
          "type": "address"
        }
      ],
      "name": "isApprovedForAll",
      "outputs": [
        {
          "internalType": "bool",
          "name": "",
          "type": "bool"
        }
      ],
      "stateMutability": "view",
      "type": "function"
    },
    {
      "inputs": [],
      "name": "maxMintAmount",
      "outputs": [
        {
          "internalType": "uint256",
          "name": "",
          "type": "uint256"
        }
      ],
      "stateMutability": "view",
      "type": "function"
    },
    {
      "inputs": [],
      "name": "maxSupply",
      "outputs": [
        {
          "internalType": "uint256",
          "name": "",
          "type": "uint256"
        }
      ],
      "stateMutability": "view",
      "type": "function"
    },
    {
      "inputs": [
        {
          "internalType": "address",
          "name": "_to",
          "type": "address"
        },
        {
          "internalType": "uint256",
          "name": "_mintAmount",
          "type": "uint256"
        }
      ],
      "name": "mintBobot",
      "outputs": [],
      "stateMutability": "payable",
      "type": "function"
    },
    {
      "inputs": [],
      "name": "name",
      "outputs": [
        {
          "internalType": "string",
          "name": "",
          "type": "string"
        }
      ],
      "stateMutability": "view",
      "type": "function"
    },
    {
      "inputs": [],
      "name": "owner",
      "outputs": [
        {
          "internalType": "address",
          "name": "",
          "type": "address"
        }
      ],
      "stateMutability": "view",
      "type": "function"
    },
    {
      "inputs": [
        {
          "internalType": "uint256",
          "name": "tokenId",
          "type": "uint256"
        }
      ],
      "name": "ownerOf",
      "outputs": [
        {
          "internalType": "address",
          "name": "",
          "type": "address"
        }
      ],
      "stateMutability": "view",
      "type": "function"
    },
    {
      "inputs": [
        {
          "internalType": "bool",
          "name": "_state",
          "type": "bool"
        }
      ],
      "name": "pause",
      "outputs": [],
      "stateMutability": "nonpayable",
      "type": "function"
    },
    {
      "inputs": [],
      "name": "paused",
      "outputs": [
        {
          "internalType": "bool",
          "name": "",
          "type": "bool"
        }
      ],
      "stateMutability": "view",
      "type": "function"
    },
    {
      "inputs": [],
      "name": "renounceOwnership",
      "outputs": [],
      "stateMutability": "nonpayable",
      "type": "function"
    },
    {
      "inputs": [
        {
          "internalType": "address",
          "name": "from",
          "type": "address"
        },
        {
          "internalType": "address",
          "name": "to",
          "type": "address"
        },
        {
          "internalType": "uint256",
          "name": "tokenId",
          "type": "uint256"
        }
      ],
      "name": "safeTransferFrom",
      "outputs": [],
      "stateMutability": "nonpayable",
      "type": "function"
    },
    {
      "inputs": [
        {
          "internalType": "address",
          "name": "from",
          "type": "address"
        },
        {
          "internalType": "address",
          "name": "to",
          "type": "address"
        },
        {
          "internalType": "uint256",
          "name": "tokenId",
          "type": "uint256"
        },
        {
          "internalType": "bytes",
          "name": "_data",
          "type": "bytes"
        }
      ],
      "name": "safeTransferFrom",
      "outputs": [],
      "stateMutability": "nonpayable",
      "type": "function"
    },
    {
      "inputs": [
        {
          "internalType": "address",
          "name": "operator",
          "type": "address"
        },
        {
          "internalType": "bool",
          "name": "approved",
          "type": "bool"
        }
      ],
      "name": "setApprovalForAll",
      "outputs": [],
      "stateMutability": "nonpayable",
      "type": "function"
    },
    {
      "inputs": [
        {
          "internalType": "string",
          "name": "_newBaseExtentions",
          "type": "string"
        }
      ],
      "name": "setBaseExtentions",
      "outputs": [],
      "stateMutability": "nonpayable",
      "type": "function"
    },
    {
      "inputs": [
        {
          "internalType": "string",
          "name": "_newBaseURI",
          "type": "string"
        }
      ],
      "name": "setBaseURI",
      "outputs": [],
      "stateMutability": "nonpayable",
      "type": "function"
    },
    {
      "inputs": [
        {
          "internalType": "uint256",
          "name": "_newCost",
          "type": "uint256"
        }
      ],
      "name": "setCost",
      "outputs": [],
      "stateMutability": "nonpayable",
      "type": "function"
    },
    {
      "inputs": [
        {
          "internalType": "uint256",
          "name": "_newmaxMintAmount",
          "type": "uint256"
        }
      ],
      "name": "setmaxMintAmount",
      "outputs": [],
      "stateMutability": "nonpayable",
      "type": "function"
    },
    {
      "inputs": [
        {
          "internalType": "bytes4",
          "name": "interfaceId",
          "type": "bytes4"
        }
      ],
      "name": "supportsInterface",
      "outputs": [
        {
          "internalType": "bool",
          "name": "",
          "type": "bool"
        }
      ],
      "stateMutability": "view",
      "type": "function"
    },
    {
      "inputs": [],
      "name": "symbol",
      "outputs": [
        {
          "internalType": "string",
          "name": "",
          "type": "string"
        }
      ],
      "stateMutability": "view",
      "type": "function"
    },
    {
      "inputs": [
        {
          "internalType": "uint256",
          "name": "index",
          "type": "uint256"
        }
      ],
      "name": "tokenByIndex",
      "outputs": [
        {
          "internalType": "uint256",
          "name": "",
          "type": "uint256"
        }
      ],
      "stateMutability": "view",
      "type": "function"
    },
    {
      "inputs": [
        {
          "internalType": "address",
          "name": "owner",
          "type": "address"
        },
        {
          "internalType": "uint256",
          "name": "index",
          "type": "uint256"
        }
      ],
      "name": "tokenOfOwnerByIndex",
      "outputs": [
        {
          "internalType": "uint256",
          "name": "",
          "type": "uint256"
        }
      ],
      "stateMutability": "view",
      "type": "function"
    },
    {
      "inputs": [
        {
          "internalType": "uint256",
          "name": "tokenID",
          "type": "uint256"
        }
      ],
      "name": "tokenURI",
      "outputs": [
        {
          "internalType": "string",
          "name": "",
          "type": "string"
        }
      ],
      "stateMutability": "view",
      "type": "function"
    },
    {
      "inputs": [],
      "name": "totalSupply",
      "outputs": [
        {
          "internalType": "uint256",
          "name": "",
          "type": "uint256"
        }
      ],
      "stateMutability": "view",
      "type": "function"
    },
    {
      "inputs": [
        {
          "internalType": "address",
          "name": "from",
          "type": "address"
        },
        {
          "internalType": "address",
          "name": "to",
          "type": "address"
        },
        {
          "internalType": "uint256",
          "name": "tokenId",
          "type": "uint256"
        }
      ],
      "name": "transferFrom",
      "outputs": [],
      "stateMutability": "nonpayable",
      "type": "function"
    },
    {
      "inputs": [
        {
          "internalType": "address",
          "name": "newOwner",
          "type": "address"
        }
      ],
      "name": "transferOwnership",
      "outputs": [],
      "stateMutability": "nonpayable",
      "type": "function"
    },
    {
      "inputs": [
        {
          "internalType": "address",
          "name": "_owner",
          "type": "address"
        }
      ],
      "name": "walletOfOwner",
      "outputs": [
        {
          "internalType": "uint256[]",
          "name": "",
          "type": "uint256[]"
        }
      ],
      "stateMutability": "view",
      "type": "function"
    },
    {
      "inputs": [],
      "name": "withdraw",
      "outputs": [],
      "stateMutability": "payable",
      "type": "function"
    }
  ],
  "bytecode": "0x60806040526040518060400160405280600581526020017f2e6a736f6e000000000000000000000000000000000000000000000000000000815250600c908051906020019062000051929190620002c9565b5066470de4df820000600d55610bb8600e556014600f556000601060006101000a81548160ff0219169083151502179055503480156200009057600080fd5b5060405162004961380380620049618339818101604052810190620000b69190620003eb565b82828160009080519060200190620000d0929190620002c9565b508060019080519060200190620000e9929190620002c9565b5050506200010c620001006200012660201b60201c565b6200012e60201b60201c565b6200011d81620001f460201b60201c565b5050506200067f565b600033905090565b6000600a60009054906101000a900473ffffffffffffffffffffffffffffffffffffffff16905081600a60006101000a81548173ffffffffffffffffffffffffffffffffffffffff021916908373ffffffffffffffffffffffffffffffffffffffff1602179055508173ffffffffffffffffffffffffffffffffffffffff168173ffffffffffffffffffffffffffffffffffffffff167f8be0079c531659141344cd1fd0a4f28419497f9722a3daafe3b4186f6b6457e060405160405180910390a35050565b620002046200012660201b60201c565b73ffffffffffffffffffffffffffffffffffffffff166200022a6200029f60201b60201c565b73ffffffffffffffffffffffffffffffffffffffff161462000283576040517f08c379a00000000000000000000000000000000000000000000000000000000081526004016200027a90620004b3565b60405180910390fd5b80600b90805190602001906200029b929190620002c9565b5050565b6000600a60009054906101000a900473ffffffffffffffffffffffffffffffffffffffff16905090565b828054620002d7906200057b565b90600052602060002090601f016020900481019282620002fb576000855562000347565b82601f106200031657805160ff191683800117855562000347565b8280016001018555821562000347579182015b828111156200034657825182559160200191906001019062000329565b5b5090506200035691906200035a565b5090565b5b80821115620003755760008160009055506001016200035b565b5090565b6000620003906200038a84620004fe565b620004d5565b905082815260208101848484011115620003a957600080fd5b620003b684828562000545565b509392505050565b600082601f830112620003d057600080fd5b8151620003e284826020860162000379565b91505092915050565b6000806000606084860312156200040157600080fd5b600084015167ffffffffffffffff8111156200041c57600080fd5b6200042a86828701620003be565b935050602084015167ffffffffffffffff8111156200044857600080fd5b6200045686828701620003be565b925050604084015167ffffffffffffffff8111156200047457600080fd5b6200048286828701620003be565b9150509250925092565b60006200049b60208362000534565b9150620004a88262000656565b602082019050919050565b60006020820190508181036000830152620004ce816200048c565b9050919050565b6000620004e1620004f4565b9050620004ef8282620005b1565b919050565b6000604051905090565b600067ffffffffffffffff8211156200051c576200051b62000616565b5b620005278262000645565b9050602081019050919050565b600082825260208201905092915050565b60005b838110156200056557808201518184015260208101905062000548565b8381111562000575576000848401525b50505050565b600060028204905060018216806200059457607f821691505b60208210811415620005ab57620005aa620005e7565b5b50919050565b620005bc8262000645565b810181811067ffffffffffffffff82111715620005de57620005dd62000616565b5b80604052505050565b7f4e487b7100000000000000000000000000000000000000000000000000000000600052602260045260246000fd5b7f4e487b7100000000000000000000000000000000000000000000000000000000600052604160045260246000fd5b6000601f19601f8301169050919050565b7f4f776e61626c653a2063616c6c6572206973206e6f7420746865206f776e6572600082015250565b6142d2806200068f6000396000f3fe6080604052600436106101f95760003560e01c80634f6ccce71161010d5780638da5cb5b116100a0578063c87b56dd1161006f578063c87b56dd14610703578063d004b03614610740578063d5abeb011461077d578063e985e9c5146107a8578063f2fde38b146107e5576101f9565b80638da5cb5b1461065b57806395d89b4114610686578063a22cb465146106b1578063b88d4fde146106da576101f9565b80636c0360eb116100dc5780636c0360eb146105b357806370a08231146105de578063715018a61461061b5780637f00c7a614610632576101f9565b80634f6ccce7146104e557806355f804b3146105225780635c975abb1461054b5780636352211e14610576576101f9565b8063239c70ae116101905780633ccfd60b1161015f5780633ccfd60b1461042157806342842e0e1461042b578063438b63001461045457806344a0d68a146104915780634ba5f378146104ba576101f9565b8063239c70ae1461036757806323b872dd1461039257806325c13203146103bb5780632f745c59146103e4576101f9565b8063095ea7b3116101cc578063095ea7b3146102cc5780630a617dd5146102f557806313faede61461031157806318160ddd1461033c576101f9565b806301ffc9a7146101fe57806302329a291461023b57806306fdde0314610264578063081812fc1461028f575b600080fd5b34801561020a57600080fd5b5061022560048036038101906102209190613065565b61080e565b6040516102329190613625565b60405180910390f35b34801561024757600080fd5b50610262600480360381019061025d919061303c565b610888565b005b34801561027057600080fd5b50610279610921565b6040516102869190613640565b60405180910390f35b34801561029b57600080fd5b506102b660048036038101906102b191906130f8565b6109b3565b6040516102c3919061359c565b60405180910390f35b3480156102d857600080fd5b506102f360048036038101906102ee9190613000565b610a38565b005b61030f600480360381019061030a9190613000565b610b50565b005b34801561031d57600080fd5b50610326610c3b565b60405161033391906138a2565b60405180910390f35b34801561034857600080fd5b50610351610c41565b60405161035e91906138a2565b60405180910390f35b34801561037357600080fd5b5061037c610c4e565b60405161038991906138a2565b60405180910390f35b34801561039e57600080fd5b506103b960048036038101906103b49190612efa565b610c54565b005b3480156103c757600080fd5b506103e260048036038101906103dd91906130b7565b610cb4565b005b3480156103f057600080fd5b5061040b60048036038101906104069190613000565b610d4a565b60405161041891906138a2565b60405180910390f35b610429610def565b005b34801561043757600080fd5b50610452600480360381019061044d9190612efa565b610eab565b005b34801561046057600080fd5b5061047b60048036038101906104769190612e95565b610ecb565b6040516104889190613603565b60405180910390f35b34801561049d57600080fd5b506104b860048036038101906104b391906130f8565b610fc3565b005b3480156104c657600080fd5b506104cf611049565b6040516104dc9190613640565b60405180910390f35b3480156104f157600080fd5b5061050c600480360381019061050791906130f8565b6110d7565b60405161051991906138a2565b60405180910390f35b34801561052e57600080fd5b50610549600480360381019061054491906130b7565b61116e565b005b34801561055757600080fd5b50610560611204565b60405161056d9190613625565b60405180910390f35b34801561058257600080fd5b5061059d600480360381019061059891906130f8565b611217565b6040516105aa919061359c565b60405180910390f35b3480156105bf57600080fd5b506105c86112c9565b6040516105d59190613640565b60405180910390f35b3480156105ea57600080fd5b5061060560048036038101906106009190612e95565b611357565b60405161061291906138a2565b60405180910390f35b34801561062757600080fd5b5061063061140f565b005b34801561063e57600080fd5b50610659600480360381019061065491906130f8565b611497565b005b34801561066757600080fd5b5061067061151d565b60405161067d919061359c565b60405180910390f35b34801561069257600080fd5b5061069b611547565b6040516106a89190613640565b60405180910390f35b3480156106bd57600080fd5b506106d860048036038101906106d39190612fc4565b6115d9565b005b3480156106e657600080fd5b5061070160048036038101906106fc9190612f49565b6115ef565b005b34801561070f57600080fd5b5061072a600480360381019061072591906130f8565b611651565b6040516107379190613640565b60405180910390f35b34801561074c57600080fd5b5061076760048036038101906107629190612e95565b6116fc565b6040516107749190613603565b60405180910390f35b34801561078957600080fd5b506107926117f8565b60405161079f91906138a2565b60405180910390f35b3480156107b457600080fd5b506107cf60048036038101906107ca9190612ebe565b6117fe565b6040516107dc9190613625565b60405180910390f35b3480156107f157600080fd5b5061080c60048036038101906108079190612e95565b611892565b005b60007f780e9d63000000000000000000000000000000000000000000000000000000007bffffffffffffffffffffffffffffffffffffffffffffffffffffffff1916827bffffffffffffffffffffffffffffffffffffffffffffffffffffffff1916148061088157506108808261198a565b5b9050919050565b610890611a6c565b73ffffffffffffffffffffffffffffffffffffffff166108ae61151d565b73ffffffffffffffffffffffffffffffffffffffff1614610904576040517f08c379a00000000000000000000000000000000000000000000000000000000081526004016108fb90613802565b60405180910390fd5b80601060006101000a81548160ff02191690831515021790555050565b60606000805461093090613ba0565b80601f016020809104026020016040519081016040528092919081815260200182805461095c90613ba0565b80156109a95780601f1061097e576101008083540402835291602001916109a9565b820191906000526020600020905b81548152906001019060200180831161098c57829003601f168201915b5050505050905090565b60006109be82611a74565b6109fd576040517f08c379a00000000000000000000000000000000000000000000000000000000081526004016109f4906137e2565b60405180910390fd5b6004600083815260200190815260200160002060009054906101000a900473ffffffffffffffffffffffffffffffffffffffff169050919050565b6000610a4382611217565b90508073ffffffffffffffffffffffffffffffffffffffff168373ffffffffffffffffffffffffffffffffffffffff161415610ab4576040517f08c379a0000000000000000000000000000000000000000000000000000000008152600401610aab90613842565b60405180910390fd5b8073ffffffffffffffffffffffffffffffffffffffff16610ad3611a6c565b73ffffffffffffffffffffffffffffffffffffffff161480610b025750610b0181610afc611a6c565b6117fe565b5b610b41576040517f08c379a0000000000000000000000000000000000000000000000000000000008152600401610b3890613762565b60405180910390fd5b610b4b8383611ae0565b505050565b6000610b5a610c41565b9050601060009054906101000a900460ff1615610b7657600080fd5b60008211610b8357600080fd5b600f54821115610b9257600080fd5b600e548282610ba191906139d5565b1115610bac57600080fd5b610bb461151d565b73ffffffffffffffffffffffffffffffffffffffff163373ffffffffffffffffffffffffffffffffffffffff1614610c015781600d54610bf49190613a5c565b341015610c0057600080fd5b5b6000600190505b828111610c3557610c24848284610c1f91906139d5565b611b99565b80610c2e90613c03565b9050610c08565b50505050565b600d5481565b6000600880549050905090565b600f5481565b610c65610c5f611a6c565b82611bb7565b610ca4576040517f08c379a0000000000000000000000000000000000000000000000000000000008152600401610c9b90613862565b60405180910390fd5b610caf838383611c95565b505050565b610cbc611a6c565b73ffffffffffffffffffffffffffffffffffffffff16610cda61151d565b73ffffffffffffffffffffffffffffffffffffffff1614610d30576040517f08c379a0000000000000000000000000000000000000000000000000000000008152600401610d2790613802565b60405180910390fd5b80600c9080519060200190610d46929190612cb9565b5050565b6000610d5583611357565b8210610d96576040517f08c379a0000000000000000000000000000000000000000000000000000000008152600401610d8d90613662565b60405180910390fd5b600660008473ffffffffffffffffffffffffffffffffffffffff1673ffffffffffffffffffffffffffffffffffffffff168152602001908152602001600020600083815260200190815260200160002054905092915050565b610df7611a6c565b73ffffffffffffffffffffffffffffffffffffffff16610e1561151d565b73ffffffffffffffffffffffffffffffffffffffff1614610e6b576040517f08c379a0000000000000000000000000000000000000000000000000000000008152600401610e6290613802565b60405180910390fd5b3373ffffffffffffffffffffffffffffffffffffffff166108fc479081150290604051600060405180830381858888f19350505050610ea957600080fd5b565b610ec6838383604051806020016040528060008152506115ef565b505050565b60606000610ed883611357565b905060008167ffffffffffffffff811115610f1c577f4e487b7100000000000000000000000000000000000000000000000000000000600052604160045260246000fd5b604051908082528060200260200182016040528015610f4a5781602001602082028036833780820191505090505b50905060005b82811015610fb857610f628582610d4a565b828281518110610f9b577f4e487b7100000000000000000000000000000000000000000000000000000000600052603260045260246000fd5b60200260200101818152505080610fb190613c03565b9050610f50565b508092505050919050565b610fcb611a6c565b73ffffffffffffffffffffffffffffffffffffffff16610fe961151d565b73ffffffffffffffffffffffffffffffffffffffff161461103f576040517f08c379a000000000000000000000000000000000000000000000000000000000815260040161103690613802565b60405180910390fd5b80600d8190555050565b600c805461105690613ba0565b80601f016020809104026020016040519081016040528092919081815260200182805461108290613ba0565b80156110cf5780601f106110a4576101008083540402835291602001916110cf565b820191906000526020600020905b8154815290600101906020018083116110b257829003601f168201915b505050505081565b60006110e1610c41565b8210611122576040517f08c379a000000000000000000000000000000000000000000000000000000000815260040161111990613882565b60405180910390fd5b6008828154811061115c577f4e487b7100000000000000000000000000000000000000000000000000000000600052603260045260246000fd5b90600052602060002001549050919050565b611176611a6c565b73ffffffffffffffffffffffffffffffffffffffff1661119461151d565b73ffffffffffffffffffffffffffffffffffffffff16146111ea576040517f08c379a00000000000000000000000000000000000000000000000000000000081526004016111e190613802565b60405180910390fd5b80600b9080519060200190611200929190612cb9565b5050565b601060009054906101000a900460ff1681565b6000806002600084815260200190815260200160002060009054906101000a900473ffffffffffffffffffffffffffffffffffffffff169050600073ffffffffffffffffffffffffffffffffffffffff168173ffffffffffffffffffffffffffffffffffffffff1614156112c0576040517f08c379a00000000000000000000000000000000000000000000000000000000081526004016112b7906137a2565b60405180910390fd5b80915050919050565b600b80546112d690613ba0565b80601f016020809104026020016040519081016040528092919081815260200182805461130290613ba0565b801561134f5780601f106113245761010080835404028352916020019161134f565b820191906000526020600020905b81548152906001019060200180831161133257829003601f168201915b505050505081565b60008073ffffffffffffffffffffffffffffffffffffffff168273ffffffffffffffffffffffffffffffffffffffff1614156113c8576040517f08c379a00000000000000000000000000000000000000000000000000000000081526004016113bf90613782565b60405180910390fd5b600360008373ffffffffffffffffffffffffffffffffffffffff1673ffffffffffffffffffffffffffffffffffffffff168152602001908152602001600020549050919050565b611417611a6c565b73ffffffffffffffffffffffffffffffffffffffff1661143561151d565b73ffffffffffffffffffffffffffffffffffffffff161461148b576040517f08c379a000000000000000000000000000000000000000000000000000000000815260040161148290613802565b60405180910390fd5b6114956000611efc565b565b61149f611a6c565b73ffffffffffffffffffffffffffffffffffffffff166114bd61151d565b73ffffffffffffffffffffffffffffffffffffffff1614611513576040517f08c379a000000000000000000000000000000000000000000000000000000000815260040161150a90613802565b60405180910390fd5b80600f8190555050565b6000600a60009054906101000a900473ffffffffffffffffffffffffffffffffffffffff16905090565b60606001805461155690613ba0565b80601f016020809104026020016040519081016040528092919081815260200182805461158290613ba0565b80156115cf5780601f106115a4576101008083540402835291602001916115cf565b820191906000526020600020905b8154815290600101906020018083116115b257829003601f168201915b5050505050905090565b6115eb6115e4611a6c565b8383611fc2565b5050565b6116006115fa611a6c565b83611bb7565b61163f576040517f08c379a000000000000000000000000000000000000000000000000000000000815260040161163690613862565b60405180910390fd5b61164b8484848461212f565b50505050565b606061165c82611a74565b61169b576040517f08c379a000000000000000000000000000000000000000000000000000000000815260040161169290613822565b60405180910390fd5b60006116a561218b565b905060008151116116c557604051806020016040528060008152506116f4565b600b6116d08461221d565b600c6040516020016116e49392919061356b565b6040516020818303038152906040525b915050919050565b6060600061170983611357565b67ffffffffffffffff811115611748577f4e487b7100000000000000000000000000000000000000000000000000000000600052604160045260246000fd5b6040519080825280602002602001820160405280156117765781602001602082028036833780820191505090505b50905060005b61178584611357565b8110156117ee576117968482610d4a565b8282815181106117cf577f4e487b7100000000000000000000000000000000000000000000000000000000600052603260045260246000fd5b60200260200101818152505080806117e690613c03565b91505061177c565b8192505050919050565b600e5481565b6000600560008473ffffffffffffffffffffffffffffffffffffffff1673ffffffffffffffffffffffffffffffffffffffff16815260200190815260200160002060008373ffffffffffffffffffffffffffffffffffffffff1673ffffffffffffffffffffffffffffffffffffffff16815260200190815260200160002060009054906101000a900460ff16905092915050565b61189a611a6c565b73ffffffffffffffffffffffffffffffffffffffff166118b861151d565b73ffffffffffffffffffffffffffffffffffffffff161461190e576040517f08c379a000000000000000000000000000000000000000000000000000000000815260040161190590613802565b60405180910390fd5b600073ffffffffffffffffffffffffffffffffffffffff168173ffffffffffffffffffffffffffffffffffffffff16141561197e576040517f08c379a0000000000000000000000000000000000000000000000000000000008152600401611975906136a2565b60405180910390fd5b61198781611efc565b50565b60007f80ac58cd000000000000000000000000000000000000000000000000000000007bffffffffffffffffffffffffffffffffffffffffffffffffffffffff1916827bffffffffffffffffffffffffffffffffffffffffffffffffffffffff19161480611a5557507f5b5e139f000000000000000000000000000000000000000000000000000000007bffffffffffffffffffffffffffffffffffffffffffffffffffffffff1916827bffffffffffffffffffffffffffffffffffffffffffffffffffffffff1916145b80611a655750611a64826123ca565b5b9050919050565b600033905090565b60008073ffffffffffffffffffffffffffffffffffffffff166002600084815260200190815260200160002060009054906101000a900473ffffffffffffffffffffffffffffffffffffffff1673ffffffffffffffffffffffffffffffffffffffff1614159050919050565b816004600083815260200190815260200160002060006101000a81548173ffffffffffffffffffffffffffffffffffffffff021916908373ffffffffffffffffffffffffffffffffffffffff160217905550808273ffffffffffffffffffffffffffffffffffffffff16611b5383611217565b73ffffffffffffffffffffffffffffffffffffffff167f8c5be1e5ebec7d5bd14f71427d1e84f3dd0314c0f7b2291e5b200ac8c7c3b92560405160405180910390a45050565b611bb3828260405180602001604052806000815250612434565b5050565b6000611bc282611a74565b611c01576040517f08c379a0000000000000000000000000000000000000000000000000000000008152600401611bf890613742565b60405180910390fd5b6000611c0c83611217565b90508073ffffffffffffffffffffffffffffffffffffffff168473ffffffffffffffffffffffffffffffffffffffff161480611c7b57508373ffffffffffffffffffffffffffffffffffffffff16611c63846109b3565b73ffffffffffffffffffffffffffffffffffffffff16145b80611c8c5750611c8b81856117fe565b5b91505092915050565b8273ffffffffffffffffffffffffffffffffffffffff16611cb582611217565b73ffffffffffffffffffffffffffffffffffffffff1614611d0b576040517f08c379a0000000000000000000000000000000000000000000000000000000008152600401611d02906136c2565b60405180910390fd5b600073ffffffffffffffffffffffffffffffffffffffff168273ffffffffffffffffffffffffffffffffffffffff161415611d7b576040517f08c379a0000000000000000000000000000000000000000000000000000000008152600401611d7290613702565b60405180910390fd5b611d8683838361248f565b611d91600082611ae0565b6001600360008573ffffffffffffffffffffffffffffffffffffffff1673ffffffffffffffffffffffffffffffffffffffff1681526020019081526020016000206000828254611de19190613ab6565b925050819055506001600360008473ffffffffffffffffffffffffffffffffffffffff1673ffffffffffffffffffffffffffffffffffffffff1681526020019081526020016000206000828254611e3891906139d5565b92505081905550816002600083815260200190815260200160002060006101000a81548173ffffffffffffffffffffffffffffffffffffffff021916908373ffffffffffffffffffffffffffffffffffffffff160217905550808273ffffffffffffffffffffffffffffffffffffffff168473ffffffffffffffffffffffffffffffffffffffff167fddf252ad1be2c89b69c2b068fc378daa952ba7f163c4a11628f55a4df523b3ef60405160405180910390a4611ef78383836125a3565b505050565b6000600a60009054906101000a900473ffffffffffffffffffffffffffffffffffffffff16905081600a60006101000a81548173ffffffffffffffffffffffffffffffffffffffff021916908373ffffffffffffffffffffffffffffffffffffffff1602179055508173ffffffffffffffffffffffffffffffffffffffff168173ffffffffffffffffffffffffffffffffffffffff167f8be0079c531659141344cd1fd0a4f28419497f9722a3daafe3b4186f6b6457e060405160405180910390a35050565b8173ffffffffffffffffffffffffffffffffffffffff168373ffffffffffffffffffffffffffffffffffffffff161415612031576040517f08c379a000000000000000000000000000000000000000000000000000000000815260040161202890613722565b60405180910390fd5b80600560008573ffffffffffffffffffffffffffffffffffffffff1673ffffffffffffffffffffffffffffffffffffffff16815260200190815260200160002060008473ffffffffffffffffffffffffffffffffffffffff1673ffffffffffffffffffffffffffffffffffffffff16815260200190815260200160002060006101000a81548160ff0219169083151502179055508173ffffffffffffffffffffffffffffffffffffffff168373ffffffffffffffffffffffffffffffffffffffff167f17307eab39ab6107e8899845ad3d59bd9653f200f220920489ca2b5937696c31836040516121229190613625565b60405180910390a3505050565b61213a848484611c95565b612146848484846125a8565b612185576040517f08c379a000000000000000000000000000000000000000000000000000000000815260040161217c90613682565b60405180910390fd5b50505050565b6060600b805461219a90613ba0565b80601f01602080910402602001604051908101604052809291908181526020018280546121c690613ba0565b80156122135780601f106121e857610100808354040283529160200191612213565b820191906000526020600020905b8154815290600101906020018083116121f657829003601f168201915b5050505050905090565b60606000821415612265576040518060400160405280600181526020017f300000000000000000000000000000000000000000000000000000000000000081525090506123c5565b600082905060005b6000821461229757808061228090613c03565b915050600a826122909190613a2b565b915061226d565b60008167ffffffffffffffff8111156122d9577f4e487b7100000000000000000000000000000000000000000000000000000000600052604160045260246000fd5b6040519080825280601f01601f19166020018201604052801561230b5781602001600182028036833780820191505090505b5090505b600085146123be576001826123249190613ab6565b9150600a856123339190613c4c565b603061233f91906139d5565b60f81b81838151811061237b577f4e487b7100000000000000000000000000000000000000000000000000000000600052603260045260246000fd5b60200101907effffffffffffffffffffffffffffffffffffffffffffffffffffffffffffff1916908160001a905350600a856123b79190613a2b565b945061230f565b8093505050505b919050565b60007f01ffc9a7000000000000000000000000000000000000000000000000000000007bffffffffffffffffffffffffffffffffffffffffffffffffffffffff1916827bffffffffffffffffffffffffffffffffffffffffffffffffffffffff1916149050919050565b61243e838361273f565b61244b60008484846125a8565b61248a576040517f08c379a000000000000000000000000000000000000000000000000000000000815260040161248190613682565b60405180910390fd5b505050565b61249a838383612919565b600073ffffffffffffffffffffffffffffffffffffffff168373ffffffffffffffffffffffffffffffffffffffff1614156124dd576124d88161291e565b61251c565b8173ffffffffffffffffffffffffffffffffffffffff168373ffffffffffffffffffffffffffffffffffffffff161461251b5761251a8382612967565b5b5b600073ffffffffffffffffffffffffffffffffffffffff168273ffffffffffffffffffffffffffffffffffffffff16141561255f5761255a81612ad4565b61259e565b8273ffffffffffffffffffffffffffffffffffffffff168273ffffffffffffffffffffffffffffffffffffffff161461259d5761259c8282612c17565b5b5b505050565b505050565b60006125c98473ffffffffffffffffffffffffffffffffffffffff16612c96565b15612732578373ffffffffffffffffffffffffffffffffffffffff1663150b7a026125f2611a6c565b8786866040518563ffffffff1660e01b815260040161261494939291906135b7565b602060405180830381600087803b15801561262e57600080fd5b505af192505050801561265f57506040513d601f19601f8201168201806040525081019061265c919061308e565b60015b6126e2573d806000811461268f576040519150601f19603f3d011682016040523d82523d6000602084013e612694565b606091505b506000815114156126da576040517f08c379a00000000000000000000000000000000000000000000000000000000081526004016126d190613682565b60405180910390fd5b805181602001fd5b63150b7a0260e01b7bffffffffffffffffffffffffffffffffffffffffffffffffffffffff1916817bffffffffffffffffffffffffffffffffffffffffffffffffffffffff191614915050612737565b600190505b949350505050565b600073ffffffffffffffffffffffffffffffffffffffff168273ffffffffffffffffffffffffffffffffffffffff1614156127af576040517f08c379a00000000000000000000000000000000000000000000000000000000081526004016127a6906137c2565b60405180910390fd5b6127b881611a74565b156127f8576040517f08c379a00000000000000000000000000000000000000000000000000000000081526004016127ef906136e2565b60405180910390fd5b6128046000838361248f565b6001600360008473ffffffffffffffffffffffffffffffffffffffff1673ffffffffffffffffffffffffffffffffffffffff168152602001908152602001600020600082825461285491906139d5565b92505081905550816002600083815260200190815260200160002060006101000a81548173ffffffffffffffffffffffffffffffffffffffff021916908373ffffffffffffffffffffffffffffffffffffffff160217905550808273ffffffffffffffffffffffffffffffffffffffff16600073ffffffffffffffffffffffffffffffffffffffff167fddf252ad1be2c89b69c2b068fc378daa952ba7f163c4a11628f55a4df523b3ef60405160405180910390a4612915600083836125a3565b5050565b505050565b6008805490506009600083815260200190815260200160002081905550600881908060018154018082558091505060019003906000526020600020016000909190919091505550565b6000600161297484611357565b61297e9190613ab6565b9050600060076000848152602001908152602001600020549050818114612a63576000600660008673ffffffffffffffffffffffffffffffffffffffff1673ffffffffffffffffffffffffffffffffffffffff168152602001908152602001600020600084815260200190815260200160002054905080600660008773ffffffffffffffffffffffffffffffffffffffff1673ffffffffffffffffffffffffffffffffffffffff168152602001908152602001600020600084815260200190815260200160002081905550816007600083815260200190815260200160002081905550505b6007600084815260200190815260200160002060009055600660008573ffffffffffffffffffffffffffffffffffffffff1673ffffffffffffffffffffffffffffffffffffffff16815260200190815260200160002060008381526020019081526020016000206000905550505050565b60006001600880549050612ae89190613ab6565b9050600060096000848152602001908152602001600020549050600060088381548110612b3e577f4e487b7100000000000000000000000000000000000000000000000000000000600052603260045260246000fd5b906000526020600020015490508060088381548110612b86577f4e487b7100000000000000000000000000000000000000000000000000000000600052603260045260246000fd5b906000526020600020018190555081600960008381526020019081526020016000208190555060096000858152602001908152602001600020600090556008805480612bfb577f4e487b7100000000000000000000000000000000000000000000000000000000600052603160045260246000fd5b6001900381819060005260206000200160009055905550505050565b6000612c2283611357565b905081600660008573ffffffffffffffffffffffffffffffffffffffff1673ffffffffffffffffffffffffffffffffffffffff168152602001908152602001600020600083815260200190815260200160002081905550806007600084815260200190815260200160002081905550505050565b6000808273ffffffffffffffffffffffffffffffffffffffff163b119050919050565b828054612cc590613ba0565b90600052602060002090601f016020900481019282612ce75760008555612d2e565b82601f10612d0057805160ff1916838001178555612d2e565b82800160010185558215612d2e579182015b82811115612d2d578251825591602001919060010190612d12565b5b509050612d3b9190612d3f565b5090565b5b80821115612d58576000816000905550600101612d40565b5090565b6000612d6f612d6a846138e2565b6138bd565b905082815260208101848484011115612d8757600080fd5b612d92848285613b5e565b509392505050565b6000612dad612da884613913565b6138bd565b905082815260208101848484011115612dc557600080fd5b612dd0848285613b5e565b509392505050565b600081359050612de781614240565b92915050565b600081359050612dfc81614257565b92915050565b600081359050612e118161426e565b92915050565b600081519050612e268161426e565b92915050565b600082601f830112612e3d57600080fd5b8135612e4d848260208601612d5c565b91505092915050565b600082601f830112612e6757600080fd5b8135612e77848260208601612d9a565b91505092915050565b600081359050612e8f81614285565b92915050565b600060208284031215612ea757600080fd5b6000612eb584828501612dd8565b91505092915050565b60008060408385031215612ed157600080fd5b6000612edf85828601612dd8565b9250506020612ef085828601612dd8565b9150509250929050565b600080600060608486031215612f0f57600080fd5b6000612f1d86828701612dd8565b9350506020612f2e86828701612dd8565b9250506040612f3f86828701612e80565b9150509250925092565b60008060008060808587031215612f5f57600080fd5b6000612f6d87828801612dd8565b9450506020612f7e87828801612dd8565b9350506040612f8f87828801612e80565b925050606085013567ffffffffffffffff811115612fac57600080fd5b612fb887828801612e2c565b91505092959194509250565b60008060408385031215612fd757600080fd5b6000612fe585828601612dd8565b9250506020612ff685828601612ded565b9150509250929050565b6000806040838503121561301357600080fd5b600061302185828601612dd8565b925050602061303285828601612e80565b9150509250929050565b60006020828403121561304e57600080fd5b600061305c84828501612ded565b91505092915050565b60006020828403121561307757600080fd5b600061308584828501612e02565b91505092915050565b6000602082840312156130a057600080fd5b60006130ae84828501612e17565b91505092915050565b6000602082840312156130c957600080fd5b600082013567ffffffffffffffff8111156130e357600080fd5b6130ef84828501612e56565b91505092915050565b60006020828403121561310a57600080fd5b600061311884828501612e80565b91505092915050565b600061312d838361354d565b60208301905092915050565b61314281613aea565b82525050565b600061315382613969565b61315d8185613997565b935061316883613944565b8060005b838110156131995781516131808882613121565b975061318b8361398a565b92505060018101905061316c565b5085935050505092915050565b6131af81613afc565b82525050565b60006131c082613974565b6131ca81856139a8565b93506131da818560208601613b6d565b6131e381613d39565b840191505092915050565b60006131f98261397f565b61320381856139b9565b9350613213818560208601613b6d565b61321c81613d39565b840191505092915050565b60006132328261397f565b61323c81856139ca565b935061324c818560208601613b6d565b80840191505092915050565b6000815461326581613ba0565b61326f81866139ca565b9450600182166000811461328a576001811461329b576132ce565b60ff198316865281860193506132ce565b6132a485613954565b60005b838110156132c6578154818901526001820191506020810190506132a7565b838801955050505b50505092915050565b60006132e4602b836139b9565b91506132ef82613d4a565b604082019050919050565b60006133076032836139b9565b915061331282613d99565b604082019050919050565b600061332a6026836139b9565b915061333582613de8565b604082019050919050565b600061334d6025836139b9565b915061335882613e37565b604082019050919050565b6000613370601c836139b9565b915061337b82613e86565b602082019050919050565b60006133936024836139b9565b915061339e82613eaf565b604082019050919050565b60006133b66019836139b9565b91506133c182613efe565b602082019050919050565b60006133d9602c836139b9565b91506133e482613f27565b604082019050919050565b60006133fc6038836139b9565b915061340782613f76565b604082019050919050565b600061341f602a836139b9565b915061342a82613fc5565b604082019050919050565b60006134426029836139b9565b915061344d82614014565b604082019050919050565b60006134656020836139b9565b915061347082614063565b602082019050919050565b6000613488602c836139b9565b91506134938261408c565b604082019050919050565b60006134ab6020836139b9565b91506134b6826140db565b602082019050919050565b60006134ce602f836139b9565b91506134d982614104565b604082019050919050565b60006134f16021836139b9565b91506134fc82614153565b604082019050919050565b60006135146031836139b9565b915061351f826141a2565b604082019050919050565b6000613537602c836139b9565b9150613542826141f1565b604082019050919050565b61355681613b54565b82525050565b61356581613b54565b82525050565b60006135778286613258565b91506135838285613227565b915061358f8284613258565b9150819050949350505050565b60006020820190506135b16000830184613139565b92915050565b60006080820190506135cc6000830187613139565b6135d96020830186613139565b6135e6604083018561355c565b81810360608301526135f881846131b5565b905095945050505050565b6000602082019050818103600083015261361d8184613148565b905092915050565b600060208201905061363a60008301846131a6565b92915050565b6000602082019050818103600083015261365a81846131ee565b905092915050565b6000602082019050818103600083015261367b816132d7565b9050919050565b6000602082019050818103600083015261369b816132fa565b9050919050565b600060208201905081810360008301526136bb8161331d565b9050919050565b600060208201905081810360008301526136db81613340565b9050919050565b600060208201905081810360008301526136fb81613363565b9050919050565b6000602082019050818103600083015261371b81613386565b9050919050565b6000602082019050818103600083015261373b816133a9565b9050919050565b6000602082019050818103600083015261375b816133cc565b9050919050565b6000602082019050818103600083015261377b816133ef565b9050919050565b6000602082019050818103600083015261379b81613412565b9050919050565b600060208201905081810360008301526137bb81613435565b9050919050565b600060208201905081810360008301526137db81613458565b9050919050565b600060208201905081810360008301526137fb8161347b565b9050919050565b6000602082019050818103600083015261381b8161349e565b9050919050565b6000602082019050818103600083015261383b816134c1565b9050919050565b6000602082019050818103600083015261385b816134e4565b9050919050565b6000602082019050818103600083015261387b81613507565b9050919050565b6000602082019050818103600083015261389b8161352a565b9050919050565b60006020820190506138b7600083018461355c565b92915050565b60006138c76138d8565b90506138d38282613bd2565b919050565b6000604051905090565b600067ffffffffffffffff8211156138fd576138fc613d0a565b5b61390682613d39565b9050602081019050919050565b600067ffffffffffffffff82111561392e5761392d613d0a565b5b61393782613d39565b9050602081019050919050565b6000819050602082019050919050565b60008190508160005260206000209050919050565b600081519050919050565b600081519050919050565b600081519050919050565b6000602082019050919050565b600082825260208201905092915050565b600082825260208201905092915050565b600082825260208201905092915050565b600081905092915050565b60006139e082613b54565b91506139eb83613b54565b9250827fffffffffffffffffffffffffffffffffffffffffffffffffffffffffffffffff03821115613a2057613a1f613c7d565b5b828201905092915050565b6000613a3682613b54565b9150613a4183613b54565b925082613a5157613a50613cac565b5b828204905092915050565b6000613a6782613b54565b9150613a7283613b54565b9250817fffffffffffffffffffffffffffffffffffffffffffffffffffffffffffffffff0483118215151615613aab57613aaa613c7d565b5b828202905092915050565b6000613ac182613b54565b9150613acc83613b54565b925082821015613adf57613ade613c7d565b5b828203905092915050565b6000613af582613b34565b9050919050565b60008115159050919050565b60007fffffffff0000000000000000000000000000000000000000000000000000000082169050919050565b600073ffffffffffffffffffffffffffffffffffffffff82169050919050565b6000819050919050565b82818337600083830152505050565b60005b83811015613b8b578082015181840152602081019050613b70565b83811115613b9a576000848401525b50505050565b60006002820490506001821680613bb857607f821691505b60208210811415613bcc57613bcb613cdb565b5b50919050565b613bdb82613d39565b810181811067ffffffffffffffff82111715613bfa57613bf9613d0a565b5b80604052505050565b6000613c0e82613b54565b91507fffffffffffffffffffffffffffffffffffffffffffffffffffffffffffffffff821415613c4157613c40613c7d565b5b600182019050919050565b6000613c5782613b54565b9150613c6283613b54565b925082613c7257613c71613cac565b5b828206905092915050565b7f4e487b7100000000000000000000000000000000000000000000000000000000600052601160045260246000fd5b7f4e487b7100000000000000000000000000000000000000000000000000000000600052601260045260246000fd5b7f4e487b7100000000000000000000000000000000000000000000000000000000600052602260045260246000fd5b7f4e487b7100000000000000000000000000000000000000000000000000000000600052604160045260246000fd5b6000601f19601f8301169050919050565b7f455243373231456e756d657261626c653a206f776e657220696e646578206f7560008201527f74206f6620626f756e6473000000000000000000000000000000000000000000602082015250565b7f4552433732313a207472616e7366657220746f206e6f6e20455243373231526560008201527f63656976657220696d706c656d656e7465720000000000000000000000000000602082015250565b7f4f776e61626c653a206e6577206f776e657220697320746865207a65726f206160008201527f6464726573730000000000000000000000000000000000000000000000000000602082015250565b7f4552433732313a207472616e736665722066726f6d20696e636f72726563742060008201527f6f776e6572000000000000000000000000000000000000000000000000000000602082015250565b7f4552433732313a20746f6b656e20616c7265616479206d696e74656400000000600082015250565b7f4552433732313a207472616e7366657220746f20746865207a65726f2061646460008201527f7265737300000000000000000000000000000000000000000000000000000000602082015250565b7f4552433732313a20617070726f766520746f2063616c6c657200000000000000600082015250565b7f4552433732313a206f70657261746f7220717565727920666f72206e6f6e657860008201527f697374656e7420746f6b656e0000000000000000000000000000000000000000602082015250565b7f4552433732313a20617070726f76652063616c6c6572206973206e6f74206f7760008201527f6e6572206e6f7220617070726f76656420666f7220616c6c0000000000000000602082015250565b7f4552433732313a2062616c616e636520717565727920666f7220746865207a6560008201527f726f206164647265737300000000000000000000000000000000000000000000602082015250565b7f4552433732313a206f776e657220717565727920666f72206e6f6e657869737460008201527f656e7420746f6b656e0000000000000000000000000000000000000000000000602082015250565b7f4552433732313a206d696e7420746f20746865207a65726f2061646472657373600082015250565b7f4552433732313a20617070726f76656420717565727920666f72206e6f6e657860008201527f697374656e7420746f6b656e0000000000000000000000000000000000000000602082015250565b7f4f776e61626c653a2063616c6c6572206973206e6f7420746865206f776e6572600082015250565b7f4552433732314d657461646174613a2055524920717565727920666f72206e6f60008201527f6e6578697374656e7420746f6b656e0000000000000000000000000000000000602082015250565b7f4552433732313a20617070726f76616c20746f2063757272656e74206f776e6560008201527f7200000000000000000000000000000000000000000000000000000000000000602082015250565b7f4552433732313a207472616e736665722063616c6c6572206973206e6f74206f60008201527f776e6572206e6f7220617070726f766564000000000000000000000000000000602082015250565b7f455243373231456e756d657261626c653a20676c6f62616c20696e646578206f60008201527f7574206f6620626f756e64730000000000000000000000000000000000000000602082015250565b61424981613aea565b811461425457600080fd5b50565b61426081613afc565b811461426b57600080fd5b50565b61427781613b08565b811461428257600080fd5b50565b61428e81613b54565b811461429957600080fd5b5056fea2646970667358221220e8f0afe86207a972925fcfa744b890d63f519a99c1609e9bb6adb869d087b0fe64736f6c63430008040033",
  "linkReferences": {},
  "deployedLinkReferences": {}
}