{
    "_format": "hh-sol-artifact-1",
    "contractName": "CoreChamber",
    "sourceName": "contracts/CoreChamber.sol",
    "abi": [
        {
            "inputs": [
                {
                    "internalType": "address",
                    "name": "_tokenContract",
                    "type": "address"
                },
                {
                    "internalType": "uint256",
                    "name": "_multipler",
                    "type": "uint256"
                }
            ],
            "stateMutability": "nonpayable",
            "type": "constructor"
        },
        {
            "inputs": [
                {
                    "internalType": "uint256",
                    "name": "tokenId",
                    "type": "uint256"
                }
            ],
            "name": "getCumulativeDurationStaked",
            "outputs": [
                {
                    "internalType": "uint256",
                    "name": "",
                    "type": "uint256"
                }
            ],
            "stateMutability": "view",
            "type": "function"
        },
        {
            "inputs": [
                {
                    "internalType": "uint256",
                    "name": "tokenId",
                    "type": "uint256"
                }
            ],
            "name": "getCurrentAdditionalBalance",
            "outputs": [
                {
                    "internalType": "uint256",
                    "name": "",
                    "type": "uint256"
                }
            ],
            "stateMutability": "view",
            "type": "function"
        },
        {
            "inputs": [
                {
                    "internalType": "uint256",
                    "name": "tokenId",
                    "type": "uint256"
                }
            ],
            "name": "getStakingRewards",
            "outputs": [
                {
                    "internalType": "uint256",
                    "name": "",
                    "type": "uint256"
                }
            ],
            "stateMutability": "view",
            "type": "function"
        },
        {
            "inputs": [
                {
                    "internalType": "uint256",
                    "name": "tokenId",
                    "type": "uint256"
                }
            ],
            "name": "stake",
            "outputs": [],
            "stateMutability": "nonpayable",
            "type": "function"
        },
        {
            "inputs": [
                {
                    "internalType": "uint256",
                    "name": "",
                    "type": "uint256"
                }
            ],
            "name": "tokenToTotalDurationStaked",
            "outputs": [
                {
                    "internalType": "uint256",
                    "name": "",
                    "type": "uint256"
                }
            ],
            "stateMutability": "view",
            "type": "function"
        },
        {
            "inputs": [
                {
                    "internalType": "uint256",
                    "name": "",
                    "type": "uint256"
                }
            ],
            "name": "tokenToWhenStaked",
            "outputs": [
                {
                    "internalType": "uint256",
                    "name": "",
                    "type": "uint256"
                }
            ],
            "stateMutability": "view",
            "type": "function"
        },
        {
            "inputs": [
                {
                    "internalType": "uint256",
                    "name": "tokenId",
                    "type": "uint256"
                }
            ],
            "name": "unstake",
            "outputs": [],
            "stateMutability": "nonpayable",
            "type": "function"
        }
    ],
    "bytecode": "0x60806040526001805534801561001457600080fd5b50604051610aa3380380610aa3833981810160405281019061003691906100ae565b816000806101000a81548173ffffffffffffffffffffffffffffffffffffffff021916908373ffffffffffffffffffffffffffffffffffffffff160217905550806001819055505050610154565b60008151905061009381610126565b92915050565b6000815190506100a88161013d565b92915050565b600080604083850312156100c157600080fd5b60006100cf85828601610084565b92505060206100e085828601610099565b9150509250929050565b60006100f5826100fc565b9050919050565b600073ffffffffffffffffffffffffffffffffffffffff82169050919050565b6000819050919050565b61012f816100ea565b811461013a57600080fd5b50565b6101468161011c565b811461015157600080fd5b50565b610940806101636000396000f3fe608060405234801561001057600080fd5b506004361061007d5760003560e01c8063370577791161005b57806337057779146100fe578063a694fc3a1461012e578063ad0614f91461014a578063f1da6b971461017a5761007d565b8063067f9c101461008257806323e9afb0146100b25780632e17de78146100e2575b600080fd5b61009c6004803603810190610097919061065f565b6101aa565b6040516100a991906106e9565b60405180910390f35b6100cc60048036038101906100c7919061065f565b6101c9565b6040516100d991906106e9565b60405180910390f35b6100fc60048036038101906100f7919061065f565b6101f9565b005b6101186004803603810190610113919061065f565b6103d1565b60405161012591906106e9565b60405180910390f35b6101486004803603810190610143919061065f565b6103e9565b005b610164600480360381019061015f919061065f565b6105a7565b60405161017191906106e9565b60405180910390f35b610194600480360381019061018f919061065f565b6105f4565b6040516101a191906106e9565b60405180910390f35b60006001546101b8836101c9565b6101c29190610794565b9050919050565b60006101d4826105a7565b60036000848152602001908152602001600020546101f2919061073e565b9050919050565b3373ffffffffffffffffffffffffffffffffffffffff1660008054906101000a900473ffffffffffffffffffffffffffffffffffffffff1673ffffffffffffffffffffffffffffffffffffffff16636352211e836040518263ffffffff1660e01b815260040161026991906106e9565b60206040518083038186803b15801561028157600080fd5b505afa158015610295573d6000803e3d6000fd5b505050506040513d601f19601f820116820180604052508101906102b99190610636565b73ffffffffffffffffffffffffffffffffffffffff161461030f576040517f08c379a0000000000000000000000000000000000000000000000000000000008152600401610306906106c9565b60405180910390fd5b610318816105a7565b60036000838152602001908152602001600020600082825461033a919061073e565b9250508190555060008054906101000a900473ffffffffffffffffffffffffffffffffffffffff1673ffffffffffffffffffffffffffffffffffffffff1663592109da82336040518363ffffffff1660e01b815260040161039c929190610704565b600060405180830381600087803b1580156103b657600080fd5b505af11580156103ca573d6000803e3d6000fd5b5050505050565b60036020528060005260406000206000915090505481565b3373ffffffffffffffffffffffffffffffffffffffff1660008054906101000a900473ffffffffffffffffffffffffffffffffffffffff1673ffffffffffffffffffffffffffffffffffffffff16636352211e836040518263ffffffff1660e01b815260040161045991906106e9565b60206040518083038186803b15801561047157600080fd5b505afa158015610485573d6000803e3d6000fd5b505050506040513d601f19601f820116820180604052508101906104a99190610636565b73ffffffffffffffffffffffffffffffffffffffff16146104ff576040517f08c379a00000000000000000000000000000000000000000000000000000000081526004016104f6906106c9565b60405180910390fd5b43600260008381526020019081526020016000208190555060008054906101000a900473ffffffffffffffffffffffffffffffffffffffff1673ffffffffffffffffffffffffffffffffffffffff16639a35025182336040518363ffffffff1660e01b8152600401610572929190610704565b600060405180830381600087803b15801561058c57600080fd5b505af11580156105a0573d6000803e3d6000fd5b5050505050565b600080600260008481526020019081526020016000205411156105ea576002600083815260200190815260200160002054436105e391906107ee565b90506105ef565b600090505b919050565b60026020528060005260406000206000915090505481565b60008151905061061b816108dc565b92915050565b600081359050610630816108f3565b92915050565b60006020828403121561064857600080fd5b60006106568482850161060c565b91505092915050565b60006020828403121561067157600080fd5b600061067f84828501610621565b91505092915050565b61069181610822565b82525050565b60006106a460238361072d565b91506106af8261088d565b604082019050919050565b6106c381610854565b82525050565b600060208201905081810360008301526106e281610697565b9050919050565b60006020820190506106fe60008301846106ba565b92915050565b600060408201905061071960008301856106ba565b6107266020830184610688565b9392505050565b600082825260208201905092915050565b600061074982610854565b915061075483610854565b9250827fffffffffffffffffffffffffffffffffffffffffffffffffffffffffffffffff038211156107895761078861085e565b5b828201905092915050565b600061079f82610854565b91506107aa83610854565b9250817fffffffffffffffffffffffffffffffffffffffffffffffffffffffffffffffff04831182151516156107e3576107e261085e565b5b828202905092915050565b60006107f982610854565b915061080483610854565b9250828210156108175761081661085e565b5b828203905092915050565b600061082d82610834565b9050919050565b600073ffffffffffffffffffffffffffffffffffffffff82169050919050565b6000819050919050565b7f4e487b7100000000000000000000000000000000000000000000000000000000600052601160045260246000fd5b7f596f7520617265206e6f7420746865206f776e6572206f66207468697320746f60008201527f6b656e0000000000000000000000000000000000000000000000000000000000602082015250565b6108e581610822565b81146108f057600080fd5b50565b6108fc81610854565b811461090757600080fd5b5056fea264697066735822122018d39f991a5307a3a5a7b055089038cc8f65155007b6a023a6c8b5d221b1100f64736f6c63430008040033",
    "linkReferences": {},
    "deployedLinkReferences": {}
}