{
  "_format": "hh-sol-artifact-1",
  "contractName": "BobotMegaBot",
  "sourceName": "contracts/BobotMegaBot.sol",
  "abi": [
    {
      "anonymous": false,
      "inputs": [
        {
          "indexed": true,
          "internalType": "address",
          "name": "owner",
          "type": "address"
        },
        {
          "indexed": true,
          "internalType": "address",
          "name": "approved",
          "type": "address"
        },
        {
          "indexed": true,
          "internalType": "uint256",
          "name": "tokenId",
          "type": "uint256"
        }
      ],
      "name": "Approval",
      "type": "event"
    },
    {
      "anonymous": false,
      "inputs": [
        {
          "indexed": true,
          "internalType": "address",
          "name": "owner",
          "type": "address"
        },
        {
          "indexed": true,
          "internalType": "address",
          "name": "operator",
          "type": "address"
        },
        {
          "indexed": false,
          "internalType": "bool",
          "name": "approved",
          "type": "bool"
        }
      ],
      "name": "ApprovalForAll",
      "type": "event"
    },
    {
      "anonymous": false,
      "inputs": [
        {
          "indexed": true,
          "internalType": "address",
          "name": "previousOwner",
          "type": "address"
        },
        {
          "indexed": true,
          "internalType": "address",
          "name": "newOwner",
          "type": "address"
        }
      ],
      "name": "OwnershipTransferred",
      "type": "event"
    },
    {
      "anonymous": false,
      "inputs": [
        {
          "indexed": true,
          "internalType": "address",
          "name": "from",
          "type": "address"
        },
        {
          "indexed": true,
          "internalType": "address",
          "name": "to",
          "type": "address"
        },
        {
          "indexed": true,
          "internalType": "uint256",
          "name": "tokenId",
          "type": "uint256"
        }
      ],
      "name": "Transfer",
      "type": "event"
    },
    {
      "inputs": [],
      "name": "_tokenIdCounter",
      "outputs": [
        {
          "internalType": "uint256",
          "name": "_value",
          "type": "uint256"
        }
      ],
      "stateMutability": "view",
      "type": "function"
    },
    {
      "inputs": [
        {
          "internalType": "address",
          "name": "to",
          "type": "address"
        },
        {
          "internalType": "uint256",
          "name": "tokenId",
          "type": "uint256"
        }
      ],
      "name": "approve",
      "outputs": [],
      "stateMutability": "nonpayable",
      "type": "function"
    },
    {
      "inputs": [
        {
          "internalType": "address",
          "name": "owner",
          "type": "address"
        }
      ],
      "name": "balanceOf",
      "outputs": [
        {
          "internalType": "uint256",
          "name": "",
          "type": "uint256"
        }
      ],
      "stateMutability": "view",
      "type": "function"
    },
    {
      "inputs": [],
      "name": "baseExtention",
      "outputs": [
        {
          "internalType": "string",
          "name": "",
          "type": "string"
        }
      ],
      "stateMutability": "view",
      "type": "function"
    },
    {
      "inputs": [],
      "name": "baseRevealedURI",
      "outputs": [
        {
          "internalType": "string",
          "name": "",
          "type": "string"
        }
      ],
      "stateMutability": "view",
      "type": "function"
    },
    {
      "inputs": [
        {
          "internalType": "uint256",
          "name": "",
          "type": "uint256"
        }
      ],
      "name": "bobotCorePoints",
      "outputs": [
        {
          "internalType": "uint256",
          "name": "",
          "type": "uint256"
        }
      ],
      "stateMutability": "view",
      "type": "function"
    },
    {
      "inputs": [],
      "name": "coreChamber",
      "outputs": [
        {
          "internalType": "contract CoreChamber",
          "name": "",
          "type": "address"
        }
      ],
      "stateMutability": "view",
      "type": "function"
    },
    {
      "inputs": [
        {
          "internalType": "uint256",
          "name": "_tokenId",
          "type": "uint256"
        },
        {
          "internalType": "uint256",
          "name": "_coreEarned",
          "type": "uint256"
        }
      ],
      "name": "coreChamberCorePointUpdate",
      "outputs": [],
      "stateMutability": "nonpayable",
      "type": "function"
    },
    {
      "inputs": [],
      "name": "coreChamberLevelCost",
      "outputs": [
        {
          "internalType": "uint256",
          "name": "",
          "type": "uint256"
        }
      ],
      "stateMutability": "view",
      "type": "function"
    },
    {
      "inputs": [
        {
          "internalType": "uint256",
          "name": "tokenId",
          "type": "uint256"
        }
      ],
      "name": "getApproved",
      "outputs": [
        {
          "internalType": "address",
          "name": "",
          "type": "address"
        }
      ],
      "stateMutability": "view",
      "type": "function"
    },
    {
      "inputs": [
        {
          "internalType": "uint256",
          "name": "_tokenID",
          "type": "uint256"
        }
      ],
      "name": "getBobotType",
      "outputs": [
        {
          "internalType": "enum IBobot.BobotType",
          "name": "",
          "type": "uint8"
        }
      ],
      "stateMutability": "view",
      "type": "function"
    },
    {
      "inputs": [
        {
          "internalType": "address",
          "name": "_owner",
          "type": "address"
        }
      ],
      "name": "getTokenIds",
      "outputs": [
        {
          "internalType": "uint256[]",
          "name": "",
          "type": "uint256[]"
        }
      ],
      "stateMutability": "view",
      "type": "function"
    },
    {
      "inputs": [
        {
          "internalType": "address",
          "name": "_magicAddress",
          "type": "address"
        }
      ],
      "name": "initialize",
      "outputs": [],
      "stateMutability": "nonpayable",
      "type": "function"
    },
    {
      "inputs": [
        {
          "internalType": "address",
          "name": "owner",
          "type": "address"
        },
        {
          "internalType": "address",
          "name": "operator",
          "type": "address"
        }
      ],
      "name": "isApprovedForAll",
      "outputs": [
        {
          "internalType": "bool",
          "name": "",
          "type": "bool"
        }
      ],
      "stateMutability": "view",
      "type": "function"
    },
    {
      "inputs": [],
      "name": "launchPad",
      "outputs": [
        {
          "internalType": "contract LaunchPad",
          "name": "",
          "type": "address"
        }
      ],
      "stateMutability": "view",
      "type": "function"
    },
    {
      "inputs": [],
      "name": "magic",
      "outputs": [
        {
          "internalType": "contract IERC20Upgradeable",
          "name": "",
          "type": "address"
        }
      ],
      "stateMutability": "view",
      "type": "function"
    },
    {
      "inputs": [],
      "name": "maxLevelAmount",
      "outputs": [
        {
          "internalType": "uint256",
          "name": "",
          "type": "uint256"
        }
      ],
      "stateMutability": "view",
      "type": "function"
    },
    {
      "inputs": [],
      "name": "maxMintAmount",
      "outputs": [
        {
          "internalType": "uint256",
          "name": "",
          "type": "uint256"
        }
      ],
      "stateMutability": "view",
      "type": "function"
    },
    {
      "inputs": [],
      "name": "maxSupply",
      "outputs": [
        {
          "internalType": "uint256",
          "name": "",
          "type": "uint256"
        }
      ],
      "stateMutability": "view",
      "type": "function"
    },
    {
      "inputs": [],
      "name": "miningDrill",
      "outputs": [
        {
          "internalType": "contract MiningDrill",
          "name": "",
          "type": "address"
        }
      ],
      "stateMutability": "view",
      "type": "function"
    },
    {
      "inputs": [],
      "name": "mintBobot",
      "outputs": [],
      "stateMutability": "payable",
      "type": "function"
    },
    {
      "inputs": [],
      "name": "mintBobotTest",
      "outputs": [],
      "stateMutability": "payable",
      "type": "function"
    },
    {
      "inputs": [],
      "name": "name",
      "outputs": [
        {
          "internalType": "string",
          "name": "",
          "type": "string"
        }
      ],
      "stateMutability": "view",
      "type": "function"
    },
    {
      "inputs": [],
      "name": "nftPerAddressLimit",
      "outputs": [
        {
          "internalType": "uint256",
          "name": "",
          "type": "uint256"
        }
      ],
      "stateMutability": "view",
      "type": "function"
    },
    {
      "inputs": [],
      "name": "owner",
      "outputs": [
        {
          "internalType": "address",
          "name": "",
          "type": "address"
        }
      ],
      "stateMutability": "view",
      "type": "function"
    },
    {
      "inputs": [
        {
          "internalType": "uint256",
          "name": "tokenId",
          "type": "uint256"
        }
      ],
      "name": "ownerOf",
      "outputs": [
        {
          "internalType": "address",
          "name": "",
          "type": "address"
        }
      ],
      "stateMutability": "view",
      "type": "function"
    },
    {
      "inputs": [
        {
          "internalType": "bool",
          "name": "_state",
          "type": "bool"
        }
      ],
      "name": "pause",
      "outputs": [],
      "stateMutability": "nonpayable",
      "type": "function"
    },
    {
      "inputs": [],
      "name": "paused",
      "outputs": [
        {
          "internalType": "bool",
          "name": "",
          "type": "bool"
        }
      ],
      "stateMutability": "view",
      "type": "function"
    },
    {
      "inputs": [],
      "name": "renounceOwnership",
      "outputs": [],
      "stateMutability": "nonpayable",
      "type": "function"
    },
    {
      "inputs": [
        {
          "internalType": "bool",
          "name": "_revealed",
          "type": "bool"
        }
      ],
      "name": "reveal",
      "outputs": [],
      "stateMutability": "nonpayable",
      "type": "function"
    },
    {
      "inputs": [],
      "name": "revealed",
      "outputs": [
        {
          "internalType": "bool",
          "name": "",
          "type": "bool"
        }
      ],
      "stateMutability": "view",
      "type": "function"
    },
    {
      "inputs": [
        {
          "internalType": "address",
          "name": "from",
          "type": "address"
        },
        {
          "internalType": "address",
          "name": "to",
          "type": "address"
        },
        {
          "internalType": "uint256",
          "name": "tokenId",
          "type": "uint256"
        }
      ],
      "name": "safeTransferFrom",
      "outputs": [],
      "stateMutability": "nonpayable",
      "type": "function"
    },
    {
      "inputs": [
        {
          "internalType": "address",
          "name": "from",
          "type": "address"
        },
        {
          "internalType": "address",
          "name": "to",
          "type": "address"
        },
        {
          "internalType": "uint256",
          "name": "tokenId",
          "type": "uint256"
        },
        {
          "internalType": "bytes",
          "name": "_data",
          "type": "bytes"
        }
      ],
      "name": "safeTransferFrom",
      "outputs": [],
      "stateMutability": "nonpayable",
      "type": "function"
    },
    {
      "inputs": [
        {
          "internalType": "address",
          "name": "operator",
          "type": "address"
        },
        {
          "internalType": "bool",
          "name": "approved",
          "type": "bool"
        }
      ],
      "name": "setApprovalForAll",
      "outputs": [],
      "stateMutability": "nonpayable",
      "type": "function"
    },
    {
      "inputs": [
        {
          "internalType": "string",
          "name": "_newBaseExtentions",
          "type": "string"
        }
      ],
      "name": "setBaseExtentions",
      "outputs": [],
      "stateMutability": "nonpayable",
      "type": "function"
    },
    {
      "inputs": [
        {
          "internalType": "string",
          "name": "_newBaseURI",
          "type": "string"
        }
      ],
      "name": "setBaseRevealedURI",
      "outputs": [],
      "stateMutability": "nonpayable",
      "type": "function"
    },
    {
      "inputs": [
        {
          "internalType": "address",
          "name": "_coreChamber",
          "type": "address"
        }
      ],
      "name": "setCoreChamber",
      "outputs": [],
      "stateMutability": "nonpayable",
      "type": "function"
    },
    {
      "inputs": [
        {
          "internalType": "address",
          "name": "_address",
          "type": "address"
        }
      ],
      "name": "setMagicAddress",
      "outputs": [],
      "stateMutability": "nonpayable",
      "type": "function"
    },
    {
      "inputs": [
        {
          "internalType": "uint256",
          "name": "_newmaxMintAmount",
          "type": "uint256"
        }
      ],
      "name": "setmaxMintAmount",
      "outputs": [],
      "stateMutability": "nonpayable",
      "type": "function"
    },
    {
      "inputs": [
        {
          "internalType": "bytes4",
          "name": "interfaceId",
          "type": "bytes4"
        }
      ],
      "name": "supportsInterface",
      "outputs": [
        {
          "internalType": "bool",
          "name": "",
          "type": "bool"
        }
      ],
      "stateMutability": "view",
      "type": "function"
    },
    {
      "inputs": [],
      "name": "symbol",
      "outputs": [
        {
          "internalType": "string",
          "name": "",
          "type": "string"
        }
      ],
      "stateMutability": "view",
      "type": "function"
    },
    {
      "inputs": [
        {
          "internalType": "uint256",
          "name": "index",
          "type": "uint256"
        }
      ],
      "name": "tokenByIndex",
      "outputs": [
        {
          "internalType": "uint256",
          "name": "",
          "type": "uint256"
        }
      ],
      "stateMutability": "view",
      "type": "function"
    },
    {
      "inputs": [
        {
          "internalType": "address",
          "name": "owner",
          "type": "address"
        },
        {
          "internalType": "uint256",
          "name": "index",
          "type": "uint256"
        }
      ],
      "name": "tokenOfOwnerByIndex",
      "outputs": [
        {
          "internalType": "uint256",
          "name": "",
          "type": "uint256"
        }
      ],
      "stateMutability": "view",
      "type": "function"
    },
    {
      "inputs": [
        {
          "internalType": "uint256",
          "name": "tokenID",
          "type": "uint256"
        }
      ],
      "name": "tokenURI",
      "outputs": [
        {
          "internalType": "string",
          "name": "",
          "type": "string"
        }
      ],
      "stateMutability": "view",
      "type": "function"
    },
    {
      "inputs": [],
      "name": "totalSupply",
      "outputs": [
        {
          "internalType": "uint256",
          "name": "",
          "type": "uint256"
        }
      ],
      "stateMutability": "view",
      "type": "function"
    },
    {
      "inputs": [
        {
          "internalType": "address",
          "name": "from",
          "type": "address"
        },
        {
          "internalType": "address",
          "name": "to",
          "type": "address"
        },
        {
          "internalType": "uint256",
          "name": "tokenId",
          "type": "uint256"
        }
      ],
      "name": "transferFrom",
      "outputs": [],
      "stateMutability": "nonpayable",
      "type": "function"
    },
    {
      "inputs": [
        {
          "internalType": "address",
          "name": "newOwner",
          "type": "address"
        }
      ],
      "name": "transferOwnership",
      "outputs": [],
      "stateMutability": "nonpayable",
      "type": "function"
    },
    {
      "inputs": [],
      "name": "withdraw",
      "outputs": [],
      "stateMutability": "payable",
      "type": "function"
    }
  ],
  "bytecode": "0x6080604052633b9aca0060fc55600a60fd55600160fe55606460ff55670de0b6b3a7640000610105556040518060400160405280600581526020017f2e6a736f6e000000000000000000000000000000000000000000000000000000815250610107908051906020019062000076929190620000d0565b50610fc861010855600561010955600061010a60006101000a81548160ff021916908315150217905550600061010a60016101000a81548160ff021916908315150217905550348015620000c957600080fd5b50620001e4565b828054620000de90620001af565b90600052602060002090601f0160209004810192826200010257600085556200014e565b82601f106200011d57805160ff19168380011785556200014e565b828001600101855582156200014e579182015b828111156200014d57825182559160200191906001019062000130565b5b5090506200015d919062000161565b5090565b5b808211156200017c57600081600090555060010162000162565b5090565b7f4e487b7100000000000000000000000000000000000000000000000000000000600052602260045260246000fd5b60006002820490506001821680620001c857607f821691505b602082108103620001de57620001dd62000180565b5b50919050565b614da980620001f46000396000f3fe6080604052600436106102935760003560e01c8063662125571161015a578063ba7d2c76116100c1578063e985e9c51161007a578063e985e9c5146109b9578063e9b27224146109f6578063ed6f57b714610a21578063f2fde38b14610a4a578063f5c8834c14610a73578063fed71b2814610a9c57610293565b8063ba7d2c7614610897578063c17846dc146108c2578063c4d66de8146108eb578063c87b56dd14610914578063d004b03614610951578063d5abeb011461098e57610293565b8063940cd05b11610113578063940cd05b146107be57806395d89b41146107e75780639aa8ae5e14610812578063a22cb4651461081c578063a6a0305414610845578063b88d4fde1461086e57610293565b806366212557146106c057806370a08231146106eb578063715018a6146107285780637f00c7a61461073f57806384c4bd4b146107685780638da5cb5b1461079357610293565b806323b872dd116101fe5780634ba5f378116101b75780634ba5f3781461059a5780634f6ccce7146105c5578063518302271461060257806358f6b16e1461062d5780635c975abb146106585780636352211e1461068357610293565b806323b872dd146104ad57806325c13203146104d65780632f745c59146104ff5780633ccfd60b1461053c57806342842e0e1461054657806343b946af1461056f57610293565b8063095ea7b311610250578063095ea7b31461039b5780630d854646146103c4578063133a979b146103ef57806318160ddd1461041a57806320bc28a514610445578063239c70ae1461048257610293565b806301ffc9a71461029857806302329a29146102d557806302428db6146102fe57806306fdde0314610308578063081812fc1461033357806308454e1214610370575b600080fd5b3480156102a457600080fd5b506102bf60048036038101906102ba9190613451565b610ad9565b6040516102cc9190613499565b60405180910390f35b3480156102e157600080fd5b506102fc60048036038101906102f791906134e0565b610b53565b005b610306610bed565b005b34801561031457600080fd5b5061031d610c21565b60405161032a91906135a6565b60405180910390f35b34801561033f57600080fd5b5061035a600480360381019061035591906135fe565b610cb3565b604051610367919061366c565b60405180910390f35b34801561037c57600080fd5b50610385610d38565b60405161039291906135a6565b60405180910390f35b3480156103a757600080fd5b506103c260048036038101906103bd91906136b3565b610dc7565b005b3480156103d057600080fd5b506103d9610ede565b6040516103e69190613752565b60405180910390f35b3480156103fb57600080fd5b50610404610f04565b604051610411919061377c565b60405180910390f35b34801561042657600080fd5b5061042f610f0a565b60405161043c919061377c565b60405180910390f35b34801561045157600080fd5b5061046c600480360381019061046791906135fe565b610f17565b604051610479919061380e565b60405180910390f35b34801561048e57600080fd5b50610497610f1e565b6040516104a4919061377c565b60405180910390f35b3480156104b957600080fd5b506104d460048036038101906104cf9190613829565b610f24565b005b3480156104e257600080fd5b506104fd60048036038101906104f891906139b1565b610f84565b005b34801561050b57600080fd5b50610526600480360381019061052191906136b3565b61101b565b604051610533919061377c565b60405180910390f35b6105446110c0565b005b34801561055257600080fd5b5061056d60048036038101906105689190613829565b61117c565b005b34801561057b57600080fd5b5061058461119c565b6040516105919190613a1b565b60405180910390f35b3480156105a657600080fd5b506105af6111c3565b6040516105bc91906135a6565b60405180910390f35b3480156105d157600080fd5b506105ec60048036038101906105e791906135fe565b611252565b6040516105f9919061377c565b60405180910390f35b34801561060e57600080fd5b506106176112c3565b6040516106249190613499565b60405180910390f35b34801561063957600080fd5b506106426112d7565b60405161064f9190613a57565b60405180910390f35b34801561066457600080fd5b5061066d6112fe565b60405161067a9190613499565b60405180910390f35b34801561068f57600080fd5b506106aa60048036038101906106a591906135fe565b611312565b6040516106b7919061366c565b60405180910390f35b3480156106cc57600080fd5b506106d56113c3565b6040516106e2919061377c565b60405180910390f35b3480156106f757600080fd5b50610712600480360381019061070d9190613a72565b6113c9565b60405161071f919061377c565b60405180910390f35b34801561073457600080fd5b5061073d611480565b005b34801561074b57600080fd5b50610766600480360381019061076191906135fe565b611508565b005b34801561077457600080fd5b5061077d61158e565b60405161078a919061377c565b60405180910390f35b34801561079f57600080fd5b506107a861159b565b6040516107b5919061366c565b60405180910390f35b3480156107ca57600080fd5b506107e560048036038101906107e091906134e0565b6115c5565b005b3480156107f357600080fd5b506107fc61165f565b60405161080991906135a6565b60405180910390f35b61081a6116f1565b005b34801561082857600080fd5b50610843600480360381019061083e9190613a9f565b611752565b005b34801561085157600080fd5b5061086c600480360381019061086791906139b1565b611768565b005b34801561087a57600080fd5b5061089560048036038101906108909190613b80565b6117ff565b005b3480156108a357600080fd5b506108ac611861565b6040516108b9919061377c565b60405180910390f35b3480156108ce57600080fd5b506108e960048036038101906108e49190613a72565b611868565b005b3480156108f757600080fd5b50610912600480360381019061090d9190613a72565b611928565b005b34801561092057600080fd5b5061093b600480360381019061093691906135fe565b611a5e565b60405161094891906135a6565b60405180910390f35b34801561095d57600080fd5b5061097860048036038101906109739190613a72565b611b4d565b6040516109859190613cc1565b60405180910390f35b34801561099a57600080fd5b506109a3611c03565b6040516109b0919061377c565b60405180910390f35b3480156109c557600080fd5b506109e060048036038101906109db9190613ce3565b611c0a565b6040516109ed9190613499565b60405180910390f35b348015610a0257600080fd5b50610a0b611c9e565b604051610a189190613d44565b60405180910390f35b348015610a2d57600080fd5b50610a486004803603810190610a439190613a72565b611cc5565b005b348015610a5657600080fd5b50610a716004803603810190610a6c9190613a72565b611d86565b005b348015610a7f57600080fd5b50610a9a6004803603810190610a959190613d5f565b611e7d565b005b348015610aa857600080fd5b50610ac36004803603810190610abe91906135fe565b611f3d565b604051610ad0919061377c565b60405180910390f35b60007f780e9d63000000000000000000000000000000000000000000000000000000007bffffffffffffffffffffffffffffffffffffffffffffffffffffffff1916827bffffffffffffffffffffffffffffffffffffffffffffffffffffffff19161480610b4c5750610b4b82611f56565b5b9050919050565b610b5b612038565b73ffffffffffffffffffffffffffffffffffffffff16610b7961159b565b73ffffffffffffffffffffffffffffffffffffffff1614610bcf576040517f08c379a0000000000000000000000000000000000000000000000000000000008152600401610bc690613deb565b60405180910390fd5b8061010a60016101000a81548160ff02191690831515021790555050565b61010a60019054906101000a900460ff1615610c0857600080fd5b6000610c12612040565b9050610c1e338261205e565b50565b606060658054610c3090613e3a565b80601f0160208091040260200160405190810160405280929190818152602001828054610c5c90613e3a565b8015610ca95780601f10610c7e57610100808354040283529160200191610ca9565b820191906000526020600020905b815481529060010190602001808311610c8c57829003601f168201915b5050505050905090565b6000610cbe82612077565b610cfd576040517f08c379a0000000000000000000000000000000000000000000000000000000008152600401610cf490613edd565b60405180910390fd5b6069600083815260200190815260200160002060009054906101000a900473ffffffffffffffffffffffffffffffffffffffff169050919050565b6101068054610d4690613e3a565b80601f0160208091040260200160405190810160405280929190818152602001828054610d7290613e3a565b8015610dbf5780601f10610d9457610100808354040283529160200191610dbf565b820191906000526020600020905b815481529060010190602001808311610da257829003601f168201915b505050505081565b6000610dd282611312565b90508073ffffffffffffffffffffffffffffffffffffffff168373ffffffffffffffffffffffffffffffffffffffff1603610e42576040517f08c379a0000000000000000000000000000000000000000000000000000000008152600401610e3990613f6f565b60405180910390fd5b8073ffffffffffffffffffffffffffffffffffffffff16610e61612038565b73ffffffffffffffffffffffffffffffffffffffff161480610e905750610e8f81610e8a612038565b611c0a565b5b610ecf576040517f08c379a0000000000000000000000000000000000000000000000000000000008152600401610ec690614001565b60405180910390fd5b610ed983836120e3565b505050565b60fb60009054906101000a900473ffffffffffffffffffffffffffffffffffffffff1681565b60ff5481565b6000609980549050905090565b6000919050565b60fe5481565b610f35610f2f612038565b8261219c565b610f74576040517f08c379a0000000000000000000000000000000000000000000000000000000008152600401610f6b90614093565b60405180910390fd5b610f7f83838361227a565b505050565b610f8c612038565b73ffffffffffffffffffffffffffffffffffffffff16610faa61159b565b73ffffffffffffffffffffffffffffffffffffffff1614611000576040517f08c379a0000000000000000000000000000000000000000000000000000000008152600401610ff790613deb565b60405180910390fd5b806101079080519060200190611017929190613342565b5050565b6000611026836113c9565b8210611067576040517f08c379a000000000000000000000000000000000000000000000000000000000815260040161105e90614125565b60405180910390fd5b609760008473ffffffffffffffffffffffffffffffffffffffff1673ffffffffffffffffffffffffffffffffffffffff168152602001908152602001600020600083815260200190815260200160002054905092915050565b6110c8612038565b73ffffffffffffffffffffffffffffffffffffffff166110e661159b565b73ffffffffffffffffffffffffffffffffffffffff161461113c576040517f08c379a000000000000000000000000000000000000000000000000000000000815260040161113390613deb565b60405180910390fd5b3373ffffffffffffffffffffffffffffffffffffffff166108fc479081150290604051600060405180830381858888f1935050505061117a57600080fd5b565b611197838383604051806020016040528060008152506117ff565b505050565b61010160009054906101000a900473ffffffffffffffffffffffffffffffffffffffff1681565b61010780546111d190613e3a565b80601f01602080910402602001604051908101604052809291908181526020018280546111fd90613e3a565b801561124a5780601f1061121f5761010080835404028352916020019161124a565b820191906000526020600020905b81548152906001019060200180831161122d57829003601f168201915b505050505081565b600061125c610f0a565b821061129d576040517f08c379a0000000000000000000000000000000000000000000000000000000008152600401611294906141b7565b60405180910390fd5b609982815481106112b1576112b06141d7565b5b90600052602060002001549050919050565b61010a60009054906101000a900460ff1681565b61010360009054906101000a900473ffffffffffffffffffffffffffffffffffffffff1681565b61010a60019054906101000a900460ff1681565b6000806067600084815260200190815260200160002060009054906101000a900473ffffffffffffffffffffffffffffffffffffffff169050600073ffffffffffffffffffffffffffffffffffffffff168173ffffffffffffffffffffffffffffffffffffffff16036113ba576040517f08c379a00000000000000000000000000000000000000000000000000000000081526004016113b190614278565b60405180910390fd5b80915050919050565b60fd5481565b60008073ffffffffffffffffffffffffffffffffffffffff168273ffffffffffffffffffffffffffffffffffffffff1603611439576040517f08c379a00000000000000000000000000000000000000000000000000000000081526004016114309061430a565b60405180910390fd5b606860008373ffffffffffffffffffffffffffffffffffffffff1673ffffffffffffffffffffffffffffffffffffffff168152602001908152602001600020549050919050565b611488612038565b73ffffffffffffffffffffffffffffffffffffffff166114a661159b565b73ffffffffffffffffffffffffffffffffffffffff16146114fc576040517f08c379a00000000000000000000000000000000000000000000000000000000081526004016114f390613deb565b60405180910390fd5b61150660006124e0565b565b611510612038565b73ffffffffffffffffffffffffffffffffffffffff1661152e61159b565b73ffffffffffffffffffffffffffffffffffffffff1614611584576040517f08c379a000000000000000000000000000000000000000000000000000000000815260040161157b90613deb565b60405180910390fd5b8060fe8190555050565b61010b8060000154905081565b600060c960009054906101000a900473ffffffffffffffffffffffffffffffffffffffff16905090565b6115cd612038565b73ffffffffffffffffffffffffffffffffffffffff166115eb61159b565b73ffffffffffffffffffffffffffffffffffffffff1614611641576040517f08c379a000000000000000000000000000000000000000000000000000000000815260040161163890613deb565b60405180910390fd5b8061010a60006101000a81548160ff02191690831515021790555050565b60606066805461166e90613e3a565b80601f016020809104026020016040519081016040528092919081815260200182805461169a90613e3a565b80156116e75780601f106116bc576101008083540402835291602001916116e7565b820191906000526020600020905b8154815290600101906020018083116116ca57829003601f168201915b5050505050905090565b61010a60019054906101000a900460ff161561170c57600080fd5b600080600190505b81811161174e576000611725612040565b905061173c3383836117379190614359565b61205e565b5080611747906143af565b9050611714565b5050565b61176461175d612038565b83836125a6565b5050565b611770612038565b73ffffffffffffffffffffffffffffffffffffffff1661178e61159b565b73ffffffffffffffffffffffffffffffffffffffff16146117e4576040517f08c379a00000000000000000000000000000000000000000000000000000000081526004016117db90613deb565b60405180910390fd5b8061010690805190602001906117fb929190613342565b5050565b61181061180a612038565b8361219c565b61184f576040517f08c379a000000000000000000000000000000000000000000000000000000000815260040161184690614093565b60405180910390fd5b61185b84848484612712565b50505050565b6101095481565b611870612038565b73ffffffffffffffffffffffffffffffffffffffff1661188e61159b565b73ffffffffffffffffffffffffffffffffffffffff16146118e4576040517f08c379a00000000000000000000000000000000000000000000000000000000081526004016118db90613deb565b60405180910390fd5b8060fb60006101000a81548173ffffffffffffffffffffffffffffffffffffffff021916908373ffffffffffffffffffffffffffffffffffffffff16021790555050565b600060019054906101000a900460ff166119505760008054906101000a900460ff1615611959565b61195861276e565b5b611998576040517f08c379a000000000000000000000000000000000000000000000000000000000815260040161198f90614469565b60405180910390fd5b60008060019054906101000a900460ff1615905080156119e8576001600060016101000a81548160ff02191690831515021790555060016000806101000a81548160ff0219169083151502179055505b6119f061277f565b6119f86127d0565b8160fb60006101000a81548173ffffffffffffffffffffffffffffffffffffffff021916908373ffffffffffffffffffffffffffffffffffffffff1602179055508015611a5a5760008060016101000a81548160ff0219169083151502179055505b5050565b6060611a6982612077565b611aa8576040517f08c379a0000000000000000000000000000000000000000000000000000000008152600401611a9f906144fb565b60405180910390fd5b6000611ab2612829565b90506000611ae360ff54610104600087815260200190815260200160002054611adb919061454a565b60fd546128bc565b90506000610106611af3866128d5565b611afc846128d5565b610107604051602001611b129493929190614697565b60405160208183030381529060405290506000835111611b415760405180602001604052806000815250611b43565b805b9350505050919050565b60606000611b5a836113c9565b905060008167ffffffffffffffff811115611b7857611b77613886565b5b604051908082528060200260200182016040528015611ba65781602001602082028036833780820191505090505b50905060005b611bb5856113c9565b811015611bf857611bc6858261101b565b828281518110611bd957611bd86141d7565b5b6020026020010181815250508080611bf0906143af565b915050611bac565b819350505050919050565b6101085481565b6000606a60008473ffffffffffffffffffffffffffffffffffffffff1673ffffffffffffffffffffffffffffffffffffffff16815260200190815260200160002060008373ffffffffffffffffffffffffffffffffffffffff1673ffffffffffffffffffffffffffffffffffffffff16815260200190815260200160002060009054906101000a900460ff16905092915050565b61010260009054906101000a900473ffffffffffffffffffffffffffffffffffffffff1681565b611ccd612038565b73ffffffffffffffffffffffffffffffffffffffff16611ceb61159b565b73ffffffffffffffffffffffffffffffffffffffff1614611d41576040517f08c379a0000000000000000000000000000000000000000000000000000000008152600401611d3890613deb565b60405180910390fd5b8061010160006101000a81548173ffffffffffffffffffffffffffffffffffffffff021916908373ffffffffffffffffffffffffffffffffffffffff16021790555050565b611d8e612038565b73ffffffffffffffffffffffffffffffffffffffff16611dac61159b565b73ffffffffffffffffffffffffffffffffffffffff1614611e02576040517f08c379a0000000000000000000000000000000000000000000000000000000008152600401611df990613deb565b60405180910390fd5b600073ffffffffffffffffffffffffffffffffffffffff168173ffffffffffffffffffffffffffffffffffffffff1603611e71576040517f08c379a0000000000000000000000000000000000000000000000000000000008152600401611e6890614752565b60405180910390fd5b611e7a816124e0565b50565b61010160009054906101000a900473ffffffffffffffffffffffffffffffffffffffff1673ffffffffffffffffffffffffffffffffffffffff163373ffffffffffffffffffffffffffffffffffffffff1614611f0e576040517f08c379a0000000000000000000000000000000000000000000000000000000008152600401611f05906147be565b60405180910390fd5b8061010460008481526020019081526020016000206000828254611f329190614359565b925050819055505050565b6101046020528060005260406000206000915090505481565b60007f80ac58cd000000000000000000000000000000000000000000000000000000007bffffffffffffffffffffffffffffffffffffffffffffffffffffffff1916827bffffffffffffffffffffffffffffffffffffffffffffffffffffffff1916148061202157507f5b5e139f000000000000000000000000000000000000000000000000000000007bffffffffffffffffffffffffffffffffffffffffffffffffffffffff1916827bffffffffffffffffffffffffffffffffffffffffffffffffffffffff1916145b80612031575061203082612a35565b5b9050919050565b600033905090565b6000600161204f61010b612a9f565b6120599190614359565b905090565b6120688282612aad565b61207361010b612acb565b5050565b60008073ffffffffffffffffffffffffffffffffffffffff166067600084815260200190815260200160002060009054906101000a900473ffffffffffffffffffffffffffffffffffffffff1673ffffffffffffffffffffffffffffffffffffffff1614159050919050565b816069600083815260200190815260200160002060006101000a81548173ffffffffffffffffffffffffffffffffffffffff021916908373ffffffffffffffffffffffffffffffffffffffff160217905550808273ffffffffffffffffffffffffffffffffffffffff1661215683611312565b73ffffffffffffffffffffffffffffffffffffffff167f8c5be1e5ebec7d5bd14f71427d1e84f3dd0314c0f7b2291e5b200ac8c7c3b92560405160405180910390a45050565b60006121a782612077565b6121e6576040517f08c379a00000000000000000000000000000000000000000000000000000000081526004016121dd90614850565b60405180910390fd5b60006121f183611312565b90508073ffffffffffffffffffffffffffffffffffffffff168473ffffffffffffffffffffffffffffffffffffffff16148061226057508373ffffffffffffffffffffffffffffffffffffffff1661224884610cb3565b73ffffffffffffffffffffffffffffffffffffffff16145b8061227157506122708185611c0a565b5b91505092915050565b8273ffffffffffffffffffffffffffffffffffffffff1661229a82611312565b73ffffffffffffffffffffffffffffffffffffffff16146122f0576040517f08c379a00000000000000000000000000000000000000000000000000000000081526004016122e7906148e2565b60405180910390fd5b600073ffffffffffffffffffffffffffffffffffffffff168273ffffffffffffffffffffffffffffffffffffffff160361235f576040517f08c379a000000000000000000000000000000000000000000000000000000000815260040161235690614974565b60405180910390fd5b61236a838383612ae1565b6123756000826120e3565b6001606860008573ffffffffffffffffffffffffffffffffffffffff1673ffffffffffffffffffffffffffffffffffffffff16815260200190815260200160002060008282546123c59190614994565b925050819055506001606860008473ffffffffffffffffffffffffffffffffffffffff1673ffffffffffffffffffffffffffffffffffffffff168152602001908152602001600020600082825461241c9190614359565b92505081905550816067600083815260200190815260200160002060006101000a81548173ffffffffffffffffffffffffffffffffffffffff021916908373ffffffffffffffffffffffffffffffffffffffff160217905550808273ffffffffffffffffffffffffffffffffffffffff168473ffffffffffffffffffffffffffffffffffffffff167fddf252ad1be2c89b69c2b068fc378daa952ba7f163c4a11628f55a4df523b3ef60405160405180910390a46124db838383612bf3565b505050565b600060c960009054906101000a900473ffffffffffffffffffffffffffffffffffffffff1690508160c960006101000a81548173ffffffffffffffffffffffffffffffffffffffff021916908373ffffffffffffffffffffffffffffffffffffffff1602179055508173ffffffffffffffffffffffffffffffffffffffff168173ffffffffffffffffffffffffffffffffffffffff167f8be0079c531659141344cd1fd0a4f28419497f9722a3daafe3b4186f6b6457e060405160405180910390a35050565b8173ffffffffffffffffffffffffffffffffffffffff168373ffffffffffffffffffffffffffffffffffffffff1603612614576040517f08c379a000000000000000000000000000000000000000000000000000000000815260040161260b90614a14565b60405180910390fd5b80606a60008573ffffffffffffffffffffffffffffffffffffffff1673ffffffffffffffffffffffffffffffffffffffff16815260200190815260200160002060008473ffffffffffffffffffffffffffffffffffffffff1673ffffffffffffffffffffffffffffffffffffffff16815260200190815260200160002060006101000a81548160ff0219169083151502179055508173ffffffffffffffffffffffffffffffffffffffff168373ffffffffffffffffffffffffffffffffffffffff167f17307eab39ab6107e8899845ad3d59bd9653f200f220920489ca2b5937696c31836040516127059190613499565b60405180910390a3505050565b61271d84848461227a565b61272984848484612bf8565b612768576040517f08c379a000000000000000000000000000000000000000000000000000000000815260040161275f90614aa6565b60405180910390fd5b50505050565b600061277930612d7f565b15905090565b600060019054906101000a900460ff166127ce576040517f08c379a00000000000000000000000000000000000000000000000000000000081526004016127c590614b38565b60405180910390fd5b565b600060019054906101000a900460ff1661281f576040517f08c379a000000000000000000000000000000000000000000000000000000000815260040161281690614b38565b60405180910390fd5b612827612da2565b565b6060610106805461283990613e3a565b80601f016020809104026020016040519081016040528092919081815260200182805461286590613e3a565b80156128b25780601f10612887576101008083540402835291602001916128b2565b820191906000526020600020905b81548152906001019060200180831161289557829003601f168201915b5050505050905090565b60008183106128cb57816128cd565b825b905092915050565b60606000820361291c576040518060400160405280600181526020017f30000000000000000000000000000000000000000000000000000000000000008152509050612a30565b600082905060005b6000821461294e578080612937906143af565b915050600a82612947919061454a565b9150612924565b60008167ffffffffffffffff81111561296a57612969613886565b5b6040519080825280601f01601f19166020018201604052801561299c5781602001600182028036833780820191505090505b5090505b60008514612a29576001826129b59190614994565b9150600a856129c49190614b58565b60306129d09190614359565b60f81b8183815181106129e6576129e56141d7565b5b60200101907effffffffffffffffffffffffffffffffffffffffffffffffffffffffffffff1916908160001a905350600a85612a22919061454a565b94506129a0565b8093505050505b919050565b60007f01ffc9a7000000000000000000000000000000000000000000000000000000007bffffffffffffffffffffffffffffffffffffffffffffffffffffffff1916827bffffffffffffffffffffffffffffffffffffffffffffffffffffffff1916149050919050565b600081600001549050919050565b612ac7828260405180602001604052806000815250612e03565b5050565b6001816000016000828254019250508190555050565b612aec838383612e5e565b600073ffffffffffffffffffffffffffffffffffffffff168373ffffffffffffffffffffffffffffffffffffffff1603612b2e57612b2981612e63565b612b6d565b8173ffffffffffffffffffffffffffffffffffffffff168373ffffffffffffffffffffffffffffffffffffffff1614612b6c57612b6b8382612eac565b5b5b600073ffffffffffffffffffffffffffffffffffffffff168273ffffffffffffffffffffffffffffffffffffffff1603612baf57612baa81613019565b612bee565b8273ffffffffffffffffffffffffffffffffffffffff168273ffffffffffffffffffffffffffffffffffffffff1614612bed57612bec82826130ea565b5b5b505050565b505050565b6000612c198473ffffffffffffffffffffffffffffffffffffffff16612d7f565b15612d72578373ffffffffffffffffffffffffffffffffffffffff1663150b7a02612c42612038565b8786866040518563ffffffff1660e01b8152600401612c649493929190614bde565b6020604051808303816000875af1925050508015612ca057506040513d601f19601f82011682018060405250810190612c9d9190614c3f565b60015b612d22573d8060008114612cd0576040519150601f19603f3d011682016040523d82523d6000602084013e612cd5565b606091505b506000815103612d1a576040517f08c379a0000000000000000000000000000000000000000000000000000000008152600401612d1190614aa6565b60405180910390fd5b805181602001fd5b63150b7a0260e01b7bffffffffffffffffffffffffffffffffffffffffffffffffffffffff1916817bffffffffffffffffffffffffffffffffffffffffffffffffffffffff191614915050612d77565b600190505b949350505050565b6000808273ffffffffffffffffffffffffffffffffffffffff163b119050919050565b600060019054906101000a900460ff16612df1576040517f08c379a0000000000000000000000000000000000000000000000000000000008152600401612de890614b38565b60405180910390fd5b612e01612dfc612038565b6124e0565b565b612e0d8383613169565b612e1a6000848484612bf8565b612e59576040517f08c379a0000000000000000000000000000000000000000000000000000000008152600401612e5090614aa6565b60405180910390fd5b505050565b505050565b609980549050609a600083815260200190815260200160002081905550609981908060018154018082558091505060019003906000526020600020016000909190919091505550565b60006001612eb9846113c9565b612ec39190614994565b9050600060986000848152602001908152602001600020549050818114612fa8576000609760008673ffffffffffffffffffffffffffffffffffffffff1673ffffffffffffffffffffffffffffffffffffffff168152602001908152602001600020600084815260200190815260200160002054905080609760008773ffffffffffffffffffffffffffffffffffffffff1673ffffffffffffffffffffffffffffffffffffffff168152602001908152602001600020600084815260200190815260200160002081905550816098600083815260200190815260200160002081905550505b6098600084815260200190815260200160002060009055609760008573ffffffffffffffffffffffffffffffffffffffff1673ffffffffffffffffffffffffffffffffffffffff16815260200190815260200160002060008381526020019081526020016000206000905550505050565b6000600160998054905061302d9190614994565b90506000609a600084815260200190815260200160002054905060006099838154811061305d5761305c6141d7565b5b90600052602060002001549050806099838154811061307f5761307e6141d7565b5b906000526020600020018190555081609a600083815260200190815260200160002081905550609a60008581526020019081526020016000206000905560998054806130ce576130cd614c6c565b5b6001900381819060005260206000200160009055905550505050565b60006130f5836113c9565b905081609760008573ffffffffffffffffffffffffffffffffffffffff1673ffffffffffffffffffffffffffffffffffffffff168152602001908152602001600020600083815260200190815260200160002081905550806098600084815260200190815260200160002081905550505050565b600073ffffffffffffffffffffffffffffffffffffffff168273ffffffffffffffffffffffffffffffffffffffff16036131d8576040517f08c379a00000000000000000000000000000000000000000000000000000000081526004016131cf90614ce7565b60405180910390fd5b6131e181612077565b15613221576040517f08c379a000000000000000000000000000000000000000000000000000000000815260040161321890614d53565b60405180910390fd5b61322d60008383612ae1565b6001606860008473ffffffffffffffffffffffffffffffffffffffff1673ffffffffffffffffffffffffffffffffffffffff168152602001908152602001600020600082825461327d9190614359565b92505081905550816067600083815260200190815260200160002060006101000a81548173ffffffffffffffffffffffffffffffffffffffff021916908373ffffffffffffffffffffffffffffffffffffffff160217905550808273ffffffffffffffffffffffffffffffffffffffff16600073ffffffffffffffffffffffffffffffffffffffff167fddf252ad1be2c89b69c2b068fc378daa952ba7f163c4a11628f55a4df523b3ef60405160405180910390a461333e60008383612bf3565b5050565b82805461334e90613e3a565b90600052602060002090601f01602090048101928261337057600085556133b7565b82601f1061338957805160ff19168380011785556133b7565b828001600101855582156133b7579182015b828111156133b657825182559160200191906001019061339b565b5b5090506133c491906133c8565b5090565b5b808211156133e15760008160009055506001016133c9565b5090565b6000604051905090565b600080fd5b600080fd5b60007fffffffff0000000000000000000000000000000000000000000000000000000082169050919050565b61342e816133f9565b811461343957600080fd5b50565b60008135905061344b81613425565b92915050565b600060208284031215613467576134666133ef565b5b60006134758482850161343c565b91505092915050565b60008115159050919050565b6134938161347e565b82525050565b60006020820190506134ae600083018461348a565b92915050565b6134bd8161347e565b81146134c857600080fd5b50565b6000813590506134da816134b4565b92915050565b6000602082840312156134f6576134f56133ef565b5b6000613504848285016134cb565b91505092915050565b600081519050919050565b600082825260208201905092915050565b60005b8381101561354757808201518184015260208101905061352c565b83811115613556576000848401525b50505050565b6000601f19601f8301169050919050565b60006135788261350d565b6135828185613518565b9350613592818560208601613529565b61359b8161355c565b840191505092915050565b600060208201905081810360008301526135c0818461356d565b905092915050565b6000819050919050565b6135db816135c8565b81146135e657600080fd5b50565b6000813590506135f8816135d2565b92915050565b600060208284031215613614576136136133ef565b5b6000613622848285016135e9565b91505092915050565b600073ffffffffffffffffffffffffffffffffffffffff82169050919050565b60006136568261362b565b9050919050565b6136668161364b565b82525050565b6000602082019050613681600083018461365d565b92915050565b6136908161364b565b811461369b57600080fd5b50565b6000813590506136ad81613687565b92915050565b600080604083850312156136ca576136c96133ef565b5b60006136d88582860161369e565b92505060206136e9858286016135e9565b9150509250929050565b6000819050919050565b600061371861371361370e8461362b565b6136f3565b61362b565b9050919050565b600061372a826136fd565b9050919050565b600061373c8261371f565b9050919050565b61374c81613731565b82525050565b60006020820190506137676000830184613743565b92915050565b613776816135c8565b82525050565b6000602082019050613791600083018461376d565b92915050565b7f4e487b7100000000000000000000000000000000000000000000000000000000600052602160045260246000fd5b600381106137d7576137d6613797565b5b50565b60008190506137e8826137c6565b919050565b60006137f8826137da565b9050919050565b613808816137ed565b82525050565b600060208201905061382360008301846137ff565b92915050565b600080600060608486031215613842576138416133ef565b5b60006138508682870161369e565b93505060206138618682870161369e565b9250506040613872868287016135e9565b9150509250925092565b600080fd5b600080fd5b7f4e487b7100000000000000000000000000000000000000000000000000000000600052604160045260246000fd5b6138be8261355c565b810181811067ffffffffffffffff821117156138dd576138dc613886565b5b80604052505050565b60006138f06133e5565b90506138fc82826138b5565b919050565b600067ffffffffffffffff82111561391c5761391b613886565b5b6139258261355c565b9050602081019050919050565b82818337600083830152505050565b600061395461394f84613901565b6138e6565b9050828152602081018484840111156139705761396f613881565b5b61397b848285613932565b509392505050565b600082601f8301126139985761399761387c565b5b81356139a8848260208601613941565b91505092915050565b6000602082840312156139c7576139c66133ef565b5b600082013567ffffffffffffffff8111156139e5576139e46133f4565b5b6139f184828501613983565b91505092915050565b6000613a058261371f565b9050919050565b613a15816139fa565b82525050565b6000602082019050613a306000830184613a0c565b92915050565b6000613a418261371f565b9050919050565b613a5181613a36565b82525050565b6000602082019050613a6c6000830184613a48565b92915050565b600060208284031215613a8857613a876133ef565b5b6000613a968482850161369e565b91505092915050565b60008060408385031215613ab657613ab56133ef565b5b6000613ac48582860161369e565b9250506020613ad5858286016134cb565b9150509250929050565b600067ffffffffffffffff821115613afa57613af9613886565b5b613b038261355c565b9050602081019050919050565b6000613b23613b1e84613adf565b6138e6565b905082815260208101848484011115613b3f57613b3e613881565b5b613b4a848285613932565b509392505050565b600082601f830112613b6757613b6661387c565b5b8135613b77848260208601613b10565b91505092915050565b60008060008060808587031215613b9a57613b996133ef565b5b6000613ba88782880161369e565b9450506020613bb98782880161369e565b9350506040613bca878288016135e9565b925050606085013567ffffffffffffffff811115613beb57613bea6133f4565b5b613bf787828801613b52565b91505092959194509250565b600081519050919050565b600082825260208201905092915050565b6000819050602082019050919050565b613c38816135c8565b82525050565b6000613c4a8383613c2f565b60208301905092915050565b6000602082019050919050565b6000613c6e82613c03565b613c788185613c0e565b9350613c8383613c1f565b8060005b83811015613cb4578151613c9b8882613c3e565b9750613ca683613c56565b925050600181019050613c87565b5085935050505092915050565b60006020820190508181036000830152613cdb8184613c63565b905092915050565b60008060408385031215613cfa57613cf96133ef565b5b6000613d088582860161369e565b9250506020613d198582860161369e565b9150509250929050565b6000613d2e8261371f565b9050919050565b613d3e81613d23565b82525050565b6000602082019050613d596000830184613d35565b92915050565b60008060408385031215613d7657613d756133ef565b5b6000613d84858286016135e9565b9250506020613d95858286016135e9565b9150509250929050565b7f4f776e61626c653a2063616c6c6572206973206e6f7420746865206f776e6572600082015250565b6000613dd5602083613518565b9150613de082613d9f565b602082019050919050565b60006020820190508181036000830152613e0481613dc8565b9050919050565b7f4e487b7100000000000000000000000000000000000000000000000000000000600052602260045260246000fd5b60006002820490506001821680613e5257607f821691505b602082108103613e6557613e64613e0b565b5b50919050565b7f4552433732313a20617070726f76656420717565727920666f72206e6f6e657860008201527f697374656e7420746f6b656e0000000000000000000000000000000000000000602082015250565b6000613ec7602c83613518565b9150613ed282613e6b565b604082019050919050565b60006020820190508181036000830152613ef681613eba565b9050919050565b7f4552433732313a20617070726f76616c20746f2063757272656e74206f776e6560008201527f7200000000000000000000000000000000000000000000000000000000000000602082015250565b6000613f59602183613518565b9150613f6482613efd565b604082019050919050565b60006020820190508181036000830152613f8881613f4c565b9050919050565b7f4552433732313a20617070726f76652063616c6c6572206973206e6f74206f7760008201527f6e6572206e6f7220617070726f76656420666f7220616c6c0000000000000000602082015250565b6000613feb603883613518565b9150613ff682613f8f565b604082019050919050565b6000602082019050818103600083015261401a81613fde565b9050919050565b7f4552433732313a207472616e736665722063616c6c6572206973206e6f74206f60008201527f776e6572206e6f7220617070726f766564000000000000000000000000000000602082015250565b600061407d603183613518565b915061408882614021565b604082019050919050565b600060208201905081810360008301526140ac81614070565b9050919050565b7f455243373231456e756d657261626c653a206f776e657220696e646578206f7560008201527f74206f6620626f756e6473000000000000000000000000000000000000000000602082015250565b600061410f602b83613518565b915061411a826140b3565b604082019050919050565b6000602082019050818103600083015261413e81614102565b9050919050565b7f455243373231456e756d657261626c653a20676c6f62616c20696e646578206f60008201527f7574206f6620626f756e64730000000000000000000000000000000000000000602082015250565b60006141a1602c83613518565b91506141ac82614145565b604082019050919050565b600060208201905081810360008301526141d081614194565b9050919050565b7f4e487b7100000000000000000000000000000000000000000000000000000000600052603260045260246000fd5b7f4552433732313a206f776e657220717565727920666f72206e6f6e657869737460008201527f656e7420746f6b656e0000000000000000000000000000000000000000000000602082015250565b6000614262602983613518565b915061426d82614206565b604082019050919050565b6000602082019050818103600083015261429181614255565b9050919050565b7f4552433732313a2062616c616e636520717565727920666f7220746865207a6560008201527f726f206164647265737300000000000000000000000000000000000000000000602082015250565b60006142f4602a83613518565b91506142ff82614298565b604082019050919050565b60006020820190508181036000830152614323816142e7565b9050919050565b7f4e487b7100000000000000000000000000000000000000000000000000000000600052601160045260246000fd5b6000614364826135c8565b915061436f836135c8565b9250827fffffffffffffffffffffffffffffffffffffffffffffffffffffffffffffffff038211156143a4576143a361432a565b5b828201905092915050565b60006143ba826135c8565b91507fffffffffffffffffffffffffffffffffffffffffffffffffffffffffffffffff82036143ec576143eb61432a565b5b600182019050919050565b7f496e697469616c697a61626c653a20636f6e747261637420697320616c72656160008201527f647920696e697469616c697a6564000000000000000000000000000000000000602082015250565b6000614453602e83613518565b915061445e826143f7565b604082019050919050565b6000602082019050818103600083015261448281614446565b9050919050565b7f4552433732314d657461646174613a2055524920717565727920666f72206e6f60008201527f6e6578697374656e7420746f6b656e0000000000000000000000000000000000602082015250565b60006144e5602f83613518565b91506144f082614489565b604082019050919050565b60006020820190508181036000830152614514816144d8565b9050919050565b7f4e487b7100000000000000000000000000000000000000000000000000000000600052601260045260246000fd5b6000614555826135c8565b9150614560836135c8565b9250826145705761456f61451b565b5b828204905092915050565b600081905092915050565b60008190508160005260206000209050919050565b600081546145a881613e3a565b6145b2818661457b565b945060018216600081146145cd57600181146145de57614611565b60ff19831686528186019350614611565b6145e785614586565b60005b83811015614609578154818901526001820191506020810190506145ea565b838801955050505b50505092915050565b60006146258261350d565b61462f818561457b565b935061463f818560208601613529565b80840191505092915050565b7f2f00000000000000000000000000000000000000000000000000000000000000600082015250565b600061468160018361457b565b915061468c8261464b565b600182019050919050565b60006146a3828761459b565b91506146af828661461a565b91506146ba82614674565b91506146c6828561461a565b91506146d2828461459b565b915081905095945050505050565b7f4f776e61626c653a206e6577206f776e657220697320746865207a65726f206160008201527f6464726573730000000000000000000000000000000000000000000000000000602082015250565b600061473c602683613518565b9150614747826146e0565b604082019050919050565b6000602082019050818103600083015261476b8161472f565b9050919050565b7f426f626f74733a2021436f72654368616d626572000000000000000000000000600082015250565b60006147a8601483613518565b91506147b382614772565b602082019050919050565b600060208201905081810360008301526147d78161479b565b9050919050565b7f4552433732313a206f70657261746f7220717565727920666f72206e6f6e657860008201527f697374656e7420746f6b656e0000000000000000000000000000000000000000602082015250565b600061483a602c83613518565b9150614845826147de565b604082019050919050565b600060208201905081810360008301526148698161482d565b9050919050565b7f4552433732313a207472616e736665722066726f6d20696e636f72726563742060008201527f6f776e6572000000000000000000000000000000000000000000000000000000602082015250565b60006148cc602583613518565b91506148d782614870565b604082019050919050565b600060208201905081810360008301526148fb816148bf565b9050919050565b7f4552433732313a207472616e7366657220746f20746865207a65726f2061646460008201527f7265737300000000000000000000000000000000000000000000000000000000602082015250565b600061495e602483613518565b915061496982614902565b604082019050919050565b6000602082019050818103600083015261498d81614951565b9050919050565b600061499f826135c8565b91506149aa836135c8565b9250828210156149bd576149bc61432a565b5b828203905092915050565b7f4552433732313a20617070726f766520746f2063616c6c657200000000000000600082015250565b60006149fe601983613518565b9150614a09826149c8565b602082019050919050565b60006020820190508181036000830152614a2d816149f1565b9050919050565b7f4552433732313a207472616e7366657220746f206e6f6e20455243373231526560008201527f63656976657220696d706c656d656e7465720000000000000000000000000000602082015250565b6000614a90603283613518565b9150614a9b82614a34565b604082019050919050565b60006020820190508181036000830152614abf81614a83565b9050919050565b7f496e697469616c697a61626c653a20636f6e7472616374206973206e6f74206960008201527f6e697469616c697a696e67000000000000000000000000000000000000000000602082015250565b6000614b22602b83613518565b9150614b2d82614ac6565b604082019050919050565b60006020820190508181036000830152614b5181614b15565b9050919050565b6000614b63826135c8565b9150614b6e836135c8565b925082614b7e57614b7d61451b565b5b828206905092915050565b600081519050919050565b600082825260208201905092915050565b6000614bb082614b89565b614bba8185614b94565b9350614bca818560208601613529565b614bd38161355c565b840191505092915050565b6000608082019050614bf3600083018761365d565b614c00602083018661365d565b614c0d604083018561376d565b8181036060830152614c1f8184614ba5565b905095945050505050565b600081519050614c3981613425565b92915050565b600060208284031215614c5557614c546133ef565b5b6000614c6384828501614c2a565b91505092915050565b7f4e487b7100000000000000000000000000000000000000000000000000000000600052603160045260246000fd5b7f4552433732313a206d696e7420746f20746865207a65726f2061646472657373600082015250565b6000614cd1602083613518565b9150614cdc82614c9b565b602082019050919050565b60006020820190508181036000830152614d0081614cc4565b9050919050565b7f4552433732313a20746f6b656e20616c7265616479206d696e74656400000000600082015250565b6000614d3d601c83613518565b9150614d4882614d07565b602082019050919050565b60006020820190508181036000830152614d6c81614d30565b905091905056fea2646970667358221220e49b0b05a9a270427e4c2a6f62b3409e718b7566a4c6d1f573ba30bf9bef40fd64736f6c634300080d0033",
  "linkReferences": {},
  "deployedLinkReferences": {}
}