{
  "_format": "hh-sol-artifact-1",
  "contractName": "BobotMegaBot",
  "sourceName": "contracts/BobotMegaBot.sol",
  "abi": [
    {
      "anonymous": false,
      "inputs": [
        {
          "indexed": true,
          "internalType": "address",
          "name": "owner",
          "type": "address"
        },
        {
          "indexed": true,
          "internalType": "address",
          "name": "approved",
          "type": "address"
        },
        {
          "indexed": true,
          "internalType": "uint256",
          "name": "tokenId",
          "type": "uint256"
        }
      ],
      "name": "Approval",
      "type": "event"
    },
    {
      "anonymous": false,
      "inputs": [
        {
          "indexed": true,
          "internalType": "address",
          "name": "owner",
          "type": "address"
        },
        {
          "indexed": true,
          "internalType": "address",
          "name": "operator",
          "type": "address"
        },
        {
          "indexed": false,
          "internalType": "bool",
          "name": "approved",
          "type": "bool"
        }
      ],
      "name": "ApprovalForAll",
      "type": "event"
    },
    {
      "anonymous": false,
      "inputs": [
        {
          "indexed": false,
          "internalType": "uint8",
          "name": "version",
          "type": "uint8"
        }
      ],
      "name": "Initialized",
      "type": "event"
    },
    {
      "anonymous": false,
      "inputs": [
        {
          "indexed": true,
          "internalType": "address",
          "name": "previousOwner",
          "type": "address"
        },
        {
          "indexed": true,
          "internalType": "address",
          "name": "newOwner",
          "type": "address"
        }
      ],
      "name": "OwnershipTransferred",
      "type": "event"
    },
    {
      "anonymous": false,
      "inputs": [
        {
          "indexed": true,
          "internalType": "address",
          "name": "from",
          "type": "address"
        },
        {
          "indexed": true,
          "internalType": "address",
          "name": "to",
          "type": "address"
        },
        {
          "indexed": true,
          "internalType": "uint256",
          "name": "tokenId",
          "type": "uint256"
        }
      ],
      "name": "Transfer",
      "type": "event"
    },
    {
      "inputs": [],
      "name": "_tokenIdCounter",
      "outputs": [
        {
          "internalType": "uint256",
          "name": "_value",
          "type": "uint256"
        }
      ],
      "stateMutability": "view",
      "type": "function"
    },
    {
      "inputs": [
        {
          "internalType": "address",
          "name": "to",
          "type": "address"
        },
        {
          "internalType": "uint256",
          "name": "tokenId",
          "type": "uint256"
        }
      ],
      "name": "approve",
      "outputs": [],
      "stateMutability": "nonpayable",
      "type": "function"
    },
    {
      "inputs": [
        {
          "internalType": "address",
          "name": "owner",
          "type": "address"
        }
      ],
      "name": "balanceOf",
      "outputs": [
        {
          "internalType": "uint256",
          "name": "",
          "type": "uint256"
        }
      ],
      "stateMutability": "view",
      "type": "function"
    },
    {
      "inputs": [],
      "name": "baseExtention",
      "outputs": [
        {
          "internalType": "string",
          "name": "",
          "type": "string"
        }
      ],
      "stateMutability": "view",
      "type": "function"
    },
    {
      "inputs": [],
      "name": "baseHiddenURI",
      "outputs": [
        {
          "internalType": "string",
          "name": "",
          "type": "string"
        }
      ],
      "stateMutability": "view",
      "type": "function"
    },
    {
      "inputs": [],
      "name": "baseRevealedURI",
      "outputs": [
        {
          "internalType": "string",
          "name": "",
          "type": "string"
        }
      ],
      "stateMutability": "view",
      "type": "function"
    },
    {
      "inputs": [
        {
          "internalType": "uint256",
          "name": "",
          "type": "uint256"
        }
      ],
      "name": "bobotCorePoints",
      "outputs": [
        {
          "internalType": "uint256",
          "name": "",
          "type": "uint256"
        }
      ],
      "stateMutability": "view",
      "type": "function"
    },
    {
      "inputs": [],
      "name": "coreChamber",
      "outputs": [
        {
          "internalType": "contract CoreChamber",
          "name": "",
          "type": "address"
        }
      ],
      "stateMutability": "view",
      "type": "function"
    },
    {
      "inputs": [
        {
          "internalType": "uint256",
          "name": "_tokenId",
          "type": "uint256"
        },
        {
          "internalType": "uint256",
          "name": "_coreEarned",
          "type": "uint256"
        }
      ],
      "name": "coreChamberCorePointUpdate",
      "outputs": [],
      "stateMutability": "nonpayable",
      "type": "function"
    },
    {
      "inputs": [],
      "name": "coreChamberLevelCost",
      "outputs": [
        {
          "internalType": "uint256",
          "name": "",
          "type": "uint256"
        }
      ],
      "stateMutability": "view",
      "type": "function"
    },
    {
      "inputs": [],
      "name": "currentLevelAmount",
      "outputs": [
        {
          "internalType": "uint256",
          "name": "",
          "type": "uint256"
        }
      ],
      "stateMutability": "view",
      "type": "function"
    },
    {
      "inputs": [
        {
          "internalType": "uint256",
          "name": "tokenId",
          "type": "uint256"
        }
      ],
      "name": "getApproved",
      "outputs": [
        {
          "internalType": "address",
          "name": "",
          "type": "address"
        }
      ],
      "stateMutability": "view",
      "type": "function"
    },
    {
      "inputs": [],
      "name": "getBobotType",
      "outputs": [
        {
          "internalType": "enum IBobot.BobotType",
          "name": "",
          "type": "uint8"
        }
      ],
      "stateMutability": "pure",
      "type": "function"
    },
    {
      "inputs": [
        {
          "internalType": "uint256",
          "name": "_tokenID",
          "type": "uint256"
        }
      ],
      "name": "getCurrentBobotLevel",
      "outputs": [
        {
          "internalType": "uint256",
          "name": "",
          "type": "uint256"
        }
      ],
      "stateMutability": "view",
      "type": "function"
    },
    {
      "inputs": [
        {
          "internalType": "uint256",
          "name": "tokenID",
          "type": "uint256"
        }
      ],
      "name": "getTokenURI",
      "outputs": [
        {
          "internalType": "string",
          "name": "",
          "type": "string"
        }
      ],
      "stateMutability": "view",
      "type": "function"
    },
    {
      "inputs": [
        {
          "internalType": "address",
          "name": "_magicAddress",
          "type": "address"
        }
      ],
      "name": "initialize",
      "outputs": [],
      "stateMutability": "nonpayable",
      "type": "function"
    },
    {
      "inputs": [
        {
          "internalType": "address",
          "name": "owner",
          "type": "address"
        },
        {
          "internalType": "address",
          "name": "operator",
          "type": "address"
        }
      ],
      "name": "isApprovedForAll",
      "outputs": [
        {
          "internalType": "bool",
          "name": "",
          "type": "bool"
        }
      ],
      "stateMutability": "view",
      "type": "function"
    },
    {
      "inputs": [],
      "name": "magic",
      "outputs": [
        {
          "internalType": "contract IERC20Upgradeable",
          "name": "",
          "type": "address"
        }
      ],
      "stateMutability": "view",
      "type": "function"
    },
    {
      "inputs": [],
      "name": "maxLevelAmount",
      "outputs": [
        {
          "internalType": "uint256",
          "name": "",
          "type": "uint256"
        }
      ],
      "stateMutability": "view",
      "type": "function"
    },
    {
      "inputs": [],
      "name": "maxSupply",
      "outputs": [
        {
          "internalType": "uint256",
          "name": "",
          "type": "uint256"
        }
      ],
      "stateMutability": "view",
      "type": "function"
    },
    {
      "inputs": [],
      "name": "mintBobot",
      "outputs": [],
      "stateMutability": "payable",
      "type": "function"
    },
    {
      "inputs": [],
      "name": "mintBobotTest",
      "outputs": [],
      "stateMutability": "payable",
      "type": "function"
    },
    {
      "inputs": [],
      "name": "name",
      "outputs": [
        {
          "internalType": "string",
          "name": "",
          "type": "string"
        }
      ],
      "stateMutability": "view",
      "type": "function"
    },
    {
      "inputs": [],
      "name": "owner",
      "outputs": [
        {
          "internalType": "address",
          "name": "",
          "type": "address"
        }
      ],
      "stateMutability": "view",
      "type": "function"
    },
    {
      "inputs": [
        {
          "internalType": "uint256",
          "name": "tokenId",
          "type": "uint256"
        }
      ],
      "name": "ownerOf",
      "outputs": [
        {
          "internalType": "address",
          "name": "",
          "type": "address"
        }
      ],
      "stateMutability": "view",
      "type": "function"
    },
    {
      "inputs": [
        {
          "internalType": "bool",
          "name": "_state",
          "type": "bool"
        }
      ],
      "name": "pause",
      "outputs": [],
      "stateMutability": "nonpayable",
      "type": "function"
    },
    {
      "inputs": [],
      "name": "paused",
      "outputs": [
        {
          "internalType": "bool",
          "name": "",
          "type": "bool"
        }
      ],
      "stateMutability": "view",
      "type": "function"
    },
    {
      "inputs": [],
      "name": "renounceOwnership",
      "outputs": [],
      "stateMutability": "nonpayable",
      "type": "function"
    },
    {
      "inputs": [
        {
          "internalType": "bool",
          "name": "_revealed",
          "type": "bool"
        }
      ],
      "name": "reveal",
      "outputs": [],
      "stateMutability": "nonpayable",
      "type": "function"
    },
    {
      "inputs": [],
      "name": "revealed",
      "outputs": [
        {
          "internalType": "bool",
          "name": "",
          "type": "bool"
        }
      ],
      "stateMutability": "view",
      "type": "function"
    },
    {
      "inputs": [
        {
          "internalType": "address",
          "name": "from",
          "type": "address"
        },
        {
          "internalType": "address",
          "name": "to",
          "type": "address"
        },
        {
          "internalType": "uint256",
          "name": "tokenId",
          "type": "uint256"
        }
      ],
      "name": "safeTransferFrom",
      "outputs": [],
      "stateMutability": "nonpayable",
      "type": "function"
    },
    {
      "inputs": [
        {
          "internalType": "address",
          "name": "from",
          "type": "address"
        },
        {
          "internalType": "address",
          "name": "to",
          "type": "address"
        },
        {
          "internalType": "uint256",
          "name": "tokenId",
          "type": "uint256"
        },
        {
          "internalType": "bytes",
          "name": "_data",
          "type": "bytes"
        }
      ],
      "name": "safeTransferFrom",
      "outputs": [],
      "stateMutability": "nonpayable",
      "type": "function"
    },
    {
      "inputs": [
        {
          "internalType": "address",
          "name": "operator",
          "type": "address"
        },
        {
          "internalType": "bool",
          "name": "approved",
          "type": "bool"
        }
      ],
      "name": "setApprovalForAll",
      "outputs": [],
      "stateMutability": "nonpayable",
      "type": "function"
    },
    {
      "inputs": [
        {
          "internalType": "string",
          "name": "_newBaseExtentions",
          "type": "string"
        }
      ],
      "name": "setBaseExtentions",
      "outputs": [],
      "stateMutability": "nonpayable",
      "type": "function"
    },
    {
      "inputs": [
        {
          "internalType": "string",
          "name": "_newBaseURI",
          "type": "string"
        }
      ],
      "name": "setBaseRevealedURI",
      "outputs": [],
      "stateMutability": "nonpayable",
      "type": "function"
    },
    {
      "inputs": [
        {
          "internalType": "bytes4",
          "name": "interfaceId",
          "type": "bytes4"
        }
      ],
      "name": "supportsInterface",
      "outputs": [
        {
          "internalType": "bool",
          "name": "",
          "type": "bool"
        }
      ],
      "stateMutability": "view",
      "type": "function"
    },
    {
      "inputs": [],
      "name": "symbol",
      "outputs": [
        {
          "internalType": "string",
          "name": "",
          "type": "string"
        }
      ],
      "stateMutability": "view",
      "type": "function"
    },
    {
      "inputs": [
        {
          "internalType": "uint256",
          "name": "index",
          "type": "uint256"
        }
      ],
      "name": "tokenByIndex",
      "outputs": [
        {
          "internalType": "uint256",
          "name": "",
          "type": "uint256"
        }
      ],
      "stateMutability": "view",
      "type": "function"
    },
    {
      "inputs": [
        {
          "internalType": "address",
          "name": "owner",
          "type": "address"
        },
        {
          "internalType": "uint256",
          "name": "index",
          "type": "uint256"
        }
      ],
      "name": "tokenOfOwnerByIndex",
      "outputs": [
        {
          "internalType": "uint256",
          "name": "",
          "type": "uint256"
        }
      ],
      "stateMutability": "view",
      "type": "function"
    },
    {
      "inputs": [
        {
          "internalType": "uint256",
          "name": "tokenId",
          "type": "uint256"
        }
      ],
      "name": "tokenURI",
      "outputs": [
        {
          "internalType": "string",
          "name": "",
          "type": "string"
        }
      ],
      "stateMutability": "view",
      "type": "function"
    },
    {
      "inputs": [],
      "name": "totalSupply",
      "outputs": [
        {
          "internalType": "uint256",
          "name": "",
          "type": "uint256"
        }
      ],
      "stateMutability": "view",
      "type": "function"
    },
    {
      "inputs": [
        {
          "internalType": "address",
          "name": "from",
          "type": "address"
        },
        {
          "internalType": "address",
          "name": "to",
          "type": "address"
        },
        {
          "internalType": "uint256",
          "name": "tokenId",
          "type": "uint256"
        }
      ],
      "name": "transferFrom",
      "outputs": [],
      "stateMutability": "nonpayable",
      "type": "function"
    },
    {
      "inputs": [
        {
          "internalType": "address",
          "name": "newOwner",
          "type": "address"
        }
      ],
      "name": "transferOwnership",
      "outputs": [],
      "stateMutability": "nonpayable",
      "type": "function"
    },
    {
      "inputs": [],
      "name": "withdraw",
      "outputs": [],
      "stateMutability": "payable",
      "type": "function"
    }
  ],
  "bytecode": "0x6080604052633b9aca0060fc55601460fd55670de0b6b3a764000060fe556040518060400160405280600581526020017f2e6a736f6e00000000000000000000000000000000000000000000000000000081525061010190805190602001906200006b929190620000cb565b506103e861010255601461010355600061010455600061010660006101000a81548160ff021916908315150217905550600061010860006101000a81548160ff021916908315150217905550348015620000c457600080fd5b50620001df565b828054620000d990620001aa565b90600052602060002090601f016020900481019282620000fd576000855562000149565b82601f106200011857805160ff191683800117855562000149565b8280016001018555821562000149579182015b82811115620001485782518255916020019190600101906200012b565b5b5090506200015891906200015c565b5090565b5b80821115620001775760008160009055506001016200015d565b5090565b7f4e487b7100000000000000000000000000000000000000000000000000000000600052602260045260246000fd5b60006002820490506001821680620001c357607f821691505b602082108103620001d957620001d86200017b565b5b50919050565b614cd480620001ef6000396000f3fe6080604052600436106102675760003560e01c80635c975abb11610144578063a3019cd0116100b6578063c87b56dd1161007a578063c87b56dd146108d3578063d5abeb0114610910578063e985e9c51461093b578063f2fde38b14610978578063f5c8834c146109a1578063fed71b28146109ca57610267565b8063a3019cd0146107f0578063a6a030541461082d578063b88d4fde14610856578063ba5847371461087f578063c4d66de8146108aa57610267565b806384c4bd4b1161010857806384c4bd4b146107135780638da5cb5b1461073e578063940cd05b1461076957806395d89b41146107925780639aa8ae5e146107bd578063a22cb465146107c757610267565b80635c975abb1461062c5780636352211e14610657578063662125571461069457806370a08231146106bf578063715018a6146106fc57610267565b806325c13203116101dd57806342842e0e116101a157806342842e0e1461051a57806343b946af146105435780634ba5f3781461056e5780634f6ccce7146105995780635101450b146105d6578063518302271461060157610267565b806325c13203146104425780632f745c591461046b5780633a5958e3146104a85780633bb3a24d146104d35780633ccfd60b1461051057610267565b806308454e121161022f57806308454e1214610344578063095ea7b31461036f5780630d85464614610398578063133a979b146103c357806318160ddd146103ee57806323b872dd1461041957610267565b806301ffc9a71461026c57806302329a29146102a957806302428db6146102d257806306fdde03146102dc578063081812fc14610307575b600080fd5b34801561027857600080fd5b50610293600480360381019061028e9190613379565b610a07565b6040516102a091906133c1565b60405180910390f35b3480156102b557600080fd5b506102d060048036038101906102cb9190613408565b610a81565b005b6102da610b1b565b005b3480156102e857600080fd5b506102f1610b4f565b6040516102fe91906134ce565b60405180910390f35b34801561031357600080fd5b5061032e60048036038101906103299190613526565b610be1565b60405161033b9190613594565b60405180910390f35b34801561035057600080fd5b50610359610c66565b60405161036691906134ce565b60405180910390f35b34801561037b57600080fd5b50610396600480360381019061039191906135db565b610cf4565b005b3480156103a457600080fd5b506103ad610e0b565b6040516103ba919061367a565b60405180910390f35b3480156103cf57600080fd5b506103d8610e31565b6040516103e591906136a4565b60405180910390f35b3480156103fa57600080fd5b50610403610e38565b60405161041091906136a4565b60405180910390f35b34801561042557600080fd5b50610440600480360381019061043b91906136bf565b610e45565b005b34801561044e57600080fd5b5061046960048036038101906104649190613847565b610ea5565b005b34801561047757600080fd5b50610492600480360381019061048d91906135db565b610f3c565b60405161049f91906136a4565b60405180910390f35b3480156104b457600080fd5b506104bd610fe1565b6040516104ca91906134ce565b60405180910390f35b3480156104df57600080fd5b506104fa60048036038101906104f59190613526565b611070565b60405161050791906134ce565b60405180910390f35b610518611160565b005b34801561052657600080fd5b50610541600480360381019061053c91906136bf565b61121c565b005b34801561054f57600080fd5b5061055861123c565b60405161056591906138b1565b60405180910390f35b34801561057a57600080fd5b50610583611263565b60405161059091906134ce565b60405180910390f35b3480156105a557600080fd5b506105c060048036038101906105bb9190613526565b6112f2565b6040516105cd91906136a4565b60405180910390f35b3480156105e257600080fd5b506105eb611363565b6040516105f891906136a4565b60405180910390f35b34801561060d57600080fd5b5061061661136a565b60405161062391906133c1565b60405180910390f35b34801561063857600080fd5b5061064161137e565b60405161064e91906133c1565b60405180910390f35b34801561066357600080fd5b5061067e60048036038101906106799190613526565b611392565b60405161068b9190613594565b60405180910390f35b3480156106a057600080fd5b506106a9611443565b6040516106b691906136a4565b60405180910390f35b3480156106cb57600080fd5b506106e660048036038101906106e191906138cc565b61144a565b6040516106f391906136a4565b60405180910390f35b34801561070857600080fd5b50610711611501565b005b34801561071f57600080fd5b50610728611589565b60405161073591906136a4565b60405180910390f35b34801561074a57600080fd5b50610753611596565b6040516107609190613594565b60405180910390f35b34801561077557600080fd5b50610790600480360381019061078b9190613408565b6115c0565b005b34801561079e57600080fd5b506107a761165a565b6040516107b491906134ce565b60405180910390f35b6107c56116ec565b005b3480156107d357600080fd5b506107ee60048036038101906107e991906138f9565b61174d565b005b3480156107fc57600080fd5b5061081760048036038101906108129190613526565b611763565b60405161082491906136a4565b60405180910390f35b34801561083957600080fd5b50610854600480360381019061084f9190613847565b61176a565b005b34801561086257600080fd5b5061087d600480360381019061087891906139da565b611800565b005b34801561088b57600080fd5b50610894611862565b6040516108a19190613ad4565b60405180910390f35b3480156108b657600080fd5b506108d160048036038101906108cc91906138cc565b61186b565b005b3480156108df57600080fd5b506108fa60048036038101906108f59190613526565b611949565b60405161090791906134ce565b60405180910390f35b34801561091c57600080fd5b506109256119f0565b60405161093291906136a4565b60405180910390f35b34801561094757600080fd5b50610962600480360381019061095d9190613aef565b6119f7565b60405161096f91906133c1565b60405180910390f35b34801561098457600080fd5b5061099f600480360381019061099a91906138cc565b611a8b565b005b3480156109ad57600080fd5b506109c860048036038101906109c39190613b2f565b611b82565b005b3480156109d657600080fd5b506109f160048036038101906109ec9190613526565b611c42565b6040516109fe91906136a4565b60405180910390f35b60007f780e9d63000000000000000000000000000000000000000000000000000000007bffffffffffffffffffffffffffffffffffffffffffffffffffffffff1916827bffffffffffffffffffffffffffffffffffffffffffffffffffffffff19161480610a7a5750610a7982611c5b565b5b9050919050565b610a89611d3d565b73ffffffffffffffffffffffffffffffffffffffff16610aa7611596565b73ffffffffffffffffffffffffffffffffffffffff1614610afd576040517f08c379a0000000000000000000000000000000000000000000000000000000008152600401610af490613bbb565b60405180910390fd5b8061010860006101000a81548160ff02191690831515021790555050565b61010860009054906101000a900460ff1615610b3657600080fd5b6000610b40611d45565b9050610b4c3382611d63565b50565b606060658054610b5e90613c0a565b80601f0160208091040260200160405190810160405280929190818152602001828054610b8a90613c0a565b8015610bd75780601f10610bac57610100808354040283529160200191610bd7565b820191906000526020600020905b815481529060010190602001808311610bba57829003601f168201915b5050505050905090565b6000610bec82611d7c565b610c2b576040517f08c379a0000000000000000000000000000000000000000000000000000000008152600401610c2290613cad565b60405180910390fd5b6069600083815260200190815260200160002060009054906101000a900473ffffffffffffffffffffffffffffffffffffffff169050919050565b60ff8054610c7390613c0a565b80601f0160208091040260200160405190810160405280929190818152602001828054610c9f90613c0a565b8015610cec5780601f10610cc157610100808354040283529160200191610cec565b820191906000526020600020905b815481529060010190602001808311610ccf57829003601f168201915b505050505081565b6000610cff82611392565b90508073ffffffffffffffffffffffffffffffffffffffff168373ffffffffffffffffffffffffffffffffffffffff1603610d6f576040517f08c379a0000000000000000000000000000000000000000000000000000000008152600401610d6690613d3f565b60405180910390fd5b8073ffffffffffffffffffffffffffffffffffffffff16610d8e611d3d565b73ffffffffffffffffffffffffffffffffffffffff161480610dbd5750610dbc81610db7611d3d565b6119f7565b5b610dfc576040517f08c379a0000000000000000000000000000000000000000000000000000000008152600401610df390613dd1565b60405180910390fd5b610e068383611de8565b505050565b60fb60009054906101000a900473ffffffffffffffffffffffffffffffffffffffff1681565b6101055481565b6000609980549050905090565b610e56610e50611d3d565b82611ea1565b610e95576040517f08c379a0000000000000000000000000000000000000000000000000000000008152600401610e8c90613e63565b60405180910390fd5b610ea0838383611f7f565b505050565b610ead611d3d565b73ffffffffffffffffffffffffffffffffffffffff16610ecb611596565b73ffffffffffffffffffffffffffffffffffffffff1614610f21576040517f08c379a0000000000000000000000000000000000000000000000000000000008152600401610f1890613bbb565b60405180910390fd5b806101019080519060200190610f3892919061326a565b5050565b6000610f478361144a565b8210610f88576040517f08c379a0000000000000000000000000000000000000000000000000000000008152600401610f7f90613ef5565b60405180910390fd5b609760008473ffffffffffffffffffffffffffffffffffffffff1673ffffffffffffffffffffffffffffffffffffffff168152602001908152602001600020600083815260200190815260200160002054905092915050565b6101008054610fef90613c0a565b80601f016020809104026020016040519081016040528092919081815260200182805461101b90613c0a565b80156110685780601f1061103d57610100808354040283529160200191611068565b820191906000526020600020905b81548152906001019060200180831161104b57829003601f168201915b505050505081565b606061107b82611d7c565b6110ba576040517f08c379a00000000000000000000000000000000000000000000000000000000081526004016110b190613f87565b60405180910390fd5b60006110c46121e5565b905060006110f7610105546101076000878152602001908152602001600020546110ee9190614005565b61010354612277565b9050600060ff61110686612290565b61110f84612290565b6101016040516020016111259493929190614152565b604051602081830303815290604052905060008351116111545760405180602001604052806000815250611156565b805b9350505050919050565b611168611d3d565b73ffffffffffffffffffffffffffffffffffffffff16611186611596565b73ffffffffffffffffffffffffffffffffffffffff16146111dc576040517f08c379a00000000000000000000000000000000000000000000000000000000081526004016111d390613bbb565b60405180910390fd5b3373ffffffffffffffffffffffffffffffffffffffff166108fc479081150290604051600060405180830381858888f1935050505061121a57600080fd5b565b61123783838360405180602001604052806000815250611800565b505050565b61010660019054906101000a900473ffffffffffffffffffffffffffffffffffffffff1681565b610101805461127190613c0a565b80601f016020809104026020016040519081016040528092919081815260200182805461129d90613c0a565b80156112ea5780601f106112bf576101008083540402835291602001916112ea565b820191906000526020600020905b8154815290600101906020018083116112cd57829003601f168201915b505050505081565b60006112fc610e38565b821061133d576040517f08c379a00000000000000000000000000000000000000000000000000000000081526004016113349061420d565b60405180910390fd5b609982815481106113515761135061422d565b5b90600052602060002001549050919050565b6101045481565b61010660009054906101000a900460ff1681565b61010860009054906101000a900460ff1681565b6000806067600084815260200190815260200160002060009054906101000a900473ffffffffffffffffffffffffffffffffffffffff169050600073ffffffffffffffffffffffffffffffffffffffff168173ffffffffffffffffffffffffffffffffffffffff160361143a576040517f08c379a0000000000000000000000000000000000000000000000000000000008152600401611431906142ce565b60405180910390fd5b80915050919050565b6101035481565b60008073ffffffffffffffffffffffffffffffffffffffff168273ffffffffffffffffffffffffffffffffffffffff16036114ba576040517f08c379a00000000000000000000000000000000000000000000000000000000081526004016114b190614360565b60405180910390fd5b606860008373ffffffffffffffffffffffffffffffffffffffff1673ffffffffffffffffffffffffffffffffffffffff168152602001908152602001600020549050919050565b611509611d3d565b73ffffffffffffffffffffffffffffffffffffffff16611527611596565b73ffffffffffffffffffffffffffffffffffffffff161461157d576040517f08c379a000000000000000000000000000000000000000000000000000000000815260040161157490613bbb565b60405180910390fd5b61158760006123f0565b565b6101098060000154905081565b600060c960009054906101000a900473ffffffffffffffffffffffffffffffffffffffff16905090565b6115c8611d3d565b73ffffffffffffffffffffffffffffffffffffffff166115e6611596565b73ffffffffffffffffffffffffffffffffffffffff161461163c576040517f08c379a000000000000000000000000000000000000000000000000000000000815260040161163390613bbb565b60405180910390fd5b8061010660006101000a81548160ff02191690831515021790555050565b60606066805461166990613c0a565b80601f016020809104026020016040519081016040528092919081815260200182805461169590613c0a565b80156116e25780601f106116b7576101008083540402835291602001916116e2565b820191906000526020600020905b8154815290600101906020018083116116c557829003601f168201915b5050505050905090565b61010860009054906101000a900460ff161561170757600080fd5b600080600190505b818111611749576000611720611d45565b90506117373383836117329190614380565b611d63565b5080611742906143d6565b905061170f565b5050565b61175f611758611d3d565b83836124b6565b5050565b6000919050565b611772611d3d565b73ffffffffffffffffffffffffffffffffffffffff16611790611596565b73ffffffffffffffffffffffffffffffffffffffff16146117e6576040517f08c379a00000000000000000000000000000000000000000000000000000000081526004016117dd90613bbb565b60405180910390fd5b8060ff90805190602001906117fc92919061326a565b5050565b61181161180b611d3d565b83611ea1565b611850576040517f08c379a000000000000000000000000000000000000000000000000000000000815260040161184790613e63565b60405180910390fd5b61185c84848484612622565b50505050565b60006002905090565b6000611877600161267e565b9050801561189b576001600060016101000a81548160ff0219169083151502179055505b6118a361276e565b6118ab6127bf565b8160fb60006101000a81548173ffffffffffffffffffffffffffffffffffffffff021916908373ffffffffffffffffffffffffffffffffffffffff16021790555080156119455760008060016101000a81548160ff0219169083151502179055507f7f26b83ff96e1f2b6a682f133852f6798a09c465da95921460cefb3847402498600160405161193c9190614466565b60405180910390a15b5050565b606061195482611d7c565b611993576040517f08c379a000000000000000000000000000000000000000000000000000000000815260040161198a90613f87565b60405180910390fd5b600061199d6121e5565b905060008151116119bd57604051806020016040528060008152506119e8565b806119c784612290565b6040516020016119d8929190614481565b6040516020818303038152906040525b915050919050565b6101025481565b6000606a60008473ffffffffffffffffffffffffffffffffffffffff1673ffffffffffffffffffffffffffffffffffffffff16815260200190815260200160002060008373ffffffffffffffffffffffffffffffffffffffff1673ffffffffffffffffffffffffffffffffffffffff16815260200190815260200160002060009054906101000a900460ff16905092915050565b611a93611d3d565b73ffffffffffffffffffffffffffffffffffffffff16611ab1611596565b73ffffffffffffffffffffffffffffffffffffffff1614611b07576040517f08c379a0000000000000000000000000000000000000000000000000000000008152600401611afe90613bbb565b60405180910390fd5b600073ffffffffffffffffffffffffffffffffffffffff168173ffffffffffffffffffffffffffffffffffffffff1603611b76576040517f08c379a0000000000000000000000000000000000000000000000000000000008152600401611b6d90614517565b60405180910390fd5b611b7f816123f0565b50565b61010660019054906101000a900473ffffffffffffffffffffffffffffffffffffffff1673ffffffffffffffffffffffffffffffffffffffff163373ffffffffffffffffffffffffffffffffffffffff1614611c13576040517f08c379a0000000000000000000000000000000000000000000000000000000008152600401611c0a90614583565b60405180910390fd5b8061010760008481526020019081526020016000206000828254611c379190614380565b925050819055505050565b6101076020528060005260406000206000915090505481565b60007f80ac58cd000000000000000000000000000000000000000000000000000000007bffffffffffffffffffffffffffffffffffffffffffffffffffffffff1916827bffffffffffffffffffffffffffffffffffffffffffffffffffffffff19161480611d2657507f5b5e139f000000000000000000000000000000000000000000000000000000007bffffffffffffffffffffffffffffffffffffffffffffffffffffffff1916827bffffffffffffffffffffffffffffffffffffffffffffffffffffffff1916145b80611d365750611d3582612818565b5b9050919050565b600033905090565b60006001611d54610109612882565b611d5e9190614380565b905090565b611d6d8282612890565b611d786101096128ae565b5050565b60008073ffffffffffffffffffffffffffffffffffffffff166067600084815260200190815260200160002060009054906101000a900473ffffffffffffffffffffffffffffffffffffffff1673ffffffffffffffffffffffffffffffffffffffff1614159050919050565b816069600083815260200190815260200160002060006101000a81548173ffffffffffffffffffffffffffffffffffffffff021916908373ffffffffffffffffffffffffffffffffffffffff160217905550808273ffffffffffffffffffffffffffffffffffffffff16611e5b83611392565b73ffffffffffffffffffffffffffffffffffffffff167f8c5be1e5ebec7d5bd14f71427d1e84f3dd0314c0f7b2291e5b200ac8c7c3b92560405160405180910390a45050565b6000611eac82611d7c565b611eeb576040517f08c379a0000000000000000000000000000000000000000000000000000000008152600401611ee290614615565b60405180910390fd5b6000611ef683611392565b90508073ffffffffffffffffffffffffffffffffffffffff168473ffffffffffffffffffffffffffffffffffffffff161480611f385750611f3781856119f7565b5b80611f7657508373ffffffffffffffffffffffffffffffffffffffff16611f5e84610be1565b73ffffffffffffffffffffffffffffffffffffffff16145b91505092915050565b8273ffffffffffffffffffffffffffffffffffffffff16611f9f82611392565b73ffffffffffffffffffffffffffffffffffffffff1614611ff5576040517f08c379a0000000000000000000000000000000000000000000000000000000008152600401611fec906146a7565b60405180910390fd5b600073ffffffffffffffffffffffffffffffffffffffff168273ffffffffffffffffffffffffffffffffffffffff1603612064576040517f08c379a000000000000000000000000000000000000000000000000000000000815260040161205b90614739565b60405180910390fd5b61206f8383836128c4565b61207a600082611de8565b6001606860008573ffffffffffffffffffffffffffffffffffffffff1673ffffffffffffffffffffffffffffffffffffffff16815260200190815260200160002060008282546120ca9190614759565b925050819055506001606860008473ffffffffffffffffffffffffffffffffffffffff1673ffffffffffffffffffffffffffffffffffffffff16815260200190815260200160002060008282546121219190614380565b92505081905550816067600083815260200190815260200160002060006101000a81548173ffffffffffffffffffffffffffffffffffffffff021916908373ffffffffffffffffffffffffffffffffffffffff160217905550808273ffffffffffffffffffffffffffffffffffffffff168473ffffffffffffffffffffffffffffffffffffffff167fddf252ad1be2c89b69c2b068fc378daa952ba7f163c4a11628f55a4df523b3ef60405160405180910390a46121e0838383612a09565b505050565b606060ff80546121f490613c0a565b80601f016020809104026020016040519081016040528092919081815260200182805461222090613c0a565b801561226d5780601f106122425761010080835404028352916020019161226d565b820191906000526020600020905b81548152906001019060200180831161225057829003601f168201915b5050505050905090565b60008183106122865781612288565b825b905092915050565b6060600082036122d7576040518060400160405280600181526020017f300000000000000000000000000000000000000000000000000000000000000081525090506123eb565b600082905060005b600082146123095780806122f2906143d6565b915050600a826123029190614005565b91506122df565b60008167ffffffffffffffff8111156123255761232461371c565b5b6040519080825280601f01601f1916602001820160405280156123575781602001600182028036833780820191505090505b5090505b600085146123e4576001826123709190614759565b9150600a8561237f919061478d565b603061238b9190614380565b60f81b8183815181106123a1576123a061422d565b5b60200101907effffffffffffffffffffffffffffffffffffffffffffffffffffffffffffff1916908160001a905350600a856123dd9190614005565b945061235b565b8093505050505b919050565b600060c960009054906101000a900473ffffffffffffffffffffffffffffffffffffffff1690508160c960006101000a81548173ffffffffffffffffffffffffffffffffffffffff021916908373ffffffffffffffffffffffffffffffffffffffff1602179055508173ffffffffffffffffffffffffffffffffffffffff168173ffffffffffffffffffffffffffffffffffffffff167f8be0079c531659141344cd1fd0a4f28419497f9722a3daafe3b4186f6b6457e060405160405180910390a35050565b8173ffffffffffffffffffffffffffffffffffffffff168373ffffffffffffffffffffffffffffffffffffffff1603612524576040517f08c379a000000000000000000000000000000000000000000000000000000000815260040161251b9061480a565b60405180910390fd5b80606a60008573ffffffffffffffffffffffffffffffffffffffff1673ffffffffffffffffffffffffffffffffffffffff16815260200190815260200160002060008473ffffffffffffffffffffffffffffffffffffffff1673ffffffffffffffffffffffffffffffffffffffff16815260200190815260200160002060006101000a81548160ff0219169083151502179055508173ffffffffffffffffffffffffffffffffffffffff168373ffffffffffffffffffffffffffffffffffffffff167f17307eab39ab6107e8899845ad3d59bd9653f200f220920489ca2b5937696c318360405161261591906133c1565b60405180910390a3505050565b61262d848484611f7f565b61263984848484612a0e565b612678576040517f08c379a000000000000000000000000000000000000000000000000000000000815260040161266f9061489c565b60405180910390fd5b50505050565b60008060019054906101000a900460ff16156126f55760018260ff161480156126ad57506126ab30612b95565b155b6126ec576040517f08c379a00000000000000000000000000000000000000000000000000000000081526004016126e39061492e565b60405180910390fd5b60009050612769565b8160ff1660008054906101000a900460ff1660ff161061274a576040517f08c379a00000000000000000000000000000000000000000000000000000000081526004016127419061492e565b60405180910390fd5b816000806101000a81548160ff021916908360ff160217905550600190505b919050565b600060019054906101000a900460ff166127bd576040517f08c379a00000000000000000000000000000000000000000000000000000000081526004016127b4906149c0565b60405180910390fd5b565b600060019054906101000a900460ff1661280e576040517f08c379a0000000000000000000000000000000000000000000000000000000008152600401612805906149c0565b60405180910390fd5b612816612bb8565b565b60007f01ffc9a7000000000000000000000000000000000000000000000000000000007bffffffffffffffffffffffffffffffffffffffffffffffffffffffff1916827bffffffffffffffffffffffffffffffffffffffffffffffffffffffff1916149050919050565b600081600001549050919050565b6128aa828260405180602001604052806000815250612c19565b5050565b6001816000016000828254019250508190555050565b6128cf838383612c74565b600073ffffffffffffffffffffffffffffffffffffffff1661010660019054906101000a900473ffffffffffffffffffffffffffffffffffffffff1673ffffffffffffffffffffffffffffffffffffffff1614612a045761010660019054906101000a900473ffffffffffffffffffffffffffffffffffffffff1673ffffffffffffffffffffffffffffffffffffffff1663e63b7090826040518263ffffffff1660e01b815260040161298291906136a4565b602060405180830381865afa15801561299f573d6000803e3d6000fd5b505050506040513d601f19601f820116820180604052508101906129c391906149f5565b15612a03576040517f08c379a00000000000000000000000000000000000000000000000000000000081526004016129fa90614a94565b60405180910390fd5b5b505050565b505050565b6000612a2f8473ffffffffffffffffffffffffffffffffffffffff16612b95565b15612b88578373ffffffffffffffffffffffffffffffffffffffff1663150b7a02612a58611d3d565b8786866040518563ffffffff1660e01b8152600401612a7a9493929190614b09565b6020604051808303816000875af1925050508015612ab657506040513d601f19601f82011682018060405250810190612ab39190614b6a565b60015b612b38573d8060008114612ae6576040519150601f19603f3d011682016040523d82523d6000602084013e612aeb565b606091505b506000815103612b30576040517f08c379a0000000000000000000000000000000000000000000000000000000008152600401612b279061489c565b60405180910390fd5b805181602001fd5b63150b7a0260e01b7bffffffffffffffffffffffffffffffffffffffffffffffffffffffff1916817bffffffffffffffffffffffffffffffffffffffffffffffffffffffff191614915050612b8d565b600190505b949350505050565b6000808273ffffffffffffffffffffffffffffffffffffffff163b119050919050565b600060019054906101000a900460ff16612c07576040517f08c379a0000000000000000000000000000000000000000000000000000000008152600401612bfe906149c0565b60405180910390fd5b612c17612c12611d3d565b6123f0565b565b612c238383612d86565b612c306000848484612a0e565b612c6f576040517f08c379a0000000000000000000000000000000000000000000000000000000008152600401612c669061489c565b60405180910390fd5b505050565b612c7f838383612f5f565b600073ffffffffffffffffffffffffffffffffffffffff168373ffffffffffffffffffffffffffffffffffffffff1603612cc157612cbc81612f64565b612d00565b8173ffffffffffffffffffffffffffffffffffffffff168373ffffffffffffffffffffffffffffffffffffffff1614612cff57612cfe8382612fad565b5b5b600073ffffffffffffffffffffffffffffffffffffffff168273ffffffffffffffffffffffffffffffffffffffff1603612d4257612d3d8161311a565b612d81565b8273ffffffffffffffffffffffffffffffffffffffff168273ffffffffffffffffffffffffffffffffffffffff1614612d8057612d7f82826131eb565b5b5b505050565b600073ffffffffffffffffffffffffffffffffffffffff168273ffffffffffffffffffffffffffffffffffffffff1603612df5576040517f08c379a0000000000000000000000000000000000000000000000000000000008152600401612dec90614be3565b60405180910390fd5b612dfe81611d7c565b15612e3e576040517f08c379a0000000000000000000000000000000000000000000000000000000008152600401612e3590614c4f565b60405180910390fd5b612e4a600083836128c4565b6001606860008473ffffffffffffffffffffffffffffffffffffffff1673ffffffffffffffffffffffffffffffffffffffff1681526020019081526020016000206000828254612e9a9190614380565b92505081905550816067600083815260200190815260200160002060006101000a81548173ffffffffffffffffffffffffffffffffffffffff021916908373ffffffffffffffffffffffffffffffffffffffff160217905550808273ffffffffffffffffffffffffffffffffffffffff16600073ffffffffffffffffffffffffffffffffffffffff167fddf252ad1be2c89b69c2b068fc378daa952ba7f163c4a11628f55a4df523b3ef60405160405180910390a4612f5b60008383612a09565b5050565b505050565b609980549050609a600083815260200190815260200160002081905550609981908060018154018082558091505060019003906000526020600020016000909190919091505550565b60006001612fba8461144a565b612fc49190614759565b90506000609860008481526020019081526020016000205490508181146130a9576000609760008673ffffffffffffffffffffffffffffffffffffffff1673ffffffffffffffffffffffffffffffffffffffff168152602001908152602001600020600084815260200190815260200160002054905080609760008773ffffffffffffffffffffffffffffffffffffffff1673ffffffffffffffffffffffffffffffffffffffff168152602001908152602001600020600084815260200190815260200160002081905550816098600083815260200190815260200160002081905550505b6098600084815260200190815260200160002060009055609760008573ffffffffffffffffffffffffffffffffffffffff1673ffffffffffffffffffffffffffffffffffffffff16815260200190815260200160002060008381526020019081526020016000206000905550505050565b6000600160998054905061312e9190614759565b90506000609a600084815260200190815260200160002054905060006099838154811061315e5761315d61422d565b5b9060005260206000200154905080609983815481106131805761317f61422d565b5b906000526020600020018190555081609a600083815260200190815260200160002081905550609a60008581526020019081526020016000206000905560998054806131cf576131ce614c6f565b5b6001900381819060005260206000200160009055905550505050565b60006131f68361144a565b905081609760008573ffffffffffffffffffffffffffffffffffffffff1673ffffffffffffffffffffffffffffffffffffffff168152602001908152602001600020600083815260200190815260200160002081905550806098600084815260200190815260200160002081905550505050565b82805461327690613c0a565b90600052602060002090601f01602090048101928261329857600085556132df565b82601f106132b157805160ff19168380011785556132df565b828001600101855582156132df579182015b828111156132de5782518255916020019190600101906132c3565b5b5090506132ec91906132f0565b5090565b5b808211156133095760008160009055506001016132f1565b5090565b6000604051905090565b600080fd5b600080fd5b60007fffffffff0000000000000000000000000000000000000000000000000000000082169050919050565b61335681613321565b811461336157600080fd5b50565b6000813590506133738161334d565b92915050565b60006020828403121561338f5761338e613317565b5b600061339d84828501613364565b91505092915050565b60008115159050919050565b6133bb816133a6565b82525050565b60006020820190506133d660008301846133b2565b92915050565b6133e5816133a6565b81146133f057600080fd5b50565b600081359050613402816133dc565b92915050565b60006020828403121561341e5761341d613317565b5b600061342c848285016133f3565b91505092915050565b600081519050919050565b600082825260208201905092915050565b60005b8381101561346f578082015181840152602081019050613454565b8381111561347e576000848401525b50505050565b6000601f19601f8301169050919050565b60006134a082613435565b6134aa8185613440565b93506134ba818560208601613451565b6134c381613484565b840191505092915050565b600060208201905081810360008301526134e88184613495565b905092915050565b6000819050919050565b613503816134f0565b811461350e57600080fd5b50565b600081359050613520816134fa565b92915050565b60006020828403121561353c5761353b613317565b5b600061354a84828501613511565b91505092915050565b600073ffffffffffffffffffffffffffffffffffffffff82169050919050565b600061357e82613553565b9050919050565b61358e81613573565b82525050565b60006020820190506135a96000830184613585565b92915050565b6135b881613573565b81146135c357600080fd5b50565b6000813590506135d5816135af565b92915050565b600080604083850312156135f2576135f1613317565b5b6000613600858286016135c6565b925050602061361185828601613511565b9150509250929050565b6000819050919050565b600061364061363b61363684613553565b61361b565b613553565b9050919050565b600061365282613625565b9050919050565b600061366482613647565b9050919050565b61367481613659565b82525050565b600060208201905061368f600083018461366b565b92915050565b61369e816134f0565b82525050565b60006020820190506136b96000830184613695565b92915050565b6000806000606084860312156136d8576136d7613317565b5b60006136e6868287016135c6565b93505060206136f7868287016135c6565b925050604061370886828701613511565b9150509250925092565b600080fd5b600080fd5b7f4e487b7100000000000000000000000000000000000000000000000000000000600052604160045260246000fd5b61375482613484565b810181811067ffffffffffffffff821117156137735761377261371c565b5b80604052505050565b600061378661330d565b9050613792828261374b565b919050565b600067ffffffffffffffff8211156137b2576137b161371c565b5b6137bb82613484565b9050602081019050919050565b82818337600083830152505050565b60006137ea6137e584613797565b61377c565b90508281526020810184848401111561380657613805613717565b5b6138118482856137c8565b509392505050565b600082601f83011261382e5761382d613712565b5b813561383e8482602086016137d7565b91505092915050565b60006020828403121561385d5761385c613317565b5b600082013567ffffffffffffffff81111561387b5761387a61331c565b5b61388784828501613819565b91505092915050565b600061389b82613647565b9050919050565b6138ab81613890565b82525050565b60006020820190506138c660008301846138a2565b92915050565b6000602082840312156138e2576138e1613317565b5b60006138f0848285016135c6565b91505092915050565b600080604083850312156139105761390f613317565b5b600061391e858286016135c6565b925050602061392f858286016133f3565b9150509250929050565b600067ffffffffffffffff8211156139545761395361371c565b5b61395d82613484565b9050602081019050919050565b600061397d61397884613939565b61377c565b90508281526020810184848401111561399957613998613717565b5b6139a48482856137c8565b509392505050565b600082601f8301126139c1576139c0613712565b5b81356139d184826020860161396a565b91505092915050565b600080600080608085870312156139f4576139f3613317565b5b6000613a02878288016135c6565b9450506020613a13878288016135c6565b9350506040613a2487828801613511565b925050606085013567ffffffffffffffff811115613a4557613a4461331c565b5b613a51878288016139ac565b91505092959194509250565b7f4e487b7100000000000000000000000000000000000000000000000000000000600052602160045260246000fd5b60038110613a9d57613a9c613a5d565b5b50565b6000819050613aae82613a8c565b919050565b6000613abe82613aa0565b9050919050565b613ace81613ab3565b82525050565b6000602082019050613ae96000830184613ac5565b92915050565b60008060408385031215613b0657613b05613317565b5b6000613b14858286016135c6565b9250506020613b25858286016135c6565b9150509250929050565b60008060408385031215613b4657613b45613317565b5b6000613b5485828601613511565b9250506020613b6585828601613511565b9150509250929050565b7f4f776e61626c653a2063616c6c6572206973206e6f7420746865206f776e6572600082015250565b6000613ba5602083613440565b9150613bb082613b6f565b602082019050919050565b60006020820190508181036000830152613bd481613b98565b9050919050565b7f4e487b7100000000000000000000000000000000000000000000000000000000600052602260045260246000fd5b60006002820490506001821680613c2257607f821691505b602082108103613c3557613c34613bdb565b5b50919050565b7f4552433732313a20617070726f76656420717565727920666f72206e6f6e657860008201527f697374656e7420746f6b656e0000000000000000000000000000000000000000602082015250565b6000613c97602c83613440565b9150613ca282613c3b565b604082019050919050565b60006020820190508181036000830152613cc681613c8a565b9050919050565b7f4552433732313a20617070726f76616c20746f2063757272656e74206f776e6560008201527f7200000000000000000000000000000000000000000000000000000000000000602082015250565b6000613d29602183613440565b9150613d3482613ccd565b604082019050919050565b60006020820190508181036000830152613d5881613d1c565b9050919050565b7f4552433732313a20617070726f76652063616c6c6572206973206e6f74206f7760008201527f6e6572206e6f7220617070726f76656420666f7220616c6c0000000000000000602082015250565b6000613dbb603883613440565b9150613dc682613d5f565b604082019050919050565b60006020820190508181036000830152613dea81613dae565b9050919050565b7f4552433732313a207472616e736665722063616c6c6572206973206e6f74206f60008201527f776e6572206e6f7220617070726f766564000000000000000000000000000000602082015250565b6000613e4d603183613440565b9150613e5882613df1565b604082019050919050565b60006020820190508181036000830152613e7c81613e40565b9050919050565b7f455243373231456e756d657261626c653a206f776e657220696e646578206f7560008201527f74206f6620626f756e6473000000000000000000000000000000000000000000602082015250565b6000613edf602b83613440565b9150613eea82613e83565b604082019050919050565b60006020820190508181036000830152613f0e81613ed2565b9050919050565b7f4552433732314d657461646174613a2055524920717565727920666f72206e6f60008201527f6e6578697374656e7420746f6b656e0000000000000000000000000000000000602082015250565b6000613f71602f83613440565b9150613f7c82613f15565b604082019050919050565b60006020820190508181036000830152613fa081613f64565b9050919050565b7f4e487b7100000000000000000000000000000000000000000000000000000000600052601260045260246000fd5b7f4e487b7100000000000000000000000000000000000000000000000000000000600052601160045260246000fd5b6000614010826134f0565b915061401b836134f0565b92508261402b5761402a613fa7565b5b828204905092915050565b600081905092915050565b60008190508160005260206000209050919050565b6000815461406381613c0a565b61406d8186614036565b945060018216600081146140885760018114614099576140cc565b60ff198316865281860193506140cc565b6140a285614041565b60005b838110156140c4578154818901526001820191506020810190506140a5565b838801955050505b50505092915050565b60006140e082613435565b6140ea8185614036565b93506140fa818560208601613451565b80840191505092915050565b7f2f00000000000000000000000000000000000000000000000000000000000000600082015250565b600061413c600183614036565b915061414782614106565b600182019050919050565b600061415e8287614056565b915061416a82866140d5565b91506141758261412f565b915061418182856140d5565b915061418d8284614056565b915081905095945050505050565b7f455243373231456e756d657261626c653a20676c6f62616c20696e646578206f60008201527f7574206f6620626f756e64730000000000000000000000000000000000000000602082015250565b60006141f7602c83613440565b91506142028261419b565b604082019050919050565b60006020820190508181036000830152614226816141ea565b9050919050565b7f4e487b7100000000000000000000000000000000000000000000000000000000600052603260045260246000fd5b7f4552433732313a206f776e657220717565727920666f72206e6f6e657869737460008201527f656e7420746f6b656e0000000000000000000000000000000000000000000000602082015250565b60006142b8602983613440565b91506142c38261425c565b604082019050919050565b600060208201905081810360008301526142e7816142ab565b9050919050565b7f4552433732313a2062616c616e636520717565727920666f7220746865207a6560008201527f726f206164647265737300000000000000000000000000000000000000000000602082015250565b600061434a602a83613440565b9150614355826142ee565b604082019050919050565b600060208201905081810360008301526143798161433d565b9050919050565b600061438b826134f0565b9150614396836134f0565b9250827fffffffffffffffffffffffffffffffffffffffffffffffffffffffffffffffff038211156143cb576143ca613fd6565b5b828201905092915050565b60006143e1826134f0565b91507fffffffffffffffffffffffffffffffffffffffffffffffffffffffffffffffff820361441357614412613fd6565b5b600182019050919050565b6000819050919050565b600060ff82169050919050565b600061445061444b6144468461441e565b61361b565b614428565b9050919050565b61446081614435565b82525050565b600060208201905061447b6000830184614457565b92915050565b600061448d82856140d5565b915061449982846140d5565b91508190509392505050565b7f4f776e61626c653a206e6577206f776e657220697320746865207a65726f206160008201527f6464726573730000000000000000000000000000000000000000000000000000602082015250565b6000614501602683613440565b915061450c826144a5565b604082019050919050565b60006020820190508181036000830152614530816144f4565b9050919050565b7f426f626f74733a2021436f72654368616d626572000000000000000000000000600082015250565b600061456d601483613440565b915061457882614537565b602082019050919050565b6000602082019050818103600083015261459c81614560565b9050919050565b7f4552433732313a206f70657261746f7220717565727920666f72206e6f6e657860008201527f697374656e7420746f6b656e0000000000000000000000000000000000000000602082015250565b60006145ff602c83613440565b915061460a826145a3565b604082019050919050565b6000602082019050818103600083015261462e816145f2565b9050919050565b7f4552433732313a207472616e736665722066726f6d20696e636f72726563742060008201527f6f776e6572000000000000000000000000000000000000000000000000000000602082015250565b6000614691602583613440565b915061469c82614635565b604082019050919050565b600060208201905081810360008301526146c081614684565b9050919050565b7f4552433732313a207472616e7366657220746f20746865207a65726f2061646460008201527f7265737300000000000000000000000000000000000000000000000000000000602082015250565b6000614723602483613440565b915061472e826146c7565b604082019050919050565b6000602082019050818103600083015261475281614716565b9050919050565b6000614764826134f0565b915061476f836134f0565b92508282101561478257614781613fd6565b5b828203905092915050565b6000614798826134f0565b91506147a3836134f0565b9250826147b3576147b2613fa7565b5b828206905092915050565b7f4552433732313a20617070726f766520746f2063616c6c657200000000000000600082015250565b60006147f4601983613440565b91506147ff826147be565b602082019050919050565b60006020820190508181036000830152614823816147e7565b9050919050565b7f4552433732313a207472616e7366657220746f206e6f6e20455243373231526560008201527f63656976657220696d706c656d656e7465720000000000000000000000000000602082015250565b6000614886603283613440565b91506148918261482a565b604082019050919050565b600060208201905081810360008301526148b581614879565b9050919050565b7f496e697469616c697a61626c653a20636f6e747261637420697320616c72656160008201527f647920696e697469616c697a6564000000000000000000000000000000000000602082015250565b6000614918602e83613440565b9150614923826148bc565b604082019050919050565b600060208201905081810360008301526149478161490b565b9050919050565b7f496e697469616c697a61626c653a20636f6e7472616374206973206e6f74206960008201527f6e697469616c697a696e67000000000000000000000000000000000000000000602082015250565b60006149aa602b83613440565b91506149b58261494e565b604082019050919050565b600060208201905081810360008301526149d98161499d565b9050919050565b6000815190506149ef816133dc565b92915050565b600060208284031215614a0b57614a0a613317565b5b6000614a19848285016149e0565b91505092915050565b7f47656e657369733a20617420636f7265206368616d6265722e20556e7374616b60008201527f6520746f207472616e736665722e000000000000000000000000000000000000602082015250565b6000614a7e602e83613440565b9150614a8982614a22565b604082019050919050565b60006020820190508181036000830152614aad81614a71565b9050919050565b600081519050919050565b600082825260208201905092915050565b6000614adb82614ab4565b614ae58185614abf565b9350614af5818560208601613451565b614afe81613484565b840191505092915050565b6000608082019050614b1e6000830187613585565b614b2b6020830186613585565b614b386040830185613695565b8181036060830152614b4a8184614ad0565b905095945050505050565b600081519050614b648161334d565b92915050565b600060208284031215614b8057614b7f613317565b5b6000614b8e84828501614b55565b91505092915050565b7f4552433732313a206d696e7420746f20746865207a65726f2061646472657373600082015250565b6000614bcd602083613440565b9150614bd882614b97565b602082019050919050565b60006020820190508181036000830152614bfc81614bc0565b9050919050565b7f4552433732313a20746f6b656e20616c7265616479206d696e74656400000000600082015250565b6000614c39601c83613440565b9150614c4482614c03565b602082019050919050565b60006020820190508181036000830152614c6881614c2c565b9050919050565b7f4e487b7100000000000000000000000000000000000000000000000000000000600052603160045260246000fdfea264697066735822122090850051af6b6210b2260ec5ac1c5b33232316a7d5e173b68d0fbb157526260d64736f6c634300080d0033",
  "linkReferences": {},
  "deployedLinkReferences": {}
}