{
  "_format": "hh-sol-artifact-1",
  "contractName": "BobotsLandItem",
  "sourceName": "contracts/BobotsLandItem.sol",
  "abi": [
    {
      "anonymous": false,
      "inputs": [
        {
          "indexed": true,
          "internalType": "address",
          "name": "owner",
          "type": "address"
        },
        {
          "indexed": true,
          "internalType": "address",
          "name": "approved",
          "type": "address"
        },
        {
          "indexed": true,
          "internalType": "uint256",
          "name": "tokenId",
          "type": "uint256"
        }
      ],
      "name": "Approval",
      "type": "event"
    },
    {
      "anonymous": false,
      "inputs": [
        {
          "indexed": true,
          "internalType": "address",
          "name": "owner",
          "type": "address"
        },
        {
          "indexed": true,
          "internalType": "address",
          "name": "operator",
          "type": "address"
        },
        {
          "indexed": false,
          "internalType": "bool",
          "name": "approved",
          "type": "bool"
        }
      ],
      "name": "ApprovalForAll",
      "type": "event"
    },
    {
      "anonymous": false,
      "inputs": [
        {
          "indexed": false,
          "internalType": "uint8",
          "name": "version",
          "type": "uint8"
        }
      ],
      "name": "Initialized",
      "type": "event"
    },
    {
      "anonymous": false,
      "inputs": [
        {
          "indexed": true,
          "internalType": "address",
          "name": "previousOwner",
          "type": "address"
        },
        {
          "indexed": true,
          "internalType": "address",
          "name": "newOwner",
          "type": "address"
        }
      ],
      "name": "OwnershipTransferred",
      "type": "event"
    },
    {
      "anonymous": false,
      "inputs": [
        {
          "indexed": true,
          "internalType": "address",
          "name": "from",
          "type": "address"
        },
        {
          "indexed": true,
          "internalType": "address",
          "name": "to",
          "type": "address"
        },
        {
          "indexed": true,
          "internalType": "uint256",
          "name": "tokenId",
          "type": "uint256"
        }
      ],
      "name": "Transfer",
      "type": "event"
    },
    {
      "inputs": [
        {
          "internalType": "address",
          "name": "to",
          "type": "address"
        },
        {
          "internalType": "uint256",
          "name": "tokenId",
          "type": "uint256"
        }
      ],
      "name": "approve",
      "outputs": [],
      "stateMutability": "nonpayable",
      "type": "function"
    },
    {
      "inputs": [
        {
          "internalType": "address",
          "name": "owner",
          "type": "address"
        }
      ],
      "name": "balanceOf",
      "outputs": [
        {
          "internalType": "uint256",
          "name": "",
          "type": "uint256"
        }
      ],
      "stateMutability": "view",
      "type": "function"
    },
    {
      "inputs": [],
      "name": "baseExtention",
      "outputs": [
        {
          "internalType": "string",
          "name": "",
          "type": "string"
        }
      ],
      "stateMutability": "view",
      "type": "function"
    },
    {
      "inputs": [],
      "name": "baseHiddenURI",
      "outputs": [
        {
          "internalType": "string",
          "name": "",
          "type": "string"
        }
      ],
      "stateMutability": "view",
      "type": "function"
    },
    {
      "inputs": [],
      "name": "baseRevealedURI",
      "outputs": [
        {
          "internalType": "string",
          "name": "",
          "type": "string"
        }
      ],
      "stateMutability": "view",
      "type": "function"
    },
    {
      "inputs": [
        {
          "internalType": "uint256",
          "name": "",
          "type": "uint256"
        }
      ],
      "name": "bobotCorePoints",
      "outputs": [
        {
          "internalType": "uint256",
          "name": "",
          "type": "uint256"
        }
      ],
      "stateMutability": "view",
      "type": "function"
    },
    {
      "inputs": [],
      "name": "coreChamber",
      "outputs": [
        {
          "internalType": "contract CoreChamber",
          "name": "",
          "type": "address"
        }
      ],
      "stateMutability": "view",
      "type": "function"
    },
    {
      "inputs": [
        {
          "internalType": "uint256",
          "name": "_tokenId",
          "type": "uint256"
        },
        {
          "internalType": "uint256",
          "name": "_coreEarned",
          "type": "uint256"
        }
      ],
      "name": "coreChamberCorePointUpdate",
      "outputs": [],
      "stateMutability": "nonpayable",
      "type": "function"
    },
    {
      "inputs": [
        {
          "internalType": "uint256",
          "name": "tokenId",
          "type": "uint256"
        }
      ],
      "name": "getApproved",
      "outputs": [
        {
          "internalType": "address",
          "name": "",
          "type": "address"
        }
      ],
      "stateMutability": "view",
      "type": "function"
    },
    {
      "inputs": [
        {
          "internalType": "address",
          "name": "_owner",
          "type": "address"
        }
      ],
      "name": "getTokenIds",
      "outputs": [
        {
          "internalType": "uint256[]",
          "name": "",
          "type": "uint256[]"
        }
      ],
      "stateMutability": "view",
      "type": "function"
    },
    {
      "inputs": [
        {
          "internalType": "address",
          "name": "_magicAddress",
          "type": "address"
        }
      ],
      "name": "initialize",
      "outputs": [],
      "stateMutability": "nonpayable",
      "type": "function"
    },
    {
      "inputs": [
        {
          "internalType": "address",
          "name": "owner",
          "type": "address"
        },
        {
          "internalType": "address",
          "name": "operator",
          "type": "address"
        }
      ],
      "name": "isApprovedForAll",
      "outputs": [
        {
          "internalType": "bool",
          "name": "",
          "type": "bool"
        }
      ],
      "stateMutability": "view",
      "type": "function"
    },
    {
      "inputs": [],
      "name": "magic",
      "outputs": [
        {
          "internalType": "contract IERC20Upgradeable",
          "name": "",
          "type": "address"
        }
      ],
      "stateMutability": "view",
      "type": "function"
    },
    {
      "inputs": [],
      "name": "maxMintAmount",
      "outputs": [
        {
          "internalType": "uint256",
          "name": "",
          "type": "uint256"
        }
      ],
      "stateMutability": "view",
      "type": "function"
    },
    {
      "inputs": [],
      "name": "maxSupply",
      "outputs": [
        {
          "internalType": "uint256",
          "name": "",
          "type": "uint256"
        }
      ],
      "stateMutability": "view",
      "type": "function"
    },
    {
      "inputs": [],
      "name": "mintBobot",
      "outputs": [],
      "stateMutability": "payable",
      "type": "function"
    },
    {
      "inputs": [],
      "name": "mintBobotTest",
      "outputs": [],
      "stateMutability": "payable",
      "type": "function"
    },
    {
      "inputs": [],
      "name": "name",
      "outputs": [
        {
          "internalType": "string",
          "name": "",
          "type": "string"
        }
      ],
      "stateMutability": "view",
      "type": "function"
    },
    {
      "inputs": [],
      "name": "owner",
      "outputs": [
        {
          "internalType": "address",
          "name": "",
          "type": "address"
        }
      ],
      "stateMutability": "view",
      "type": "function"
    },
    {
      "inputs": [
        {
          "internalType": "uint256",
          "name": "tokenId",
          "type": "uint256"
        }
      ],
      "name": "ownerOf",
      "outputs": [
        {
          "internalType": "address",
          "name": "",
          "type": "address"
        }
      ],
      "stateMutability": "view",
      "type": "function"
    },
    {
      "inputs": [
        {
          "internalType": "bool",
          "name": "_state",
          "type": "bool"
        }
      ],
      "name": "pause",
      "outputs": [],
      "stateMutability": "nonpayable",
      "type": "function"
    },
    {
      "inputs": [],
      "name": "paused",
      "outputs": [
        {
          "internalType": "bool",
          "name": "",
          "type": "bool"
        }
      ],
      "stateMutability": "view",
      "type": "function"
    },
    {
      "inputs": [],
      "name": "renounceOwnership",
      "outputs": [],
      "stateMutability": "nonpayable",
      "type": "function"
    },
    {
      "inputs": [
        {
          "internalType": "address",
          "name": "from",
          "type": "address"
        },
        {
          "internalType": "address",
          "name": "to",
          "type": "address"
        },
        {
          "internalType": "uint256",
          "name": "tokenId",
          "type": "uint256"
        }
      ],
      "name": "safeTransferFrom",
      "outputs": [],
      "stateMutability": "nonpayable",
      "type": "function"
    },
    {
      "inputs": [
        {
          "internalType": "address",
          "name": "from",
          "type": "address"
        },
        {
          "internalType": "address",
          "name": "to",
          "type": "address"
        },
        {
          "internalType": "uint256",
          "name": "tokenId",
          "type": "uint256"
        },
        {
          "internalType": "bytes",
          "name": "_data",
          "type": "bytes"
        }
      ],
      "name": "safeTransferFrom",
      "outputs": [],
      "stateMutability": "nonpayable",
      "type": "function"
    },
    {
      "inputs": [
        {
          "internalType": "address",
          "name": "operator",
          "type": "address"
        },
        {
          "internalType": "bool",
          "name": "approved",
          "type": "bool"
        }
      ],
      "name": "setApprovalForAll",
      "outputs": [],
      "stateMutability": "nonpayable",
      "type": "function"
    },
    {
      "inputs": [
        {
          "internalType": "string",
          "name": "_newBaseExtentions",
          "type": "string"
        }
      ],
      "name": "setBaseExtentions",
      "outputs": [],
      "stateMutability": "nonpayable",
      "type": "function"
    },
    {
      "inputs": [
        {
          "internalType": "string",
          "name": "_newBaseURI",
          "type": "string"
        }
      ],
      "name": "setBaseHiddenURI",
      "outputs": [],
      "stateMutability": "nonpayable",
      "type": "function"
    },
    {
      "inputs": [
        {
          "internalType": "string",
          "name": "_newBaseURI",
          "type": "string"
        }
      ],
      "name": "setBaseRevealedURI",
      "outputs": [],
      "stateMutability": "nonpayable",
      "type": "function"
    },
    {
      "inputs": [
        {
          "internalType": "address",
          "name": "_coreChamber",
          "type": "address"
        }
      ],
      "name": "setCoreChamber",
      "outputs": [],
      "stateMutability": "nonpayable",
      "type": "function"
    },
    {
      "inputs": [
        {
          "internalType": "address",
          "name": "_address",
          "type": "address"
        }
      ],
      "name": "setMagicAddress",
      "outputs": [],
      "stateMutability": "nonpayable",
      "type": "function"
    },
    {
      "inputs": [
        {
          "internalType": "uint256",
          "name": "_newAmount",
          "type": "uint256"
        }
      ],
      "name": "setMagicBalanceCost",
      "outputs": [],
      "stateMutability": "nonpayable",
      "type": "function"
    },
    {
      "inputs": [
        {
          "internalType": "uint256",
          "name": "_newmaxMintAmount",
          "type": "uint256"
        }
      ],
      "name": "setmaxMintAmount",
      "outputs": [],
      "stateMutability": "nonpayable",
      "type": "function"
    },
    {
      "inputs": [
        {
          "internalType": "bytes4",
          "name": "interfaceId",
          "type": "bytes4"
        }
      ],
      "name": "supportsInterface",
      "outputs": [
        {
          "internalType": "bool",
          "name": "",
          "type": "bool"
        }
      ],
      "stateMutability": "view",
      "type": "function"
    },
    {
      "inputs": [],
      "name": "symbol",
      "outputs": [
        {
          "internalType": "string",
          "name": "",
          "type": "string"
        }
      ],
      "stateMutability": "view",
      "type": "function"
    },
    {
      "inputs": [
        {
          "internalType": "uint256",
          "name": "index",
          "type": "uint256"
        }
      ],
      "name": "tokenByIndex",
      "outputs": [
        {
          "internalType": "uint256",
          "name": "",
          "type": "uint256"
        }
      ],
      "stateMutability": "view",
      "type": "function"
    },
    {
      "inputs": [
        {
          "internalType": "address",
          "name": "owner",
          "type": "address"
        },
        {
          "internalType": "uint256",
          "name": "index",
          "type": "uint256"
        }
      ],
      "name": "tokenOfOwnerByIndex",
      "outputs": [
        {
          "internalType": "uint256",
          "name": "",
          "type": "uint256"
        }
      ],
      "stateMutability": "view",
      "type": "function"
    },
    {
      "inputs": [
        {
          "internalType": "uint256",
          "name": "tokenID",
          "type": "uint256"
        }
      ],
      "name": "tokenURI",
      "outputs": [
        {
          "internalType": "string",
          "name": "",
          "type": "string"
        }
      ],
      "stateMutability": "view",
      "type": "function"
    },
    {
      "inputs": [],
      "name": "totalSupply",
      "outputs": [
        {
          "internalType": "uint256",
          "name": "",
          "type": "uint256"
        }
      ],
      "stateMutability": "view",
      "type": "function"
    },
    {
      "inputs": [
        {
          "internalType": "address",
          "name": "from",
          "type": "address"
        },
        {
          "internalType": "address",
          "name": "to",
          "type": "address"
        },
        {
          "internalType": "uint256",
          "name": "tokenId",
          "type": "uint256"
        }
      ],
      "name": "transferFrom",
      "outputs": [],
      "stateMutability": "nonpayable",
      "type": "function"
    },
    {
      "inputs": [
        {
          "internalType": "address",
          "name": "newOwner",
          "type": "address"
        }
      ],
      "name": "transferOwnership",
      "outputs": [],
      "stateMutability": "nonpayable",
      "type": "function"
    },
    {
      "inputs": [],
      "name": "withdraw",
      "outputs": [],
      "stateMutability": "payable",
      "type": "function"
    }
  ],
  "bytecode": "0x6080604052633b9aca0060fc55601960fd556040518060400160405280600581526020017f2e6a736f6e00000000000000000000000000000000000000000000000000000081525061010090805190602001906200005f9291906200009e565b50620f423f61010155600161010255600061010560006101000a81548160ff0219169083151502179055503480156200009757600080fd5b50620001b2565b828054620000ac906200017d565b90600052602060002090601f016020900481019282620000d057600085556200011c565b82601f10620000eb57805160ff19168380011785556200011c565b828001600101855582156200011c579182015b828111156200011b578251825591602001919060010190620000fe565b5b5090506200012b91906200012f565b5090565b5b808211156200014a57600081600090555060010162000130565b5090565b7f4e487b7100000000000000000000000000000000000000000000000000000000600052602260045260246000fd5b600060028204905060018216806200019657607f821691505b602082108103620001ac57620001ab6200014e565b5b50919050565b614bbe80620001c26000396000f3fe6080604052600436106102515760003560e01c806370a0823111610139578063c17846dc116100b6578063d5abeb011161007a578063d5abeb0114610861578063e985e9c51461088c578063ed6f57b7146108c9578063f2fde38b146108f2578063f5c8834c1461091b578063fed71b281461094457610251565b8063c17846dc1461076c578063c4d66de814610795578063c87b56dd146107be578063cae2446c146107fb578063d004b0361461082457610251565b80639aa8ae5e116100fd5780639aa8ae5e146106be578063a22cb465146106c8578063a6a03054146106f1578063b6e2a1821461071a578063b88d4fde1461074357610251565b806370a08231146105eb578063715018a6146106285780637f00c7a61461063f5780638da5cb5b1461066857806395d89b411461069357610251565b806323b872dd116101d257806342842e0e1161019657806342842e0e146104c757806343b946af146104f05780634ba5f3781461051b5780634f6ccce7146105465780635c975abb146105835780636352211e146105ae57610251565b806323b872dd1461040357806325c132031461042c5780632f745c59146104555780633a5958e3146104925780633ccfd60b146104bd57610251565b806308454e121161021957806308454e121461032e578063095ea7b3146103595780630d8546461461038257806318160ddd146103ad578063239c70ae146103d857610251565b806301ffc9a71461025657806302329a291461029357806302428db6146102bc57806306fdde03146102c6578063081812fc146102f1575b600080fd5b34801561026257600080fd5b5061027d60048036038101906102789190613332565b610981565b60405161028a919061337a565b60405180910390f35b34801561029f57600080fd5b506102ba60048036038101906102b591906133c1565b6109fb565b005b6102c4610a95565b005b3480156102d257600080fd5b506102db610ac9565b6040516102e89190613487565b60405180910390f35b3480156102fd57600080fd5b50610318600480360381019061031391906134df565b610b5b565b604051610325919061354d565b60405180910390f35b34801561033a57600080fd5b50610343610be0565b6040516103509190613487565b60405180910390f35b34801561036557600080fd5b50610380600480360381019061037b9190613594565b610c6e565b005b34801561038e57600080fd5b50610397610d85565b6040516103a49190613633565b60405180910390f35b3480156103b957600080fd5b506103c2610dab565b6040516103cf919061365d565b60405180910390f35b3480156103e457600080fd5b506103ed610db8565b6040516103fa919061365d565b60405180910390f35b34801561040f57600080fd5b5061042a60048036038101906104259190613678565b610dbf565b005b34801561043857600080fd5b50610453600480360381019061044e9190613800565b610e1f565b005b34801561046157600080fd5b5061047c60048036038101906104779190613594565b610eb6565b604051610489919061365d565b60405180910390f35b34801561049e57600080fd5b506104a7610f5b565b6040516104b49190613487565b60405180910390f35b6104c5610fe9565b005b3480156104d357600080fd5b506104ee60048036038101906104e99190613678565b6110a5565b005b3480156104fc57600080fd5b506105056110c5565b604051610512919061386a565b60405180910390f35b34801561052757600080fd5b506105306110ec565b60405161053d9190613487565b60405180910390f35b34801561055257600080fd5b5061056d600480360381019061056891906134df565b61117b565b60405161057a919061365d565b60405180910390f35b34801561058f57600080fd5b506105986111ec565b6040516105a5919061337a565b60405180910390f35b3480156105ba57600080fd5b506105d560048036038101906105d091906134df565b611200565b6040516105e2919061354d565b60405180910390f35b3480156105f757600080fd5b50610612600480360381019061060d9190613885565b6112b1565b60405161061f919061365d565b60405180910390f35b34801561063457600080fd5b5061063d611368565b005b34801561064b57600080fd5b50610666600480360381019061066191906134df565b6113f0565b005b34801561067457600080fd5b5061067d611477565b60405161068a919061354d565b60405180910390f35b34801561069f57600080fd5b506106a86114a1565b6040516106b59190613487565b60405180910390f35b6106c6611533565b005b3480156106d457600080fd5b506106ef60048036038101906106ea91906138b2565b611680565b005b3480156106fd57600080fd5b5061071860048036038101906107139190613800565b611696565b005b34801561072657600080fd5b50610741600480360381019061073c9190613800565b61172c565b005b34801561074f57600080fd5b5061076a60048036038101906107659190613993565b6117c2565b005b34801561077857600080fd5b50610793600480360381019061078e9190613885565b611824565b005b3480156107a157600080fd5b506107bc60048036038101906107b79190613885565b6118e4565b005b3480156107ca57600080fd5b506107e560048036038101906107e091906134df565b6119c2565b6040516107f29190613487565b60405180910390f35b34801561080757600080fd5b50610822600480360381019061081d91906134df565b611a6a565b005b34801561083057600080fd5b5061084b60048036038101906108469190613885565b611af0565b6040516108589190613ad4565b60405180910390f35b34801561086d57600080fd5b50610876611ba6565b604051610883919061365d565b60405180910390f35b34801561089857600080fd5b506108b360048036038101906108ae9190613af6565b611bad565b6040516108c0919061337a565b60405180910390f35b3480156108d557600080fd5b506108f060048036038101906108eb9190613885565b611c41565b005b3480156108fe57600080fd5b5061091960048036038101906109149190613885565b611d02565b005b34801561092757600080fd5b50610942600480360381019061093d9190613b36565b611df9565b005b34801561095057600080fd5b5061096b600480360381019061096691906134df565b611eb9565b604051610978919061365d565b60405180910390f35b60007f780e9d63000000000000000000000000000000000000000000000000000000007bffffffffffffffffffffffffffffffffffffffffffffffffffffffff1916827bffffffffffffffffffffffffffffffffffffffffffffffffffffffff191614806109f457506109f382611ed2565b5b9050919050565b610a03611fb4565b73ffffffffffffffffffffffffffffffffffffffff16610a21611477565b73ffffffffffffffffffffffffffffffffffffffff1614610a77576040517f08c379a0000000000000000000000000000000000000000000000000000000008152600401610a6e90613bc2565b60405180910390fd5b8061010560006101000a81548160ff02191690831515021790555050565b61010560009054906101000a900460ff1615610ab057600080fd5b6000610aba611fbc565b9050610ac63382611fda565b50565b606060658054610ad890613c11565b80601f0160208091040260200160405190810160405280929190818152602001828054610b0490613c11565b8015610b515780601f10610b2657610100808354040283529160200191610b51565b820191906000526020600020905b815481529060010190602001808311610b3457829003601f168201915b5050505050905090565b6000610b6682611ff3565b610ba5576040517f08c379a0000000000000000000000000000000000000000000000000000000008152600401610b9c90613cb4565b60405180910390fd5b6069600083815260200190815260200160002060009054906101000a900473ffffffffffffffffffffffffffffffffffffffff169050919050565b60fe8054610bed90613c11565b80601f0160208091040260200160405190810160405280929190818152602001828054610c1990613c11565b8015610c665780601f10610c3b57610100808354040283529160200191610c66565b820191906000526020600020905b815481529060010190602001808311610c4957829003601f168201915b505050505081565b6000610c7982611200565b90508073ffffffffffffffffffffffffffffffffffffffff168373ffffffffffffffffffffffffffffffffffffffff1603610ce9576040517f08c379a0000000000000000000000000000000000000000000000000000000008152600401610ce090613d46565b60405180910390fd5b8073ffffffffffffffffffffffffffffffffffffffff16610d08611fb4565b73ffffffffffffffffffffffffffffffffffffffff161480610d375750610d3681610d31611fb4565b611bad565b5b610d76576040517f08c379a0000000000000000000000000000000000000000000000000000000008152600401610d6d90613dd8565b60405180910390fd5b610d80838361205f565b505050565b60fb60009054906101000a900473ffffffffffffffffffffffffffffffffffffffff1681565b6000609980549050905090565b6101025481565b610dd0610dca611fb4565b82612118565b610e0f576040517f08c379a0000000000000000000000000000000000000000000000000000000008152600401610e0690613e6a565b60405180910390fd5b610e1a8383836121f6565b505050565b610e27611fb4565b73ffffffffffffffffffffffffffffffffffffffff16610e45611477565b73ffffffffffffffffffffffffffffffffffffffff1614610e9b576040517f08c379a0000000000000000000000000000000000000000000000000000000008152600401610e9290613bc2565b60405180910390fd5b806101009080519060200190610eb2929190613223565b5050565b6000610ec1836112b1565b8210610f02576040517f08c379a0000000000000000000000000000000000000000000000000000000008152600401610ef990613efc565b60405180910390fd5b609760008473ffffffffffffffffffffffffffffffffffffffff1673ffffffffffffffffffffffffffffffffffffffff168152602001908152602001600020600083815260200190815260200160002054905092915050565b60ff8054610f6890613c11565b80601f0160208091040260200160405190810160405280929190818152602001828054610f9490613c11565b8015610fe15780601f10610fb657610100808354040283529160200191610fe1565b820191906000526020600020905b815481529060010190602001808311610fc457829003601f168201915b505050505081565b610ff1611fb4565b73ffffffffffffffffffffffffffffffffffffffff1661100f611477565b73ffffffffffffffffffffffffffffffffffffffff1614611065576040517f08c379a000000000000000000000000000000000000000000000000000000000815260040161105c90613bc2565b60405180910390fd5b3373ffffffffffffffffffffffffffffffffffffffff166108fc479081150290604051600060405180830381858888f193505050506110a357600080fd5b565b6110c0838383604051806020016040528060008152506117c2565b505050565b61010360009054906101000a900473ffffffffffffffffffffffffffffffffffffffff1681565b61010080546110fa90613c11565b80601f016020809104026020016040519081016040528092919081815260200182805461112690613c11565b80156111735780601f1061114857610100808354040283529160200191611173565b820191906000526020600020905b81548152906001019060200180831161115657829003601f168201915b505050505081565b6000611185610dab565b82106111c6576040517f08c379a00000000000000000000000000000000000000000000000000000000081526004016111bd90613f8e565b60405180910390fd5b609982815481106111da576111d9613fae565b5b90600052602060002001549050919050565b61010560009054906101000a900460ff1681565b6000806067600084815260200190815260200160002060009054906101000a900473ffffffffffffffffffffffffffffffffffffffff169050600073ffffffffffffffffffffffffffffffffffffffff168173ffffffffffffffffffffffffffffffffffffffff16036112a8576040517f08c379a000000000000000000000000000000000000000000000000000000000815260040161129f9061404f565b60405180910390fd5b80915050919050565b60008073ffffffffffffffffffffffffffffffffffffffff168273ffffffffffffffffffffffffffffffffffffffff1603611321576040517f08c379a0000000000000000000000000000000000000000000000000000000008152600401611318906140e1565b60405180910390fd5b606860008373ffffffffffffffffffffffffffffffffffffffff1673ffffffffffffffffffffffffffffffffffffffff168152602001908152602001600020549050919050565b611370611fb4565b73ffffffffffffffffffffffffffffffffffffffff1661138e611477565b73ffffffffffffffffffffffffffffffffffffffff16146113e4576040517f08c379a00000000000000000000000000000000000000000000000000000000081526004016113db90613bc2565b60405180910390fd5b6113ee600061245c565b565b6113f8611fb4565b73ffffffffffffffffffffffffffffffffffffffff16611416611477565b73ffffffffffffffffffffffffffffffffffffffff161461146c576040517f08c379a000000000000000000000000000000000000000000000000000000000815260040161146390613bc2565b60405180910390fd5b806101028190555050565b600060c960009054906101000a900473ffffffffffffffffffffffffffffffffffffffff16905090565b6060606680546114b090613c11565b80601f01602080910402602001604051908101604052809291908181526020018280546114dc90613c11565b80156115295780601f106114fe57610100808354040283529160200191611529565b820191906000526020600020905b81548152906001019060200180831161150c57829003601f168201915b5050505050905090565b61010560009054906101000a900460ff161561154e57600080fd5b60fd5460fc5460fb60009054906101000a900473ffffffffffffffffffffffffffffffffffffffff1673ffffffffffffffffffffffffffffffffffffffff166370a08231336040518263ffffffff1660e01b81526004016115af919061354d565b602060405180830381865afa1580156115cc573d6000803e3d6000fd5b505050506040513d601f19601f820116820180604052508101906115f09190614116565b6115fa91906141a1565b1161163a576040517f08c379a00000000000000000000000000000000000000000000000000000000081526004016116319061421e565b60405180910390fd5b600080600190505b81811161167c576000611653611fbc565b905061166a338383611665919061423e565b611fda565b508061167590614294565b9050611642565b5050565b61169261168b611fb4565b8383612522565b5050565b61169e611fb4565b73ffffffffffffffffffffffffffffffffffffffff166116bc611477565b73ffffffffffffffffffffffffffffffffffffffff1614611712576040517f08c379a000000000000000000000000000000000000000000000000000000000815260040161170990613bc2565b60405180910390fd5b8060fe9080519060200190611728929190613223565b5050565b611734611fb4565b73ffffffffffffffffffffffffffffffffffffffff16611752611477565b73ffffffffffffffffffffffffffffffffffffffff16146117a8576040517f08c379a000000000000000000000000000000000000000000000000000000000815260040161179f90613bc2565b60405180910390fd5b8060ff90805190602001906117be929190613223565b5050565b6117d36117cd611fb4565b83612118565b611812576040517f08c379a000000000000000000000000000000000000000000000000000000000815260040161180990613e6a565b60405180910390fd5b61181e8484848461268e565b50505050565b61182c611fb4565b73ffffffffffffffffffffffffffffffffffffffff1661184a611477565b73ffffffffffffffffffffffffffffffffffffffff16146118a0576040517f08c379a000000000000000000000000000000000000000000000000000000000815260040161189790613bc2565b60405180910390fd5b8060fb60006101000a81548173ffffffffffffffffffffffffffffffffffffffff021916908373ffffffffffffffffffffffffffffffffffffffff16021790555050565b60006118f060016126ea565b90508015611914576001600060016101000a81548160ff0219169083151502179055505b61191c6127da565b61192461282b565b8160fb60006101000a81548173ffffffffffffffffffffffffffffffffffffffff021916908373ffffffffffffffffffffffffffffffffffffffff16021790555080156119be5760008060016101000a81548160ff0219169083151502179055507f7f26b83ff96e1f2b6a682f133852f6798a09c465da95921460cefb384740249860016040516119b59190614324565b60405180910390a15b5050565b60606119cd82611ff3565b611a0c576040517f08c379a0000000000000000000000000000000000000000000000000000000008152600401611a03906143b1565b60405180910390fd5b6000611a16612884565b9050600060fe610100604051602001611a30929190614470565b60405160208183030381529060405290506000825111611a5f5760405180602001604052806000815250611a61565b805b92505050919050565b611a72611fb4565b73ffffffffffffffffffffffffffffffffffffffff16611a90611477565b73ffffffffffffffffffffffffffffffffffffffff1614611ae6576040517f08c379a0000000000000000000000000000000000000000000000000000000008152600401611add90613bc2565b60405180910390fd5b8060fd8190555050565b60606000611afd836112b1565b905060008167ffffffffffffffff811115611b1b57611b1a6136d5565b5b604051908082528060200260200182016040528015611b495781602001602082028036833780820191505090505b50905060005b611b58856112b1565b811015611b9b57611b698582610eb6565b828281518110611b7c57611b7b613fae565b5b6020026020010181815250508080611b9390614294565b915050611b4f565b819350505050919050565b6101015481565b6000606a60008473ffffffffffffffffffffffffffffffffffffffff1673ffffffffffffffffffffffffffffffffffffffff16815260200190815260200160002060008373ffffffffffffffffffffffffffffffffffffffff1673ffffffffffffffffffffffffffffffffffffffff16815260200190815260200160002060009054906101000a900460ff16905092915050565b611c49611fb4565b73ffffffffffffffffffffffffffffffffffffffff16611c67611477565b73ffffffffffffffffffffffffffffffffffffffff1614611cbd576040517f08c379a0000000000000000000000000000000000000000000000000000000008152600401611cb490613bc2565b60405180910390fd5b8061010360006101000a81548173ffffffffffffffffffffffffffffffffffffffff021916908373ffffffffffffffffffffffffffffffffffffffff16021790555050565b611d0a611fb4565b73ffffffffffffffffffffffffffffffffffffffff16611d28611477565b73ffffffffffffffffffffffffffffffffffffffff1614611d7e576040517f08c379a0000000000000000000000000000000000000000000000000000000008152600401611d7590613bc2565b60405180910390fd5b600073ffffffffffffffffffffffffffffffffffffffff168173ffffffffffffffffffffffffffffffffffffffff1603611ded576040517f08c379a0000000000000000000000000000000000000000000000000000000008152600401611de490614506565b60405180910390fd5b611df68161245c565b50565b61010360009054906101000a900473ffffffffffffffffffffffffffffffffffffffff1673ffffffffffffffffffffffffffffffffffffffff163373ffffffffffffffffffffffffffffffffffffffff1614611e8a576040517f08c379a0000000000000000000000000000000000000000000000000000000008152600401611e8190614572565b60405180910390fd5b8061010460008481526020019081526020016000206000828254611eae919061423e565b925050819055505050565b6101046020528060005260406000206000915090505481565b60007f80ac58cd000000000000000000000000000000000000000000000000000000007bffffffffffffffffffffffffffffffffffffffffffffffffffffffff1916827bffffffffffffffffffffffffffffffffffffffffffffffffffffffff19161480611f9d57507f5b5e139f000000000000000000000000000000000000000000000000000000007bffffffffffffffffffffffffffffffffffffffffffffffffffffffff1916827bffffffffffffffffffffffffffffffffffffffffffffffffffffffff1916145b80611fad5750611fac82612916565b5b9050919050565b600033905090565b60006001611fcb610106612980565b611fd5919061423e565b905090565b611fe4828261298e565b611fef6101066129ac565b5050565b60008073ffffffffffffffffffffffffffffffffffffffff166067600084815260200190815260200160002060009054906101000a900473ffffffffffffffffffffffffffffffffffffffff1673ffffffffffffffffffffffffffffffffffffffff1614159050919050565b816069600083815260200190815260200160002060006101000a81548173ffffffffffffffffffffffffffffffffffffffff021916908373ffffffffffffffffffffffffffffffffffffffff160217905550808273ffffffffffffffffffffffffffffffffffffffff166120d283611200565b73ffffffffffffffffffffffffffffffffffffffff167f8c5be1e5ebec7d5bd14f71427d1e84f3dd0314c0f7b2291e5b200ac8c7c3b92560405160405180910390a45050565b600061212382611ff3565b612162576040517f08c379a000000000000000000000000000000000000000000000000000000000815260040161215990614604565b60405180910390fd5b600061216d83611200565b90508073ffffffffffffffffffffffffffffffffffffffff168473ffffffffffffffffffffffffffffffffffffffff1614806121af57506121ae8185611bad565b5b806121ed57508373ffffffffffffffffffffffffffffffffffffffff166121d584610b5b565b73ffffffffffffffffffffffffffffffffffffffff16145b91505092915050565b8273ffffffffffffffffffffffffffffffffffffffff1661221682611200565b73ffffffffffffffffffffffffffffffffffffffff161461226c576040517f08c379a000000000000000000000000000000000000000000000000000000000815260040161226390614696565b60405180910390fd5b600073ffffffffffffffffffffffffffffffffffffffff168273ffffffffffffffffffffffffffffffffffffffff16036122db576040517f08c379a00000000000000000000000000000000000000000000000000000000081526004016122d290614728565b60405180910390fd5b6122e68383836129c2565b6122f160008261205f565b6001606860008573ffffffffffffffffffffffffffffffffffffffff1673ffffffffffffffffffffffffffffffffffffffff16815260200190815260200160002060008282546123419190614748565b925050819055506001606860008473ffffffffffffffffffffffffffffffffffffffff1673ffffffffffffffffffffffffffffffffffffffff1681526020019081526020016000206000828254612398919061423e565b92505081905550816067600083815260200190815260200160002060006101000a81548173ffffffffffffffffffffffffffffffffffffffff021916908373ffffffffffffffffffffffffffffffffffffffff160217905550808273ffffffffffffffffffffffffffffffffffffffff168473ffffffffffffffffffffffffffffffffffffffff167fddf252ad1be2c89b69c2b068fc378daa952ba7f163c4a11628f55a4df523b3ef60405160405180910390a4612457838383612ad4565b505050565b600060c960009054906101000a900473ffffffffffffffffffffffffffffffffffffffff1690508160c960006101000a81548173ffffffffffffffffffffffffffffffffffffffff021916908373ffffffffffffffffffffffffffffffffffffffff1602179055508173ffffffffffffffffffffffffffffffffffffffff168173ffffffffffffffffffffffffffffffffffffffff167f8be0079c531659141344cd1fd0a4f28419497f9722a3daafe3b4186f6b6457e060405160405180910390a35050565b8173ffffffffffffffffffffffffffffffffffffffff168373ffffffffffffffffffffffffffffffffffffffff1603612590576040517f08c379a0000000000000000000000000000000000000000000000000000000008152600401612587906147c8565b60405180910390fd5b80606a60008573ffffffffffffffffffffffffffffffffffffffff1673ffffffffffffffffffffffffffffffffffffffff16815260200190815260200160002060008473ffffffffffffffffffffffffffffffffffffffff1673ffffffffffffffffffffffffffffffffffffffff16815260200190815260200160002060006101000a81548160ff0219169083151502179055508173ffffffffffffffffffffffffffffffffffffffff168373ffffffffffffffffffffffffffffffffffffffff167f17307eab39ab6107e8899845ad3d59bd9653f200f220920489ca2b5937696c3183604051612681919061337a565b60405180910390a3505050565b6126998484846121f6565b6126a584848484612ad9565b6126e4576040517f08c379a00000000000000000000000000000000000000000000000000000000081526004016126db9061485a565b60405180910390fd5b50505050565b60008060019054906101000a900460ff16156127615760018260ff16148015612719575061271730612c60565b155b612758576040517f08c379a000000000000000000000000000000000000000000000000000000000815260040161274f906148ec565b60405180910390fd5b600090506127d5565b8160ff1660008054906101000a900460ff1660ff16106127b6576040517f08c379a00000000000000000000000000000000000000000000000000000000081526004016127ad906148ec565b60405180910390fd5b816000806101000a81548160ff021916908360ff160217905550600190505b919050565b600060019054906101000a900460ff16612829576040517f08c379a00000000000000000000000000000000000000000000000000000000081526004016128209061497e565b60405180910390fd5b565b600060019054906101000a900460ff1661287a576040517f08c379a00000000000000000000000000000000000000000000000000000000081526004016128719061497e565b60405180910390fd5b612882612c83565b565b606060fe805461289390613c11565b80601f01602080910402602001604051908101604052809291908181526020018280546128bf90613c11565b801561290c5780601f106128e15761010080835404028352916020019161290c565b820191906000526020600020905b8154815290600101906020018083116128ef57829003601f168201915b5050505050905090565b60007f01ffc9a7000000000000000000000000000000000000000000000000000000007bffffffffffffffffffffffffffffffffffffffffffffffffffffffff1916827bffffffffffffffffffffffffffffffffffffffffffffffffffffffff1916149050919050565b600081600001549050919050565b6129a8828260405180602001604052806000815250612ce4565b5050565b6001816000016000828254019250508190555050565b6129cd838383612d3f565b600073ffffffffffffffffffffffffffffffffffffffff168373ffffffffffffffffffffffffffffffffffffffff1603612a0f57612a0a81612d44565b612a4e565b8173ffffffffffffffffffffffffffffffffffffffff168373ffffffffffffffffffffffffffffffffffffffff1614612a4d57612a4c8382612d8d565b5b5b600073ffffffffffffffffffffffffffffffffffffffff168273ffffffffffffffffffffffffffffffffffffffff1603612a9057612a8b81612efa565b612acf565b8273ffffffffffffffffffffffffffffffffffffffff168273ffffffffffffffffffffffffffffffffffffffff1614612ace57612acd8282612fcb565b5b5b505050565b505050565b6000612afa8473ffffffffffffffffffffffffffffffffffffffff16612c60565b15612c53578373ffffffffffffffffffffffffffffffffffffffff1663150b7a02612b23611fb4565b8786866040518563ffffffff1660e01b8152600401612b4594939291906149f3565b6020604051808303816000875af1925050508015612b8157506040513d601f19601f82011682018060405250810190612b7e9190614a54565b60015b612c03573d8060008114612bb1576040519150601f19603f3d011682016040523d82523d6000602084013e612bb6565b606091505b506000815103612bfb576040517f08c379a0000000000000000000000000000000000000000000000000000000008152600401612bf29061485a565b60405180910390fd5b805181602001fd5b63150b7a0260e01b7bffffffffffffffffffffffffffffffffffffffffffffffffffffffff1916817bffffffffffffffffffffffffffffffffffffffffffffffffffffffff191614915050612c58565b600190505b949350505050565b6000808273ffffffffffffffffffffffffffffffffffffffff163b119050919050565b600060019054906101000a900460ff16612cd2576040517f08c379a0000000000000000000000000000000000000000000000000000000008152600401612cc99061497e565b60405180910390fd5b612ce2612cdd611fb4565b61245c565b565b612cee838361304a565b612cfb6000848484612ad9565b612d3a576040517f08c379a0000000000000000000000000000000000000000000000000000000008152600401612d319061485a565b60405180910390fd5b505050565b505050565b609980549050609a600083815260200190815260200160002081905550609981908060018154018082558091505060019003906000526020600020016000909190919091505550565b60006001612d9a846112b1565b612da49190614748565b9050600060986000848152602001908152602001600020549050818114612e89576000609760008673ffffffffffffffffffffffffffffffffffffffff1673ffffffffffffffffffffffffffffffffffffffff168152602001908152602001600020600084815260200190815260200160002054905080609760008773ffffffffffffffffffffffffffffffffffffffff1673ffffffffffffffffffffffffffffffffffffffff168152602001908152602001600020600084815260200190815260200160002081905550816098600083815260200190815260200160002081905550505b6098600084815260200190815260200160002060009055609760008573ffffffffffffffffffffffffffffffffffffffff1673ffffffffffffffffffffffffffffffffffffffff16815260200190815260200160002060008381526020019081526020016000206000905550505050565b60006001609980549050612f0e9190614748565b90506000609a6000848152602001908152602001600020549050600060998381548110612f3e57612f3d613fae565b5b906000526020600020015490508060998381548110612f6057612f5f613fae565b5b906000526020600020018190555081609a600083815260200190815260200160002081905550609a6000858152602001908152602001600020600090556099805480612faf57612fae614a81565b5b6001900381819060005260206000200160009055905550505050565b6000612fd6836112b1565b905081609760008573ffffffffffffffffffffffffffffffffffffffff1673ffffffffffffffffffffffffffffffffffffffff168152602001908152602001600020600083815260200190815260200160002081905550806098600084815260200190815260200160002081905550505050565b600073ffffffffffffffffffffffffffffffffffffffff168273ffffffffffffffffffffffffffffffffffffffff16036130b9576040517f08c379a00000000000000000000000000000000000000000000000000000000081526004016130b090614afc565b60405180910390fd5b6130c281611ff3565b15613102576040517f08c379a00000000000000000000000000000000000000000000000000000000081526004016130f990614b68565b60405180910390fd5b61310e600083836129c2565b6001606860008473ffffffffffffffffffffffffffffffffffffffff1673ffffffffffffffffffffffffffffffffffffffff168152602001908152602001600020600082825461315e919061423e565b92505081905550816067600083815260200190815260200160002060006101000a81548173ffffffffffffffffffffffffffffffffffffffff021916908373ffffffffffffffffffffffffffffffffffffffff160217905550808273ffffffffffffffffffffffffffffffffffffffff16600073ffffffffffffffffffffffffffffffffffffffff167fddf252ad1be2c89b69c2b068fc378daa952ba7f163c4a11628f55a4df523b3ef60405160405180910390a461321f60008383612ad4565b5050565b82805461322f90613c11565b90600052602060002090601f0160209004810192826132515760008555613298565b82601f1061326a57805160ff1916838001178555613298565b82800160010185558215613298579182015b8281111561329757825182559160200191906001019061327c565b5b5090506132a591906132a9565b5090565b5b808211156132c25760008160009055506001016132aa565b5090565b6000604051905090565b600080fd5b600080fd5b60007fffffffff0000000000000000000000000000000000000000000000000000000082169050919050565b61330f816132da565b811461331a57600080fd5b50565b60008135905061332c81613306565b92915050565b600060208284031215613348576133476132d0565b5b60006133568482850161331d565b91505092915050565b60008115159050919050565b6133748161335f565b82525050565b600060208201905061338f600083018461336b565b92915050565b61339e8161335f565b81146133a957600080fd5b50565b6000813590506133bb81613395565b92915050565b6000602082840312156133d7576133d66132d0565b5b60006133e5848285016133ac565b91505092915050565b600081519050919050565b600082825260208201905092915050565b60005b8381101561342857808201518184015260208101905061340d565b83811115613437576000848401525b50505050565b6000601f19601f8301169050919050565b6000613459826133ee565b61346381856133f9565b935061347381856020860161340a565b61347c8161343d565b840191505092915050565b600060208201905081810360008301526134a1818461344e565b905092915050565b6000819050919050565b6134bc816134a9565b81146134c757600080fd5b50565b6000813590506134d9816134b3565b92915050565b6000602082840312156134f5576134f46132d0565b5b6000613503848285016134ca565b91505092915050565b600073ffffffffffffffffffffffffffffffffffffffff82169050919050565b60006135378261350c565b9050919050565b6135478161352c565b82525050565b6000602082019050613562600083018461353e565b92915050565b6135718161352c565b811461357c57600080fd5b50565b60008135905061358e81613568565b92915050565b600080604083850312156135ab576135aa6132d0565b5b60006135b98582860161357f565b92505060206135ca858286016134ca565b9150509250929050565b6000819050919050565b60006135f96135f46135ef8461350c565b6135d4565b61350c565b9050919050565b600061360b826135de565b9050919050565b600061361d82613600565b9050919050565b61362d81613612565b82525050565b60006020820190506136486000830184613624565b92915050565b613657816134a9565b82525050565b6000602082019050613672600083018461364e565b92915050565b600080600060608486031215613691576136906132d0565b5b600061369f8682870161357f565b93505060206136b08682870161357f565b92505060406136c1868287016134ca565b9150509250925092565b600080fd5b600080fd5b7f4e487b7100000000000000000000000000000000000000000000000000000000600052604160045260246000fd5b61370d8261343d565b810181811067ffffffffffffffff8211171561372c5761372b6136d5565b5b80604052505050565b600061373f6132c6565b905061374b8282613704565b919050565b600067ffffffffffffffff82111561376b5761376a6136d5565b5b6137748261343d565b9050602081019050919050565b82818337600083830152505050565b60006137a361379e84613750565b613735565b9050828152602081018484840111156137bf576137be6136d0565b5b6137ca848285613781565b509392505050565b600082601f8301126137e7576137e66136cb565b5b81356137f7848260208601613790565b91505092915050565b600060208284031215613816576138156132d0565b5b600082013567ffffffffffffffff811115613834576138336132d5565b5b613840848285016137d2565b91505092915050565b600061385482613600565b9050919050565b61386481613849565b82525050565b600060208201905061387f600083018461385b565b92915050565b60006020828403121561389b5761389a6132d0565b5b60006138a98482850161357f565b91505092915050565b600080604083850312156138c9576138c86132d0565b5b60006138d78582860161357f565b92505060206138e8858286016133ac565b9150509250929050565b600067ffffffffffffffff82111561390d5761390c6136d5565b5b6139168261343d565b9050602081019050919050565b6000613936613931846138f2565b613735565b905082815260208101848484011115613952576139516136d0565b5b61395d848285613781565b509392505050565b600082601f83011261397a576139796136cb565b5b813561398a848260208601613923565b91505092915050565b600080600080608085870312156139ad576139ac6132d0565b5b60006139bb8782880161357f565b94505060206139cc8782880161357f565b93505060406139dd878288016134ca565b925050606085013567ffffffffffffffff8111156139fe576139fd6132d5565b5b613a0a87828801613965565b91505092959194509250565b600081519050919050565b600082825260208201905092915050565b6000819050602082019050919050565b613a4b816134a9565b82525050565b6000613a5d8383613a42565b60208301905092915050565b6000602082019050919050565b6000613a8182613a16565b613a8b8185613a21565b9350613a9683613a32565b8060005b83811015613ac7578151613aae8882613a51565b9750613ab983613a69565b925050600181019050613a9a565b5085935050505092915050565b60006020820190508181036000830152613aee8184613a76565b905092915050565b60008060408385031215613b0d57613b0c6132d0565b5b6000613b1b8582860161357f565b9250506020613b2c8582860161357f565b9150509250929050565b60008060408385031215613b4d57613b4c6132d0565b5b6000613b5b858286016134ca565b9250506020613b6c858286016134ca565b9150509250929050565b7f4f776e61626c653a2063616c6c6572206973206e6f7420746865206f776e6572600082015250565b6000613bac6020836133f9565b9150613bb782613b76565b602082019050919050565b60006020820190508181036000830152613bdb81613b9f565b9050919050565b7f4e487b7100000000000000000000000000000000000000000000000000000000600052602260045260246000fd5b60006002820490506001821680613c2957607f821691505b602082108103613c3c57613c3b613be2565b5b50919050565b7f4552433732313a20617070726f76656420717565727920666f72206e6f6e657860008201527f697374656e7420746f6b656e0000000000000000000000000000000000000000602082015250565b6000613c9e602c836133f9565b9150613ca982613c42565b604082019050919050565b60006020820190508181036000830152613ccd81613c91565b9050919050565b7f4552433732313a20617070726f76616c20746f2063757272656e74206f776e6560008201527f7200000000000000000000000000000000000000000000000000000000000000602082015250565b6000613d306021836133f9565b9150613d3b82613cd4565b604082019050919050565b60006020820190508181036000830152613d5f81613d23565b9050919050565b7f4552433732313a20617070726f76652063616c6c6572206973206e6f74206f7760008201527f6e6572206e6f7220617070726f76656420666f7220616c6c0000000000000000602082015250565b6000613dc26038836133f9565b9150613dcd82613d66565b604082019050919050565b60006020820190508181036000830152613df181613db5565b9050919050565b7f4552433732313a207472616e736665722063616c6c6572206973206e6f74206f60008201527f776e6572206e6f7220617070726f766564000000000000000000000000000000602082015250565b6000613e546031836133f9565b9150613e5f82613df8565b604082019050919050565b60006020820190508181036000830152613e8381613e47565b9050919050565b7f455243373231456e756d657261626c653a206f776e657220696e646578206f7560008201527f74206f6620626f756e6473000000000000000000000000000000000000000000602082015250565b6000613ee6602b836133f9565b9150613ef182613e8a565b604082019050919050565b60006020820190508181036000830152613f1581613ed9565b9050919050565b7f455243373231456e756d657261626c653a20676c6f62616c20696e646578206f60008201527f7574206f6620626f756e64730000000000000000000000000000000000000000602082015250565b6000613f78602c836133f9565b9150613f8382613f1c565b604082019050919050565b60006020820190508181036000830152613fa781613f6b565b9050919050565b7f4e487b7100000000000000000000000000000000000000000000000000000000600052603260045260246000fd5b7f4552433732313a206f776e657220717565727920666f72206e6f6e657869737460008201527f656e7420746f6b656e0000000000000000000000000000000000000000000000602082015250565b60006140396029836133f9565b915061404482613fdd565b604082019050919050565b600060208201905081810360008301526140688161402c565b9050919050565b7f4552433732313a2062616c616e636520717565727920666f7220746865207a6560008201527f726f206164647265737300000000000000000000000000000000000000000000602082015250565b60006140cb602a836133f9565b91506140d68261406f565b604082019050919050565b600060208201905081810360008301526140fa816140be565b9050919050565b600081519050614110816134b3565b92915050565b60006020828403121561412c5761412b6132d0565b5b600061413a84828501614101565b91505092915050565b7f4e487b7100000000000000000000000000000000000000000000000000000000600052601260045260246000fd5b7f4e487b7100000000000000000000000000000000000000000000000000000000600052601160045260246000fd5b60006141ac826134a9565b91506141b7836134a9565b9250826141c7576141c6614143565b5b828204905092915050565b7f4e6f7420656e6f756768206d6167696320696e2077616c6c6574000000000000600082015250565b6000614208601a836133f9565b9150614213826141d2565b602082019050919050565b60006020820190508181036000830152614237816141fb565b9050919050565b6000614249826134a9565b9150614254836134a9565b9250827fffffffffffffffffffffffffffffffffffffffffffffffffffffffffffffffff0382111561428957614288614172565b5b828201905092915050565b600061429f826134a9565b91507fffffffffffffffffffffffffffffffffffffffffffffffffffffffffffffffff82036142d1576142d0614172565b5b600182019050919050565b6000819050919050565b600060ff82169050919050565b600061430e614309614304846142dc565b6135d4565b6142e6565b9050919050565b61431e816142f3565b82525050565b60006020820190506143396000830184614315565b92915050565b7f4552433732314d657461646174613a2055524920717565727920666f72206e6f60008201527f6e6578697374656e7420746f6b656e0000000000000000000000000000000000602082015250565b600061439b602f836133f9565b91506143a68261433f565b604082019050919050565b600060208201905081810360008301526143ca8161438e565b9050919050565b600081905092915050565b60008190508160005260206000209050919050565b600081546143fe81613c11565b61440881866143d1565b94506001821660008114614423576001811461443457614467565b60ff19831686528186019350614467565b61443d856143dc565b60005b8381101561445f57815481890152600182019150602081019050614440565b838801955050505b50505092915050565b600061447c82856143f1565b915061448882846143f1565b91508190509392505050565b7f4f776e61626c653a206e6577206f776e657220697320746865207a65726f206160008201527f6464726573730000000000000000000000000000000000000000000000000000602082015250565b60006144f06026836133f9565b91506144fb82614494565b604082019050919050565b6000602082019050818103600083015261451f816144e3565b9050919050565b7f426f626f74733a2021436f72654368616d626572000000000000000000000000600082015250565b600061455c6014836133f9565b915061456782614526565b602082019050919050565b6000602082019050818103600083015261458b8161454f565b9050919050565b7f4552433732313a206f70657261746f7220717565727920666f72206e6f6e657860008201527f697374656e7420746f6b656e0000000000000000000000000000000000000000602082015250565b60006145ee602c836133f9565b91506145f982614592565b604082019050919050565b6000602082019050818103600083015261461d816145e1565b9050919050565b7f4552433732313a207472616e736665722066726f6d20696e636f72726563742060008201527f6f776e6572000000000000000000000000000000000000000000000000000000602082015250565b60006146806025836133f9565b915061468b82614624565b604082019050919050565b600060208201905081810360008301526146af81614673565b9050919050565b7f4552433732313a207472616e7366657220746f20746865207a65726f2061646460008201527f7265737300000000000000000000000000000000000000000000000000000000602082015250565b60006147126024836133f9565b915061471d826146b6565b604082019050919050565b6000602082019050818103600083015261474181614705565b9050919050565b6000614753826134a9565b915061475e836134a9565b92508282101561477157614770614172565b5b828203905092915050565b7f4552433732313a20617070726f766520746f2063616c6c657200000000000000600082015250565b60006147b26019836133f9565b91506147bd8261477c565b602082019050919050565b600060208201905081810360008301526147e1816147a5565b9050919050565b7f4552433732313a207472616e7366657220746f206e6f6e20455243373231526560008201527f63656976657220696d706c656d656e7465720000000000000000000000000000602082015250565b60006148446032836133f9565b915061484f826147e8565b604082019050919050565b6000602082019050818103600083015261487381614837565b9050919050565b7f496e697469616c697a61626c653a20636f6e747261637420697320616c72656160008201527f647920696e697469616c697a6564000000000000000000000000000000000000602082015250565b60006148d6602e836133f9565b91506148e18261487a565b604082019050919050565b60006020820190508181036000830152614905816148c9565b9050919050565b7f496e697469616c697a61626c653a20636f6e7472616374206973206e6f74206960008201527f6e697469616c697a696e67000000000000000000000000000000000000000000602082015250565b6000614968602b836133f9565b91506149738261490c565b604082019050919050565b600060208201905081810360008301526149978161495b565b9050919050565b600081519050919050565b600082825260208201905092915050565b60006149c58261499e565b6149cf81856149a9565b93506149df81856020860161340a565b6149e88161343d565b840191505092915050565b6000608082019050614a08600083018761353e565b614a15602083018661353e565b614a22604083018561364e565b8181036060830152614a3481846149ba565b905095945050505050565b600081519050614a4e81613306565b92915050565b600060208284031215614a6a57614a696132d0565b5b6000614a7884828501614a3f565b91505092915050565b7f4e487b7100000000000000000000000000000000000000000000000000000000600052603160045260246000fd5b7f4552433732313a206d696e7420746f20746865207a65726f2061646472657373600082015250565b6000614ae66020836133f9565b9150614af182614ab0565b602082019050919050565b60006020820190508181036000830152614b1581614ad9565b9050919050565b7f4552433732313a20746f6b656e20616c7265616479206d696e74656400000000600082015250565b6000614b52601c836133f9565b9150614b5d82614b1c565b602082019050919050565b60006020820190508181036000830152614b8181614b45565b905091905056fea2646970667358221220d763a2582af52436f2f8fee769a9a4e68c8dd045fc21d0bc9671900a02479ef964736f6c634300080d0033",
  "linkReferences": {},
  "deployedLinkReferences": {}
}