{
  "_format": "hh-sol-artifact-1",
  "contractName": "BobotsLandItem",
  "sourceName": "contracts/BobotsLandItem.sol",
  "abi": [
    {
      "anonymous": false,
      "inputs": [
        {
          "indexed": true,
          "internalType": "address",
          "name": "owner",
          "type": "address"
        },
        {
          "indexed": true,
          "internalType": "address",
          "name": "approved",
          "type": "address"
        },
        {
          "indexed": true,
          "internalType": "uint256",
          "name": "tokenId",
          "type": "uint256"
        }
      ],
      "name": "Approval",
      "type": "event"
    },
    {
      "anonymous": false,
      "inputs": [
        {
          "indexed": true,
          "internalType": "address",
          "name": "owner",
          "type": "address"
        },
        {
          "indexed": true,
          "internalType": "address",
          "name": "operator",
          "type": "address"
        },
        {
          "indexed": false,
          "internalType": "bool",
          "name": "approved",
          "type": "bool"
        }
      ],
      "name": "ApprovalForAll",
      "type": "event"
    },
    {
      "anonymous": false,
      "inputs": [
        {
          "indexed": true,
          "internalType": "address",
          "name": "previousOwner",
          "type": "address"
        },
        {
          "indexed": true,
          "internalType": "address",
          "name": "newOwner",
          "type": "address"
        }
      ],
      "name": "OwnershipTransferred",
      "type": "event"
    },
    {
      "anonymous": false,
      "inputs": [
        {
          "indexed": true,
          "internalType": "address",
          "name": "from",
          "type": "address"
        },
        {
          "indexed": true,
          "internalType": "address",
          "name": "to",
          "type": "address"
        },
        {
          "indexed": true,
          "internalType": "uint256",
          "name": "tokenId",
          "type": "uint256"
        }
      ],
      "name": "Transfer",
      "type": "event"
    },
    {
      "inputs": [
        {
          "internalType": "address",
          "name": "to",
          "type": "address"
        },
        {
          "internalType": "uint256",
          "name": "tokenId",
          "type": "uint256"
        }
      ],
      "name": "approve",
      "outputs": [],
      "stateMutability": "nonpayable",
      "type": "function"
    },
    {
      "inputs": [
        {
          "internalType": "address",
          "name": "owner",
          "type": "address"
        }
      ],
      "name": "balanceOf",
      "outputs": [
        {
          "internalType": "uint256",
          "name": "",
          "type": "uint256"
        }
      ],
      "stateMutability": "view",
      "type": "function"
    },
    {
      "inputs": [],
      "name": "baseExtention",
      "outputs": [
        {
          "internalType": "string",
          "name": "",
          "type": "string"
        }
      ],
      "stateMutability": "view",
      "type": "function"
    },
    {
      "inputs": [],
      "name": "baseHiddenURI",
      "outputs": [
        {
          "internalType": "string",
          "name": "",
          "type": "string"
        }
      ],
      "stateMutability": "view",
      "type": "function"
    },
    {
      "inputs": [],
      "name": "baseRevealedURI",
      "outputs": [
        {
          "internalType": "string",
          "name": "",
          "type": "string"
        }
      ],
      "stateMutability": "view",
      "type": "function"
    },
    {
      "inputs": [
        {
          "internalType": "uint256",
          "name": "",
          "type": "uint256"
        }
      ],
      "name": "bobotCorePoints",
      "outputs": [
        {
          "internalType": "uint256",
          "name": "",
          "type": "uint256"
        }
      ],
      "stateMutability": "view",
      "type": "function"
    },
    {
      "inputs": [],
      "name": "coreChamber",
      "outputs": [
        {
          "internalType": "contract CoreChamber",
          "name": "",
          "type": "address"
        }
      ],
      "stateMutability": "view",
      "type": "function"
    },
    {
      "inputs": [
        {
          "internalType": "uint256",
          "name": "_tokenId",
          "type": "uint256"
        },
        {
          "internalType": "uint256",
          "name": "_coreEarned",
          "type": "uint256"
        }
      ],
      "name": "coreChamberCorePointUpdate",
      "outputs": [],
      "stateMutability": "nonpayable",
      "type": "function"
    },
    {
      "inputs": [
        {
          "internalType": "uint256",
          "name": "tokenId",
          "type": "uint256"
        }
      ],
      "name": "getApproved",
      "outputs": [
        {
          "internalType": "address",
          "name": "",
          "type": "address"
        }
      ],
      "stateMutability": "view",
      "type": "function"
    },
    {
      "inputs": [
        {
          "internalType": "address",
          "name": "_owner",
          "type": "address"
        }
      ],
      "name": "getTokenIds",
      "outputs": [
        {
          "internalType": "uint256[]",
          "name": "",
          "type": "uint256[]"
        }
      ],
      "stateMutability": "view",
      "type": "function"
    },
    {
      "inputs": [
        {
          "internalType": "address",
          "name": "_magicAddress",
          "type": "address"
        }
      ],
      "name": "initialize",
      "outputs": [],
      "stateMutability": "nonpayable",
      "type": "function"
    },
    {
      "inputs": [
        {
          "internalType": "address",
          "name": "owner",
          "type": "address"
        },
        {
          "internalType": "address",
          "name": "operator",
          "type": "address"
        }
      ],
      "name": "isApprovedForAll",
      "outputs": [
        {
          "internalType": "bool",
          "name": "",
          "type": "bool"
        }
      ],
      "stateMutability": "view",
      "type": "function"
    },
    {
      "inputs": [],
      "name": "magic",
      "outputs": [
        {
          "internalType": "contract IERC20Upgradeable",
          "name": "",
          "type": "address"
        }
      ],
      "stateMutability": "view",
      "type": "function"
    },
    {
      "inputs": [],
      "name": "maxMintAmount",
      "outputs": [
        {
          "internalType": "uint256",
          "name": "",
          "type": "uint256"
        }
      ],
      "stateMutability": "view",
      "type": "function"
    },
    {
      "inputs": [],
      "name": "maxSupply",
      "outputs": [
        {
          "internalType": "uint256",
          "name": "",
          "type": "uint256"
        }
      ],
      "stateMutability": "view",
      "type": "function"
    },
    {
      "inputs": [],
      "name": "mintBobot",
      "outputs": [],
      "stateMutability": "payable",
      "type": "function"
    },
    {
      "inputs": [],
      "name": "mintBobotTest",
      "outputs": [],
      "stateMutability": "payable",
      "type": "function"
    },
    {
      "inputs": [],
      "name": "name",
      "outputs": [
        {
          "internalType": "string",
          "name": "",
          "type": "string"
        }
      ],
      "stateMutability": "view",
      "type": "function"
    },
    {
      "inputs": [],
      "name": "owner",
      "outputs": [
        {
          "internalType": "address",
          "name": "",
          "type": "address"
        }
      ],
      "stateMutability": "view",
      "type": "function"
    },
    {
      "inputs": [
        {
          "internalType": "uint256",
          "name": "tokenId",
          "type": "uint256"
        }
      ],
      "name": "ownerOf",
      "outputs": [
        {
          "internalType": "address",
          "name": "",
          "type": "address"
        }
      ],
      "stateMutability": "view",
      "type": "function"
    },
    {
      "inputs": [
        {
          "internalType": "bool",
          "name": "_state",
          "type": "bool"
        }
      ],
      "name": "pause",
      "outputs": [],
      "stateMutability": "nonpayable",
      "type": "function"
    },
    {
      "inputs": [],
      "name": "paused",
      "outputs": [
        {
          "internalType": "bool",
          "name": "",
          "type": "bool"
        }
      ],
      "stateMutability": "view",
      "type": "function"
    },
    {
      "inputs": [],
      "name": "renounceOwnership",
      "outputs": [],
      "stateMutability": "nonpayable",
      "type": "function"
    },
    {
      "inputs": [
        {
          "internalType": "address",
          "name": "from",
          "type": "address"
        },
        {
          "internalType": "address",
          "name": "to",
          "type": "address"
        },
        {
          "internalType": "uint256",
          "name": "tokenId",
          "type": "uint256"
        }
      ],
      "name": "safeTransferFrom",
      "outputs": [],
      "stateMutability": "nonpayable",
      "type": "function"
    },
    {
      "inputs": [
        {
          "internalType": "address",
          "name": "from",
          "type": "address"
        },
        {
          "internalType": "address",
          "name": "to",
          "type": "address"
        },
        {
          "internalType": "uint256",
          "name": "tokenId",
          "type": "uint256"
        },
        {
          "internalType": "bytes",
          "name": "_data",
          "type": "bytes"
        }
      ],
      "name": "safeTransferFrom",
      "outputs": [],
      "stateMutability": "nonpayable",
      "type": "function"
    },
    {
      "inputs": [
        {
          "internalType": "address",
          "name": "operator",
          "type": "address"
        },
        {
          "internalType": "bool",
          "name": "approved",
          "type": "bool"
        }
      ],
      "name": "setApprovalForAll",
      "outputs": [],
      "stateMutability": "nonpayable",
      "type": "function"
    },
    {
      "inputs": [
        {
          "internalType": "string",
          "name": "_newBaseExtentions",
          "type": "string"
        }
      ],
      "name": "setBaseExtentions",
      "outputs": [],
      "stateMutability": "nonpayable",
      "type": "function"
    },
    {
      "inputs": [
        {
          "internalType": "string",
          "name": "_newBaseURI",
          "type": "string"
        }
      ],
      "name": "setBaseHiddenURI",
      "outputs": [],
      "stateMutability": "nonpayable",
      "type": "function"
    },
    {
      "inputs": [
        {
          "internalType": "string",
          "name": "_newBaseURI",
          "type": "string"
        }
      ],
      "name": "setBaseRevealedURI",
      "outputs": [],
      "stateMutability": "nonpayable",
      "type": "function"
    },
    {
      "inputs": [
        {
          "internalType": "address",
          "name": "_coreChamber",
          "type": "address"
        }
      ],
      "name": "setCoreChamber",
      "outputs": [],
      "stateMutability": "nonpayable",
      "type": "function"
    },
    {
      "inputs": [
        {
          "internalType": "address",
          "name": "_address",
          "type": "address"
        }
      ],
      "name": "setMagicAddress",
      "outputs": [],
      "stateMutability": "nonpayable",
      "type": "function"
    },
    {
      "inputs": [
        {
          "internalType": "uint256",
          "name": "_newAmount",
          "type": "uint256"
        }
      ],
      "name": "setMagicBalanceCost",
      "outputs": [],
      "stateMutability": "nonpayable",
      "type": "function"
    },
    {
      "inputs": [
        {
          "internalType": "uint256",
          "name": "_newmaxMintAmount",
          "type": "uint256"
        }
      ],
      "name": "setmaxMintAmount",
      "outputs": [],
      "stateMutability": "nonpayable",
      "type": "function"
    },
    {
      "inputs": [
        {
          "internalType": "bytes4",
          "name": "interfaceId",
          "type": "bytes4"
        }
      ],
      "name": "supportsInterface",
      "outputs": [
        {
          "internalType": "bool",
          "name": "",
          "type": "bool"
        }
      ],
      "stateMutability": "view",
      "type": "function"
    },
    {
      "inputs": [],
      "name": "symbol",
      "outputs": [
        {
          "internalType": "string",
          "name": "",
          "type": "string"
        }
      ],
      "stateMutability": "view",
      "type": "function"
    },
    {
      "inputs": [
        {
          "internalType": "uint256",
          "name": "index",
          "type": "uint256"
        }
      ],
      "name": "tokenByIndex",
      "outputs": [
        {
          "internalType": "uint256",
          "name": "",
          "type": "uint256"
        }
      ],
      "stateMutability": "view",
      "type": "function"
    },
    {
      "inputs": [
        {
          "internalType": "address",
          "name": "owner",
          "type": "address"
        },
        {
          "internalType": "uint256",
          "name": "index",
          "type": "uint256"
        }
      ],
      "name": "tokenOfOwnerByIndex",
      "outputs": [
        {
          "internalType": "uint256",
          "name": "",
          "type": "uint256"
        }
      ],
      "stateMutability": "view",
      "type": "function"
    },
    {
      "inputs": [
        {
          "internalType": "uint256",
          "name": "tokenID",
          "type": "uint256"
        }
      ],
      "name": "tokenURI",
      "outputs": [
        {
          "internalType": "string",
          "name": "",
          "type": "string"
        }
      ],
      "stateMutability": "view",
      "type": "function"
    },
    {
      "inputs": [],
      "name": "totalSupply",
      "outputs": [
        {
          "internalType": "uint256",
          "name": "",
          "type": "uint256"
        }
      ],
      "stateMutability": "view",
      "type": "function"
    },
    {
      "inputs": [
        {
          "internalType": "address",
          "name": "from",
          "type": "address"
        },
        {
          "internalType": "address",
          "name": "to",
          "type": "address"
        },
        {
          "internalType": "uint256",
          "name": "tokenId",
          "type": "uint256"
        }
      ],
      "name": "transferFrom",
      "outputs": [],
      "stateMutability": "nonpayable",
      "type": "function"
    },
    {
      "inputs": [
        {
          "internalType": "address",
          "name": "newOwner",
          "type": "address"
        }
      ],
      "name": "transferOwnership",
      "outputs": [],
      "stateMutability": "nonpayable",
      "type": "function"
    },
    {
      "inputs": [],
      "name": "withdraw",
      "outputs": [],
      "stateMutability": "payable",
      "type": "function"
    }
  ],
  "bytecode": "0x6080604052633b9aca0060fc55601960fd556040518060400160405280600581526020017f2e6a736f6e00000000000000000000000000000000000000000000000000000081525061010090805190602001906200005f9291906200009e565b50620f423f61010155600161010255600061010560006101000a81548160ff0219169083151502179055503480156200009757600080fd5b50620001b2565b828054620000ac906200017d565b90600052602060002090601f016020900481019282620000d057600085556200011c565b82601f10620000eb57805160ff19168380011785556200011c565b828001600101855582156200011c579182015b828111156200011b578251825591602001919060010190620000fe565b5b5090506200012b91906200012f565b5090565b5b808211156200014a57600081600090555060010162000130565b5090565b7f4e487b7100000000000000000000000000000000000000000000000000000000600052602260045260246000fd5b600060028204905060018216806200019657607f821691505b602082108103620001ac57620001ab6200014e565b5b50919050565b614ad480620001c26000396000f3fe6080604052600436106102515760003560e01c806370a0823111610139578063c17846dc116100b6578063d5abeb011161007a578063d5abeb0114610861578063e985e9c51461088c578063ed6f57b7146108c9578063f2fde38b146108f2578063f5c8834c1461091b578063fed71b281461094457610251565b8063c17846dc1461076c578063c4d66de814610795578063c87b56dd146107be578063cae2446c146107fb578063d004b0361461082457610251565b80639aa8ae5e116100fd5780639aa8ae5e146106be578063a22cb465146106c8578063a6a03054146106f1578063b6e2a1821461071a578063b88d4fde1461074357610251565b806370a08231146105eb578063715018a6146106285780637f00c7a61461063f5780638da5cb5b1461066857806395d89b411461069357610251565b806323b872dd116101d257806342842e0e1161019657806342842e0e146104c757806343b946af146104f05780634ba5f3781461051b5780634f6ccce7146105465780635c975abb146105835780636352211e146105ae57610251565b806323b872dd1461040357806325c132031461042c5780632f745c59146104555780633a5958e3146104925780633ccfd60b146104bd57610251565b806308454e121161021957806308454e121461032e578063095ea7b3146103595780630d8546461461038257806318160ddd146103ad578063239c70ae146103d857610251565b806301ffc9a71461025657806302329a291461029357806302428db6146102bc57806306fdde03146102c6578063081812fc146102f1575b600080fd5b34801561026257600080fd5b5061027d600480360381019061027891906132ab565b610981565b60405161028a91906132f3565b60405180910390f35b34801561029f57600080fd5b506102ba60048036038101906102b5919061333a565b6109fb565b005b6102c4610a95565b005b3480156102d257600080fd5b506102db610ac9565b6040516102e89190613400565b60405180910390f35b3480156102fd57600080fd5b5061031860048036038101906103139190613458565b610b5b565b60405161032591906134c6565b60405180910390f35b34801561033a57600080fd5b50610343610be0565b6040516103509190613400565b60405180910390f35b34801561036557600080fd5b50610380600480360381019061037b919061350d565b610c6e565b005b34801561038e57600080fd5b50610397610d85565b6040516103a491906135ac565b60405180910390f35b3480156103b957600080fd5b506103c2610dab565b6040516103cf91906135d6565b60405180910390f35b3480156103e457600080fd5b506103ed610db8565b6040516103fa91906135d6565b60405180910390f35b34801561040f57600080fd5b5061042a600480360381019061042591906135f1565b610dbf565b005b34801561043857600080fd5b50610453600480360381019061044e9190613779565b610e1f565b005b34801561046157600080fd5b5061047c6004803603810190610477919061350d565b610eb6565b60405161048991906135d6565b60405180910390f35b34801561049e57600080fd5b506104a7610f5b565b6040516104b49190613400565b60405180910390f35b6104c5610fe9565b005b3480156104d357600080fd5b506104ee60048036038101906104e991906135f1565b6110a5565b005b3480156104fc57600080fd5b506105056110c5565b60405161051291906137e3565b60405180910390f35b34801561052757600080fd5b506105306110ec565b60405161053d9190613400565b60405180910390f35b34801561055257600080fd5b5061056d60048036038101906105689190613458565b61117b565b60405161057a91906135d6565b60405180910390f35b34801561058f57600080fd5b506105986111ec565b6040516105a591906132f3565b60405180910390f35b3480156105ba57600080fd5b506105d560048036038101906105d09190613458565b611200565b6040516105e291906134c6565b60405180910390f35b3480156105f757600080fd5b50610612600480360381019061060d91906137fe565b6112b1565b60405161061f91906135d6565b60405180910390f35b34801561063457600080fd5b5061063d611368565b005b34801561064b57600080fd5b5061066660048036038101906106619190613458565b6113f0565b005b34801561067457600080fd5b5061067d611477565b60405161068a91906134c6565b60405180910390f35b34801561069f57600080fd5b506106a86114a1565b6040516106b59190613400565b60405180910390f35b6106c6611533565b005b3480156106d457600080fd5b506106ef60048036038101906106ea919061382b565b611680565b005b3480156106fd57600080fd5b5061071860048036038101906107139190613779565b611696565b005b34801561072657600080fd5b50610741600480360381019061073c9190613779565b61172c565b005b34801561074f57600080fd5b5061076a6004803603810190610765919061390c565b6117c2565b005b34801561077857600080fd5b50610793600480360381019061078e91906137fe565b611824565b005b3480156107a157600080fd5b506107bc60048036038101906107b791906137fe565b6118e4565b005b3480156107ca57600080fd5b506107e560048036038101906107e09190613458565b611a1a565b6040516107f29190613400565b60405180910390f35b34801561080757600080fd5b50610822600480360381019061081d9190613458565b611ac2565b005b34801561083057600080fd5b5061084b600480360381019061084691906137fe565b611b48565b6040516108589190613a4d565b60405180910390f35b34801561086d57600080fd5b50610876611bfe565b60405161088391906135d6565b60405180910390f35b34801561089857600080fd5b506108b360048036038101906108ae9190613a6f565b611c05565b6040516108c091906132f3565b60405180910390f35b3480156108d557600080fd5b506108f060048036038101906108eb91906137fe565b611c99565b005b3480156108fe57600080fd5b50610919600480360381019061091491906137fe565b611d5a565b005b34801561092757600080fd5b50610942600480360381019061093d9190613aaf565b611e51565b005b34801561095057600080fd5b5061096b60048036038101906109669190613458565b611f11565b60405161097891906135d6565b60405180910390f35b60007f780e9d63000000000000000000000000000000000000000000000000000000007bffffffffffffffffffffffffffffffffffffffffffffffffffffffff1916827bffffffffffffffffffffffffffffffffffffffffffffffffffffffff191614806109f457506109f382611f2a565b5b9050919050565b610a0361200c565b73ffffffffffffffffffffffffffffffffffffffff16610a21611477565b73ffffffffffffffffffffffffffffffffffffffff1614610a77576040517f08c379a0000000000000000000000000000000000000000000000000000000008152600401610a6e90613b3b565b60405180910390fd5b8061010560006101000a81548160ff02191690831515021790555050565b61010560009054906101000a900460ff1615610ab057600080fd5b6000610aba612014565b9050610ac63382612032565b50565b606060658054610ad890613b8a565b80601f0160208091040260200160405190810160405280929190818152602001828054610b0490613b8a565b8015610b515780601f10610b2657610100808354040283529160200191610b51565b820191906000526020600020905b815481529060010190602001808311610b3457829003601f168201915b5050505050905090565b6000610b668261204b565b610ba5576040517f08c379a0000000000000000000000000000000000000000000000000000000008152600401610b9c90613c2d565b60405180910390fd5b6069600083815260200190815260200160002060009054906101000a900473ffffffffffffffffffffffffffffffffffffffff169050919050565b60fe8054610bed90613b8a565b80601f0160208091040260200160405190810160405280929190818152602001828054610c1990613b8a565b8015610c665780601f10610c3b57610100808354040283529160200191610c66565b820191906000526020600020905b815481529060010190602001808311610c4957829003601f168201915b505050505081565b6000610c7982611200565b90508073ffffffffffffffffffffffffffffffffffffffff168373ffffffffffffffffffffffffffffffffffffffff1603610ce9576040517f08c379a0000000000000000000000000000000000000000000000000000000008152600401610ce090613cbf565b60405180910390fd5b8073ffffffffffffffffffffffffffffffffffffffff16610d0861200c565b73ffffffffffffffffffffffffffffffffffffffff161480610d375750610d3681610d3161200c565b611c05565b5b610d76576040517f08c379a0000000000000000000000000000000000000000000000000000000008152600401610d6d90613d51565b60405180910390fd5b610d8083836120b7565b505050565b60fb60009054906101000a900473ffffffffffffffffffffffffffffffffffffffff1681565b6000609980549050905090565b6101025481565b610dd0610dca61200c565b82612170565b610e0f576040517f08c379a0000000000000000000000000000000000000000000000000000000008152600401610e0690613de3565b60405180910390fd5b610e1a83838361224e565b505050565b610e2761200c565b73ffffffffffffffffffffffffffffffffffffffff16610e45611477565b73ffffffffffffffffffffffffffffffffffffffff1614610e9b576040517f08c379a0000000000000000000000000000000000000000000000000000000008152600401610e9290613b3b565b60405180910390fd5b806101009080519060200190610eb292919061319c565b5050565b6000610ec1836112b1565b8210610f02576040517f08c379a0000000000000000000000000000000000000000000000000000000008152600401610ef990613e75565b60405180910390fd5b609760008473ffffffffffffffffffffffffffffffffffffffff1673ffffffffffffffffffffffffffffffffffffffff168152602001908152602001600020600083815260200190815260200160002054905092915050565b60ff8054610f6890613b8a565b80601f0160208091040260200160405190810160405280929190818152602001828054610f9490613b8a565b8015610fe15780601f10610fb657610100808354040283529160200191610fe1565b820191906000526020600020905b815481529060010190602001808311610fc457829003601f168201915b505050505081565b610ff161200c565b73ffffffffffffffffffffffffffffffffffffffff1661100f611477565b73ffffffffffffffffffffffffffffffffffffffff1614611065576040517f08c379a000000000000000000000000000000000000000000000000000000000815260040161105c90613b3b565b60405180910390fd5b3373ffffffffffffffffffffffffffffffffffffffff166108fc479081150290604051600060405180830381858888f193505050506110a357600080fd5b565b6110c0838383604051806020016040528060008152506117c2565b505050565b61010360009054906101000a900473ffffffffffffffffffffffffffffffffffffffff1681565b61010080546110fa90613b8a565b80601f016020809104026020016040519081016040528092919081815260200182805461112690613b8a565b80156111735780601f1061114857610100808354040283529160200191611173565b820191906000526020600020905b81548152906001019060200180831161115657829003601f168201915b505050505081565b6000611185610dab565b82106111c6576040517f08c379a00000000000000000000000000000000000000000000000000000000081526004016111bd90613f07565b60405180910390fd5b609982815481106111da576111d9613f27565b5b90600052602060002001549050919050565b61010560009054906101000a900460ff1681565b6000806067600084815260200190815260200160002060009054906101000a900473ffffffffffffffffffffffffffffffffffffffff169050600073ffffffffffffffffffffffffffffffffffffffff168173ffffffffffffffffffffffffffffffffffffffff16036112a8576040517f08c379a000000000000000000000000000000000000000000000000000000000815260040161129f90613fc8565b60405180910390fd5b80915050919050565b60008073ffffffffffffffffffffffffffffffffffffffff168273ffffffffffffffffffffffffffffffffffffffff1603611321576040517f08c379a00000000000000000000000000000000000000000000000000000000081526004016113189061405a565b60405180910390fd5b606860008373ffffffffffffffffffffffffffffffffffffffff1673ffffffffffffffffffffffffffffffffffffffff168152602001908152602001600020549050919050565b61137061200c565b73ffffffffffffffffffffffffffffffffffffffff1661138e611477565b73ffffffffffffffffffffffffffffffffffffffff16146113e4576040517f08c379a00000000000000000000000000000000000000000000000000000000081526004016113db90613b3b565b60405180910390fd5b6113ee60006124b4565b565b6113f861200c565b73ffffffffffffffffffffffffffffffffffffffff16611416611477565b73ffffffffffffffffffffffffffffffffffffffff161461146c576040517f08c379a000000000000000000000000000000000000000000000000000000000815260040161146390613b3b565b60405180910390fd5b806101028190555050565b600060c960009054906101000a900473ffffffffffffffffffffffffffffffffffffffff16905090565b6060606680546114b090613b8a565b80601f01602080910402602001604051908101604052809291908181526020018280546114dc90613b8a565b80156115295780601f106114fe57610100808354040283529160200191611529565b820191906000526020600020905b81548152906001019060200180831161150c57829003601f168201915b5050505050905090565b61010560009054906101000a900460ff161561154e57600080fd5b60fd5460fc5460fb60009054906101000a900473ffffffffffffffffffffffffffffffffffffffff1673ffffffffffffffffffffffffffffffffffffffff166370a08231336040518263ffffffff1660e01b81526004016115af91906134c6565b602060405180830381865afa1580156115cc573d6000803e3d6000fd5b505050506040513d601f19601f820116820180604052508101906115f0919061408f565b6115fa919061411a565b1161163a576040517f08c379a000000000000000000000000000000000000000000000000000000000815260040161163190614197565b60405180910390fd5b600080600190505b81811161167c576000611653612014565b905061166a33838361166591906141b7565b612032565b50806116759061420d565b9050611642565b5050565b61169261168b61200c565b838361257a565b5050565b61169e61200c565b73ffffffffffffffffffffffffffffffffffffffff166116bc611477565b73ffffffffffffffffffffffffffffffffffffffff1614611712576040517f08c379a000000000000000000000000000000000000000000000000000000000815260040161170990613b3b565b60405180910390fd5b8060fe908051906020019061172892919061319c565b5050565b61173461200c565b73ffffffffffffffffffffffffffffffffffffffff16611752611477565b73ffffffffffffffffffffffffffffffffffffffff16146117a8576040517f08c379a000000000000000000000000000000000000000000000000000000000815260040161179f90613b3b565b60405180910390fd5b8060ff90805190602001906117be92919061319c565b5050565b6117d36117cd61200c565b83612170565b611812576040517f08c379a000000000000000000000000000000000000000000000000000000000815260040161180990613de3565b60405180910390fd5b61181e848484846126e6565b50505050565b61182c61200c565b73ffffffffffffffffffffffffffffffffffffffff1661184a611477565b73ffffffffffffffffffffffffffffffffffffffff16146118a0576040517f08c379a000000000000000000000000000000000000000000000000000000000815260040161189790613b3b565b60405180910390fd5b8060fb60006101000a81548173ffffffffffffffffffffffffffffffffffffffff021916908373ffffffffffffffffffffffffffffffffffffffff16021790555050565b600060019054906101000a900460ff1661190c5760008054906101000a900460ff1615611915565b611914612742565b5b611954576040517f08c379a000000000000000000000000000000000000000000000000000000000815260040161194b906142c7565b60405180910390fd5b60008060019054906101000a900460ff1615905080156119a4576001600060016101000a81548160ff02191690831515021790555060016000806101000a81548160ff0219169083151502179055505b6119ac612753565b6119b46127a4565b8160fb60006101000a81548173ffffffffffffffffffffffffffffffffffffffff021916908373ffffffffffffffffffffffffffffffffffffffff1602179055508015611a165760008060016101000a81548160ff0219169083151502179055505b5050565b6060611a258261204b565b611a64576040517f08c379a0000000000000000000000000000000000000000000000000000000008152600401611a5b90614359565b60405180910390fd5b6000611a6e6127fd565b9050600060fe610100604051602001611a88929190614418565b60405160208183030381529060405290506000825111611ab75760405180602001604052806000815250611ab9565b805b92505050919050565b611aca61200c565b73ffffffffffffffffffffffffffffffffffffffff16611ae8611477565b73ffffffffffffffffffffffffffffffffffffffff1614611b3e576040517f08c379a0000000000000000000000000000000000000000000000000000000008152600401611b3590613b3b565b60405180910390fd5b8060fd8190555050565b60606000611b55836112b1565b905060008167ffffffffffffffff811115611b7357611b7261364e565b5b604051908082528060200260200182016040528015611ba15781602001602082028036833780820191505090505b50905060005b611bb0856112b1565b811015611bf357611bc18582610eb6565b828281518110611bd457611bd3613f27565b5b6020026020010181815250508080611beb9061420d565b915050611ba7565b819350505050919050565b6101015481565b6000606a60008473ffffffffffffffffffffffffffffffffffffffff1673ffffffffffffffffffffffffffffffffffffffff16815260200190815260200160002060008373ffffffffffffffffffffffffffffffffffffffff1673ffffffffffffffffffffffffffffffffffffffff16815260200190815260200160002060009054906101000a900460ff16905092915050565b611ca161200c565b73ffffffffffffffffffffffffffffffffffffffff16611cbf611477565b73ffffffffffffffffffffffffffffffffffffffff1614611d15576040517f08c379a0000000000000000000000000000000000000000000000000000000008152600401611d0c90613b3b565b60405180910390fd5b8061010360006101000a81548173ffffffffffffffffffffffffffffffffffffffff021916908373ffffffffffffffffffffffffffffffffffffffff16021790555050565b611d6261200c565b73ffffffffffffffffffffffffffffffffffffffff16611d80611477565b73ffffffffffffffffffffffffffffffffffffffff1614611dd6576040517f08c379a0000000000000000000000000000000000000000000000000000000008152600401611dcd90613b3b565b60405180910390fd5b600073ffffffffffffffffffffffffffffffffffffffff168173ffffffffffffffffffffffffffffffffffffffff1603611e45576040517f08c379a0000000000000000000000000000000000000000000000000000000008152600401611e3c906144ae565b60405180910390fd5b611e4e816124b4565b50565b61010360009054906101000a900473ffffffffffffffffffffffffffffffffffffffff1673ffffffffffffffffffffffffffffffffffffffff163373ffffffffffffffffffffffffffffffffffffffff1614611ee2576040517f08c379a0000000000000000000000000000000000000000000000000000000008152600401611ed99061451a565b60405180910390fd5b8061010460008481526020019081526020016000206000828254611f0691906141b7565b925050819055505050565b6101046020528060005260406000206000915090505481565b60007f80ac58cd000000000000000000000000000000000000000000000000000000007bffffffffffffffffffffffffffffffffffffffffffffffffffffffff1916827bffffffffffffffffffffffffffffffffffffffffffffffffffffffff19161480611ff557507f5b5e139f000000000000000000000000000000000000000000000000000000007bffffffffffffffffffffffffffffffffffffffffffffffffffffffff1916827bffffffffffffffffffffffffffffffffffffffffffffffffffffffff1916145b8061200557506120048261288f565b5b9050919050565b600033905090565b600060016120236101066128f9565b61202d91906141b7565b905090565b61203c8282612907565b612047610106612925565b5050565b60008073ffffffffffffffffffffffffffffffffffffffff166067600084815260200190815260200160002060009054906101000a900473ffffffffffffffffffffffffffffffffffffffff1673ffffffffffffffffffffffffffffffffffffffff1614159050919050565b816069600083815260200190815260200160002060006101000a81548173ffffffffffffffffffffffffffffffffffffffff021916908373ffffffffffffffffffffffffffffffffffffffff160217905550808273ffffffffffffffffffffffffffffffffffffffff1661212a83611200565b73ffffffffffffffffffffffffffffffffffffffff167f8c5be1e5ebec7d5bd14f71427d1e84f3dd0314c0f7b2291e5b200ac8c7c3b92560405160405180910390a45050565b600061217b8261204b565b6121ba576040517f08c379a00000000000000000000000000000000000000000000000000000000081526004016121b1906145ac565b60405180910390fd5b60006121c583611200565b90508073ffffffffffffffffffffffffffffffffffffffff168473ffffffffffffffffffffffffffffffffffffffff16148061223457508373ffffffffffffffffffffffffffffffffffffffff1661221c84610b5b565b73ffffffffffffffffffffffffffffffffffffffff16145b8061224557506122448185611c05565b5b91505092915050565b8273ffffffffffffffffffffffffffffffffffffffff1661226e82611200565b73ffffffffffffffffffffffffffffffffffffffff16146122c4576040517f08c379a00000000000000000000000000000000000000000000000000000000081526004016122bb9061463e565b60405180910390fd5b600073ffffffffffffffffffffffffffffffffffffffff168273ffffffffffffffffffffffffffffffffffffffff1603612333576040517f08c379a000000000000000000000000000000000000000000000000000000000815260040161232a906146d0565b60405180910390fd5b61233e83838361293b565b6123496000826120b7565b6001606860008573ffffffffffffffffffffffffffffffffffffffff1673ffffffffffffffffffffffffffffffffffffffff168152602001908152602001600020600082825461239991906146f0565b925050819055506001606860008473ffffffffffffffffffffffffffffffffffffffff1673ffffffffffffffffffffffffffffffffffffffff16815260200190815260200160002060008282546123f091906141b7565b92505081905550816067600083815260200190815260200160002060006101000a81548173ffffffffffffffffffffffffffffffffffffffff021916908373ffffffffffffffffffffffffffffffffffffffff160217905550808273ffffffffffffffffffffffffffffffffffffffff168473ffffffffffffffffffffffffffffffffffffffff167fddf252ad1be2c89b69c2b068fc378daa952ba7f163c4a11628f55a4df523b3ef60405160405180910390a46124af838383612a4d565b505050565b600060c960009054906101000a900473ffffffffffffffffffffffffffffffffffffffff1690508160c960006101000a81548173ffffffffffffffffffffffffffffffffffffffff021916908373ffffffffffffffffffffffffffffffffffffffff1602179055508173ffffffffffffffffffffffffffffffffffffffff168173ffffffffffffffffffffffffffffffffffffffff167f8be0079c531659141344cd1fd0a4f28419497f9722a3daafe3b4186f6b6457e060405160405180910390a35050565b8173ffffffffffffffffffffffffffffffffffffffff168373ffffffffffffffffffffffffffffffffffffffff16036125e8576040517f08c379a00000000000000000000000000000000000000000000000000000000081526004016125df90614770565b60405180910390fd5b80606a60008573ffffffffffffffffffffffffffffffffffffffff1673ffffffffffffffffffffffffffffffffffffffff16815260200190815260200160002060008473ffffffffffffffffffffffffffffffffffffffff1673ffffffffffffffffffffffffffffffffffffffff16815260200190815260200160002060006101000a81548160ff0219169083151502179055508173ffffffffffffffffffffffffffffffffffffffff168373ffffffffffffffffffffffffffffffffffffffff167f17307eab39ab6107e8899845ad3d59bd9653f200f220920489ca2b5937696c31836040516126d991906132f3565b60405180910390a3505050565b6126f184848461224e565b6126fd84848484612a52565b61273c576040517f08c379a000000000000000000000000000000000000000000000000000000000815260040161273390614802565b60405180910390fd5b50505050565b600061274d30612bd9565b15905090565b600060019054906101000a900460ff166127a2576040517f08c379a000000000000000000000000000000000000000000000000000000000815260040161279990614894565b60405180910390fd5b565b600060019054906101000a900460ff166127f3576040517f08c379a00000000000000000000000000000000000000000000000000000000081526004016127ea90614894565b60405180910390fd5b6127fb612bfc565b565b606060fe805461280c90613b8a565b80601f016020809104026020016040519081016040528092919081815260200182805461283890613b8a565b80156128855780601f1061285a57610100808354040283529160200191612885565b820191906000526020600020905b81548152906001019060200180831161286857829003601f168201915b5050505050905090565b60007f01ffc9a7000000000000000000000000000000000000000000000000000000007bffffffffffffffffffffffffffffffffffffffffffffffffffffffff1916827bffffffffffffffffffffffffffffffffffffffffffffffffffffffff1916149050919050565b600081600001549050919050565b612921828260405180602001604052806000815250612c5d565b5050565b6001816000016000828254019250508190555050565b612946838383612cb8565b600073ffffffffffffffffffffffffffffffffffffffff168373ffffffffffffffffffffffffffffffffffffffff16036129885761298381612cbd565b6129c7565b8173ffffffffffffffffffffffffffffffffffffffff168373ffffffffffffffffffffffffffffffffffffffff16146129c6576129c58382612d06565b5b5b600073ffffffffffffffffffffffffffffffffffffffff168273ffffffffffffffffffffffffffffffffffffffff1603612a0957612a0481612e73565b612a48565b8273ffffffffffffffffffffffffffffffffffffffff168273ffffffffffffffffffffffffffffffffffffffff1614612a4757612a468282612f44565b5b5b505050565b505050565b6000612a738473ffffffffffffffffffffffffffffffffffffffff16612bd9565b15612bcc578373ffffffffffffffffffffffffffffffffffffffff1663150b7a02612a9c61200c565b8786866040518563ffffffff1660e01b8152600401612abe9493929190614909565b6020604051808303816000875af1925050508015612afa57506040513d601f19601f82011682018060405250810190612af7919061496a565b60015b612b7c573d8060008114612b2a576040519150601f19603f3d011682016040523d82523d6000602084013e612b2f565b606091505b506000815103612b74576040517f08c379a0000000000000000000000000000000000000000000000000000000008152600401612b6b90614802565b60405180910390fd5b805181602001fd5b63150b7a0260e01b7bffffffffffffffffffffffffffffffffffffffffffffffffffffffff1916817bffffffffffffffffffffffffffffffffffffffffffffffffffffffff191614915050612bd1565b600190505b949350505050565b6000808273ffffffffffffffffffffffffffffffffffffffff163b119050919050565b600060019054906101000a900460ff16612c4b576040517f08c379a0000000000000000000000000000000000000000000000000000000008152600401612c4290614894565b60405180910390fd5b612c5b612c5661200c565b6124b4565b565b612c678383612fc3565b612c746000848484612a52565b612cb3576040517f08c379a0000000000000000000000000000000000000000000000000000000008152600401612caa90614802565b60405180910390fd5b505050565b505050565b609980549050609a600083815260200190815260200160002081905550609981908060018154018082558091505060019003906000526020600020016000909190919091505550565b60006001612d13846112b1565b612d1d91906146f0565b9050600060986000848152602001908152602001600020549050818114612e02576000609760008673ffffffffffffffffffffffffffffffffffffffff1673ffffffffffffffffffffffffffffffffffffffff168152602001908152602001600020600084815260200190815260200160002054905080609760008773ffffffffffffffffffffffffffffffffffffffff1673ffffffffffffffffffffffffffffffffffffffff168152602001908152602001600020600084815260200190815260200160002081905550816098600083815260200190815260200160002081905550505b6098600084815260200190815260200160002060009055609760008573ffffffffffffffffffffffffffffffffffffffff1673ffffffffffffffffffffffffffffffffffffffff16815260200190815260200160002060008381526020019081526020016000206000905550505050565b60006001609980549050612e8791906146f0565b90506000609a6000848152602001908152602001600020549050600060998381548110612eb757612eb6613f27565b5b906000526020600020015490508060998381548110612ed957612ed8613f27565b5b906000526020600020018190555081609a600083815260200190815260200160002081905550609a6000858152602001908152602001600020600090556099805480612f2857612f27614997565b5b6001900381819060005260206000200160009055905550505050565b6000612f4f836112b1565b905081609760008573ffffffffffffffffffffffffffffffffffffffff1673ffffffffffffffffffffffffffffffffffffffff168152602001908152602001600020600083815260200190815260200160002081905550806098600084815260200190815260200160002081905550505050565b600073ffffffffffffffffffffffffffffffffffffffff168273ffffffffffffffffffffffffffffffffffffffff1603613032576040517f08c379a000000000000000000000000000000000000000000000000000000000815260040161302990614a12565b60405180910390fd5b61303b8161204b565b1561307b576040517f08c379a000000000000000000000000000000000000000000000000000000000815260040161307290614a7e565b60405180910390fd5b6130876000838361293b565b6001606860008473ffffffffffffffffffffffffffffffffffffffff1673ffffffffffffffffffffffffffffffffffffffff16815260200190815260200160002060008282546130d791906141b7565b92505081905550816067600083815260200190815260200160002060006101000a81548173ffffffffffffffffffffffffffffffffffffffff021916908373ffffffffffffffffffffffffffffffffffffffff160217905550808273ffffffffffffffffffffffffffffffffffffffff16600073ffffffffffffffffffffffffffffffffffffffff167fddf252ad1be2c89b69c2b068fc378daa952ba7f163c4a11628f55a4df523b3ef60405160405180910390a461319860008383612a4d565b5050565b8280546131a890613b8a565b90600052602060002090601f0160209004810192826131ca5760008555613211565b82601f106131e357805160ff1916838001178555613211565b82800160010185558215613211579182015b828111156132105782518255916020019190600101906131f5565b5b50905061321e9190613222565b5090565b5b8082111561323b576000816000905550600101613223565b5090565b6000604051905090565b600080fd5b600080fd5b60007fffffffff0000000000000000000000000000000000000000000000000000000082169050919050565b61328881613253565b811461329357600080fd5b50565b6000813590506132a58161327f565b92915050565b6000602082840312156132c1576132c0613249565b5b60006132cf84828501613296565b91505092915050565b60008115159050919050565b6132ed816132d8565b82525050565b600060208201905061330860008301846132e4565b92915050565b613317816132d8565b811461332257600080fd5b50565b6000813590506133348161330e565b92915050565b6000602082840312156133505761334f613249565b5b600061335e84828501613325565b91505092915050565b600081519050919050565b600082825260208201905092915050565b60005b838110156133a1578082015181840152602081019050613386565b838111156133b0576000848401525b50505050565b6000601f19601f8301169050919050565b60006133d282613367565b6133dc8185613372565b93506133ec818560208601613383565b6133f5816133b6565b840191505092915050565b6000602082019050818103600083015261341a81846133c7565b905092915050565b6000819050919050565b61343581613422565b811461344057600080fd5b50565b6000813590506134528161342c565b92915050565b60006020828403121561346e5761346d613249565b5b600061347c84828501613443565b91505092915050565b600073ffffffffffffffffffffffffffffffffffffffff82169050919050565b60006134b082613485565b9050919050565b6134c0816134a5565b82525050565b60006020820190506134db60008301846134b7565b92915050565b6134ea816134a5565b81146134f557600080fd5b50565b600081359050613507816134e1565b92915050565b6000806040838503121561352457613523613249565b5b6000613532858286016134f8565b925050602061354385828601613443565b9150509250929050565b6000819050919050565b600061357261356d61356884613485565b61354d565b613485565b9050919050565b600061358482613557565b9050919050565b600061359682613579565b9050919050565b6135a68161358b565b82525050565b60006020820190506135c1600083018461359d565b92915050565b6135d081613422565b82525050565b60006020820190506135eb60008301846135c7565b92915050565b60008060006060848603121561360a57613609613249565b5b6000613618868287016134f8565b9350506020613629868287016134f8565b925050604061363a86828701613443565b9150509250925092565b600080fd5b600080fd5b7f4e487b7100000000000000000000000000000000000000000000000000000000600052604160045260246000fd5b613686826133b6565b810181811067ffffffffffffffff821117156136a5576136a461364e565b5b80604052505050565b60006136b861323f565b90506136c4828261367d565b919050565b600067ffffffffffffffff8211156136e4576136e361364e565b5b6136ed826133b6565b9050602081019050919050565b82818337600083830152505050565b600061371c613717846136c9565b6136ae565b90508281526020810184848401111561373857613737613649565b5b6137438482856136fa565b509392505050565b600082601f8301126137605761375f613644565b5b8135613770848260208601613709565b91505092915050565b60006020828403121561378f5761378e613249565b5b600082013567ffffffffffffffff8111156137ad576137ac61324e565b5b6137b98482850161374b565b91505092915050565b60006137cd82613579565b9050919050565b6137dd816137c2565b82525050565b60006020820190506137f860008301846137d4565b92915050565b60006020828403121561381457613813613249565b5b6000613822848285016134f8565b91505092915050565b6000806040838503121561384257613841613249565b5b6000613850858286016134f8565b925050602061386185828601613325565b9150509250929050565b600067ffffffffffffffff8211156138865761388561364e565b5b61388f826133b6565b9050602081019050919050565b60006138af6138aa8461386b565b6136ae565b9050828152602081018484840111156138cb576138ca613649565b5b6138d68482856136fa565b509392505050565b600082601f8301126138f3576138f2613644565b5b813561390384826020860161389c565b91505092915050565b6000806000806080858703121561392657613925613249565b5b6000613934878288016134f8565b9450506020613945878288016134f8565b935050604061395687828801613443565b925050606085013567ffffffffffffffff8111156139775761397661324e565b5b613983878288016138de565b91505092959194509250565b600081519050919050565b600082825260208201905092915050565b6000819050602082019050919050565b6139c481613422565b82525050565b60006139d683836139bb565b60208301905092915050565b6000602082019050919050565b60006139fa8261398f565b613a04818561399a565b9350613a0f836139ab565b8060005b83811015613a40578151613a2788826139ca565b9750613a32836139e2565b925050600181019050613a13565b5085935050505092915050565b60006020820190508181036000830152613a6781846139ef565b905092915050565b60008060408385031215613a8657613a85613249565b5b6000613a94858286016134f8565b9250506020613aa5858286016134f8565b9150509250929050565b60008060408385031215613ac657613ac5613249565b5b6000613ad485828601613443565b9250506020613ae585828601613443565b9150509250929050565b7f4f776e61626c653a2063616c6c6572206973206e6f7420746865206f776e6572600082015250565b6000613b25602083613372565b9150613b3082613aef565b602082019050919050565b60006020820190508181036000830152613b5481613b18565b9050919050565b7f4e487b7100000000000000000000000000000000000000000000000000000000600052602260045260246000fd5b60006002820490506001821680613ba257607f821691505b602082108103613bb557613bb4613b5b565b5b50919050565b7f4552433732313a20617070726f76656420717565727920666f72206e6f6e657860008201527f697374656e7420746f6b656e0000000000000000000000000000000000000000602082015250565b6000613c17602c83613372565b9150613c2282613bbb565b604082019050919050565b60006020820190508181036000830152613c4681613c0a565b9050919050565b7f4552433732313a20617070726f76616c20746f2063757272656e74206f776e6560008201527f7200000000000000000000000000000000000000000000000000000000000000602082015250565b6000613ca9602183613372565b9150613cb482613c4d565b604082019050919050565b60006020820190508181036000830152613cd881613c9c565b9050919050565b7f4552433732313a20617070726f76652063616c6c6572206973206e6f74206f7760008201527f6e6572206e6f7220617070726f76656420666f7220616c6c0000000000000000602082015250565b6000613d3b603883613372565b9150613d4682613cdf565b604082019050919050565b60006020820190508181036000830152613d6a81613d2e565b9050919050565b7f4552433732313a207472616e736665722063616c6c6572206973206e6f74206f60008201527f776e6572206e6f7220617070726f766564000000000000000000000000000000602082015250565b6000613dcd603183613372565b9150613dd882613d71565b604082019050919050565b60006020820190508181036000830152613dfc81613dc0565b9050919050565b7f455243373231456e756d657261626c653a206f776e657220696e646578206f7560008201527f74206f6620626f756e6473000000000000000000000000000000000000000000602082015250565b6000613e5f602b83613372565b9150613e6a82613e03565b604082019050919050565b60006020820190508181036000830152613e8e81613e52565b9050919050565b7f455243373231456e756d657261626c653a20676c6f62616c20696e646578206f60008201527f7574206f6620626f756e64730000000000000000000000000000000000000000602082015250565b6000613ef1602c83613372565b9150613efc82613e95565b604082019050919050565b60006020820190508181036000830152613f2081613ee4565b9050919050565b7f4e487b7100000000000000000000000000000000000000000000000000000000600052603260045260246000fd5b7f4552433732313a206f776e657220717565727920666f72206e6f6e657869737460008201527f656e7420746f6b656e0000000000000000000000000000000000000000000000602082015250565b6000613fb2602983613372565b9150613fbd82613f56565b604082019050919050565b60006020820190508181036000830152613fe181613fa5565b9050919050565b7f4552433732313a2062616c616e636520717565727920666f7220746865207a6560008201527f726f206164647265737300000000000000000000000000000000000000000000602082015250565b6000614044602a83613372565b915061404f82613fe8565b604082019050919050565b6000602082019050818103600083015261407381614037565b9050919050565b6000815190506140898161342c565b92915050565b6000602082840312156140a5576140a4613249565b5b60006140b38482850161407a565b91505092915050565b7f4e487b7100000000000000000000000000000000000000000000000000000000600052601260045260246000fd5b7f4e487b7100000000000000000000000000000000000000000000000000000000600052601160045260246000fd5b600061412582613422565b915061413083613422565b9250826141405761413f6140bc565b5b828204905092915050565b7f4e6f7420656e6f756768206d6167696320696e2077616c6c6574000000000000600082015250565b6000614181601a83613372565b915061418c8261414b565b602082019050919050565b600060208201905081810360008301526141b081614174565b9050919050565b60006141c282613422565b91506141cd83613422565b9250827fffffffffffffffffffffffffffffffffffffffffffffffffffffffffffffffff03821115614202576142016140eb565b5b828201905092915050565b600061421882613422565b91507fffffffffffffffffffffffffffffffffffffffffffffffffffffffffffffffff820361424a576142496140eb565b5b600182019050919050565b7f496e697469616c697a61626c653a20636f6e747261637420697320616c72656160008201527f647920696e697469616c697a6564000000000000000000000000000000000000602082015250565b60006142b1602e83613372565b91506142bc82614255565b604082019050919050565b600060208201905081810360008301526142e0816142a4565b9050919050565b7f4552433732314d657461646174613a2055524920717565727920666f72206e6f60008201527f6e6578697374656e7420746f6b656e0000000000000000000000000000000000602082015250565b6000614343602f83613372565b915061434e826142e7565b604082019050919050565b6000602082019050818103600083015261437281614336565b9050919050565b600081905092915050565b60008190508160005260206000209050919050565b600081546143a681613b8a565b6143b08186614379565b945060018216600081146143cb57600181146143dc5761440f565b60ff1983168652818601935061440f565b6143e585614384565b60005b83811015614407578154818901526001820191506020810190506143e8565b838801955050505b50505092915050565b60006144248285614399565b91506144308284614399565b91508190509392505050565b7f4f776e61626c653a206e6577206f776e657220697320746865207a65726f206160008201527f6464726573730000000000000000000000000000000000000000000000000000602082015250565b6000614498602683613372565b91506144a38261443c565b604082019050919050565b600060208201905081810360008301526144c78161448b565b9050919050565b7f426f626f74733a2021436f72654368616d626572000000000000000000000000600082015250565b6000614504601483613372565b915061450f826144ce565b602082019050919050565b60006020820190508181036000830152614533816144f7565b9050919050565b7f4552433732313a206f70657261746f7220717565727920666f72206e6f6e657860008201527f697374656e7420746f6b656e0000000000000000000000000000000000000000602082015250565b6000614596602c83613372565b91506145a18261453a565b604082019050919050565b600060208201905081810360008301526145c581614589565b9050919050565b7f4552433732313a207472616e736665722066726f6d20696e636f72726563742060008201527f6f776e6572000000000000000000000000000000000000000000000000000000602082015250565b6000614628602583613372565b9150614633826145cc565b604082019050919050565b600060208201905081810360008301526146578161461b565b9050919050565b7f4552433732313a207472616e7366657220746f20746865207a65726f2061646460008201527f7265737300000000000000000000000000000000000000000000000000000000602082015250565b60006146ba602483613372565b91506146c58261465e565b604082019050919050565b600060208201905081810360008301526146e9816146ad565b9050919050565b60006146fb82613422565b915061470683613422565b925082821015614719576147186140eb565b5b828203905092915050565b7f4552433732313a20617070726f766520746f2063616c6c657200000000000000600082015250565b600061475a601983613372565b915061476582614724565b602082019050919050565b600060208201905081810360008301526147898161474d565b9050919050565b7f4552433732313a207472616e7366657220746f206e6f6e20455243373231526560008201527f63656976657220696d706c656d656e7465720000000000000000000000000000602082015250565b60006147ec603283613372565b91506147f782614790565b604082019050919050565b6000602082019050818103600083015261481b816147df565b9050919050565b7f496e697469616c697a61626c653a20636f6e7472616374206973206e6f74206960008201527f6e697469616c697a696e67000000000000000000000000000000000000000000602082015250565b600061487e602b83613372565b915061488982614822565b604082019050919050565b600060208201905081810360008301526148ad81614871565b9050919050565b600081519050919050565b600082825260208201905092915050565b60006148db826148b4565b6148e581856148bf565b93506148f5818560208601613383565b6148fe816133b6565b840191505092915050565b600060808201905061491e60008301876134b7565b61492b60208301866134b7565b61493860408301856135c7565b818103606083015261494a81846148d0565b905095945050505050565b6000815190506149648161327f565b92915050565b6000602082840312156149805761497f613249565b5b600061498e84828501614955565b91505092915050565b7f4e487b7100000000000000000000000000000000000000000000000000000000600052603160045260246000fd5b7f4552433732313a206d696e7420746f20746865207a65726f2061646472657373600082015250565b60006149fc602083613372565b9150614a07826149c6565b602082019050919050565b60006020820190508181036000830152614a2b816149ef565b9050919050565b7f4552433732313a20746f6b656e20616c7265616479206d696e74656400000000600082015250565b6000614a68601c83613372565b9150614a7382614a32565b602082019050919050565b60006020820190508181036000830152614a9781614a5b565b905091905056fea2646970667358221220075f726b0d11be5e68a373218b0a7d671abf4d76ab977e67f08c69d2c08f411464736f6c634300080d0033",
  "linkReferences": {},
  "deployedLinkReferences": {}
}