{
  "_format": "hh-sol-artifact-1",
  "contractName": "ERC721NESBasicImpl",
  "sourceName": "contracts/ERC721NESBasicImpl.sol",
  "abi": [
    {
      "inputs": [
        {
          "internalType": "uint256",
          "name": "_multipler",
          "type": "uint256"
        }
      ],
      "stateMutability": "nonpayable",
      "type": "constructor"
    },
    {
      "inputs": [],
      "name": "ApprovalCallerNotOwnerNorApproved",
      "type": "error"
    },
    {
      "inputs": [],
      "name": "ApprovalQueryForNonexistentToken",
      "type": "error"
    },
    {
      "inputs": [],
      "name": "ApprovalToCurrentOwner",
      "type": "error"
    },
    {
      "inputs": [],
      "name": "ApproveToCaller",
      "type": "error"
    },
    {
      "inputs": [],
      "name": "BalanceQueryForZeroAddress",
      "type": "error"
    },
    {
      "inputs": [],
      "name": "MintToZeroAddress",
      "type": "error"
    },
    {
      "inputs": [],
      "name": "MintZeroQuantity",
      "type": "error"
    },
    {
      "inputs": [],
      "name": "OwnerIndexOutOfBounds",
      "type": "error"
    },
    {
      "inputs": [],
      "name": "OwnerQueryForNonexistentToken",
      "type": "error"
    },
    {
      "inputs": [],
      "name": "TokenIndexOutOfBounds",
      "type": "error"
    },
    {
      "inputs": [],
      "name": "TransferCallerNotOwnerNorApproved",
      "type": "error"
    },
    {
      "inputs": [],
      "name": "TransferFromIncorrectOwner",
      "type": "error"
    },
    {
      "inputs": [],
      "name": "TransferToNonERC721ReceiverImplementer",
      "type": "error"
    },
    {
      "inputs": [],
      "name": "TransferToZeroAddress",
      "type": "error"
    },
    {
      "inputs": [],
      "name": "URIQueryForNonexistentToken",
      "type": "error"
    },
    {
      "anonymous": false,
      "inputs": [
        {
          "indexed": true,
          "internalType": "address",
          "name": "owner",
          "type": "address"
        },
        {
          "indexed": true,
          "internalType": "address",
          "name": "approved",
          "type": "address"
        },
        {
          "indexed": true,
          "internalType": "uint256",
          "name": "tokenId",
          "type": "uint256"
        }
      ],
      "name": "Approval",
      "type": "event"
    },
    {
      "anonymous": false,
      "inputs": [
        {
          "indexed": true,
          "internalType": "address",
          "name": "owner",
          "type": "address"
        },
        {
          "indexed": true,
          "internalType": "address",
          "name": "operator",
          "type": "address"
        },
        {
          "indexed": false,
          "internalType": "bool",
          "name": "approved",
          "type": "bool"
        }
      ],
      "name": "ApprovalForAll",
      "type": "event"
    },
    {
      "anonymous": false,
      "inputs": [
        {
          "indexed": true,
          "internalType": "address",
          "name": "previousOwner",
          "type": "address"
        },
        {
          "indexed": true,
          "internalType": "address",
          "name": "newOwner",
          "type": "address"
        }
      ],
      "name": "OwnershipTransferred",
      "type": "event"
    },
    {
      "anonymous": false,
      "inputs": [
        {
          "indexed": false,
          "internalType": "uint256",
          "name": "tokenId",
          "type": "uint256"
        }
      ],
      "name": "Staked",
      "type": "event"
    },
    {
      "anonymous": false,
      "inputs": [
        {
          "indexed": true,
          "internalType": "address",
          "name": "from",
          "type": "address"
        },
        {
          "indexed": true,
          "internalType": "address",
          "name": "to",
          "type": "address"
        },
        {
          "indexed": true,
          "internalType": "uint256",
          "name": "tokenId",
          "type": "uint256"
        }
      ],
      "name": "Transfer",
      "type": "event"
    },
    {
      "anonymous": false,
      "inputs": [
        {
          "indexed": false,
          "internalType": "uint256",
          "name": "tokenId",
          "type": "uint256"
        }
      ],
      "name": "Unstaked",
      "type": "event"
    },
    {
      "inputs": [
        {
          "internalType": "address",
          "name": "to",
          "type": "address"
        },
        {
          "internalType": "uint256",
          "name": "tokenId",
          "type": "uint256"
        }
      ],
      "name": "approve",
      "outputs": [],
      "stateMutability": "nonpayable",
      "type": "function"
    },
    {
      "inputs": [
        {
          "internalType": "address",
          "name": "owner",
          "type": "address"
        }
      ],
      "name": "balanceOf",
      "outputs": [
        {
          "internalType": "uint256",
          "name": "",
          "type": "uint256"
        }
      ],
      "stateMutability": "view",
      "type": "function"
    },
    {
      "inputs": [
        {
          "internalType": "uint256",
          "name": "tokenId",
          "type": "uint256"
        }
      ],
      "name": "getApproved",
      "outputs": [
        {
          "internalType": "address",
          "name": "",
          "type": "address"
        }
      ],
      "stateMutability": "view",
      "type": "function"
    },
    {
      "inputs": [
        {
          "internalType": "uint256",
          "name": "tokenId",
          "type": "uint256"
        }
      ],
      "name": "getCumulativeDurationStaked",
      "outputs": [
        {
          "internalType": "uint256",
          "name": "",
          "type": "uint256"
        }
      ],
      "stateMutability": "view",
      "type": "function"
    },
    {
      "inputs": [
        {
          "internalType": "uint256",
          "name": "tokenId",
          "type": "uint256"
        }
      ],
      "name": "getCurrentAdditionalBalance",
      "outputs": [
        {
          "internalType": "uint256",
          "name": "",
          "type": "uint256"
        }
      ],
      "stateMutability": "view",
      "type": "function"
    },
    {
      "inputs": [
        {
          "internalType": "uint256",
          "name": "tokenId",
          "type": "uint256"
        }
      ],
      "name": "getStakingRewards",
      "outputs": [
        {
          "internalType": "uint256",
          "name": "",
          "type": "uint256"
        }
      ],
      "stateMutability": "view",
      "type": "function"
    },
    {
      "inputs": [
        {
          "internalType": "address",
          "name": "owner",
          "type": "address"
        },
        {
          "internalType": "address",
          "name": "operator",
          "type": "address"
        }
      ],
      "name": "isApprovedForAll",
      "outputs": [
        {
          "internalType": "bool",
          "name": "",
          "type": "bool"
        }
      ],
      "stateMutability": "view",
      "type": "function"
    },
    {
      "inputs": [
        {
          "internalType": "uint256",
          "name": "tokenId",
          "type": "uint256"
        }
      ],
      "name": "isStaked",
      "outputs": [
        {
          "internalType": "bool",
          "name": "",
          "type": "bool"
        }
      ],
      "stateMutability": "view",
      "type": "function"
    },
    {
      "inputs": [
        {
          "internalType": "uint256",
          "name": "_quanity",
          "type": "uint256"
        }
      ],
      "name": "mint",
      "outputs": [],
      "stateMutability": "nonpayable",
      "type": "function"
    },
    {
      "inputs": [],
      "name": "name",
      "outputs": [
        {
          "internalType": "string",
          "name": "",
          "type": "string"
        }
      ],
      "stateMutability": "view",
      "type": "function"
    },
    {
      "inputs": [],
      "name": "owner",
      "outputs": [
        {
          "internalType": "address",
          "name": "",
          "type": "address"
        }
      ],
      "stateMutability": "view",
      "type": "function"
    },
    {
      "inputs": [
        {
          "internalType": "uint256",
          "name": "tokenId",
          "type": "uint256"
        }
      ],
      "name": "ownerOf",
      "outputs": [
        {
          "internalType": "address",
          "name": "",
          "type": "address"
        }
      ],
      "stateMutability": "view",
      "type": "function"
    },
    {
      "inputs": [],
      "name": "renounceOwnership",
      "outputs": [],
      "stateMutability": "nonpayable",
      "type": "function"
    },
    {
      "inputs": [
        {
          "internalType": "address",
          "name": "from",
          "type": "address"
        },
        {
          "internalType": "address",
          "name": "to",
          "type": "address"
        },
        {
          "internalType": "uint256",
          "name": "tokenId",
          "type": "uint256"
        }
      ],
      "name": "safeTransferFrom",
      "outputs": [],
      "stateMutability": "nonpayable",
      "type": "function"
    },
    {
      "inputs": [
        {
          "internalType": "address",
          "name": "from",
          "type": "address"
        },
        {
          "internalType": "address",
          "name": "to",
          "type": "address"
        },
        {
          "internalType": "uint256",
          "name": "tokenId",
          "type": "uint256"
        },
        {
          "internalType": "bytes",
          "name": "_data",
          "type": "bytes"
        }
      ],
      "name": "safeTransferFrom",
      "outputs": [],
      "stateMutability": "nonpayable",
      "type": "function"
    },
    {
      "inputs": [
        {
          "internalType": "address",
          "name": "operator",
          "type": "address"
        },
        {
          "internalType": "bool",
          "name": "approved",
          "type": "bool"
        }
      ],
      "name": "setApprovalForAll",
      "outputs": [],
      "stateMutability": "nonpayable",
      "type": "function"
    },
    {
      "inputs": [
        {
          "internalType": "uint256",
          "name": "tokenId",
          "type": "uint256"
        }
      ],
      "name": "stake",
      "outputs": [],
      "stateMutability": "nonpayable",
      "type": "function"
    },
    {
      "inputs": [
        {
          "internalType": "uint256",
          "name": "tokenId",
          "type": "uint256"
        },
        {
          "internalType": "address",
          "name": "originator",
          "type": "address"
        }
      ],
      "name": "stakeFromController",
      "outputs": [],
      "stateMutability": "nonpayable",
      "type": "function"
    },
    {
      "inputs": [],
      "name": "stakingController",
      "outputs": [
        {
          "internalType": "address",
          "name": "",
          "type": "address"
        }
      ],
      "stateMutability": "view",
      "type": "function"
    },
    {
      "inputs": [
        {
          "internalType": "bytes4",
          "name": "interfaceId",
          "type": "bytes4"
        }
      ],
      "name": "supportsInterface",
      "outputs": [
        {
          "internalType": "bool",
          "name": "",
          "type": "bool"
        }
      ],
      "stateMutability": "view",
      "type": "function"
    },
    {
      "inputs": [],
      "name": "symbol",
      "outputs": [
        {
          "internalType": "string",
          "name": "",
          "type": "string"
        }
      ],
      "stateMutability": "view",
      "type": "function"
    },
    {
      "inputs": [
        {
          "internalType": "uint256",
          "name": "index",
          "type": "uint256"
        }
      ],
      "name": "tokenByIndex",
      "outputs": [
        {
          "internalType": "uint256",
          "name": "",
          "type": "uint256"
        }
      ],
      "stateMutability": "view",
      "type": "function"
    },
    {
      "inputs": [
        {
          "internalType": "address",
          "name": "owner",
          "type": "address"
        },
        {
          "internalType": "uint256",
          "name": "index",
          "type": "uint256"
        }
      ],
      "name": "tokenOfOwnerByIndex",
      "outputs": [
        {
          "internalType": "uint256",
          "name": "",
          "type": "uint256"
        }
      ],
      "stateMutability": "view",
      "type": "function"
    },
    {
      "inputs": [
        {
          "internalType": "uint256",
          "name": "",
          "type": "uint256"
        }
      ],
      "name": "tokenToIsStaked",
      "outputs": [
        {
          "internalType": "bool",
          "name": "",
          "type": "bool"
        }
      ],
      "stateMutability": "view",
      "type": "function"
    },
    {
      "inputs": [
        {
          "internalType": "uint256",
          "name": "",
          "type": "uint256"
        }
      ],
      "name": "tokenToTotalDurationStaked",
      "outputs": [
        {
          "internalType": "uint256",
          "name": "",
          "type": "uint256"
        }
      ],
      "stateMutability": "view",
      "type": "function"
    },
    {
      "inputs": [
        {
          "internalType": "uint256",
          "name": "",
          "type": "uint256"
        }
      ],
      "name": "tokenToWhenStaked",
      "outputs": [
        {
          "internalType": "uint256",
          "name": "",
          "type": "uint256"
        }
      ],
      "stateMutability": "view",
      "type": "function"
    },
    {
      "inputs": [
        {
          "internalType": "uint256",
          "name": "tokenId",
          "type": "uint256"
        }
      ],
      "name": "tokenURI",
      "outputs": [
        {
          "internalType": "string",
          "name": "",
          "type": "string"
        }
      ],
      "stateMutability": "view",
      "type": "function"
    },
    {
      "inputs": [],
      "name": "totalSupply",
      "outputs": [
        {
          "internalType": "uint256",
          "name": "",
          "type": "uint256"
        }
      ],
      "stateMutability": "view",
      "type": "function"
    },
    {
      "inputs": [
        {
          "internalType": "address",
          "name": "from",
          "type": "address"
        },
        {
          "internalType": "address",
          "name": "to",
          "type": "address"
        },
        {
          "internalType": "uint256",
          "name": "tokenId",
          "type": "uint256"
        }
      ],
      "name": "transferFrom",
      "outputs": [],
      "stateMutability": "nonpayable",
      "type": "function"
    },
    {
      "inputs": [
        {
          "internalType": "address",
          "name": "newOwner",
          "type": "address"
        }
      ],
      "name": "transferOwnership",
      "outputs": [],
      "stateMutability": "nonpayable",
      "type": "function"
    },
    {
      "inputs": [
        {
          "internalType": "uint256",
          "name": "tokenId",
          "type": "uint256"
        }
      ],
      "name": "unstake",
      "outputs": [],
      "stateMutability": "nonpayable",
      "type": "function"
    },
    {
      "inputs": [
        {
          "internalType": "uint256",
          "name": "tokenId",
          "type": "uint256"
        },
        {
          "internalType": "address",
          "name": "originator",
          "type": "address"
        }
      ],
      "name": "unstakeFromController",
      "outputs": [],
      "stateMutability": "nonpayable",
      "type": "function"
    }
  ],
  "bytecode": "0x60806040526001600a553480156200001657600080fd5b5060405162003a8038038062003a8083398181016040528101906200003c9190620002c8565b6040518060400160405280601281526020017f4552433732314e45534261736963496d706c00000000000000000000000000008152506040518060400160405280601281526020017f4552433732314e45534261736963496d706c00000000000000000000000000008152508160019080519060200190620000c0929190620001d8565b508060029080519060200190620000d9929190620001d8565b505050620000fc620000f06200010a60201b60201c565b6200011260201b60201c565b80600a81905550506200035e565b600033905090565b6000600960009054906101000a900473ffffffffffffffffffffffffffffffffffffffff16905081600960006101000a81548173ffffffffffffffffffffffffffffffffffffffff021916908373ffffffffffffffffffffffffffffffffffffffff1602179055508173ffffffffffffffffffffffffffffffffffffffff168173ffffffffffffffffffffffffffffffffffffffff167f8be0079c531659141344cd1fd0a4f28419497f9722a3daafe3b4186f6b6457e060405160405180910390a35050565b828054620001e69062000329565b90600052602060002090601f0160209004810192826200020a576000855562000256565b82601f106200022557805160ff191683800117855562000256565b8280016001018555821562000256579182015b828111156200025557825182559160200191906001019062000238565b5b50905062000265919062000269565b5090565b5b80821115620002845760008160009055506001016200026a565b5090565b600080fd5b6000819050919050565b620002a2816200028d565b8114620002ae57600080fd5b50565b600081519050620002c28162000297565b92915050565b600060208284031215620002e157620002e062000288565b5b6000620002f184828501620002b1565b91505092915050565b7f4e487b7100000000000000000000000000000000000000000000000000000000600052602260045260246000fd5b600060028204905060018216806200034257607f821691505b602082108103620003585762000357620002fa565b5b50919050565b613712806200036e6000396000f3fe608060405234801561001057600080fd5b50600436106101f05760003560e01c8063713e6a091161010f578063a96533e9116100a2578063c87b56dd11610071578063c87b56dd146105ed578063e985e9c51461061d578063f1da6b971461064d578063f2fde38b1461067d576101f0565b8063a96533e914610541578063ad0614f914610571578063b88d4fde146105a1578063baa51f86146105bd576101f0565b80639a350251116100de5780639a350251146104d1578063a0712d68146104ed578063a22cb46514610509578063a694fc3a14610525576101f0565b8063713e6a091461046d578063715018a61461048b5780638da5cb5b1461049557806395d89b41146104b3576101f0565b80632e17de78116101875780634f6ccce7116101565780634f6ccce7146103c1578063592109da146103f15780636352211e1461040d57806370a082311461043d576101f0565b80632e17de78146103295780632f745c5914610345578063370577791461037557806342842e0e146103a5576101f0565b8063095ea7b3116101c3578063095ea7b3146102a357806318160ddd146102bf57806323b872dd146102dd57806323e9afb0146102f9576101f0565b806301ffc9a7146101f5578063067f9c101461022557806306fdde0314610255578063081812fc14610273575b600080fd5b61020f600480360381019061020a919061293a565b610699565b60405161021c9190612982565b60405180910390f35b61023f600480360381019061023a91906129d3565b6107e3565b60405161024c9190612a0f565b60405180910390f35b61025d610802565b60405161026a9190612ac3565b60405180910390f35b61028d600480360381019061028891906129d3565b610894565b60405161029a9190612b26565b60405180910390f35b6102bd60048036038101906102b89190612b6d565b610910565b005b6102c7610a1a565b6040516102d49190612a0f565b60405180910390f35b6102f760048036038101906102f29190612bad565b610a23565b005b610313600480360381019061030e91906129d3565b610a82565b6040516103209190612a0f565b60405180910390f35b610343600480360381019061033e91906129d3565b610ab2565b005b61035f600480360381019061035a9190612b6d565b610b66565b60405161036c9190612a0f565b60405180910390f35b61038f600480360381019061038a91906129d3565b610d25565b60405161039c9190612a0f565b60405180910390f35b6103bf60048036038101906103ba9190612bad565b610d3d565b005b6103db60048036038101906103d691906129d3565b610dac565b6040516103e89190612a0f565b60405180910390f35b61040b60048036038101906104069190612c00565b610df6565b005b610427600480360381019061042291906129d3565b610f09565b6040516104349190612b26565b60405180910390f35b61045760048036038101906104529190612c40565b610f1f565b6040516104649190612a0f565b60405180910390f35b610475610ffe565b6040516104829190612b26565b60405180910390f35b610493611024565b005b61049d6110ac565b6040516104aa9190612b26565b60405180910390f35b6104bb6110d6565b6040516104c89190612ac3565b60405180910390f35b6104eb60048036038101906104e69190612c00565b611168565b005b610507600480360381019061050291906129d3565b61127b565b005b610523600480360381019061051e9190612c99565b61129a565b005b61053f600480360381019061053a91906129d3565b611411565b005b61055b600480360381019061055691906129d3565b6114ab565b6040516105689190612982565b60405180910390f35b61058b600480360381019061058691906129d3565b6114cb565b6040516105989190612a0f565b60405180910390f35b6105bb60048036038101906105b69190612e0e565b611518565b005b6105d760048036038101906105d291906129d3565b611579565b6040516105e49190612982565b60405180910390f35b610607600480360381019061060291906129d3565b6115a3565b6040516106149190612ac3565b60405180910390f35b61063760048036038101906106329190612e91565b611641565b6040516106449190612982565b60405180910390f35b610667600480360381019061066291906129d3565b6116d5565b6040516106749190612a0f565b60405180910390f35b61069760048036038101906106929190612c40565b6116ed565b005b60007f80ac58cd000000000000000000000000000000000000000000000000000000007bffffffffffffffffffffffffffffffffffffffffffffffffffffffff1916827bffffffffffffffffffffffffffffffffffffffffffffffffffffffff1916148061076457507f5b5e139f000000000000000000000000000000000000000000000000000000007bffffffffffffffffffffffffffffffffffffffffffffffffffffffff1916827bffffffffffffffffffffffffffffffffffffffffffffffffffffffff1916145b806107cc57507f780e9d63000000000000000000000000000000000000000000000000000000007bffffffffffffffffffffffffffffffffffffffffffffffffffffffff1916827bffffffffffffffffffffffffffffffffffffffffffffffffffffffff1916145b806107dc57506107db826117e4565b5b9050919050565b6000600a546107f183610a82565b6107fb9190612f00565b9050919050565b60606001805461081190612f89565b80601f016020809104026020016040519081016040528092919081815260200182805461083d90612f89565b801561088a5780601f1061085f5761010080835404028352916020019161088a565b820191906000526020600020905b81548152906001019060200180831161086d57829003601f168201915b5050505050905090565b600061089f8261184e565b6108d5576040517fcf4700e400000000000000000000000000000000000000000000000000000000815260040160405180910390fd5b6005600083815260200190815260200160002060009054906101000a900473ffffffffffffffffffffffffffffffffffffffff169050919050565b600061091b82610f09565b90508073ffffffffffffffffffffffffffffffffffffffff168373ffffffffffffffffffffffffffffffffffffffff1603610982576040517f943f7b8c00000000000000000000000000000000000000000000000000000000815260040160405180910390fd5b8073ffffffffffffffffffffffffffffffffffffffff166109a161185b565b73ffffffffffffffffffffffffffffffffffffffff16141580156109d357506109d1816109cc61185b565b611641565b155b15610a0a576040517fcfb3b94200000000000000000000000000000000000000000000000000000000815260040160405180910390fd5b610a15838383611863565b505050565b60008054905090565b60001515610a3082611579565b151514610a72576040517f08c379a0000000000000000000000000000000000000000000000000000000008152600401610a699061302c565b60405180910390fd5b610a7d838383611915565b505050565b6000610a8d826114cb565b600c600084815260200190815260200160002054610aab919061304c565b9050919050565b3373ffffffffffffffffffffffffffffffffffffffff16610ad282610f09565b73ffffffffffffffffffffffffffffffffffffffff1614610b28576040517f08c379a0000000000000000000000000000000000000000000000000000000008152600401610b1f90613114565b60405180910390fd5b610b31816114cb565b600c60008381526020019081526020016000206000828254610b53919061304c565b92505081905550610b6381611925565b50565b6000610b7183610f1f565b8210610ba9576040517f0ddac30e00000000000000000000000000000000000000000000000000000000815260040160405180910390fd5b6000610bb3610a1a565b905060008060005b83811015610d0b576000600360008381526020019081526020016000206040518060400160405290816000820160009054906101000a900473ffffffffffffffffffffffffffffffffffffffff1673ffffffffffffffffffffffffffffffffffffffff1673ffffffffffffffffffffffffffffffffffffffff1681526020016000820160149054906101000a900467ffffffffffffffff1667ffffffffffffffff1667ffffffffffffffff16815250509050600073ffffffffffffffffffffffffffffffffffffffff16816000015173ffffffffffffffffffffffffffffffffffffffff1614610cad57806000015192505b8773ffffffffffffffffffffffffffffffffffffffff168373ffffffffffffffffffffffffffffffffffffffff1603610cfd57868403610cf4578195505050505050610d1f565b83806001019450505b508080600101915050610bbb565b506000610d1b57610d1a613134565b5b5050505b92915050565b600c6020528060005260406000206000915090505481565b60001515610d4a82611579565b151514610d8c576040517f08c379a0000000000000000000000000000000000000000000000000000000008152600401610d839061302c565b60405180910390fd5b610da7838383604051806020016040528060008152506119d3565b505050565b6000610db6610a1a565b8210610dee576040517fa723001c00000000000000000000000000000000000000000000000000000000815260040160405180910390fd5b819050919050565b600760009054906101000a900473ffffffffffffffffffffffffffffffffffffffff1673ffffffffffffffffffffffffffffffffffffffff163373ffffffffffffffffffffffffffffffffffffffff1614610e86576040517f08c379a0000000000000000000000000000000000000000000000000000000008152600401610e7d906131d5565b60405180910390fd5b8073ffffffffffffffffffffffffffffffffffffffff16610ea683610f09565b73ffffffffffffffffffffffffffffffffffffffff1614610efc576040517f08c379a0000000000000000000000000000000000000000000000000000000008152600401610ef390613267565b60405180910390fd5b610f0582611925565b5050565b6000610f1482611a26565b600001519050919050565b60008073ffffffffffffffffffffffffffffffffffffffff168273ffffffffffffffffffffffffffffffffffffffff1603610f86576040517f8f4eb60400000000000000000000000000000000000000000000000000000000815260040160405180910390fd5b600460008373ffffffffffffffffffffffffffffffffffffffff1673ffffffffffffffffffffffffffffffffffffffff16815260200190815260200160002060000160009054906101000a90046fffffffffffffffffffffffffffffffff166fffffffffffffffffffffffffffffffff169050919050565b600760009054906101000a900473ffffffffffffffffffffffffffffffffffffffff1681565b61102c61185b565b73ffffffffffffffffffffffffffffffffffffffff1661104a6110ac565b73ffffffffffffffffffffffffffffffffffffffff16146110a0576040517f08c379a0000000000000000000000000000000000000000000000000000000008152600401611097906132d3565b60405180910390fd5b6110aa6000611b73565b565b6000600960009054906101000a900473ffffffffffffffffffffffffffffffffffffffff16905090565b6060600280546110e590612f89565b80601f016020809104026020016040519081016040528092919081815260200182805461111190612f89565b801561115e5780601f106111335761010080835404028352916020019161115e565b820191906000526020600020905b81548152906001019060200180831161114157829003601f168201915b5050505050905090565b600760009054906101000a900473ffffffffffffffffffffffffffffffffffffffff1673ffffffffffffffffffffffffffffffffffffffff163373ffffffffffffffffffffffffffffffffffffffff16146111f8576040517f08c379a00000000000000000000000000000000000000000000000000000000081526004016111ef906131d5565b60405180910390fd5b8073ffffffffffffffffffffffffffffffffffffffff1661121883610f09565b73ffffffffffffffffffffffffffffffffffffffff161461126e576040517f08c379a000000000000000000000000000000000000000000000000000000000815260040161126590613267565b60405180910390fd5b61127782611c39565b5050565b6112973382604051806020016040528060008152506000611ce8565b50565b6112a261185b565b73ffffffffffffffffffffffffffffffffffffffff168273ffffffffffffffffffffffffffffffffffffffff1603611306576040517fb06307db00000000000000000000000000000000000000000000000000000000815260040160405180910390fd5b806006600061131361185b565b73ffffffffffffffffffffffffffffffffffffffff1673ffffffffffffffffffffffffffffffffffffffff16815260200190815260200160002060008473ffffffffffffffffffffffffffffffffffffffff1673ffffffffffffffffffffffffffffffffffffffff16815260200190815260200160002060006101000a81548160ff0219169083151502179055508173ffffffffffffffffffffffffffffffffffffffff166113c061185b565b73ffffffffffffffffffffffffffffffffffffffff167f17307eab39ab6107e8899845ad3d59bd9653f200f220920489ca2b5937696c31836040516114059190612982565b60405180910390a35050565b3373ffffffffffffffffffffffffffffffffffffffff1661143182610f09565b73ffffffffffffffffffffffffffffffffffffffff1614611487576040517f08c379a000000000000000000000000000000000000000000000000000000000815260040161147e90613114565b60405180910390fd5b43600b6000838152602001908152602001600020819055506114a881611c39565b50565b60086020528060005260406000206000915054906101000a900460ff1681565b600080600b600084815260200190815260200160002054111561150e57600b6000838152602001908152602001600020544361150791906132f3565b9050611513565b600090505b919050565b6000151561152583611579565b151514611567576040517f08c379a000000000000000000000000000000000000000000000000000000000815260040161155e9061302c565b60405180910390fd5b611573848484846119d3565b50505050565b60006008600083815260200190815260200160002060009054906101000a900460ff169050919050565b60606115ae8261184e565b6115e4576040517fa14c4b5000000000000000000000000000000000000000000000000000000000815260040160405180910390fd5b60006115ee61204d565b9050600081510361160e5760405180602001604052806000815250611639565b8061161884612064565b604051602001611629929190613363565b6040516020818303038152906040525b915050919050565b6000600660008473ffffffffffffffffffffffffffffffffffffffff1673ffffffffffffffffffffffffffffffffffffffff16815260200190815260200160002060008373ffffffffffffffffffffffffffffffffffffffff1673ffffffffffffffffffffffffffffffffffffffff16815260200190815260200160002060009054906101000a900460ff16905092915050565b600b6020528060005260406000206000915090505481565b6116f561185b565b73ffffffffffffffffffffffffffffffffffffffff166117136110ac565b73ffffffffffffffffffffffffffffffffffffffff1614611769576040517f08c379a0000000000000000000000000000000000000000000000000000000008152600401611760906132d3565b60405180910390fd5b600073ffffffffffffffffffffffffffffffffffffffff168173ffffffffffffffffffffffffffffffffffffffff16036117d8576040517f08c379a00000000000000000000000000000000000000000000000000000000081526004016117cf906133f9565b60405180910390fd5b6117e181611b73565b50565b60007f01ffc9a7000000000000000000000000000000000000000000000000000000007bffffffffffffffffffffffffffffffffffffffffffffffffffffffff1916827bffffffffffffffffffffffffffffffffffffffffffffffffffffffff1916149050919050565b6000805482109050919050565b600033905090565b826005600084815260200190815260200160002060006101000a81548173ffffffffffffffffffffffffffffffffffffffff021916908373ffffffffffffffffffffffffffffffffffffffff160217905550818373ffffffffffffffffffffffffffffffffffffffff168273ffffffffffffffffffffffffffffffffffffffff167f8c5be1e5ebec7d5bd14f71427d1e84f3dd0314c0f7b2291e5b200ac8c7c3b92560405160405180910390a4505050565b6119208383836121c4565b505050565b61192e81611579565b61196d576040517f08c379a000000000000000000000000000000000000000000000000000000000815260040161196490613465565b60405180910390fd5b60006008600083815260200190815260200160002060006101000a81548160ff0219169083151502179055507f11725367022c3ff288940f4b5473aa61c2da6a24af7363a1128ee2401e8983b2816040516119c89190612a0f565b60405180910390a150565b6119de8484846121c4565b6119ea848484846126e7565b611a20576040517fd1a57ed600000000000000000000000000000000000000000000000000000000815260040160405180910390fd5b50505050565b611a2e612894565b611a378261184e565b611a6d576040517fdf2d9b4200000000000000000000000000000000000000000000000000000000815260040160405180910390fd5b60008290505b6000600360008381526020019081526020016000206040518060400160405290816000820160009054906101000a900473ffffffffffffffffffffffffffffffffffffffff1673ffffffffffffffffffffffffffffffffffffffff1673ffffffffffffffffffffffffffffffffffffffff1681526020016000820160149054906101000a900467ffffffffffffffff1667ffffffffffffffff1667ffffffffffffffff16815250509050600073ffffffffffffffffffffffffffffffffffffffff16816000015173ffffffffffffffffffffffffffffffffffffffff1614611b5f578092505050611b6e565b50808060019003915050611a73565b919050565b6000600960009054906101000a900473ffffffffffffffffffffffffffffffffffffffff16905081600960006101000a81548173ffffffffffffffffffffffffffffffffffffffff021916908373ffffffffffffffffffffffffffffffffffffffff1602179055508173ffffffffffffffffffffffffffffffffffffffff168173ffffffffffffffffffffffffffffffffffffffff167f8be0079c531659141344cd1fd0a4f28419497f9722a3daafe3b4186f6b6457e060405160405180910390a35050565b611c4281611579565b15611c82576040517f08c379a0000000000000000000000000000000000000000000000000000000008152600401611c79906134d1565b60405180910390fd5b60016008600083815260200190815260200160002060006101000a81548160ff0219169083151502179055507feebbaa86c348cb664e392b180fd0ff2e1998af9fa833ef69a778cb0b42d3ca2781604051611cdd9190612a0f565b60405180910390a150565b600080549050600073ffffffffffffffffffffffffffffffffffffffff168573ffffffffffffffffffffffffffffffffffffffff1603611d54576040517f2e07630000000000000000000000000000000000000000000000000000000000815260040160405180910390fd5b60008403611d8e576040517fb562e8dd00000000000000000000000000000000000000000000000000000000815260040160405180910390fd5b611d9b6000868387612865565b83600460008773ffffffffffffffffffffffffffffffffffffffff1673ffffffffffffffffffffffffffffffffffffffff16815260200190815260200160002060000160008282829054906101000a90046fffffffffffffffffffffffffffffffff160192506101000a8154816fffffffffffffffffffffffffffffffff02191690836fffffffffffffffffffffffffffffffff16021790555083600460008773ffffffffffffffffffffffffffffffffffffffff1673ffffffffffffffffffffffffffffffffffffffff16815260200190815260200160002060000160108282829054906101000a90046fffffffffffffffffffffffffffffffff160192506101000a8154816fffffffffffffffffffffffffffffffff02191690836fffffffffffffffffffffffffffffffff160217905550846003600083815260200190815260200160002060000160006101000a81548173ffffffffffffffffffffffffffffffffffffffff021916908373ffffffffffffffffffffffffffffffffffffffff160217905550426003600083815260200190815260200160002060000160146101000a81548167ffffffffffffffff021916908367ffffffffffffffff160217905550600081905060005b8581101561203057818773ffffffffffffffffffffffffffffffffffffffff16600073ffffffffffffffffffffffffffffffffffffffff167fddf252ad1be2c89b69c2b068fc378daa952ba7f163c4a11628f55a4df523b3ef60405160405180910390a4838015611fe45750611fe260008884886126e7565b155b1561201b576040517fd1a57ed600000000000000000000000000000000000000000000000000000000815260040160405180910390fd5b81806001019250508080600101915050611f69565b508060008190555050612046600086838761286b565b5050505050565b606060405180602001604052806000815250905090565b6060600082036120ab576040518060400160405280600181526020017f300000000000000000000000000000000000000000000000000000000000000081525090506121bf565b600082905060005b600082146120dd5780806120c6906134f1565b915050600a826120d69190613568565b91506120b3565b60008167ffffffffffffffff8111156120f9576120f8612ce3565b5b6040519080825280601f01601f19166020018201604052801561212b5781602001600182028036833780820191505090505b5090505b600085146121b85760018261214491906132f3565b9150600a856121539190613599565b603061215f919061304c565b60f81b818381518110612175576121746135ca565b5b60200101907effffffffffffffffffffffffffffffffffffffffffffffffffffffffffffff1916908160001a905350600a856121b19190613568565b945061212f565b8093505050505b919050565b60006121cf82611a26565b90506000816000015173ffffffffffffffffffffffffffffffffffffffff166121f661185b565b73ffffffffffffffffffffffffffffffffffffffff161480612252575061221b61185b565b73ffffffffffffffffffffffffffffffffffffffff1661223a84610894565b73ffffffffffffffffffffffffffffffffffffffff16145b8061226e575061226d826000015161226861185b565b611641565b5b9050806122a7576040517f59c896be00000000000000000000000000000000000000000000000000000000815260040160405180910390fd5b8473ffffffffffffffffffffffffffffffffffffffff16826000015173ffffffffffffffffffffffffffffffffffffffff1614612310576040517fa114810000000000000000000000000000000000000000000000000000000000815260040160405180910390fd5b600073ffffffffffffffffffffffffffffffffffffffff168473ffffffffffffffffffffffffffffffffffffffff1603612376576040517fea553b3400000000000000000000000000000000000000000000000000000000815260040160405180910390fd5b6123838585856001612865565b6123936000848460000151611863565b6001600460008773ffffffffffffffffffffffffffffffffffffffff1673ffffffffffffffffffffffffffffffffffffffff16815260200190815260200160002060000160008282829054906101000a90046fffffffffffffffffffffffffffffffff160392506101000a8154816fffffffffffffffffffffffffffffffff02191690836fffffffffffffffffffffffffffffffff1602179055506001600460008673ffffffffffffffffffffffffffffffffffffffff1673ffffffffffffffffffffffffffffffffffffffff16815260200190815260200160002060000160008282829054906101000a90046fffffffffffffffffffffffffffffffff160192506101000a8154816fffffffffffffffffffffffffffffffff02191690836fffffffffffffffffffffffffffffffff160217905550836003600085815260200190815260200160002060000160006101000a81548173ffffffffffffffffffffffffffffffffffffffff021916908373ffffffffffffffffffffffffffffffffffffffff160217905550426003600085815260200190815260200160002060000160146101000a81548167ffffffffffffffff021916908367ffffffffffffffff1602179055506000600184019050600073ffffffffffffffffffffffffffffffffffffffff166003600083815260200190815260200160002060000160009054906101000a900473ffffffffffffffffffffffffffffffffffffffff1673ffffffffffffffffffffffffffffffffffffffff1603612677576125d68161184e565b156126765782600001516003600083815260200190815260200160002060000160006101000a81548173ffffffffffffffffffffffffffffffffffffffff021916908373ffffffffffffffffffffffffffffffffffffffff16021790555082602001516003600083815260200190815260200160002060000160146101000a81548167ffffffffffffffff021916908367ffffffffffffffff1602179055505b5b50828473ffffffffffffffffffffffffffffffffffffffff168673ffffffffffffffffffffffffffffffffffffffff167fddf252ad1be2c89b69c2b068fc378daa952ba7f163c4a11628f55a4df523b3ef60405160405180910390a46126e0858585600161286b565b5050505050565b60006127088473ffffffffffffffffffffffffffffffffffffffff16612871565b15612858578373ffffffffffffffffffffffffffffffffffffffff1663150b7a0261273161185b565b8786866040518563ffffffff1660e01b8152600401612753949392919061364e565b6020604051808303816000875af192505050801561278f57506040513d601f19601f8201168201806040525081019061278c91906136af565b60015b612808573d80600081146127bf576040519150601f19603f3d011682016040523d82523d6000602084013e6127c4565b606091505b506000815103612800576040517fd1a57ed600000000000000000000000000000000000000000000000000000000815260040160405180910390fd5b805181602001fd5b63150b7a0260e01b7bffffffffffffffffffffffffffffffffffffffffffffffffffffffff1916817bffffffffffffffffffffffffffffffffffffffffffffffffffffffff19161491505061285d565b600190505b949350505050565b50505050565b50505050565b6000808273ffffffffffffffffffffffffffffffffffffffff163b119050919050565b6040518060400160405280600073ffffffffffffffffffffffffffffffffffffffff168152602001600067ffffffffffffffff1681525090565b6000604051905090565b600080fd5b600080fd5b60007fffffffff0000000000000000000000000000000000000000000000000000000082169050919050565b612917816128e2565b811461292257600080fd5b50565b6000813590506129348161290e565b92915050565b6000602082840312156129505761294f6128d8565b5b600061295e84828501612925565b91505092915050565b60008115159050919050565b61297c81612967565b82525050565b60006020820190506129976000830184612973565b92915050565b6000819050919050565b6129b08161299d565b81146129bb57600080fd5b50565b6000813590506129cd816129a7565b92915050565b6000602082840312156129e9576129e86128d8565b5b60006129f7848285016129be565b91505092915050565b612a098161299d565b82525050565b6000602082019050612a246000830184612a00565b92915050565b600081519050919050565b600082825260208201905092915050565b60005b83811015612a64578082015181840152602081019050612a49565b83811115612a73576000848401525b50505050565b6000601f19601f8301169050919050565b6000612a9582612a2a565b612a9f8185612a35565b9350612aaf818560208601612a46565b612ab881612a79565b840191505092915050565b60006020820190508181036000830152612add8184612a8a565b905092915050565b600073ffffffffffffffffffffffffffffffffffffffff82169050919050565b6000612b1082612ae5565b9050919050565b612b2081612b05565b82525050565b6000602082019050612b3b6000830184612b17565b92915050565b612b4a81612b05565b8114612b5557600080fd5b50565b600081359050612b6781612b41565b92915050565b60008060408385031215612b8457612b836128d8565b5b6000612b9285828601612b58565b9250506020612ba3858286016129be565b9150509250929050565b600080600060608486031215612bc657612bc56128d8565b5b6000612bd486828701612b58565b9350506020612be586828701612b58565b9250506040612bf6868287016129be565b9150509250925092565b60008060408385031215612c1757612c166128d8565b5b6000612c25858286016129be565b9250506020612c3685828601612b58565b9150509250929050565b600060208284031215612c5657612c556128d8565b5b6000612c6484828501612b58565b91505092915050565b612c7681612967565b8114612c8157600080fd5b50565b600081359050612c9381612c6d565b92915050565b60008060408385031215612cb057612caf6128d8565b5b6000612cbe85828601612b58565b9250506020612ccf85828601612c84565b9150509250929050565b600080fd5b600080fd5b7f4e487b7100000000000000000000000000000000000000000000000000000000600052604160045260246000fd5b612d1b82612a79565b810181811067ffffffffffffffff82111715612d3a57612d39612ce3565b5b80604052505050565b6000612d4d6128ce565b9050612d598282612d12565b919050565b600067ffffffffffffffff821115612d7957612d78612ce3565b5b612d8282612a79565b9050602081019050919050565b82818337600083830152505050565b6000612db1612dac84612d5e565b612d43565b905082815260208101848484011115612dcd57612dcc612cde565b5b612dd8848285612d8f565b509392505050565b600082601f830112612df557612df4612cd9565b5b8135612e05848260208601612d9e565b91505092915050565b60008060008060808587031215612e2857612e276128d8565b5b6000612e3687828801612b58565b9450506020612e4787828801612b58565b9350506040612e58878288016129be565b925050606085013567ffffffffffffffff811115612e7957612e786128dd565b5b612e8587828801612de0565b91505092959194509250565b60008060408385031215612ea857612ea76128d8565b5b6000612eb685828601612b58565b9250506020612ec785828601612b58565b9150509250929050565b7f4e487b7100000000000000000000000000000000000000000000000000000000600052601160045260246000fd5b6000612f0b8261299d565b9150612f168361299d565b9250817fffffffffffffffffffffffffffffffffffffffffffffffffffffffffffffffff0483118215151615612f4f57612f4e612ed1565b5b828202905092915050565b7f4e487b7100000000000000000000000000000000000000000000000000000000600052602260045260246000fd5b60006002820490506001821680612fa157607f821691505b602082108103612fb457612fb3612f5a565b5b50919050565b7f596f752063616e206e6f74207472616e736665722061207374616b656420746f60008201527f6b656e0000000000000000000000000000000000000000000000000000000000602082015250565b6000613016602383612a35565b915061302182612fba565b604082019050919050565b6000602082019050818103600083015261304581613009565b9050919050565b60006130578261299d565b91506130628361299d565b9250827fffffffffffffffffffffffffffffffffffffffffffffffffffffffffffffffff0382111561309757613096612ed1565b5b828201905092915050565b7f596f7520617265206e6f7420746865206f776e6572206f66207468697320746f60008201527f6b656e0000000000000000000000000000000000000000000000000000000000602082015250565b60006130fe602383612a35565b9150613109826130a2565b604082019050919050565b6000602082019050818103600083015261312d816130f1565b9050919050565b7f4e487b7100000000000000000000000000000000000000000000000000000000600052600160045260246000fd5b7f46756e6374696f6e2063616e206f6e6c792062652063616c6c65642066726f6d60008201527f207374616b696e6720636f6e74726f6c6c657220636f6e747261637400000000602082015250565b60006131bf603c83612a35565b91506131ca82613163565b604082019050919050565b600060208201905081810360008301526131ee816131b2565b9050919050565b7f4f726967696e61746f72206973206e6f7420746865206f776e6572206f66207460008201527f68697320746f6b656e0000000000000000000000000000000000000000000000602082015250565b6000613251602983612a35565b915061325c826131f5565b604082019050919050565b6000602082019050818103600083015261328081613244565b9050919050565b7f4f776e61626c653a2063616c6c6572206973206e6f7420746865206f776e6572600082015250565b60006132bd602083612a35565b91506132c882613287565b602082019050919050565b600060208201905081810360008301526132ec816132b0565b9050919050565b60006132fe8261299d565b91506133098361299d565b92508282101561331c5761331b612ed1565b5b828203905092915050565b600081905092915050565b600061333d82612a2a565b6133478185613327565b9350613357818560208601612a46565b80840191505092915050565b600061336f8285613332565b915061337b8284613332565b91508190509392505050565b7f4f776e61626c653a206e6577206f776e657220697320746865207a65726f206160008201527f6464726573730000000000000000000000000000000000000000000000000000602082015250565b60006133e3602683612a35565b91506133ee82613387565b604082019050919050565b60006020820190508181036000830152613412816133d6565b9050919050565b7f746f6b656e2069736e2774207374616b65640000000000000000000000000000600082015250565b600061344f601283612a35565b915061345a82613419565b602082019050919050565b6000602082019050818103600083015261347e81613442565b9050919050565b7f746f6b656e20697320616c7265616479207374616b6564000000000000000000600082015250565b60006134bb601783612a35565b91506134c682613485565b602082019050919050565b600060208201905081810360008301526134ea816134ae565b9050919050565b60006134fc8261299d565b91507fffffffffffffffffffffffffffffffffffffffffffffffffffffffffffffffff820361352e5761352d612ed1565b5b600182019050919050565b7f4e487b7100000000000000000000000000000000000000000000000000000000600052601260045260246000fd5b60006135738261299d565b915061357e8361299d565b92508261358e5761358d613539565b5b828204905092915050565b60006135a48261299d565b91506135af8361299d565b9250826135bf576135be613539565b5b828206905092915050565b7f4e487b7100000000000000000000000000000000000000000000000000000000600052603260045260246000fd5b600081519050919050565b600082825260208201905092915050565b6000613620826135f9565b61362a8185613604565b935061363a818560208601612a46565b61364381612a79565b840191505092915050565b60006080820190506136636000830187612b17565b6136706020830186612b17565b61367d6040830185612a00565b818103606083015261368f8184613615565b905095945050505050565b6000815190506136a98161290e565b92915050565b6000602082840312156136c5576136c46128d8565b5b60006136d38482850161369a565b9150509291505056fea2646970667358221220832f0311a8bcd0ac8796445a3fa0def902321851c16cc832878a277a9ead8c3064736f6c634300080d0033",
  "linkReferences": {},
  "deployedLinkReferences": {}
}