{
  "_format": "hh-sol-artifact-1",
  "contractName": "CoreChamber",
  "sourceName": "contracts/CoreChamber.sol",
  "abi": [
    {
      "inputs": [
        {
          "internalType": "address",
          "name": "_tokenContract",
          "type": "address"
        },
        {
          "internalType": "uint256",
          "name": "_multipler",
          "type": "uint256"
        }
      ],
      "stateMutability": "nonpayable",
      "type": "constructor"
    },
    {
      "inputs": [
        {
          "internalType": "uint256",
          "name": "tokenId",
          "type": "uint256"
        }
      ],
      "name": "checkStakeStatus",
      "outputs": [
        {
          "internalType": "uint256",
          "name": "",
          "type": "uint256"
        }
      ],
      "stateMutability": "view",
      "type": "function"
    },
    {
      "inputs": [
        {
          "internalType": "uint256",
          "name": "tokenId",
          "type": "uint256"
        }
      ],
      "name": "getCumulativeDurationStaked",
      "outputs": [
        {
          "internalType": "uint256",
          "name": "",
          "type": "uint256"
        }
      ],
      "stateMutability": "view",
      "type": "function"
    },
    {
      "inputs": [
        {
          "internalType": "uint256",
          "name": "tokenId",
          "type": "uint256"
        }
      ],
      "name": "getCurrentAdditionalBalance",
      "outputs": [
        {
          "internalType": "uint256",
          "name": "",
          "type": "uint256"
        }
      ],
      "stateMutability": "view",
      "type": "function"
    },
    {
      "inputs": [
        {
          "internalType": "uint256",
          "name": "tokenId",
          "type": "uint256"
        }
      ],
      "name": "getStakingRewards",
      "outputs": [
        {
          "internalType": "uint256",
          "name": "",
          "type": "uint256"
        }
      ],
      "stateMutability": "view",
      "type": "function"
    },
    {
      "inputs": [
        {
          "internalType": "uint256",
          "name": "tokenId",
          "type": "uint256"
        }
      ],
      "name": "stake",
      "outputs": [],
      "stateMutability": "nonpayable",
      "type": "function"
    },
    {
      "inputs": [
        {
          "internalType": "uint256",
          "name": "",
          "type": "uint256"
        }
      ],
      "name": "tokenToTotalDurationStaked",
      "outputs": [
        {
          "internalType": "uint256",
          "name": "",
          "type": "uint256"
        }
      ],
      "stateMutability": "view",
      "type": "function"
    },
    {
      "inputs": [
        {
          "internalType": "uint256",
          "name": "",
          "type": "uint256"
        }
      ],
      "name": "tokenToWhenStaked",
      "outputs": [
        {
          "internalType": "uint256",
          "name": "",
          "type": "uint256"
        }
      ],
      "stateMutability": "view",
      "type": "function"
    },
    {
      "inputs": [
        {
          "internalType": "uint256",
          "name": "tokenId",
          "type": "uint256"
        }
      ],
      "name": "unstake",
      "outputs": [],
      "stateMutability": "nonpayable",
      "type": "function"
    }
  ],
  "bytecode": "0x60806040526001805534801561001457600080fd5b50604051610af3380380610af38339818101604052810190610036919061011d565b816000806101000a81548173ffffffffffffffffffffffffffffffffffffffff021916908373ffffffffffffffffffffffffffffffffffffffff16021790555080600181905550505061015d565b600080fd5b600073ffffffffffffffffffffffffffffffffffffffff82169050919050565b60006100b482610089565b9050919050565b6100c4816100a9565b81146100cf57600080fd5b50565b6000815190506100e1816100bb565b92915050565b6000819050919050565b6100fa816100e7565b811461010557600080fd5b50565b600081519050610117816100f1565b92915050565b6000806040838503121561013457610133610084565b5b6000610142858286016100d2565b925050602061015385828601610108565b9150509250929050565b6109878061016c6000396000f3fe608060405234801561001057600080fd5b50600436106100885760003560e01c8063820e96291161005b578063820e962914610139578063a694fc3a14610169578063ad0614f914610185578063f1da6b97146101b557610088565b8063067f9c101461008d57806323e9afb0146100bd5780632e17de78146100ed5780633705777914610109575b600080fd5b6100a760048036038101906100a29190610681565b6101e5565b6040516100b491906106bd565b60405180910390f35b6100d760048036038101906100d29190610681565b610204565b6040516100e491906106bd565b60405180910390f35b61010760048036038101906101029190610681565b610234565b005b610123600480360381019061011e9190610681565b6103fd565b60405161013091906106bd565b60405180910390f35b610153600480360381019061014e9190610681565b610415565b60405161016091906106bd565b60405180910390f35b610183600480360381019061017e9190610681565b610432565b005b61019f600480360381019061019a9190610681565b6105e1565b6040516101ac91906106bd565b60405180910390f35b6101cf60048036038101906101ca9190610681565b61062e565b6040516101dc91906106bd565b60405180910390f35b60006001546101f383610204565b6101fd9190610707565b9050919050565b600061020f826105e1565b600360008481526020019081526020016000205461022d9190610761565b9050919050565b3373ffffffffffffffffffffffffffffffffffffffff1660008054906101000a900473ffffffffffffffffffffffffffffffffffffffff1673ffffffffffffffffffffffffffffffffffffffff16636352211e836040518263ffffffff1660e01b81526004016102a491906106bd565b602060405180830381865afa1580156102c1573d6000803e3d6000fd5b505050506040513d601f19601f820116820180604052508101906102e59190610815565b73ffffffffffffffffffffffffffffffffffffffff161461033b576040517f08c379a0000000000000000000000000000000000000000000000000000000008152600401610332906108c5565b60405180910390fd5b610344816105e1565b6003600083815260200190815260200160002060008282546103669190610761565b9250508190555060008054906101000a900473ffffffffffffffffffffffffffffffffffffffff1673ffffffffffffffffffffffffffffffffffffffff1663592109da82336040518363ffffffff1660e01b81526004016103c89291906108f4565b600060405180830381600087803b1580156103e257600080fd5b505af11580156103f6573d6000803e3d6000fd5b5050505050565b60036020528060005260406000206000915090505481565b600060026000838152602001908152602001600020549050919050565b3373ffffffffffffffffffffffffffffffffffffffff1660008054906101000a900473ffffffffffffffffffffffffffffffffffffffff1673ffffffffffffffffffffffffffffffffffffffff16636352211e836040518263ffffffff1660e01b81526004016104a291906106bd565b602060405180830381865afa1580156104bf573d6000803e3d6000fd5b505050506040513d601f19601f820116820180604052508101906104e39190610815565b73ffffffffffffffffffffffffffffffffffffffff1614610539576040517f08c379a0000000000000000000000000000000000000000000000000000000008152600401610530906108c5565b60405180910390fd5b43600260008381526020019081526020016000208190555060008054906101000a900473ffffffffffffffffffffffffffffffffffffffff1673ffffffffffffffffffffffffffffffffffffffff16639a35025182336040518363ffffffff1660e01b81526004016105ac9291906108f4565b600060405180830381600087803b1580156105c657600080fd5b505af11580156105da573d6000803e3d6000fd5b5050505050565b600080600260008481526020019081526020016000205411156106245760026000838152602001908152602001600020544361061d919061091d565b9050610629565b600090505b919050565b60026020528060005260406000206000915090505481565b600080fd5b6000819050919050565b61065e8161064b565b811461066957600080fd5b50565b60008135905061067b81610655565b92915050565b60006020828403121561069757610696610646565b5b60006106a58482850161066c565b91505092915050565b6106b78161064b565b82525050565b60006020820190506106d260008301846106ae565b92915050565b7f4e487b7100000000000000000000000000000000000000000000000000000000600052601160045260246000fd5b60006107128261064b565b915061071d8361064b565b9250817fffffffffffffffffffffffffffffffffffffffffffffffffffffffffffffffff0483118215151615610756576107556106d8565b5b828202905092915050565b600061076c8261064b565b91506107778361064b565b9250827fffffffffffffffffffffffffffffffffffffffffffffffffffffffffffffffff038211156107ac576107ab6106d8565b5b828201905092915050565b600073ffffffffffffffffffffffffffffffffffffffff82169050919050565b60006107e2826107b7565b9050919050565b6107f2816107d7565b81146107fd57600080fd5b50565b60008151905061080f816107e9565b92915050565b60006020828403121561082b5761082a610646565b5b600061083984828501610800565b91505092915050565b600082825260208201905092915050565b7f596f7520617265206e6f7420746865206f776e6572206f66207468697320746f60008201527f6b656e0000000000000000000000000000000000000000000000000000000000602082015250565b60006108af602383610842565b91506108ba82610853565b604082019050919050565b600060208201905081810360008301526108de816108a2565b9050919050565b6108ee816107d7565b82525050565b600060408201905061090960008301856106ae565b61091660208301846108e5565b9392505050565b60006109288261064b565b91506109338361064b565b925082821015610946576109456106d8565b5b82820390509291505056fea2646970667358221220620aa4582b6370699e034c3d53bdd7d6c02e6593276af60703186b60a7ae39d464736f6c634300080d0033",
  "linkReferences": {},
  "deployedLinkReferences": {}
}