{
  "_format": "hh-sol-artifact-1",
  "contractName": "Magic20",
  "sourceName": "contracts/Magic20.sol",
  "abi": [
    {
      "inputs": [],
      "stateMutability": "nonpayable",
      "type": "constructor"
    },
    {
      "inputs": [
        {
          "internalType": "address",
          "name": "token",
          "type": "address"
        },
        {
          "internalType": "address",
          "name": "holder",
          "type": "address"
        }
      ],
      "name": "checkBalance",
      "outputs": [
        {
          "internalType": "uint256",
          "name": "",
          "type": "uint256"
        }
      ],
      "stateMutability": "view",
      "type": "function"
    }
  ],
  "bytecode": "0x608060405234801561001057600080fd5b50610279806100206000396000f3fe608060405234801561001057600080fd5b506004361061002b5760003560e01c806377b76ec314610030575b600080fd5b61004a6004803603810190610045919061014c565b610060565b60405161005791906101a5565b60405180910390f35b6000808390508073ffffffffffffffffffffffffffffffffffffffff166370a08231846040518263ffffffff1660e01b815260040161009f91906101cf565b602060405180830381865afa1580156100bc573d6000803e3d6000fd5b505050506040513d601f19601f820116820180604052508101906100e09190610216565b91505092915050565b600080fd5b600073ffffffffffffffffffffffffffffffffffffffff82169050919050565b6000610119826100ee565b9050919050565b6101298161010e565b811461013457600080fd5b50565b60008135905061014681610120565b92915050565b60008060408385031215610163576101626100e9565b5b600061017185828601610137565b925050602061018285828601610137565b9150509250929050565b6000819050919050565b61019f8161018c565b82525050565b60006020820190506101ba6000830184610196565b92915050565b6101c98161010e565b82525050565b60006020820190506101e460008301846101c0565b92915050565b6101f38161018c565b81146101fe57600080fd5b50565b600081519050610210816101ea565b92915050565b60006020828403121561022c5761022b6100e9565b5b600061023a84828501610201565b9150509291505056fea2646970667358221220c6d433283669e9f1028b085d90eab68b276f5c8829d20e2581b76abc2ecea5fe64736f6c634300080d0033",
  "linkReferences": {},
  "deployedLinkReferences": {}
}