{
  "_format": "hh-sol-artifact-1",
  "contractName": "Magic20",
  "sourceName": "contracts/Magic20.sol",
  "abi": [
    {
      "inputs": [
        {
          "internalType": "address",
          "name": "token",
          "type": "address"
        }
      ],
      "stateMutability": "nonpayable",
      "type": "constructor"
    },
    {
      "inputs": [
        {
          "internalType": "address",
          "name": "holder",
          "type": "address"
        }
      ],
      "name": "checkBalance",
      "outputs": [
        {
          "internalType": "uint256",
          "name": "",
          "type": "uint256"
        }
      ],
      "stateMutability": "view",
      "type": "function"
    }
  ],
  "bytecode": "0x608060405234801561001057600080fd5b5060405161039c38038061039c833981810160405281019061003291906100db565b806000806101000a81548173ffffffffffffffffffffffffffffffffffffffff021916908373ffffffffffffffffffffffffffffffffffffffff16021790555050610108565b600080fd5b600073ffffffffffffffffffffffffffffffffffffffff82169050919050565b60006100a88261007d565b9050919050565b6100b88161009d565b81146100c357600080fd5b50565b6000815190506100d5816100af565b92915050565b6000602082840312156100f1576100f0610078565b5b60006100ff848285016100c6565b91505092915050565b610285806101176000396000f3fe608060405234801561001057600080fd5b506004361061002b5760003560e01c80635f51522614610030575b600080fd5b61004a6004803603810190610045919061016b565b610060565b60405161005791906101b1565b60405180910390f35b60008060008054906101000a900473ffffffffffffffffffffffffffffffffffffffff1690508073ffffffffffffffffffffffffffffffffffffffff166370a08231846040518263ffffffff1660e01b81526004016100bf91906101db565b602060405180830381865afa1580156100dc573d6000803e3d6000fd5b505050506040513d601f19601f820116820180604052508101906101009190610222565b915050919050565b600080fd5b600073ffffffffffffffffffffffffffffffffffffffff82169050919050565b60006101388261010d565b9050919050565b6101488161012d565b811461015357600080fd5b50565b6000813590506101658161013f565b92915050565b60006020828403121561018157610180610108565b5b600061018f84828501610156565b91505092915050565b6000819050919050565b6101ab81610198565b82525050565b60006020820190506101c660008301846101a2565b92915050565b6101d58161012d565b82525050565b60006020820190506101f060008301846101cc565b92915050565b6101ff81610198565b811461020a57600080fd5b50565b60008151905061021c816101f6565b92915050565b60006020828403121561023857610237610108565b5b60006102468482850161020d565b9150509291505056fea2646970667358221220e241c5d3825b376a4064dc988206cd98b7e18da64ea7d630bb5c3fff5dfd3d9664736f6c634300080d0033",
  "linkReferences": {},
  "deployedLinkReferences": {}
}