{
  "_format": "hh-sol-artifact-1",
  "contractName": "Magic20",
  "sourceName": "contracts/Magic20.sol",
  "abi": [
    {
      "inputs": [],
      "stateMutability": "nonpayable",
      "type": "constructor"
    },
    {
      "anonymous": false,
      "inputs": [
        {
          "indexed": true,
          "internalType": "address",
          "name": "previousOwner",
          "type": "address"
        },
        {
          "indexed": true,
          "internalType": "address",
          "name": "newOwner",
          "type": "address"
        }
      ],
      "name": "OwnershipTransferred",
      "type": "event"
    },
    {
      "inputs": [
        {
          "internalType": "address",
          "name": "_holder",
          "type": "address"
        }
      ],
      "name": "checkBalance",
      "outputs": [
        {
          "internalType": "uint256",
          "name": "",
          "type": "uint256"
        }
      ],
      "stateMutability": "view",
      "type": "function"
    },
    {
      "inputs": [],
      "name": "magicAddress",
      "outputs": [
        {
          "internalType": "address",
          "name": "",
          "type": "address"
        }
      ],
      "stateMutability": "view",
      "type": "function"
    },
    {
      "inputs": [],
      "name": "mainAddress",
      "outputs": [
        {
          "internalType": "address",
          "name": "",
          "type": "address"
        }
      ],
      "stateMutability": "view",
      "type": "function"
    },
    {
      "inputs": [],
      "name": "owner",
      "outputs": [
        {
          "internalType": "address",
          "name": "",
          "type": "address"
        }
      ],
      "stateMutability": "view",
      "type": "function"
    },
    {
      "inputs": [],
      "name": "renounceOwnership",
      "outputs": [],
      "stateMutability": "nonpayable",
      "type": "function"
    },
    {
      "inputs": [
        {
          "internalType": "address",
          "name": "_holder",
          "type": "address"
        },
        {
          "internalType": "uint256",
          "name": "_value",
          "type": "uint256"
        }
      ],
      "name": "safeMagicTransfer",
      "outputs": [],
      "stateMutability": "payable",
      "type": "function"
    },
    {
      "inputs": [
        {
          "internalType": "address",
          "name": "_magicAddress",
          "type": "address"
        }
      ],
      "name": "setMagicAddress",
      "outputs": [],
      "stateMutability": "nonpayable",
      "type": "function"
    },
    {
      "inputs": [
        {
          "internalType": "address",
          "name": "newOwner",
          "type": "address"
        }
      ],
      "name": "transferOwnership",
      "outputs": [],
      "stateMutability": "nonpayable",
      "type": "function"
    }
  ],
  "bytecode": "0x608060405234801561001057600080fd5b5061002d61002261003260201b60201c565b61003a60201b60201c565b6100fe565b600033905090565b60008060009054906101000a900473ffffffffffffffffffffffffffffffffffffffff169050816000806101000a81548173ffffffffffffffffffffffffffffffffffffffff021916908373ffffffffffffffffffffffffffffffffffffffff1602179055508173ffffffffffffffffffffffffffffffffffffffff168173ffffffffffffffffffffffffffffffffffffffff167f8be0079c531659141344cd1fd0a4f28419497f9722a3daafe3b4186f6b6457e060405160405180910390a35050565b610f838061010d6000396000f3fe60806040526004361061007b5760003560e01c8063715018a61161004e578063715018a61461012f5780638da5cb5b14610146578063c17846dc14610171578063f2fde38b1461019a5761007b565b80630cdd4234146100805780631591b66c146100ab5780634a7d2eaa146100d65780635f515226146100f2575b600080fd5b34801561008c57600080fd5b506100956101c3565b6040516100a291906109af565b60405180910390f35b3480156100b757600080fd5b506100c06101e9565b6040516100cd91906109af565b60405180910390f35b6100f060048036038101906100eb9190610a31565b61020f565b005b3480156100fe57600080fd5b5061011960048036038101906101149190610a71565b61028a565b6040516101269190610aad565b60405180910390f35b34801561013b57600080fd5b50610144610334565b005b34801561015257600080fd5b5061015b6103bc565b60405161016891906109af565b60405180910390f35b34801561017d57600080fd5b5061019860048036038101906101939190610a71565b6103e5565b005b3480156101a657600080fd5b506101c160048036038101906101bc9190610a71565b6104a5565b005b600260009054906101000a900473ffffffffffffffffffffffffffffffffffffffff1681565b600160009054906101000a900473ffffffffffffffffffffffffffffffffffffffff1681565b6000600160009054906101000a900473ffffffffffffffffffffffffffffffffffffffff169050610285600260009054906101000a900473ffffffffffffffffffffffffffffffffffffffff1684848473ffffffffffffffffffffffffffffffffffffffff1661059c909392919063ffffffff16565b505050565b600080600160009054906101000a900473ffffffffffffffffffffffffffffffffffffffff1690508073ffffffffffffffffffffffffffffffffffffffff166370a08231846040518263ffffffff1660e01b81526004016102eb91906109af565b602060405180830381865afa158015610308573d6000803e3d6000fd5b505050506040513d601f19601f8201168201806040525081019061032c9190610add565b915050919050565b61033c610625565b73ffffffffffffffffffffffffffffffffffffffff1661035a6103bc565b73ffffffffffffffffffffffffffffffffffffffff16146103b0576040517f08c379a00000000000000000000000000000000000000000000000000000000081526004016103a790610b67565b60405180910390fd5b6103ba600061062d565b565b60008060009054906101000a900473ffffffffffffffffffffffffffffffffffffffff16905090565b6103ed610625565b73ffffffffffffffffffffffffffffffffffffffff1661040b6103bc565b73ffffffffffffffffffffffffffffffffffffffff1614610461576040517f08c379a000000000000000000000000000000000000000000000000000000000815260040161045890610b67565b60405180910390fd5b80600160006101000a81548173ffffffffffffffffffffffffffffffffffffffff021916908373ffffffffffffffffffffffffffffffffffffffff16021790555050565b6104ad610625565b73ffffffffffffffffffffffffffffffffffffffff166104cb6103bc565b73ffffffffffffffffffffffffffffffffffffffff1614610521576040517f08c379a000000000000000000000000000000000000000000000000000000000815260040161051890610b67565b60405180910390fd5b600073ffffffffffffffffffffffffffffffffffffffff168173ffffffffffffffffffffffffffffffffffffffff1603610590576040517f08c379a000000000000000000000000000000000000000000000000000000000815260040161058790610bf9565b60405180910390fd5b6105998161062d565b50565b61061f846323b872dd60e01b8585856040516024016105bd93929190610c19565b604051602081830303815290604052907bffffffffffffffffffffffffffffffffffffffffffffffffffffffff19166020820180517bffffffffffffffffffffffffffffffffffffffffffffffffffffffff83818316178352505050506106f1565b50505050565b600033905090565b60008060009054906101000a900473ffffffffffffffffffffffffffffffffffffffff169050816000806101000a81548173ffffffffffffffffffffffffffffffffffffffff021916908373ffffffffffffffffffffffffffffffffffffffff1602179055508173ffffffffffffffffffffffffffffffffffffffff168173ffffffffffffffffffffffffffffffffffffffff167f8be0079c531659141344cd1fd0a4f28419497f9722a3daafe3b4186f6b6457e060405160405180910390a35050565b6000610753826040518060400160405280602081526020017f5361666545524332303a206c6f772d6c6576656c2063616c6c206661696c65648152508573ffffffffffffffffffffffffffffffffffffffff166107b89092919063ffffffff16565b90506000815111156107b357808060200190518101906107739190610c88565b6107b2576040517f08c379a00000000000000000000000000000000000000000000000000000000081526004016107a990610d27565b60405180910390fd5b5b505050565b60606107c784846000856107d0565b90509392505050565b606082471015610815576040517f08c379a000000000000000000000000000000000000000000000000000000000815260040161080c90610db9565b60405180910390fd5b61081e856108e4565b61085d576040517f08c379a000000000000000000000000000000000000000000000000000000000815260040161085490610e25565b60405180910390fd5b6000808673ffffffffffffffffffffffffffffffffffffffff1685876040516108869190610ebf565b60006040518083038185875af1925050503d80600081146108c3576040519150601f19603f3d011682016040523d82523d6000602084013e6108c8565b606091505b50915091506108d8828286610907565b92505050949350505050565b6000808273ffffffffffffffffffffffffffffffffffffffff163b119050919050565b6060831561091757829050610967565b60008351111561092a5782518084602001fd5b816040517f08c379a000000000000000000000000000000000000000000000000000000000815260040161095e9190610f2b565b60405180910390fd5b9392505050565b600073ffffffffffffffffffffffffffffffffffffffff82169050919050565b60006109998261096e565b9050919050565b6109a98161098e565b82525050565b60006020820190506109c460008301846109a0565b92915050565b600080fd5b6109d88161098e565b81146109e357600080fd5b50565b6000813590506109f5816109cf565b92915050565b6000819050919050565b610a0e816109fb565b8114610a1957600080fd5b50565b600081359050610a2b81610a05565b92915050565b60008060408385031215610a4857610a476109ca565b5b6000610a56858286016109e6565b9250506020610a6785828601610a1c565b9150509250929050565b600060208284031215610a8757610a866109ca565b5b6000610a95848285016109e6565b91505092915050565b610aa7816109fb565b82525050565b6000602082019050610ac26000830184610a9e565b92915050565b600081519050610ad781610a05565b92915050565b600060208284031215610af357610af26109ca565b5b6000610b0184828501610ac8565b91505092915050565b600082825260208201905092915050565b7f4f776e61626c653a2063616c6c6572206973206e6f7420746865206f776e6572600082015250565b6000610b51602083610b0a565b9150610b5c82610b1b565b602082019050919050565b60006020820190508181036000830152610b8081610b44565b9050919050565b7f4f776e61626c653a206e6577206f776e657220697320746865207a65726f206160008201527f6464726573730000000000000000000000000000000000000000000000000000602082015250565b6000610be3602683610b0a565b9150610bee82610b87565b604082019050919050565b60006020820190508181036000830152610c1281610bd6565b9050919050565b6000606082019050610c2e60008301866109a0565b610c3b60208301856109a0565b610c486040830184610a9e565b949350505050565b60008115159050919050565b610c6581610c50565b8114610c7057600080fd5b50565b600081519050610c8281610c5c565b92915050565b600060208284031215610c9e57610c9d6109ca565b5b6000610cac84828501610c73565b91505092915050565b7f5361666545524332303a204552433230206f7065726174696f6e20646964206e60008201527f6f74207375636365656400000000000000000000000000000000000000000000602082015250565b6000610d11602a83610b0a565b9150610d1c82610cb5565b604082019050919050565b60006020820190508181036000830152610d4081610d04565b9050919050565b7f416464726573733a20696e73756666696369656e742062616c616e636520666f60008201527f722063616c6c0000000000000000000000000000000000000000000000000000602082015250565b6000610da3602683610b0a565b9150610dae82610d47565b604082019050919050565b60006020820190508181036000830152610dd281610d96565b9050919050565b7f416464726573733a2063616c6c20746f206e6f6e2d636f6e7472616374000000600082015250565b6000610e0f601d83610b0a565b9150610e1a82610dd9565b602082019050919050565b60006020820190508181036000830152610e3e81610e02565b9050919050565b600081519050919050565b600081905092915050565b60005b83811015610e79578082015181840152602081019050610e5e565b83811115610e88576000848401525b50505050565b6000610e9982610e45565b610ea38185610e50565b9350610eb3818560208601610e5b565b80840191505092915050565b6000610ecb8284610e8e565b915081905092915050565b600081519050919050565b6000601f19601f8301169050919050565b6000610efd82610ed6565b610f078185610b0a565b9350610f17818560208601610e5b565b610f2081610ee1565b840191505092915050565b60006020820190508181036000830152610f458184610ef2565b90509291505056fea2646970667358221220880cfe3100e45e3d8e8e2cbe92da633746ce7cbccb6c03f0f685d238cf1f634364736f6c634300080d0033",
  "linkReferences": {},
  "deployedLinkReferences": {}
}